{
	"contracts/Auction.sol": {
		"Auction": {
			"abi": [
				{
					"inputs": [
						{
							"internalType": "uint256",
							"name": "_bidGap",
							"type": "uint256"
						},
						{
							"internalType": "uint256",
							"name": "_gasCommissionPercentage",
							"type": "uint256"
						},
						{
							"internalType": "uint256",
							"name": "_durationInMinutes",
							"type": "uint256"
						},
						{
							"internalType": "uint256",
							"name": "_bidExtensionTimeInMinutes",
							"type": "uint256"
						},
						{
							"internalType": "uint256",
							"name": "_bidExtensionZoneInMinutes",
							"type": "uint256"
						},
						{
							"internalType": "address",
							"name": "_seller",
							"type": "address"
						}
					],
					"stateMutability": "nonpayable",
					"type": "constructor"
				},
				{
					"anonymous": false,
					"inputs": [
						{
							"components": [
								{
									"internalType": "address",
									"name": "bidder",
									"type": "address"
								},
								{
									"internalType": "uint256",
									"name": "amount",
									"type": "uint256"
								}
							],
							"indexed": false,
							"internalType": "struct Auction.Bid",
							"name": "winnerBid",
							"type": "tuple"
						}
					],
					"name": "AuctionEnded",
					"type": "event"
				},
				{
					"anonymous": false,
					"inputs": [
						{
							"indexed": true,
							"internalType": "address",
							"name": "sender",
							"type": "address"
						},
						{
							"indexed": false,
							"internalType": "uint256",
							"name": "value",
							"type": "uint256"
						}
					],
					"name": "NewOffer",
					"type": "event"
				},
				{
					"inputs": [],
					"name": "EndAuction",
					"outputs": [],
					"stateMutability": "nonpayable",
					"type": "function"
				},
				{
					"inputs": [],
					"name": "MakeABid",
					"outputs": [],
					"stateMutability": "payable",
					"type": "function"
				},
				{
					"inputs": [],
					"name": "PartialRefund",
					"outputs": [],
					"stateMutability": "nonpayable",
					"type": "function"
				},
				{
					"inputs": [],
					"name": "bidGap",
					"outputs": [
						{
							"internalType": "uint256",
							"name": "",
							"type": "uint256"
						}
					],
					"stateMutability": "view",
					"type": "function"
				},
				{
					"inputs": [],
					"name": "finishDate",
					"outputs": [
						{
							"internalType": "uint256",
							"name": "",
							"type": "uint256"
						}
					],
					"stateMutability": "view",
					"type": "function"
				},
				{
					"inputs": [],
					"name": "gasCommissionPercentage",
					"outputs": [
						{
							"internalType": "uint256",
							"name": "",
							"type": "uint256"
						}
					],
					"stateMutability": "view",
					"type": "function"
				},
				{
					"inputs": [],
					"name": "getAllBids",
					"outputs": [
						{
							"components": [
								{
									"internalType": "address",
									"name": "bidder",
									"type": "address"
								},
								{
									"internalType": "uint256",
									"name": "amount",
									"type": "uint256"
								}
							],
							"internalType": "struct Auction.Bid[]",
							"name": "",
							"type": "tuple[]"
						}
					],
					"stateMutability": "view",
					"type": "function"
				},
				{
					"inputs": [],
					"name": "getWinner",
					"outputs": [
						{
							"components": [
								{
									"internalType": "address",
									"name": "bidder",
									"type": "address"
								},
								{
									"internalType": "uint256",
									"name": "amount",
									"type": "uint256"
								}
							],
							"internalType": "struct Auction.Bid",
							"name": "",
							"type": "tuple"
						}
					],
					"stateMutability": "view",
					"type": "function"
				},
				{
					"inputs": [],
					"name": "initDate",
					"outputs": [
						{
							"internalType": "uint256",
							"name": "",
							"type": "uint256"
						}
					],
					"stateMutability": "view",
					"type": "function"
				},
				{
					"inputs": [],
					"name": "owner",
					"outputs": [
						{
							"internalType": "address",
							"name": "",
							"type": "address"
						}
					],
					"stateMutability": "view",
					"type": "function"
				},
				{
					"inputs": [],
					"name": "seller",
					"outputs": [
						{
							"internalType": "address",
							"name": "",
							"type": "address"
						}
					],
					"stateMutability": "view",
					"type": "function"
				}
			],
			"devdoc": {
				"kind": "dev",
				"methods": {},
				"version": 1
			},
			"evm": {
				"assembly": "    /* \"contracts/Auction.sol\":63:8001  contract Auction{... */\n  mstore(0x40, 0x80)\n    /* \"contracts/Auction.sol\":180:184  true */\n  0x01\n    /* \"contracts/Auction.sol\":166:184  bool active = true */\n  0x00\n  exp(0x0100, 0x00)\n  dup2\n  sload\n  dup2\n  0xff\n  mul\n  not\n  and\n  swap1\n  dup4\n  iszero\n  iszero\n  mul\n  or\n  swap1\n  sstore\n  pop\n    /* \"contracts/Auction.sol\":986:2142  constructor (   uint256 _bidGap, ... */\n  callvalue\n  dup1\n  iszero\n  tag_1\n  jumpi\n  revert(0x00, 0x00)\ntag_1:\n  pop\n  mload(0x40)\n  sub(codesize, bytecodeSize)\n  dup1\n  bytecodeSize\n  dup4\n  codecopy\n  dup2\n  dup2\n  add\n  0x40\n  mstore\n  dup2\n  add\n  swap1\n  tag_2\n  swap2\n  swap1\n  tag_3\n  jump\t// in\ntag_2:\n    /* \"contracts/Auction.sol\":1321:1328  _seller */\n  dup1\n    /* \"contracts/Auction.sol\":1312:1318  seller */\n  0x00\n  0x01\n    /* \"contracts/Auction.sol\":1312:1328  seller = _seller */\n  0x0100\n  exp\n  dup2\n  sload\n  dup2\n  0xffffffffffffffffffffffffffffffffffffffff\n  mul\n  not\n  and\n  swap1\n  dup4\n  0xffffffffffffffffffffffffffffffffffffffff\n  and\n  mul\n  or\n  swap1\n  sstore\n  pop\n    /* \"contracts/Auction.sol\":1347:1357  msg.sender */\n  caller\n    /* \"contracts/Auction.sol\":1339:1344  owner */\n  0x01\n  0x00\n    /* \"contracts/Auction.sol\":1339:1357  owner = msg.sender */\n  0x0100\n  exp\n  dup2\n  sload\n  dup2\n  0xffffffffffffffffffffffffffffffffffffffff\n  mul\n  not\n  and\n  swap1\n  dup4\n  0xffffffffffffffffffffffffffffffffffffffff\n  and\n  mul\n  or\n  swap1\n  sstore\n  pop\n    /* \"contracts/Auction.sol\":1389:1390  0 */\n  0x00\n    /* \"contracts/Auction.sol\":1378:1385  _bidGap */\n  dup7\n    /* \"contracts/Auction.sol\":1378:1390  _bidGap == 0 */\n  eq\n    /* \"contracts/Auction.sol\":1377:1405  (_bidGap == 0) ? 5 : _bidGap */\n  tag_6\n  jumpi\n    /* \"contracts/Auction.sol\":1398:1405  _bidGap */\n  dup6\n    /* \"contracts/Auction.sol\":1377:1405  (_bidGap == 0) ? 5 : _bidGap */\n  jump(tag_7)\ntag_6:\n    /* \"contracts/Auction.sol\":1394:1395  5 */\n  0x05\n    /* \"contracts/Auction.sol\":1377:1405  (_bidGap == 0) ? 5 : _bidGap */\ntag_7:\n    /* \"contracts/Auction.sol\":1368:1374  bidGap */\n  0x02\n    /* \"contracts/Auction.sol\":1368:1405  bidGap = (_bidGap == 0) ? 5 : _bidGap */\n  dup2\n  swap1\n  sstore\n  pop\n    /* \"contracts/Auction.sol\":1552:1553  0 */\n  0x00\n    /* \"contracts/Auction.sol\":1524:1548  _gasCommissionPercentage */\n  dup6\n    /* \"contracts/Auction.sol\":1524:1553  _gasCommissionPercentage == 0 */\n  eq\n    /* \"contracts/Auction.sol\":1523:1585  (_gasCommissionPercentage == 0) ? 2 : _gasCommissionPercentage */\n  tag_8\n  jumpi\n    /* \"contracts/Auction.sol\":1561:1585  _gasCommissionPercentage */\n  dup5\n    /* \"contracts/Auction.sol\":1523:1585  (_gasCommissionPercentage == 0) ? 2 : _gasCommissionPercentage */\n  jump(tag_9)\ntag_8:\n    /* \"contracts/Auction.sol\":1557:1558  2 */\n  0x02\n    /* \"contracts/Auction.sol\":1523:1585  (_gasCommissionPercentage == 0) ? 2 : _gasCommissionPercentage */\ntag_9:\n    /* \"contracts/Auction.sol\":1497:1520  gasCommissionPercentage */\n  0x03\n    /* \"contracts/Auction.sol\":1497:1585  gasCommissionPercentage = (_gasCommissionPercentage == 0) ? 2 : _gasCommissionPercentage */\n  dup2\n  swap1\n  sstore\n  pop\n    /* \"contracts/Auction.sol\":1692:1693  0 */\n  0x00\n    /* \"contracts/Auction.sol\":1662:1688  _bidExtensionTimeInMinutes */\n  dup4\n    /* \"contracts/Auction.sol\":1662:1693  _bidExtensionTimeInMinutes == 0 */\n  eq\n    /* \"contracts/Auction.sol\":1661:1734  (_bidExtensionTimeInMinutes == 0) ? 600 : (_bidExtensionTimeInMinutes*60) */\n  tag_10\n  jumpi\n    /* \"contracts/Auction.sol\":1731:1733  60 */\n  0x3c\n    /* \"contracts/Auction.sol\":1704:1730  _bidExtensionTimeInMinutes */\n  dup4\n    /* \"contracts/Auction.sol\":1704:1733  _bidExtensionTimeInMinutes*60 */\n  tag_11\n  swap2\n  swap1\n  tag_12\n  jump\t// in\ntag_11:\n    /* \"contracts/Auction.sol\":1661:1734  (_bidExtensionTimeInMinutes == 0) ? 600 : (_bidExtensionTimeInMinutes*60) */\n  jump(tag_13)\ntag_10:\n    /* \"contracts/Auction.sol\":1697:1700  600 */\n  0x0258\n    /* \"contracts/Auction.sol\":1661:1734  (_bidExtensionTimeInMinutes == 0) ? 600 : (_bidExtensionTimeInMinutes*60) */\ntag_13:\n    /* \"contracts/Auction.sol\":1642:1658  bidExtensionTime */\n  0x06\n    /* \"contracts/Auction.sol\":1642:1734  bidExtensionTime = (_bidExtensionTimeInMinutes == 0) ? 600 : (_bidExtensionTimeInMinutes*60) */\n  dup2\n  swap1\n  sstore\n  pop\n    /* \"contracts/Auction.sol\":1846:1847  0 */\n  0x00\n    /* \"contracts/Auction.sol\":1816:1842  _bidExtensionZoneInMinutes */\n  dup3\n    /* \"contracts/Auction.sol\":1816:1847  _bidExtensionZoneInMinutes == 0 */\n  eq\n    /* \"contracts/Auction.sol\":1815:1888  (_bidExtensionZoneInMinutes == 0) ? 600 : (_bidExtensionZoneInMinutes*60) */\n  tag_14\n  jumpi\n    /* \"contracts/Auction.sol\":1885:1887  60 */\n  0x3c\n    /* \"contracts/Auction.sol\":1858:1884  _bidExtensionZoneInMinutes */\n  dup3\n    /* \"contracts/Auction.sol\":1858:1887  _bidExtensionZoneInMinutes*60 */\n  tag_15\n  swap2\n  swap1\n  tag_12\n  jump\t// in\ntag_15:\n    /* \"contracts/Auction.sol\":1815:1888  (_bidExtensionZoneInMinutes == 0) ? 600 : (_bidExtensionZoneInMinutes*60) */\n  jump(tag_16)\ntag_14:\n    /* \"contracts/Auction.sol\":1851:1854  600 */\n  0x0258\n    /* \"contracts/Auction.sol\":1815:1888  (_bidExtensionZoneInMinutes == 0) ? 600 : (_bidExtensionZoneInMinutes*60) */\ntag_16:\n    /* \"contracts/Auction.sol\":1796:1812  bidExtensionZone */\n  0x07\n    /* \"contracts/Auction.sol\":1796:1888  bidExtensionZone = (_bidExtensionZoneInMinutes == 0) ? 600 : (_bidExtensionZoneInMinutes*60) */\n  dup2\n  swap1\n  sstore\n  pop\n    /* \"contracts/Auction.sol\":1990:1991  1 */\n  0x01\n    /* \"contracts/Auction.sol\":1968:1986  _durationInMinutes */\n  dup5\n    /* \"contracts/Auction.sol\":1968:1991  _durationInMinutes >= 1 */\n  lt\n  iszero\n    /* \"contracts/Auction.sol\":1960:2029  require(_durationInMinutes >= 1,\"Duration must be at least 1 minute\") */\n  tag_17\n  jumpi\n  mload(0x40)\n  0x08c379a000000000000000000000000000000000000000000000000000000000\n  dup2\n  mstore\n  0x04\n  add\n  tag_18\n  swap1\n  tag_19\n  jump\t// in\ntag_18:\n  mload(0x40)\n  dup1\n  swap2\n  sub\n  swap1\n  revert\ntag_17:\n    /* \"contracts/Auction.sol\":2053:2068  block.timestamp */\n  timestamp\n    /* \"contracts/Auction.sol\":2042:2050  initDate */\n  0x04\n    /* \"contracts/Auction.sol\":2042:2068  initDate = block.timestamp */\n  dup2\n  swap1\n  sstore\n  pop\n    /* \"contracts/Auction.sol\":2122:2124  60 */\n  0x3c\n    /* \"contracts/Auction.sol\":2103:2121  _durationInMinutes */\n  dup5\n    /* \"contracts/Auction.sol\":2103:2124  _durationInMinutes*60 */\n  tag_20\n  swap2\n  swap1\n  tag_12\n  jump\t// in\ntag_20:\n    /* \"contracts/Auction.sol\":2092:2100  initDate */\n  sload(0x04)\n    /* \"contracts/Auction.sol\":2092:2124  initDate + _durationInMinutes*60 */\n  tag_21\n  swap2\n  swap1\n  tag_22\n  jump\t// in\ntag_21:\n    /* \"contracts/Auction.sol\":2079:2089  finishDate */\n  0x05\n    /* \"contracts/Auction.sol\":2079:2124  finishDate = initDate + _durationInMinutes*60 */\n  dup2\n  swap1\n  sstore\n  pop\n    /* \"contracts/Auction.sol\":986:2142  constructor (   uint256 _bidGap, ... */\n  pop\n  pop\n  pop\n  pop\n  pop\n  pop\n    /* \"contracts/Auction.sol\":63:8001  contract Auction{... */\n  jump(tag_23)\n    /* \"#utility.yul\":88:205   */\ntag_25:\n    /* \"#utility.yul\":197:198   */\n  0x00\n    /* \"#utility.yul\":194:195   */\n  0x00\n    /* \"#utility.yul\":187:199   */\n  revert\n    /* \"#utility.yul\":334:411   */\ntag_27:\n    /* \"#utility.yul\":371:378   */\n  0x00\n    /* \"#utility.yul\":400:405   */\n  dup2\n    /* \"#utility.yul\":389:405   */\n  swap1\n  pop\n    /* \"#utility.yul\":334:411   */\n  swap2\n  swap1\n  pop\n  jump\t// out\n    /* \"#utility.yul\":417:539   */\ntag_28:\n    /* \"#utility.yul\":490:514   */\n  tag_44\n    /* \"#utility.yul\":508:513   */\n  dup2\n    /* \"#utility.yul\":490:514   */\n  tag_27\n  jump\t// in\ntag_44:\n    /* \"#utility.yul\":483:488   */\n  dup2\n    /* \"#utility.yul\":480:515   */\n  eq\n    /* \"#utility.yul\":470:533   */\n  tag_45\n  jumpi\n    /* \"#utility.yul\":529:530   */\n  0x00\n    /* \"#utility.yul\":526:527   */\n  0x00\n    /* \"#utility.yul\":519:531   */\n  revert\n    /* \"#utility.yul\":470:533   */\ntag_45:\n    /* \"#utility.yul\":417:539   */\n  pop\n  jump\t// out\n    /* \"#utility.yul\":545:688   */\ntag_29:\n    /* \"#utility.yul\":602:607   */\n  0x00\n    /* \"#utility.yul\":633:639   */\n  dup2\n    /* \"#utility.yul\":627:640   */\n  mload\n    /* \"#utility.yul\":618:640   */\n  swap1\n  pop\n    /* \"#utility.yul\":649:682   */\n  tag_47\n    /* \"#utility.yul\":676:681   */\n  dup2\n    /* \"#utility.yul\":649:682   */\n  tag_28\n  jump\t// in\ntag_47:\n    /* \"#utility.yul\":545:688   */\n  swap3\n  swap2\n  pop\n  pop\n  jump\t// out\n    /* \"#utility.yul\":694:820   */\ntag_30:\n    /* \"#utility.yul\":731:738   */\n  0x00\n    /* \"#utility.yul\":771:813   */\n  0xffffffffffffffffffffffffffffffffffffffff\n    /* \"#utility.yul\":764:769   */\n  dup3\n    /* \"#utility.yul\":760:814   */\n  and\n    /* \"#utility.yul\":749:814   */\n  swap1\n  pop\n    /* \"#utility.yul\":694:820   */\n  swap2\n  swap1\n  pop\n  jump\t// out\n    /* \"#utility.yul\":826:922   */\ntag_31:\n    /* \"#utility.yul\":863:870   */\n  0x00\n    /* \"#utility.yul\":892:916   */\n  tag_50\n    /* \"#utility.yul\":910:915   */\n  dup3\n    /* \"#utility.yul\":892:916   */\n  tag_30\n  jump\t// in\ntag_50:\n    /* \"#utility.yul\":881:916   */\n  swap1\n  pop\n    /* \"#utility.yul\":826:922   */\n  swap2\n  swap1\n  pop\n  jump\t// out\n    /* \"#utility.yul\":928:1050   */\ntag_32:\n    /* \"#utility.yul\":1001:1025   */\n  tag_52\n    /* \"#utility.yul\":1019:1024   */\n  dup2\n    /* \"#utility.yul\":1001:1025   */\n  tag_31\n  jump\t// in\ntag_52:\n    /* \"#utility.yul\":994:999   */\n  dup2\n    /* \"#utility.yul\":991:1026   */\n  eq\n    /* \"#utility.yul\":981:1044   */\n  tag_53\n  jumpi\n    /* \"#utility.yul\":1040:1041   */\n  0x00\n    /* \"#utility.yul\":1037:1038   */\n  0x00\n    /* \"#utility.yul\":1030:1042   */\n  revert\n    /* \"#utility.yul\":981:1044   */\ntag_53:\n    /* \"#utility.yul\":928:1050   */\n  pop\n  jump\t// out\n    /* \"#utility.yul\":1056:1199   */\ntag_33:\n    /* \"#utility.yul\":1113:1118   */\n  0x00\n    /* \"#utility.yul\":1144:1150   */\n  dup2\n    /* \"#utility.yul\":1138:1151   */\n  mload\n    /* \"#utility.yul\":1129:1151   */\n  swap1\n  pop\n    /* \"#utility.yul\":1160:1193   */\n  tag_55\n    /* \"#utility.yul\":1187:1192   */\n  dup2\n    /* \"#utility.yul\":1160:1193   */\n  tag_32\n  jump\t// in\ntag_55:\n    /* \"#utility.yul\":1056:1199   */\n  swap3\n  swap2\n  pop\n  pop\n  jump\t// out\n    /* \"#utility.yul\":1205:2339   */\ntag_3:\n    /* \"#utility.yul\":1320:1326   */\n  0x00\n    /* \"#utility.yul\":1328:1334   */\n  0x00\n    /* \"#utility.yul\":1336:1342   */\n  0x00\n    /* \"#utility.yul\":1344:1350   */\n  0x00\n    /* \"#utility.yul\":1352:1358   */\n  0x00\n    /* \"#utility.yul\":1360:1366   */\n  0x00\n    /* \"#utility.yul\":1409:1412   */\n  0xc0\n    /* \"#utility.yul\":1397:1406   */\n  dup8\n    /* \"#utility.yul\":1388:1395   */\n  dup10\n    /* \"#utility.yul\":1384:1407   */\n  sub\n    /* \"#utility.yul\":1380:1413   */\n  slt\n    /* \"#utility.yul\":1377:1497   */\n  iszero\n  tag_57\n  jumpi\n    /* \"#utility.yul\":1416:1495   */\n  tag_58\n  tag_25\n  jump\t// in\ntag_58:\n    /* \"#utility.yul\":1377:1497   */\ntag_57:\n    /* \"#utility.yul\":1536:1537   */\n  0x00\n    /* \"#utility.yul\":1561:1625   */\n  tag_59\n    /* \"#utility.yul\":1617:1624   */\n  dup10\n    /* \"#utility.yul\":1608:1614   */\n  dup3\n    /* \"#utility.yul\":1597:1606   */\n  dup11\n    /* \"#utility.yul\":1593:1615   */\n  add\n    /* \"#utility.yul\":1561:1625   */\n  tag_29\n  jump\t// in\ntag_59:\n    /* \"#utility.yul\":1551:1625   */\n  swap7\n  pop\n    /* \"#utility.yul\":1507:1635   */\n  pop\n    /* \"#utility.yul\":1674:1676   */\n  0x20\n    /* \"#utility.yul\":1700:1764   */\n  tag_60\n    /* \"#utility.yul\":1756:1763   */\n  dup10\n    /* \"#utility.yul\":1747:1753   */\n  dup3\n    /* \"#utility.yul\":1736:1745   */\n  dup11\n    /* \"#utility.yul\":1732:1754   */\n  add\n    /* \"#utility.yul\":1700:1764   */\n  tag_29\n  jump\t// in\ntag_60:\n    /* \"#utility.yul\":1690:1764   */\n  swap6\n  pop\n    /* \"#utility.yul\":1645:1774   */\n  pop\n    /* \"#utility.yul\":1813:1815   */\n  0x40\n    /* \"#utility.yul\":1839:1903   */\n  tag_61\n    /* \"#utility.yul\":1895:1902   */\n  dup10\n    /* \"#utility.yul\":1886:1892   */\n  dup3\n    /* \"#utility.yul\":1875:1884   */\n  dup11\n    /* \"#utility.yul\":1871:1893   */\n  add\n    /* \"#utility.yul\":1839:1903   */\n  tag_29\n  jump\t// in\ntag_61:\n    /* \"#utility.yul\":1829:1903   */\n  swap5\n  pop\n    /* \"#utility.yul\":1784:1913   */\n  pop\n    /* \"#utility.yul\":1952:1954   */\n  0x60\n    /* \"#utility.yul\":1978:2042   */\n  tag_62\n    /* \"#utility.yul\":2034:2041   */\n  dup10\n    /* \"#utility.yul\":2025:2031   */\n  dup3\n    /* \"#utility.yul\":2014:2023   */\n  dup11\n    /* \"#utility.yul\":2010:2032   */\n  add\n    /* \"#utility.yul\":1978:2042   */\n  tag_29\n  jump\t// in\ntag_62:\n    /* \"#utility.yul\":1968:2042   */\n  swap4\n  pop\n    /* \"#utility.yul\":1923:2052   */\n  pop\n    /* \"#utility.yul\":2091:2094   */\n  0x80\n    /* \"#utility.yul\":2118:2182   */\n  tag_63\n    /* \"#utility.yul\":2174:2181   */\n  dup10\n    /* \"#utility.yul\":2165:2171   */\n  dup3\n    /* \"#utility.yul\":2154:2163   */\n  dup11\n    /* \"#utility.yul\":2150:2172   */\n  add\n    /* \"#utility.yul\":2118:2182   */\n  tag_29\n  jump\t// in\ntag_63:\n    /* \"#utility.yul\":2108:2182   */\n  swap3\n  pop\n    /* \"#utility.yul\":2062:2192   */\n  pop\n    /* \"#utility.yul\":2231:2234   */\n  0xa0\n    /* \"#utility.yul\":2258:2322   */\n  tag_64\n    /* \"#utility.yul\":2314:2321   */\n  dup10\n    /* \"#utility.yul\":2305:2311   */\n  dup3\n    /* \"#utility.yul\":2294:2303   */\n  dup11\n    /* \"#utility.yul\":2290:2312   */\n  add\n    /* \"#utility.yul\":2258:2322   */\n  tag_33\n  jump\t// in\ntag_64:\n    /* \"#utility.yul\":2248:2322   */\n  swap2\n  pop\n    /* \"#utility.yul\":2202:2332   */\n  pop\n    /* \"#utility.yul\":1205:2339   */\n  swap3\n  swap6\n  pop\n  swap3\n  swap6\n  pop\n  swap3\n  swap6\n  jump\t// out\n    /* \"#utility.yul\":2345:2525   */\ntag_34:\n    /* \"#utility.yul\":2393:2470   */\n  0x4e487b7100000000000000000000000000000000000000000000000000000000\n    /* \"#utility.yul\":2390:2391   */\n  0x00\n    /* \"#utility.yul\":2383:2471   */\n  mstore\n    /* \"#utility.yul\":2490:2494   */\n  0x11\n    /* \"#utility.yul\":2487:2488   */\n  0x04\n    /* \"#utility.yul\":2480:2495   */\n  mstore\n    /* \"#utility.yul\":2514:2518   */\n  0x24\n    /* \"#utility.yul\":2511:2512   */\n  0x00\n    /* \"#utility.yul\":2504:2519   */\n  revert\n    /* \"#utility.yul\":2531:2941   */\ntag_12:\n    /* \"#utility.yul\":2571:2578   */\n  0x00\n    /* \"#utility.yul\":2594:2614   */\n  tag_67\n    /* \"#utility.yul\":2612:2613   */\n  dup3\n    /* \"#utility.yul\":2594:2614   */\n  tag_27\n  jump\t// in\ntag_67:\n    /* \"#utility.yul\":2589:2614   */\n  swap2\n  pop\n    /* \"#utility.yul\":2628:2648   */\n  tag_68\n    /* \"#utility.yul\":2646:2647   */\n  dup4\n    /* \"#utility.yul\":2628:2648   */\n  tag_27\n  jump\t// in\ntag_68:\n    /* \"#utility.yul\":2623:2648   */\n  swap3\n  pop\n    /* \"#utility.yul\":2683:2684   */\n  dup3\n    /* \"#utility.yul\":2680:2681   */\n  dup3\n    /* \"#utility.yul\":2676:2685   */\n  mul\n    /* \"#utility.yul\":2705:2735   */\n  tag_69\n    /* \"#utility.yul\":2723:2734   */\n  dup2\n    /* \"#utility.yul\":2705:2735   */\n  tag_27\n  jump\t// in\ntag_69:\n    /* \"#utility.yul\":2694:2735   */\n  swap2\n  pop\n    /* \"#utility.yul\":2884:2885   */\n  dup3\n    /* \"#utility.yul\":2875:2882   */\n  dup3\n    /* \"#utility.yul\":2871:2886   */\n  div\n    /* \"#utility.yul\":2868:2869   */\n  dup5\n    /* \"#utility.yul\":2865:2887   */\n  eq\n    /* \"#utility.yul\":2845:2846   */\n  dup4\n    /* \"#utility.yul\":2838:2847   */\n  iszero\n    /* \"#utility.yul\":2818:2901   */\n  or\n    /* \"#utility.yul\":2795:2934   */\n  tag_70\n  jumpi\n    /* \"#utility.yul\":2914:2932   */\n  tag_71\n  tag_34\n  jump\t// in\ntag_71:\n    /* \"#utility.yul\":2795:2934   */\ntag_70:\n    /* \"#utility.yul\":2579:2941   */\n  pop\n    /* \"#utility.yul\":2531:2941   */\n  swap3\n  swap2\n  pop\n  pop\n  jump\t// out\n    /* \"#utility.yul\":2947:3116   */\ntag_35:\n    /* \"#utility.yul\":3031:3042   */\n  0x00\n    /* \"#utility.yul\":3065:3071   */\n  dup3\n    /* \"#utility.yul\":3060:3063   */\n  dup3\n    /* \"#utility.yul\":3053:3072   */\n  mstore\n    /* \"#utility.yul\":3105:3109   */\n  0x20\n    /* \"#utility.yul\":3100:3103   */\n  dup3\n    /* \"#utility.yul\":3096:3110   */\n  add\n    /* \"#utility.yul\":3081:3110   */\n  swap1\n  pop\n    /* \"#utility.yul\":2947:3116   */\n  swap3\n  swap2\n  pop\n  pop\n  jump\t// out\n    /* \"#utility.yul\":3122:3343   */\ntag_36:\n    /* \"#utility.yul\":3262:3296   */\n  0x4475726174696f6e206d757374206265206174206c656173742031206d696e75\n    /* \"#utility.yul\":3258:3259   */\n  0x00\n    /* \"#utility.yul\":3250:3256   */\n  dup3\n    /* \"#utility.yul\":3246:3260   */\n  add\n    /* \"#utility.yul\":3239:3297   */\n  mstore\n    /* \"#utility.yul\":3331:3335   */\n  0x7465000000000000000000000000000000000000000000000000000000000000\n    /* \"#utility.yul\":3326:3328   */\n  0x20\n    /* \"#utility.yul\":3318:3324   */\n  dup3\n    /* \"#utility.yul\":3314:3329   */\n  add\n    /* \"#utility.yul\":3307:3336   */\n  mstore\n    /* \"#utility.yul\":3122:3343   */\n  pop\n  jump\t// out\n    /* \"#utility.yul\":3349:3715   */\ntag_37:\n    /* \"#utility.yul\":3491:3494   */\n  0x00\n    /* \"#utility.yul\":3512:3579   */\n  tag_75\n    /* \"#utility.yul\":3576:3578   */\n  0x22\n    /* \"#utility.yul\":3571:3574   */\n  dup4\n    /* \"#utility.yul\":3512:3579   */\n  tag_35\n  jump\t// in\ntag_75:\n    /* \"#utility.yul\":3505:3579   */\n  swap2\n  pop\n    /* \"#utility.yul\":3588:3681   */\n  tag_76\n    /* \"#utility.yul\":3677:3680   */\n  dup3\n    /* \"#utility.yul\":3588:3681   */\n  tag_36\n  jump\t// in\ntag_76:\n    /* \"#utility.yul\":3706:3708   */\n  0x40\n    /* \"#utility.yul\":3701:3704   */\n  dup3\n    /* \"#utility.yul\":3697:3709   */\n  add\n    /* \"#utility.yul\":3690:3709   */\n  swap1\n  pop\n    /* \"#utility.yul\":3349:3715   */\n  swap2\n  swap1\n  pop\n  jump\t// out\n    /* \"#utility.yul\":3721:4140   */\ntag_19:\n    /* \"#utility.yul\":3887:3891   */\n  0x00\n    /* \"#utility.yul\":3925:3927   */\n  0x20\n    /* \"#utility.yul\":3914:3923   */\n  dup3\n    /* \"#utility.yul\":3910:3928   */\n  add\n    /* \"#utility.yul\":3902:3928   */\n  swap1\n  pop\n    /* \"#utility.yul\":3974:3983   */\n  dup2\n    /* \"#utility.yul\":3968:3972   */\n  dup2\n    /* \"#utility.yul\":3964:3984   */\n  sub\n    /* \"#utility.yul\":3960:3961   */\n  0x00\n    /* \"#utility.yul\":3949:3958   */\n  dup4\n    /* \"#utility.yul\":3945:3962   */\n  add\n    /* \"#utility.yul\":3938:3985   */\n  mstore\n    /* \"#utility.yul\":4002:4133   */\n  tag_78\n    /* \"#utility.yul\":4128:4132   */\n  dup2\n    /* \"#utility.yul\":4002:4133   */\n  tag_37\n  jump\t// in\ntag_78:\n    /* \"#utility.yul\":3994:4133   */\n  swap1\n  pop\n    /* \"#utility.yul\":3721:4140   */\n  swap2\n  swap1\n  pop\n  jump\t// out\n    /* \"#utility.yul\":4146:4337   */\ntag_22:\n    /* \"#utility.yul\":4186:4189   */\n  0x00\n    /* \"#utility.yul\":4205:4225   */\n  tag_80\n    /* \"#utility.yul\":4223:4224   */\n  dup3\n    /* \"#utility.yul\":4205:4225   */\n  tag_27\n  jump\t// in\ntag_80:\n    /* \"#utility.yul\":4200:4225   */\n  swap2\n  pop\n    /* \"#utility.yul\":4239:4259   */\n  tag_81\n    /* \"#utility.yul\":4257:4258   */\n  dup4\n    /* \"#utility.yul\":4239:4259   */\n  tag_27\n  jump\t// in\ntag_81:\n    /* \"#utility.yul\":4234:4259   */\n  swap3\n  pop\n    /* \"#utility.yul\":4282:4283   */\n  dup3\n    /* \"#utility.yul\":4279:4280   */\n  dup3\n    /* \"#utility.yul\":4275:4284   */\n  add\n    /* \"#utility.yul\":4268:4284   */\n  swap1\n  pop\n    /* \"#utility.yul\":4303:4306   */\n  dup1\n    /* \"#utility.yul\":4300:4301   */\n  dup3\n    /* \"#utility.yul\":4297:4307   */\n  gt\n    /* \"#utility.yul\":4294:4330   */\n  iszero\n  tag_82\n  jumpi\n    /* \"#utility.yul\":4310:4328   */\n  tag_83\n  tag_34\n  jump\t// in\ntag_83:\n    /* \"#utility.yul\":4294:4330   */\ntag_82:\n    /* \"#utility.yul\":4146:4337   */\n  swap3\n  swap2\n  pop\n  pop\n  jump\t// out\n    /* \"contracts/Auction.sol\":63:8001  contract Auction{... */\ntag_23:\n  dataSize(sub_0)\n  dup1\n  dataOffset(sub_0)\n  0x00\n  codecopy\n  0x00\n  return\nstop\n\nsub_0: assembly {\n        /* \"contracts/Auction.sol\":63:8001  contract Auction{... */\n      mstore(0x40, 0x80)\n      jumpi(tag_1, lt(calldatasize, 0x04))\n      shr(0xe0, calldataload(0x00))\n      dup1\n      0x8da5cb5b\n      gt\n      tag_13\n      jumpi\n      dup1\n      0x8da5cb5b\n      eq\n      tag_7\n      jumpi\n      dup1\n      0x8e7ea5b2\n      eq\n      tag_8\n      jumpi\n      dup1\n      0xb0051dab\n      eq\n      tag_9\n      jumpi\n      dup1\n      0xe76320de\n      eq\n      tag_10\n      jumpi\n      dup1\n      0xf400a3d7\n      eq\n      tag_11\n      jumpi\n      dup1\n      0xffa68839\n      eq\n      tag_12\n      jumpi\n      jump(tag_1)\n    tag_13:\n      dup1\n      0x08551a53\n      eq\n      tag_2\n      jumpi\n      dup1\n      0x4dd40dd5\n      eq\n      tag_3\n      jumpi\n      dup1\n      0x6a7798ee\n      eq\n      tag_4\n      jumpi\n      dup1\n      0x837b2779\n      eq\n      tag_5\n      jumpi\n      dup1\n      0x8d0f6da3\n      eq\n      tag_6\n      jumpi\n    tag_1:\n      revert(0x00, 0x00)\n        /* \"contracts/Auction.sol\":223:244  address public seller */\n    tag_2:\n      callvalue\n      dup1\n      iszero\n      tag_14\n      jumpi\n      revert(0x00, 0x00)\n    tag_14:\n      pop\n      tag_15\n      tag_16\n      jump\t// in\n    tag_15:\n      mload(0x40)\n      tag_17\n      swap2\n      swap1\n      tag_18\n      jump\t// in\n    tag_17:\n      mload(0x40)\n      dup1\n      swap2\n      sub\n      swap1\n      return\n        /* \"contracts/Auction.sol\":6790:7996  function PartialRefund() external isActive() isNotEnded()  {... */\n    tag_3:\n      callvalue\n      dup1\n      iszero\n      tag_19\n      jumpi\n      revert(0x00, 0x00)\n    tag_19:\n      pop\n      tag_20\n      tag_21\n      jump\t// in\n    tag_20:\n      stop\n        /* \"contracts/Auction.sol\":4420:6082  function EndAuction () isActive() isEnded() onlyOwner() external {... */\n    tag_4:\n      callvalue\n      dup1\n      iszero\n      tag_22\n      jumpi\n      revert(0x00, 0x00)\n    tag_22:\n      pop\n      tag_23\n      tag_24\n      jump\t// in\n    tag_23:\n      stop\n        /* \"contracts/Auction.sol\":338:359  uint256 public bidGap */\n    tag_5:\n      callvalue\n      dup1\n      iszero\n      tag_25\n      jumpi\n      revert(0x00, 0x00)\n    tag_25:\n      pop\n      tag_26\n      tag_27\n      jump\t// in\n    tag_26:\n      mload(0x40)\n      tag_28\n      swap2\n      swap1\n      tag_29\n      jump\t// in\n    tag_28:\n      mload(0x40)\n      dup1\n      swap2\n      sub\n      swap1\n      return\n        /* \"contracts/Auction.sol\":2415:2502  function getAllBids() public view returns (Bid[] memory) {... */\n    tag_6:\n      callvalue\n      dup1\n      iszero\n      tag_30\n      jumpi\n      revert(0x00, 0x00)\n    tag_30:\n      pop\n      tag_31\n      tag_32\n      jump\t// in\n    tag_31:\n      mload(0x40)\n      tag_33\n      swap2\n      swap1\n      tag_34\n      jump\t// in\n    tag_33:\n      mload(0x40)\n      dup1\n      swap2\n      sub\n      swap1\n      return\n        /* \"contracts/Auction.sol\":280:300  address public owner */\n    tag_7:\n      callvalue\n      dup1\n      iszero\n      tag_35\n      jumpi\n      revert(0x00, 0x00)\n    tag_35:\n      pop\n      tag_36\n      tag_37\n      jump\t// in\n    tag_36:\n      mload(0x40)\n      tag_38\n      swap2\n      swap1\n      tag_18\n      jump\t// in\n    tag_38:\n      mload(0x40)\n      dup1\n      swap2\n      sub\n      swap1\n      return\n        /* \"contracts/Auction.sol\":2263:2362  function getWinner() public view isEnded() returns (Bid memory) {... */\n    tag_8:\n      callvalue\n      dup1\n      iszero\n      tag_39\n      jumpi\n      revert(0x00, 0x00)\n    tag_39:\n      pop\n      tag_40\n      tag_41\n      jump\t// in\n    tag_40:\n      mload(0x40)\n      tag_42\n      swap2\n      swap1\n      tag_43\n      jump\t// in\n    tag_42:\n      mload(0x40)\n      dup1\n      swap2\n      sub\n      swap1\n      return\n        /* \"contracts/Auction.sol\":2577:4033  function MakeABid () payable isActive() isNotEnded() external {... */\n    tag_9:\n      tag_44\n      tag_45\n      jump\t// in\n    tag_44:\n      stop\n        /* \"contracts/Auction.sol\":394:432  uint256 public gasCommissionPercentage */\n    tag_10:\n      callvalue\n      dup1\n      iszero\n      tag_46\n      jumpi\n      revert(0x00, 0x00)\n    tag_46:\n      pop\n      tag_47\n      tag_48\n      jump\t// in\n    tag_47:\n      mload(0x40)\n      tag_49\n      swap2\n      swap1\n      tag_29\n      jump\t// in\n    tag_49:\n      mload(0x40)\n      dup1\n      swap2\n      sub\n      swap1\n      return\n        /* \"contracts/Auction.sol\":471:496  uint256 public finishDate */\n    tag_11:\n      callvalue\n      dup1\n      iszero\n      tag_50\n      jumpi\n      revert(0x00, 0x00)\n    tag_50:\n      pop\n      tag_51\n      tag_52\n      jump\t// in\n    tag_51:\n      mload(0x40)\n      tag_53\n      swap2\n      swap1\n      tag_29\n      jump\t// in\n    tag_53:\n      mload(0x40)\n      dup1\n      swap2\n      sub\n      swap1\n      return\n        /* \"contracts/Auction.sol\":441:464  uint256 public initDate */\n    tag_12:\n      callvalue\n      dup1\n      iszero\n      tag_54\n      jumpi\n      revert(0x00, 0x00)\n    tag_54:\n      pop\n      tag_55\n      tag_56\n      jump\t// in\n    tag_55:\n      mload(0x40)\n      tag_57\n      swap2\n      swap1\n      tag_29\n      jump\t// in\n    tag_57:\n      mload(0x40)\n      dup1\n      swap2\n      sub\n      swap1\n      return\n        /* \"contracts/Auction.sol\":223:244  address public seller */\n    tag_16:\n      0x00\n      0x01\n      swap1\n      sload\n      swap1\n      0x0100\n      exp\n      swap1\n      div\n      0xffffffffffffffffffffffffffffffffffffffff\n      and\n      dup2\n      jump\t// out\n        /* \"contracts/Auction.sol\":6790:7996  function PartialRefund() external isActive() isNotEnded()  {... */\n    tag_21:\n        /* \"contracts/Auction.sol\":6652:6656  true */\n      0x01\n        /* \"contracts/Auction.sol\":6644:6656  active==true */\n      iszero\n      iszero\n        /* \"contracts/Auction.sol\":6644:6650  active */\n      0x00\n      0x00\n      swap1\n      sload\n      swap1\n      0x0100\n      exp\n      swap1\n      div\n      0xff\n      and\n        /* \"contracts/Auction.sol\":6644:6656  active==true */\n      iszero\n      iszero\n      eq\n        /* \"contracts/Auction.sol\":6636:6692  require(active==true,\"The Auction is not longer active\") */\n      tag_59\n      jumpi\n      mload(0x40)\n      0x08c379a000000000000000000000000000000000000000000000000000000000\n      dup2\n      mstore\n      0x04\n      add\n      tag_60\n      swap1\n      tag_61\n      jump\t// in\n    tag_60:\n      mload(0x40)\n      dup1\n      swap2\n      sub\n      swap1\n      revert\n    tag_59:\n        /* \"contracts/Auction.sol\":4278:4288  finishDate */\n      sload(0x05)\n        /* \"contracts/Auction.sol\":4262:4277  block.timestamp */\n      timestamp\n        /* \"contracts/Auction.sol\":4262:4288  block.timestamp<finishDate */\n      lt\n        /* \"contracts/Auction.sol\":4254:4313  require(block.timestamp<finishDate,\"The Auction has ended\") */\n      tag_63\n      jumpi\n      mload(0x40)\n      0x08c379a000000000000000000000000000000000000000000000000000000000\n      dup2\n      mstore\n      0x04\n      add\n      tag_64\n      swap1\n      tag_65\n      jump\t// in\n    tag_64:\n      mload(0x40)\n      dup1\n      swap2\n      sub\n      swap1\n      revert\n    tag_63:\n        /* \"contracts/Auction.sol\":6860:6878  uint256 lastAmount */\n      0x00\n        /* \"contracts/Auction.sol\":6881:6901  bidAddressLastAmount */\n      0x08\n        /* \"contracts/Auction.sol\":6881:6913  bidAddressLastAmount[msg.sender] */\n      0x00\n        /* \"contracts/Auction.sol\":6902:6912  msg.sender */\n      caller\n        /* \"contracts/Auction.sol\":6881:6913  bidAddressLastAmount[msg.sender] */\n      0xffffffffffffffffffffffffffffffffffffffff\n      and\n      0xffffffffffffffffffffffffffffffffffffffff\n      and\n      dup2\n      mstore\n      0x20\n      add\n      swap1\n      dup2\n      mstore\n      0x20\n      add\n      0x00\n      keccak256\n      sload\n        /* \"contracts/Auction.sol\":6860:6913  uint256 lastAmount = bidAddressLastAmount[msg.sender] */\n      swap1\n      pop\n        /* \"contracts/Auction.sol\":6924:6943  uint256 totalAmount */\n      0x00\n        /* \"contracts/Auction.sol\":6946:6967  bidAddressTotalAmount */\n      0x09\n        /* \"contracts/Auction.sol\":6946:6979  bidAddressTotalAmount[msg.sender] */\n      0x00\n        /* \"contracts/Auction.sol\":6968:6978  msg.sender */\n      caller\n        /* \"contracts/Auction.sol\":6946:6979  bidAddressTotalAmount[msg.sender] */\n      0xffffffffffffffffffffffffffffffffffffffff\n      and\n      0xffffffffffffffffffffffffffffffffffffffff\n      and\n      dup2\n      mstore\n      0x20\n      add\n      swap1\n      dup2\n      mstore\n      0x20\n      add\n      0x00\n      keccak256\n      sload\n        /* \"contracts/Auction.sol\":6924:6979  uint256 totalAmount = bidAddressTotalAmount[msg.sender] */\n      swap1\n      pop\n        /* \"contracts/Auction.sol\":7127:7128  0 */\n      0x00\n        /* \"contracts/Auction.sol\":7112:7123  totalAmount */\n      dup2\n        /* \"contracts/Auction.sol\":7112:7128  totalAmount == 0 */\n      sub\n        /* \"contracts/Auction.sol\":7108:7207  if (totalAmount == 0)... */\n      tag_67\n      jumpi\n        /* \"contracts/Auction.sol\":7154:7194  revert(\"No bids were received from you\") */\n      mload(0x40)\n      0x08c379a000000000000000000000000000000000000000000000000000000000\n      dup2\n      mstore\n      0x04\n      add\n      tag_68\n      swap1\n      tag_69\n      jump\t// in\n    tag_68:\n      mload(0x40)\n      dup1\n      swap2\n      sub\n      swap1\n      revert\n        /* \"contracts/Auction.sol\":7108:7207  if (totalAmount == 0)... */\n    tag_67:\n        /* \"contracts/Auction.sol\":7421:7432  totalAmount */\n      dup1\n        /* \"contracts/Auction.sol\":7407:7417  lastAmount */\n      dup3\n        /* \"contracts/Auction.sol\":7407:7432  lastAmount == totalAmount */\n      sub\n        /* \"contracts/Auction.sol\":7403:7517  if (lastAmount == totalAmount)... */\n      tag_70\n      jumpi\n        /* \"contracts/Auction.sol\":7458:7504  revert(\"There is no partial amount to refund\") */\n      mload(0x40)\n      0x08c379a000000000000000000000000000000000000000000000000000000000\n      dup2\n      mstore\n      0x04\n      add\n      tag_71\n      swap1\n      tag_72\n      jump\t// in\n    tag_71:\n      mload(0x40)\n      dup1\n      swap2\n      sub\n      swap1\n      revert\n        /* \"contracts/Auction.sol\":7403:7517  if (lastAmount == totalAmount)... */\n    tag_70:\n        /* \"contracts/Auction.sol\":7525:7546  uint256 partialAmount */\n      0x00\n        /* \"contracts/Auction.sol\":7563:7573  lastAmount */\n      dup3\n        /* \"contracts/Auction.sol\":7549:7560  totalAmount */\n      dup3\n        /* \"contracts/Auction.sol\":7549:7573  totalAmount - lastAmount */\n      tag_73\n      swap2\n      swap1\n      tag_74\n      jump\t// in\n    tag_73:\n        /* \"contracts/Auction.sol\":7525:7573  uint256 partialAmount = totalAmount - lastAmount */\n      swap1\n      pop\n        /* \"contracts/Auction.sol\":7683:7696  partialAmount */\n      dup1\n        /* \"contracts/Auction.sol\":7646:7667  bidAddressTotalAmount */\n      0x09\n        /* \"contracts/Auction.sol\":7646:7679  bidAddressTotalAmount[msg.sender] */\n      0x00\n        /* \"contracts/Auction.sol\":7668:7678  msg.sender */\n      caller\n        /* \"contracts/Auction.sol\":7646:7679  bidAddressTotalAmount[msg.sender] */\n      0xffffffffffffffffffffffffffffffffffffffff\n      and\n      0xffffffffffffffffffffffffffffffffffffffff\n      and\n      dup2\n      mstore\n      0x20\n      add\n      swap1\n      dup2\n      mstore\n      0x20\n      add\n      0x00\n      keccak256\n      0x00\n        /* \"contracts/Auction.sol\":7646:7696  bidAddressTotalAmount[msg.sender] -= partialAmount */\n      dup3\n      dup3\n      sload\n      tag_75\n      swap2\n      swap1\n      tag_74\n      jump\t// in\n    tag_75:\n      swap3\n      pop\n      pop\n      dup2\n      swap1\n      sstore\n      pop\n        /* \"contracts/Auction.sol\":7850:7859  bool sent */\n      0x00\n        /* \"contracts/Auction.sol\":7872:7882  msg.sender */\n      caller\n        /* \"contracts/Auction.sol\":7864:7888  payable(msg.sender).call */\n      0xffffffffffffffffffffffffffffffffffffffff\n      and\n        /* \"contracts/Auction.sol\":7896:7909  partialAmount */\n      dup3\n        /* \"contracts/Auction.sol\":7864:7914  payable(msg.sender).call{value: partialAmount}(\"\") */\n      mload(0x40)\n      tag_76\n      swap1\n      tag_77\n      jump\t// in\n    tag_76:\n      0x00\n      mload(0x40)\n      dup1\n      dup4\n      sub\n      dup2\n      dup6\n      dup8\n      gas\n      call\n      swap3\n      pop\n      pop\n      pop\n      returndatasize\n      dup1\n      0x00\n      dup2\n      eq\n      tag_80\n      jumpi\n      mload(0x40)\n      swap2\n      pop\n      and(add(returndatasize, 0x3f), not(0x1f))\n      dup3\n      add\n      0x40\n      mstore\n      returndatasize\n      dup3\n      mstore\n      returndatasize\n      0x00\n      0x20\n      dup5\n      add\n      returndatacopy\n      jump(tag_79)\n    tag_80:\n      0x60\n      swap2\n      pop\n    tag_79:\n      pop\n        /* \"contracts/Auction.sol\":7849:7914  (bool sent,) = payable(msg.sender).call{value: partialAmount}(\"\") */\n      pop\n      swap1\n      pop\n        /* \"contracts/Auction.sol\":7934:7938  sent */\n      dup1\n        /* \"contracts/Auction.sol\":7926:7959  require(sent, \"Failed to refund\") */\n      tag_81\n      jumpi\n      mload(0x40)\n      0x08c379a000000000000000000000000000000000000000000000000000000000\n      dup2\n      mstore\n      0x04\n      add\n      tag_82\n      swap1\n      tag_83\n      jump\t// in\n    tag_82:\n      mload(0x40)\n      dup1\n      swap2\n      sub\n      swap1\n      revert\n    tag_81:\n        /* \"contracts/Auction.sol\":6849:7996  {... */\n      pop\n      pop\n      pop\n      pop\n        /* \"contracts/Auction.sol\":6790:7996  function PartialRefund() external isActive() isNotEnded()  {... */\n      jump\t// out\n        /* \"contracts/Auction.sol\":4420:6082  function EndAuction () isActive() isEnded() onlyOwner() external {... */\n    tag_24:\n        /* \"contracts/Auction.sol\":6652:6656  true */\n      0x01\n        /* \"contracts/Auction.sol\":6644:6656  active==true */\n      iszero\n      iszero\n        /* \"contracts/Auction.sol\":6644:6650  active */\n      0x00\n      0x00\n      swap1\n      sload\n      swap1\n      0x0100\n      exp\n      swap1\n      div\n      0xff\n      and\n        /* \"contracts/Auction.sol\":6644:6656  active==true */\n      iszero\n      iszero\n      eq\n        /* \"contracts/Auction.sol\":6636:6692  require(active==true,\"The Auction is not longer active\") */\n      tag_85\n      jumpi\n      mload(0x40)\n      0x08c379a000000000000000000000000000000000000000000000000000000000\n      dup2\n      mstore\n      0x04\n      add\n      tag_86\n      swap1\n      tag_61\n      jump\t// in\n    tag_86:\n      mload(0x40)\n      dup1\n      swap2\n      sub\n      swap1\n      revert\n    tag_85:\n        /* \"contracts/Auction.sol\":6490:6500  finishDate */\n      sload(0x05)\n        /* \"contracts/Auction.sol\":6474:6489  block.timestamp */\n      timestamp\n        /* \"contracts/Auction.sol\":6474:6500  block.timestamp>finishDate */\n      gt\n        /* \"contracts/Auction.sol\":6466:6529  require(block.timestamp>finishDate,\"The Auction has not ended\") */\n      tag_88\n      jumpi\n      mload(0x40)\n      0x08c379a000000000000000000000000000000000000000000000000000000000\n      dup2\n      mstore\n      0x04\n      add\n      tag_89\n      swap1\n      tag_90\n      jump\t// in\n    tag_89:\n      mload(0x40)\n      dup1\n      swap2\n      sub\n      swap1\n      revert\n    tag_88:\n        /* \"contracts/Auction.sol\":6248:6253  owner */\n      0x01\n      0x00\n      swap1\n      sload\n      swap1\n      0x0100\n      exp\n      swap1\n      div\n      0xffffffffffffffffffffffffffffffffffffffff\n      and\n        /* \"contracts/Auction.sol\":6234:6253  msg.sender == owner */\n      0xffffffffffffffffffffffffffffffffffffffff\n      and\n        /* \"contracts/Auction.sol\":6234:6244  msg.sender */\n      caller\n        /* \"contracts/Auction.sol\":6234:6253  msg.sender == owner */\n      0xffffffffffffffffffffffffffffffffffffffff\n      and\n      eq\n        /* \"contracts/Auction.sol\":6226:6292  require(msg.sender == owner, \"Only the Owner can end the Auction\") */\n      tag_92\n      jumpi\n      mload(0x40)\n      0x08c379a000000000000000000000000000000000000000000000000000000000\n      dup2\n      mstore\n      0x04\n      add\n      tag_93\n      swap1\n      tag_94\n      jump\t// in\n    tag_93:\n      mload(0x40)\n      dup1\n      swap2\n      sub\n      swap1\n      revert\n    tag_92:\n        /* \"contracts/Auction.sol\":4507:4512  false */\n      0x00\n        /* \"contracts/Auction.sol\":4498:4504  active */\n      0x00\n      0x00\n        /* \"contracts/Auction.sol\":4498:4512  active = false */\n      0x0100\n      exp\n      dup2\n      sload\n      dup2\n      0xff\n      mul\n      not\n      and\n      swap1\n      dup4\n      iszero\n      iszero\n      mul\n      or\n      swap1\n      sstore\n      pop\n        /* \"contracts/Auction.sol\":4523:4542  uint256 totalAmount */\n      0x00\n        /* \"contracts/Auction.sol\":4545:4546  0 */\n      0x00\n        /* \"contracts/Auction.sol\":4523:4546  uint256 totalAmount = 0 */\n      swap1\n      pop\n        /* \"contracts/Auction.sol\":4557:4577  uint256 refundAmount */\n      0x00\n        /* \"contracts/Auction.sol\":4580:4581  0 */\n      0x00\n        /* \"contracts/Auction.sol\":4557:4581  uint256 refundAmount = 0 */\n      swap1\n      pop\n        /* \"contracts/Auction.sol\":4592:4606  address bidder */\n      0x00\n        /* \"contracts/Auction.sol\":4671:4677  uint i */\n      0x00\n        /* \"contracts/Auction.sol\":4678:4679  0 */\n      0x00\n        /* \"contracts/Auction.sol\":4671:4679  uint i=0 */\n      swap1\n      pop\n        /* \"contracts/Auction.sol\":4666:6034  for (uint i=0; i < bids.length; i++)... */\n    tag_96:\n        /* \"contracts/Auction.sol\":4685:4689  bids */\n      0x0a\n        /* \"contracts/Auction.sol\":4685:4696  bids.length */\n      dup1\n      sload\n      swap1\n      pop\n        /* \"contracts/Auction.sol\":4681:4682  i */\n      dup2\n        /* \"contracts/Auction.sol\":4681:4696  i < bids.length */\n      lt\n        /* \"contracts/Auction.sol\":4666:6034  for (uint i=0; i < bids.length; i++)... */\n      iszero\n      tag_97\n      jumpi\n        /* \"contracts/Auction.sol\":4746:4750  bids */\n      0x0a\n        /* \"contracts/Auction.sol\":4751:4752  i */\n      dup2\n        /* \"contracts/Auction.sol\":4746:4753  bids[i] */\n      dup2\n      sload\n      dup2\n      lt\n      tag_99\n      jumpi\n      tag_100\n      tag_101\n      jump\t// in\n    tag_100:\n    tag_99:\n      swap1\n      0x00\n      mstore\n      keccak256(0x00, 0x20)\n      swap1\n      0x02\n      mul\n      add\n        /* \"contracts/Auction.sol\":4746:4760  bids[i].bidder */\n      0x00\n      add\n      0x00\n      swap1\n      sload\n      swap1\n      0x0100\n      exp\n      swap1\n      div\n      0xffffffffffffffffffffffffffffffffffffffff\n      and\n        /* \"contracts/Auction.sol\":4737:4760  bidder = bids[i].bidder */\n      swap2\n      pop\n        /* \"contracts/Auction.sol\":4808:4829  bidAddressTotalAmount */\n      0x09\n        /* \"contracts/Auction.sol\":4808:4837  bidAddressTotalAmount[bidder] */\n      0x00\n        /* \"contracts/Auction.sol\":4830:4836  bidder */\n      dup4\n        /* \"contracts/Auction.sol\":4808:4837  bidAddressTotalAmount[bidder] */\n      0xffffffffffffffffffffffffffffffffffffffff\n      and\n      0xffffffffffffffffffffffffffffffffffffffff\n      and\n      dup2\n      mstore\n      0x20\n      add\n      swap1\n      dup2\n      mstore\n      0x20\n      add\n      0x00\n      keccak256\n      sload\n        /* \"contracts/Auction.sol\":4794:4837  totalAmount = bidAddressTotalAmount[bidder] */\n      swap4\n      pop\n        /* \"contracts/Auction.sol\":4987:4988  0 */\n      0x00\n        /* \"contracts/Auction.sol\":4973:4984  totalAmount */\n      dup5\n        /* \"contracts/Auction.sol\":4973:4988  totalAmount > 0 */\n      gt\n        /* \"contracts/Auction.sol\":4969:6021  if (totalAmount > 0) ... */\n      iszero\n      tag_103\n      jumpi\n        /* \"contracts/Auction.sol\":5049:5050  0 */\n      0x00\n        /* \"contracts/Auction.sol\":5017:5038  bidAddressTotalAmount */\n      0x09\n        /* \"contracts/Auction.sol\":5017:5046  bidAddressTotalAmount[bidder] */\n      0x00\n        /* \"contracts/Auction.sol\":5039:5045  bidder */\n      dup5\n        /* \"contracts/Auction.sol\":5017:5046  bidAddressTotalAmount[bidder] */\n      0xffffffffffffffffffffffffffffffffffffffff\n      and\n      0xffffffffffffffffffffffffffffffffffffffff\n      and\n      dup2\n      mstore\n      0x20\n      add\n      swap1\n      dup2\n      mstore\n      0x20\n      add\n      0x00\n      keccak256\n        /* \"contracts/Auction.sol\":5017:5050  bidAddressTotalAmount[bidder] = 0 */\n      dup2\n      swap1\n      sstore\n      pop\n        /* \"contracts/Auction.sol\":5265:5274  winnerBid */\n      0x0b\n        /* \"contracts/Auction.sol\":5265:5281  winnerBid.bidder */\n      0x00\n      add\n      0x00\n      swap1\n      sload\n      swap1\n      0x0100\n      exp\n      swap1\n      div\n      0xffffffffffffffffffffffffffffffffffffffff\n      and\n        /* \"contracts/Auction.sol\":5255:5281  bidder != winnerBid.bidder */\n      0xffffffffffffffffffffffffffffffffffffffff\n      and\n        /* \"contracts/Auction.sol\":5255:5261  bidder */\n      dup3\n        /* \"contracts/Auction.sol\":5255:5281  bidder != winnerBid.bidder */\n      0xffffffffffffffffffffffffffffffffffffffff\n      and\n      eq\n        /* \"contracts/Auction.sol\":5251:6006  if (bidder != winnerBid.bidder) ... */\n      tag_104\n      jumpi\n        /* \"contracts/Auction.sol\":5483:5486  100 */\n      0x64\n        /* \"contracts/Auction.sol\":5458:5481  gasCommissionPercentage */\n      sload(0x03)\n        /* \"contracts/Auction.sol\":5446:5457  totalAmount */\n      dup6\n        /* \"contracts/Auction.sol\":5446:5481  totalAmount*gasCommissionPercentage */\n      tag_105\n      swap2\n      swap1\n      tag_106\n      jump\t// in\n    tag_105:\n        /* \"contracts/Auction.sol\":5445:5486  (totalAmount*gasCommissionPercentage)/100 */\n      tag_107\n      swap2\n      swap1\n      tag_108\n      jump\t// in\n    tag_107:\n        /* \"contracts/Auction.sol\":5430:5441  totalAmount */\n      dup5\n        /* \"contracts/Auction.sol\":5430:5487  totalAmount - ((totalAmount*gasCommissionPercentage)/100) */\n      tag_109\n      swap2\n      swap1\n      tag_74\n      jump\t// in\n    tag_109:\n        /* \"contracts/Auction.sol\":5415:5487  refundAmount = totalAmount - ((totalAmount*gasCommissionPercentage)/100) */\n      swap3\n      pop\n        /* \"contracts/Auction.sol\":5507:5516  bool sent */\n      0x00\n        /* \"contracts/Auction.sol\":5529:5535  bidder */\n      dup3\n        /* \"contracts/Auction.sol\":5521:5541  payable(bidder).call */\n      0xffffffffffffffffffffffffffffffffffffffff\n      and\n        /* \"contracts/Auction.sol\":5549:5561  refundAmount */\n      dup5\n        /* \"contracts/Auction.sol\":5521:5566  payable(bidder).call{value: refundAmount}(\"\") */\n      mload(0x40)\n      tag_110\n      swap1\n      tag_77\n      jump\t// in\n    tag_110:\n      0x00\n      mload(0x40)\n      dup1\n      dup4\n      sub\n      dup2\n      dup6\n      dup8\n      gas\n      call\n      swap3\n      pop\n      pop\n      pop\n      returndatasize\n      dup1\n      0x00\n      dup2\n      eq\n      tag_113\n      jumpi\n      mload(0x40)\n      swap2\n      pop\n      and(add(returndatasize, 0x3f), not(0x1f))\n      dup3\n      add\n      0x40\n      mstore\n      returndatasize\n      dup3\n      mstore\n      returndatasize\n      0x00\n      0x20\n      dup5\n      add\n      returndatacopy\n      jump(tag_112)\n    tag_113:\n      0x60\n      swap2\n      pop\n    tag_112:\n      pop\n        /* \"contracts/Auction.sol\":5506:5566  (bool sent,) = payable(bidder).call{value: refundAmount}(\"\") */\n      pop\n      swap1\n      pop\n        /* \"contracts/Auction.sol\":5606:5610  sent */\n      dup1\n        /* \"contracts/Auction.sol\":5598:5631  require(sent, \"Failed to refund\") */\n      tag_114\n      jumpi\n      mload(0x40)\n      0x08c379a000000000000000000000000000000000000000000000000000000000\n      dup2\n      mstore\n      0x04\n      add\n      tag_115\n      swap1\n      tag_83\n      jump\t// in\n    tag_115:\n      mload(0x40)\n      dup1\n      swap2\n      sub\n      swap1\n      revert\n    tag_114:\n        /* \"contracts/Auction.sol\":5297:5690  {... */\n      pop\n        /* \"contracts/Auction.sol\":5251:6006  if (bidder != winnerBid.bidder) ... */\n      jump(tag_116)\n    tag_104:\n        /* \"contracts/Auction.sol\":5817:5826  bool sent */\n      0x00\n        /* \"contracts/Auction.sol\":5839:5845  seller */\n      0x00\n      0x01\n      swap1\n      sload\n      swap1\n      0x0100\n      exp\n      swap1\n      div\n      0xffffffffffffffffffffffffffffffffffffffff\n      and\n        /* \"contracts/Auction.sol\":5831:5851  payable(seller).call */\n      0xffffffffffffffffffffffffffffffffffffffff\n      and\n        /* \"contracts/Auction.sol\":5859:5870  totalAmount */\n      dup6\n        /* \"contracts/Auction.sol\":5831:5875  payable(seller).call{value: totalAmount}(\"\") */\n      mload(0x40)\n      tag_117\n      swap1\n      tag_77\n      jump\t// in\n    tag_117:\n      0x00\n      mload(0x40)\n      dup1\n      dup4\n      sub\n      dup2\n      dup6\n      dup8\n      gas\n      call\n      swap3\n      pop\n      pop\n      pop\n      returndatasize\n      dup1\n      0x00\n      dup2\n      eq\n      tag_120\n      jumpi\n      mload(0x40)\n      swap2\n      pop\n      and(add(returndatasize, 0x3f), not(0x1f))\n      dup3\n      add\n      0x40\n      mstore\n      returndatasize\n      dup3\n      mstore\n      returndatasize\n      0x00\n      0x20\n      dup5\n      add\n      returndatacopy\n      jump(tag_119)\n    tag_120:\n      0x60\n      swap2\n      pop\n    tag_119:\n      pop\n        /* \"contracts/Auction.sol\":5816:5875  (bool sent,) = payable(seller).call{value: totalAmount}(\"\") */\n      pop\n      swap1\n      pop\n        /* \"contracts/Auction.sol\":5915:5919  sent */\n      dup1\n        /* \"contracts/Auction.sol\":5907:5947  require(sent, \"Failed to tranfer prize\") */\n      tag_121\n      jumpi\n      mload(0x40)\n      0x08c379a000000000000000000000000000000000000000000000000000000000\n      dup2\n      mstore\n      0x04\n      add\n      tag_122\n      swap1\n      tag_123\n      jump\t// in\n    tag_122:\n      mload(0x40)\n      dup1\n      swap2\n      sub\n      swap1\n      revert\n    tag_121:\n        /* \"contracts/Auction.sol\":5723:6006  {... */\n      pop\n        /* \"contracts/Auction.sol\":5251:6006  if (bidder != winnerBid.bidder) ... */\n    tag_116:\n        /* \"contracts/Auction.sol\":4969:6021  if (totalAmount > 0) ... */\n    tag_103:\n        /* \"contracts/Auction.sol\":4698:4701  i++ */\n      dup1\n      dup1\n      0x01\n      add\n      swap2\n      pop\n      pop\n        /* \"contracts/Auction.sol\":4666:6034  for (uint i=0; i < bids.length; i++)... */\n      jump(tag_96)\n    tag_97:\n      pop\n        /* \"contracts/Auction.sol\":6051:6074  AuctionEnded(winnerBid) */\n      0xc897af1a6c31cb1cd7da48799ad3df24bb1a795f8dddece56892eb57b93563ce\n        /* \"contracts/Auction.sol\":6064:6073  winnerBid */\n      0x0b\n        /* \"contracts/Auction.sol\":6051:6074  AuctionEnded(winnerBid) */\n      mload(0x40)\n      tag_124\n      swap2\n      swap1\n      tag_125\n      jump\t// in\n    tag_124:\n      mload(0x40)\n      dup1\n      swap2\n      sub\n      swap1\n      log1\n        /* \"contracts/Auction.sol\":4485:6082  {... */\n      pop\n      pop\n      pop\n        /* \"contracts/Auction.sol\":4420:6082  function EndAuction () isActive() isEnded() onlyOwner() external {... */\n      jump\t// out\n        /* \"contracts/Auction.sol\":338:359  uint256 public bidGap */\n    tag_27:\n      sload(0x02)\n      dup2\n      jump\t// out\n        /* \"contracts/Auction.sol\":2415:2502  function getAllBids() public view returns (Bid[] memory) {... */\n    tag_32:\n        /* \"contracts/Auction.sol\":2458:2470  Bid[] memory */\n      0x60\n        /* \"contracts/Auction.sol\":2490:2494  bids */\n      0x0a\n        /* \"contracts/Auction.sol\":2483:2494  return bids */\n      dup1\n      sload\n      dup1\n      0x20\n      mul\n      0x20\n      add\n      mload(0x40)\n      swap1\n      dup2\n      add\n      0x40\n      mstore\n      dup1\n      swap3\n      swap2\n      swap1\n      dup2\n      dup2\n      mstore\n      0x20\n      add\n      0x00\n      swap1\n    tag_127:\n      dup3\n      dup3\n      lt\n      iszero\n      tag_128\n      jumpi\n      dup4\n      dup3\n      swap1\n      0x00\n      mstore\n      keccak256(0x00, 0x20)\n      swap1\n      0x02\n      mul\n      add\n      mload(0x40)\n      dup1\n      0x40\n      add\n      0x40\n      mstore\n      swap1\n      dup2\n      0x00\n      dup3\n      add\n      0x00\n      swap1\n      sload\n      swap1\n      0x0100\n      exp\n      swap1\n      div\n      0xffffffffffffffffffffffffffffffffffffffff\n      and\n      0xffffffffffffffffffffffffffffffffffffffff\n      and\n      0xffffffffffffffffffffffffffffffffffffffff\n      and\n      dup2\n      mstore\n      0x20\n      add\n      0x01\n      dup3\n      add\n      sload\n      dup2\n      mstore\n      pop\n      pop\n      dup2\n      mstore\n      0x20\n      add\n      swap1\n      0x01\n      add\n      swap1\n      jump(tag_127)\n    tag_128:\n      pop\n      pop\n      pop\n      pop\n      swap1\n      pop\n        /* \"contracts/Auction.sol\":2415:2502  function getAllBids() public view returns (Bid[] memory) {... */\n      swap1\n      jump\t// out\n        /* \"contracts/Auction.sol\":280:300  address public owner */\n    tag_37:\n      0x01\n      0x00\n      swap1\n      sload\n      swap1\n      0x0100\n      exp\n      swap1\n      div\n      0xffffffffffffffffffffffffffffffffffffffff\n      and\n      dup2\n      jump\t// out\n        /* \"contracts/Auction.sol\":2263:2362  function getWinner() public view isEnded() returns (Bid memory) {... */\n    tag_41:\n        /* \"contracts/Auction.sol\":2315:2325  Bid memory */\n      tag_130\n      tag_131\n      jump\t// in\n    tag_130:\n        /* \"contracts/Auction.sol\":6490:6500  finishDate */\n      sload(0x05)\n        /* \"contracts/Auction.sol\":6474:6489  block.timestamp */\n      timestamp\n        /* \"contracts/Auction.sol\":6474:6500  block.timestamp>finishDate */\n      gt\n        /* \"contracts/Auction.sol\":6466:6529  require(block.timestamp>finishDate,\"The Auction has not ended\") */\n      tag_133\n      jumpi\n      mload(0x40)\n      0x08c379a000000000000000000000000000000000000000000000000000000000\n      dup2\n      mstore\n      0x04\n      add\n      tag_134\n      swap1\n      tag_90\n      jump\t// in\n    tag_134:\n      mload(0x40)\n      dup1\n      swap2\n      sub\n      swap1\n      revert\n    tag_133:\n        /* \"contracts/Auction.sol\":2345:2354  winnerBid */\n      0x0b\n        /* \"contracts/Auction.sol\":2338:2354  return winnerBid */\n      mload(0x40)\n      dup1\n      0x40\n      add\n      0x40\n      mstore\n      swap1\n      dup2\n      0x00\n      dup3\n      add\n      0x00\n      swap1\n      sload\n      swap1\n      0x0100\n      exp\n      swap1\n      div\n      0xffffffffffffffffffffffffffffffffffffffff\n      and\n      0xffffffffffffffffffffffffffffffffffffffff\n      and\n      0xffffffffffffffffffffffffffffffffffffffff\n      and\n      dup2\n      mstore\n      0x20\n      add\n      0x01\n      dup3\n      add\n      sload\n      dup2\n      mstore\n      pop\n      pop\n      swap1\n      pop\n        /* \"contracts/Auction.sol\":2263:2362  function getWinner() public view isEnded() returns (Bid memory) {... */\n      swap1\n      jump\t// out\n        /* \"contracts/Auction.sol\":2577:4033  function MakeABid () payable isActive() isNotEnded() external {... */\n    tag_45:\n        /* \"contracts/Auction.sol\":6652:6656  true */\n      0x01\n        /* \"contracts/Auction.sol\":6644:6656  active==true */\n      iszero\n      iszero\n        /* \"contracts/Auction.sol\":6644:6650  active */\n      0x00\n      0x00\n      swap1\n      sload\n      swap1\n      0x0100\n      exp\n      swap1\n      div\n      0xff\n      and\n        /* \"contracts/Auction.sol\":6644:6656  active==true */\n      iszero\n      iszero\n      eq\n        /* \"contracts/Auction.sol\":6636:6692  require(active==true,\"The Auction is not longer active\") */\n      tag_137\n      jumpi\n      mload(0x40)\n      0x08c379a000000000000000000000000000000000000000000000000000000000\n      dup2\n      mstore\n      0x04\n      add\n      tag_138\n      swap1\n      tag_61\n      jump\t// in\n    tag_138:\n      mload(0x40)\n      dup1\n      swap2\n      sub\n      swap1\n      revert\n    tag_137:\n        /* \"contracts/Auction.sol\":4278:4288  finishDate */\n      sload(0x05)\n        /* \"contracts/Auction.sol\":4262:4277  block.timestamp */\n      timestamp\n        /* \"contracts/Auction.sol\":4262:4288  block.timestamp<finishDate */\n      lt\n        /* \"contracts/Auction.sol\":4254:4313  require(block.timestamp<finishDate,\"The Auction has ended\") */\n      tag_140\n      jumpi\n      mload(0x40)\n      0x08c379a000000000000000000000000000000000000000000000000000000000\n      dup2\n      mstore\n      0x04\n      add\n      tag_141\n      swap1\n      tag_65\n      jump\t// in\n    tag_141:\n      mload(0x40)\n      dup1\n      swap2\n      sub\n      swap1\n      revert\n    tag_140:\n        /* \"contracts/Auction.sol\":2728:2729  0 */\n      0x00\n        /* \"contracts/Auction.sol\":2716:2725  msg.value */\n      callvalue\n        /* \"contracts/Auction.sol\":2716:2729  msg.value > 0 */\n      gt\n        /* \"contracts/Auction.sol\":2707:2769  require (msg.value > 0, \"The amount must be higher than zero\") */\n      tag_143\n      jumpi\n      mload(0x40)\n      0x08c379a000000000000000000000000000000000000000000000000000000000\n      dup2\n      mstore\n      0x04\n      add\n      tag_144\n      swap1\n      tag_145\n      jump\t// in\n    tag_144:\n      mload(0x40)\n      dup1\n      swap2\n      sub\n      swap1\n      revert\n    tag_143:\n        /* \"contracts/Auction.sol\":3201:3207  bidGap */\n      sload(0x02)\n        /* \"contracts/Auction.sol\":3195:3198  100 */\n      0x64\n        /* \"contracts/Auction.sol\":3195:3207  100 + bidGap */\n      tag_146\n      swap2\n      swap1\n      tag_147\n      jump\t// in\n    tag_146:\n        /* \"contracts/Auction.sol\":3177:3186  winnerBid */\n      0x0b\n        /* \"contracts/Auction.sol\":3177:3193  winnerBid.amount */\n      0x01\n      add\n      sload\n        /* \"contracts/Auction.sol\":3177:3208  winnerBid.amount*(100 + bidGap) */\n      tag_148\n      swap2\n      swap1\n      tag_106\n      jump\t// in\n    tag_148:\n        /* \"contracts/Auction.sol\":3170:3173  100 */\n      0x64\n        /* \"contracts/Auction.sol\":3160:3169  msg.value */\n      callvalue\n        /* \"contracts/Auction.sol\":3160:3173  msg.value*100 */\n      tag_149\n      swap2\n      swap1\n      tag_106\n      jump\t// in\n    tag_149:\n        /* \"contracts/Auction.sol\":3160:3208  msg.value*100 >= winnerBid.amount*(100 + bidGap) */\n      lt\n      iszero\n        /* \"contracts/Auction.sol\":3151:3250  require (msg.value*100 >= winnerBid.amount*(100 + bidGap), \"The amount is not higher than the gap\") */\n      tag_150\n      jumpi\n      mload(0x40)\n      0x08c379a000000000000000000000000000000000000000000000000000000000\n      dup2\n      mstore\n      0x04\n      add\n      tag_151\n      swap1\n      tag_152\n      jump\t// in\n    tag_151:\n      mload(0x40)\n      dup1\n      swap2\n      sub\n      swap1\n      revert\n    tag_150:\n        /* \"contracts/Auction.sol\":3382:3391  msg.value */\n      callvalue\n        /* \"contracts/Auction.sol\":3347:3367  bidAddressLastAmount */\n      0x08\n        /* \"contracts/Auction.sol\":3347:3379  bidAddressLastAmount[msg.sender] */\n      0x00\n        /* \"contracts/Auction.sol\":3368:3378  msg.sender */\n      caller\n        /* \"contracts/Auction.sol\":3347:3379  bidAddressLastAmount[msg.sender] */\n      0xffffffffffffffffffffffffffffffffffffffff\n      and\n      0xffffffffffffffffffffffffffffffffffffffff\n      and\n      dup2\n      mstore\n      0x20\n      add\n      swap1\n      dup2\n      mstore\n      0x20\n      add\n      0x00\n      keccak256\n        /* \"contracts/Auction.sol\":3347:3391  bidAddressLastAmount[msg.sender] = msg.value */\n      dup2\n      swap1\n      sstore\n      pop\n        /* \"contracts/Auction.sol\":3439:3448  msg.value */\n      callvalue\n        /* \"contracts/Auction.sol\":3402:3423  bidAddressTotalAmount */\n      0x09\n        /* \"contracts/Auction.sol\":3402:3435  bidAddressTotalAmount[msg.sender] */\n      0x00\n        /* \"contracts/Auction.sol\":3424:3434  msg.sender */\n      caller\n        /* \"contracts/Auction.sol\":3402:3435  bidAddressTotalAmount[msg.sender] */\n      0xffffffffffffffffffffffffffffffffffffffff\n      and\n      0xffffffffffffffffffffffffffffffffffffffff\n      and\n      dup2\n      mstore\n      0x20\n      add\n      swap1\n      dup2\n      mstore\n      0x20\n      add\n      0x00\n      keccak256\n      0x00\n        /* \"contracts/Auction.sol\":3402:3448  bidAddressTotalAmount[msg.sender] += msg.value */\n      dup3\n      dup3\n      sload\n      tag_153\n      swap2\n      swap1\n      tag_147\n      jump\t// in\n    tag_153:\n      swap3\n      pop\n      pop\n      dup2\n      swap1\n      sstore\n      pop\n        /* \"contracts/Auction.sol\":3459:3463  bids */\n      0x0a\n        /* \"contracts/Auction.sol\":3469:3494  Bid(msg.sender,msg.value) */\n      mload(0x40)\n      dup1\n      0x40\n      add\n      0x40\n      mstore\n      dup1\n        /* \"contracts/Auction.sol\":3473:3483  msg.sender */\n      caller\n        /* \"contracts/Auction.sol\":3469:3494  Bid(msg.sender,msg.value) */\n      0xffffffffffffffffffffffffffffffffffffffff\n      and\n      dup2\n      mstore\n      0x20\n      add\n        /* \"contracts/Auction.sol\":3484:3493  msg.value */\n      callvalue\n        /* \"contracts/Auction.sol\":3469:3494  Bid(msg.sender,msg.value) */\n      dup2\n      mstore\n      pop\n        /* \"contracts/Auction.sol\":3459:3495  bids.push(Bid(msg.sender,msg.value)) */\n      swap1\n      dup1\n      0x01\n      dup2\n      sload\n      add\n      dup1\n      dup3\n      sstore\n      dup1\n      swap2\n      pop\n      pop\n      0x01\n      swap1\n      sub\n      swap1\n      0x00\n      mstore\n      keccak256(0x00, 0x20)\n      swap1\n      0x02\n      mul\n      add\n      0x00\n      swap1\n      swap2\n      swap1\n      swap2\n      swap1\n      swap2\n      pop\n      0x00\n      dup3\n      add\n      mload\n      dup2\n      0x00\n      add\n      exp(0x0100, 0x00)\n      dup2\n      sload\n      dup2\n      0xffffffffffffffffffffffffffffffffffffffff\n      mul\n      not\n      and\n      swap1\n      dup4\n      0xffffffffffffffffffffffffffffffffffffffff\n      and\n      mul\n      or\n      swap1\n      sstore\n      pop\n      0x20\n      dup3\n      add\n      mload\n      dup2\n      0x01\n      add\n      sstore\n      pop\n      pop\n        /* \"contracts/Auction.sol\":3620:3629  msg.value */\n      callvalue\n        /* \"contracts/Auction.sol\":3601:3610  winnerBid */\n      0x0b\n        /* \"contracts/Auction.sol\":3601:3617  winnerBid.amount */\n      0x01\n      add\n        /* \"contracts/Auction.sol\":3601:3629  winnerBid.amount = msg.value */\n      dup2\n      swap1\n      sstore\n      pop\n        /* \"contracts/Auction.sol\":3659:3669  msg.sender */\n      caller\n        /* \"contracts/Auction.sol\":3640:3649  winnerBid */\n      0x0b\n        /* \"contracts/Auction.sol\":3640:3656  winnerBid.bidder */\n      0x00\n      add\n      0x00\n        /* \"contracts/Auction.sol\":3640:3669  winnerBid.bidder = msg.sender */\n      0x0100\n      exp\n      dup2\n      sload\n      dup2\n      0xffffffffffffffffffffffffffffffffffffffff\n      mul\n      not\n      and\n      swap1\n      dup4\n      0xffffffffffffffffffffffffffffffffffffffff\n      and\n      mul\n      or\n      swap1\n      sstore\n      pop\n        /* \"contracts/Auction.sol\":3756:3766  msg.sender */\n      caller\n        /* \"contracts/Auction.sol\":3747:3778  NewOffer(msg.sender, msg.value) */\n      0xffffffffffffffffffffffffffffffffffffffff\n      and\n      0x058d619527549e88853c641ebcec23205e5df61592e3908275721b5ad490113f\n        /* \"contracts/Auction.sol\":3768:3777  msg.value */\n      callvalue\n        /* \"contracts/Auction.sol\":3747:3778  NewOffer(msg.sender, msg.value) */\n      mload(0x40)\n      tag_155\n      swap2\n      swap1\n      tag_29\n      jump\t// in\n    tag_155:\n      mload(0x40)\n      dup1\n      swap2\n      sub\n      swap1\n      log2\n        /* \"contracts/Auction.sol\":3922:3938  bidExtensionZone */\n      sload(0x07)\n        /* \"contracts/Auction.sol\":3911:3921  finishDate */\n      sload(0x05)\n        /* \"contracts/Auction.sol\":3911:3938  finishDate-bidExtensionZone */\n      tag_156\n      swap2\n      swap1\n      tag_74\n      jump\t// in\n    tag_156:\n        /* \"contracts/Auction.sol\":3891:3906  block.timestamp */\n      timestamp\n        /* \"contracts/Auction.sol\":3891:3939  block.timestamp >= (finishDate-bidExtensionZone) */\n      lt\n        /* \"contracts/Auction.sol\":3887:4024  if (block.timestamp >= (finishDate-bidExtensionZone))... */\n      tag_157\n      jumpi\n        /* \"contracts/Auction.sol\":3996:4012  bidExtensionTime */\n      sload(0x06)\n        /* \"contracts/Auction.sol\":3978:3993  block.timestamp */\n      timestamp\n        /* \"contracts/Auction.sol\":3978:4012  block.timestamp + bidExtensionTime */\n      tag_158\n      swap2\n      swap1\n      tag_147\n      jump\t// in\n    tag_158:\n        /* \"contracts/Auction.sol\":3965:3975  finishDate */\n      0x05\n        /* \"contracts/Auction.sol\":3965:4012  finishDate = block.timestamp + bidExtensionTime */\n      dup2\n      swap1\n      sstore\n      pop\n        /* \"contracts/Auction.sol\":3887:4024  if (block.timestamp >= (finishDate-bidExtensionZone))... */\n    tag_157:\n        /* \"contracts/Auction.sol\":2577:4033  function MakeABid () payable isActive() isNotEnded() external {... */\n      jump\t// out\n        /* \"contracts/Auction.sol\":394:432  uint256 public gasCommissionPercentage */\n    tag_48:\n      sload(0x03)\n      dup2\n      jump\t// out\n        /* \"contracts/Auction.sol\":471:496  uint256 public finishDate */\n    tag_52:\n      sload(0x05)\n      dup2\n      jump\t// out\n        /* \"contracts/Auction.sol\":441:464  uint256 public initDate */\n    tag_56:\n      sload(0x04)\n      dup2\n      jump\t// out\n    tag_131:\n      mload(0x40)\n      dup1\n      0x40\n      add\n      0x40\n      mstore\n      dup1\n      and(0xffffffffffffffffffffffffffffffffffffffff, 0x00)\n      dup2\n      mstore\n      0x20\n      add\n      0x00\n      dup2\n      mstore\n      pop\n      swap1\n      jump\t// out\n        /* \"#utility.yul\":7:133   */\n    tag_159:\n        /* \"#utility.yul\":44:51   */\n      0x00\n        /* \"#utility.yul\":84:126   */\n      0xffffffffffffffffffffffffffffffffffffffff\n        /* \"#utility.yul\":77:82   */\n      dup3\n        /* \"#utility.yul\":73:127   */\n      and\n        /* \"#utility.yul\":62:127   */\n      swap1\n      pop\n        /* \"#utility.yul\":7:133   */\n      swap2\n      swap1\n      pop\n      jump\t// out\n        /* \"#utility.yul\":139:235   */\n    tag_160:\n        /* \"#utility.yul\":176:183   */\n      0x00\n        /* \"#utility.yul\":205:229   */\n      tag_209\n        /* \"#utility.yul\":223:228   */\n      dup3\n        /* \"#utility.yul\":205:229   */\n      tag_159\n      jump\t// in\n    tag_209:\n        /* \"#utility.yul\":194:229   */\n      swap1\n      pop\n        /* \"#utility.yul\":139:235   */\n      swap2\n      swap1\n      pop\n      jump\t// out\n        /* \"#utility.yul\":241:359   */\n    tag_161:\n        /* \"#utility.yul\":328:352   */\n      tag_211\n        /* \"#utility.yul\":346:351   */\n      dup2\n        /* \"#utility.yul\":328:352   */\n      tag_160\n      jump\t// in\n    tag_211:\n        /* \"#utility.yul\":323:326   */\n      dup3\n        /* \"#utility.yul\":316:353   */\n      mstore\n        /* \"#utility.yul\":241:359   */\n      pop\n      pop\n      jump\t// out\n        /* \"#utility.yul\":365:587   */\n    tag_18:\n        /* \"#utility.yul\":458:462   */\n      0x00\n        /* \"#utility.yul\":496:498   */\n      0x20\n        /* \"#utility.yul\":485:494   */\n      dup3\n        /* \"#utility.yul\":481:499   */\n      add\n        /* \"#utility.yul\":473:499   */\n      swap1\n      pop\n        /* \"#utility.yul\":509:580   */\n      tag_213\n        /* \"#utility.yul\":577:578   */\n      0x00\n        /* \"#utility.yul\":566:575   */\n      dup4\n        /* \"#utility.yul\":562:579   */\n      add\n        /* \"#utility.yul\":553:559   */\n      dup5\n        /* \"#utility.yul\":509:580   */\n      tag_161\n      jump\t// in\n    tag_213:\n        /* \"#utility.yul\":365:587   */\n      swap3\n      swap2\n      pop\n      pop\n      jump\t// out\n        /* \"#utility.yul\":593:670   */\n    tag_162:\n        /* \"#utility.yul\":630:637   */\n      0x00\n        /* \"#utility.yul\":659:664   */\n      dup2\n        /* \"#utility.yul\":648:664   */\n      swap1\n      pop\n        /* \"#utility.yul\":593:670   */\n      swap2\n      swap1\n      pop\n      jump\t// out\n        /* \"#utility.yul\":676:794   */\n    tag_163:\n        /* \"#utility.yul\":763:787   */\n      tag_216\n        /* \"#utility.yul\":781:786   */\n      dup2\n        /* \"#utility.yul\":763:787   */\n      tag_162\n      jump\t// in\n    tag_216:\n        /* \"#utility.yul\":758:761   */\n      dup3\n        /* \"#utility.yul\":751:788   */\n      mstore\n        /* \"#utility.yul\":676:794   */\n      pop\n      pop\n      jump\t// out\n        /* \"#utility.yul\":800:1022   */\n    tag_29:\n        /* \"#utility.yul\":893:897   */\n      0x00\n        /* \"#utility.yul\":931:933   */\n      0x20\n        /* \"#utility.yul\":920:929   */\n      dup3\n        /* \"#utility.yul\":916:934   */\n      add\n        /* \"#utility.yul\":908:934   */\n      swap1\n      pop\n        /* \"#utility.yul\":944:1015   */\n      tag_218\n        /* \"#utility.yul\":1012:1013   */\n      0x00\n        /* \"#utility.yul\":1001:1010   */\n      dup4\n        /* \"#utility.yul\":997:1014   */\n      add\n        /* \"#utility.yul\":988:994   */\n      dup5\n        /* \"#utility.yul\":944:1015   */\n      tag_163\n      jump\t// in\n    tag_218:\n        /* \"#utility.yul\":800:1022   */\n      swap3\n      swap2\n      pop\n      pop\n      jump\t// out\n        /* \"#utility.yul\":1028:1161   */\n    tag_164:\n        /* \"#utility.yul\":1114:1120   */\n      0x00\n        /* \"#utility.yul\":1148:1153   */\n      dup2\n        /* \"#utility.yul\":1142:1154   */\n      mload\n        /* \"#utility.yul\":1132:1154   */\n      swap1\n      pop\n        /* \"#utility.yul\":1028:1161   */\n      swap2\n      swap1\n      pop\n      jump\t// out\n        /* \"#utility.yul\":1167:1370   */\n    tag_165:\n        /* \"#utility.yul\":1285:1296   */\n      0x00\n        /* \"#utility.yul\":1319:1325   */\n      dup3\n        /* \"#utility.yul\":1314:1317   */\n      dup3\n        /* \"#utility.yul\":1307:1326   */\n      mstore\n        /* \"#utility.yul\":1359:1363   */\n      0x20\n        /* \"#utility.yul\":1354:1357   */\n      dup3\n        /* \"#utility.yul\":1350:1364   */\n      add\n        /* \"#utility.yul\":1335:1364   */\n      swap1\n      pop\n        /* \"#utility.yul\":1167:1370   */\n      swap3\n      swap2\n      pop\n      pop\n      jump\t// out\n        /* \"#utility.yul\":1376:1527   */\n    tag_166:\n        /* \"#utility.yul\":1462:1466   */\n      0x00\n        /* \"#utility.yul\":1485:1488   */\n      dup2\n        /* \"#utility.yul\":1477:1488   */\n      swap1\n      pop\n        /* \"#utility.yul\":1515:1519   */\n      0x20\n        /* \"#utility.yul\":1510:1513   */\n      dup3\n        /* \"#utility.yul\":1506:1520   */\n      add\n        /* \"#utility.yul\":1498:1520   */\n      swap1\n      pop\n        /* \"#utility.yul\":1376:1527   */\n      swap2\n      swap1\n      pop\n      jump\t// out\n        /* \"#utility.yul\":1533:1641   */\n    tag_167:\n        /* \"#utility.yul\":1610:1634   */\n      tag_223\n        /* \"#utility.yul\":1628:1633   */\n      dup2\n        /* \"#utility.yul\":1610:1634   */\n      tag_160\n      jump\t// in\n    tag_223:\n        /* \"#utility.yul\":1605:1608   */\n      dup3\n        /* \"#utility.yul\":1598:1635   */\n      mstore\n        /* \"#utility.yul\":1533:1641   */\n      pop\n      pop\n      jump\t// out\n        /* \"#utility.yul\":1647:1755   */\n    tag_168:\n        /* \"#utility.yul\":1724:1748   */\n      tag_225\n        /* \"#utility.yul\":1742:1747   */\n      dup2\n        /* \"#utility.yul\":1724:1748   */\n      tag_162\n      jump\t// in\n    tag_225:\n        /* \"#utility.yul\":1719:1722   */\n      dup3\n        /* \"#utility.yul\":1712:1749   */\n      mstore\n        /* \"#utility.yul\":1647:1755   */\n      pop\n      pop\n      jump\t// out\n        /* \"#utility.yul\":1809:2298   */\n    tag_169:\n        /* \"#utility.yul\":1934:1938   */\n      0x40\n        /* \"#utility.yul\":1929:1932   */\n      dup3\n        /* \"#utility.yul\":1925:1939   */\n      add\n        /* \"#utility.yul\":2023:2027   */\n      0x00\n        /* \"#utility.yul\":2016:2021   */\n      dup3\n        /* \"#utility.yul\":2012:2028   */\n      add\n        /* \"#utility.yul\":2006:2029   */\n      mload\n        /* \"#utility.yul\":2042:2105   */\n      tag_227\n        /* \"#utility.yul\":2099:2103   */\n      0x00\n        /* \"#utility.yul\":2094:2097   */\n      dup6\n        /* \"#utility.yul\":2090:2104   */\n      add\n        /* \"#utility.yul\":2076:2088   */\n      dup3\n        /* \"#utility.yul\":2042:2105   */\n      tag_167\n      jump\t// in\n    tag_227:\n        /* \"#utility.yul\":1949:2115   */\n      pop\n        /* \"#utility.yul\":2199:2203   */\n      0x20\n        /* \"#utility.yul\":2192:2197   */\n      dup3\n        /* \"#utility.yul\":2188:2204   */\n      add\n        /* \"#utility.yul\":2182:2205   */\n      mload\n        /* \"#utility.yul\":2218:2281   */\n      tag_228\n        /* \"#utility.yul\":2275:2279   */\n      0x20\n        /* \"#utility.yul\":2270:2273   */\n      dup6\n        /* \"#utility.yul\":2266:2280   */\n      add\n        /* \"#utility.yul\":2252:2264   */\n      dup3\n        /* \"#utility.yul\":2218:2281   */\n      tag_168\n      jump\t// in\n    tag_228:\n        /* \"#utility.yul\":2125:2291   */\n      pop\n        /* \"#utility.yul\":1903:2298   */\n      pop\n        /* \"#utility.yul\":1809:2298   */\n      pop\n      pop\n      jump\t// out\n        /* \"#utility.yul\":2304:2559   */\n    tag_170:\n        /* \"#utility.yul\":2411:2421   */\n      0x00\n        /* \"#utility.yul\":2432:2516   */\n      tag_230\n        /* \"#utility.yul\":2512:2515   */\n      dup4\n        /* \"#utility.yul\":2504:2510   */\n      dup4\n        /* \"#utility.yul\":2432:2516   */\n      tag_169\n      jump\t// in\n    tag_230:\n        /* \"#utility.yul\":2548:2552   */\n      0x40\n        /* \"#utility.yul\":2543:2546   */\n      dup4\n        /* \"#utility.yul\":2539:2553   */\n      add\n        /* \"#utility.yul\":2525:2553   */\n      swap1\n      pop\n        /* \"#utility.yul\":2304:2559   */\n      swap3\n      swap2\n      pop\n      pop\n      jump\t// out\n        /* \"#utility.yul\":2565:2697   */\n    tag_171:\n        /* \"#utility.yul\":2654:2658   */\n      0x00\n        /* \"#utility.yul\":2686:2690   */\n      0x20\n        /* \"#utility.yul\":2681:2684   */\n      dup3\n        /* \"#utility.yul\":2677:2691   */\n      add\n        /* \"#utility.yul\":2669:2691   */\n      swap1\n      pop\n        /* \"#utility.yul\":2565:2697   */\n      swap2\n      swap1\n      pop\n      jump\t// out\n        /* \"#utility.yul\":2755:3639   */\n    tag_172:\n        /* \"#utility.yul\":2912:2915   */\n      0x00\n        /* \"#utility.yul\":2941:3014   */\n      tag_233\n        /* \"#utility.yul\":3008:3013   */\n      dup3\n        /* \"#utility.yul\":2941:3014   */\n      tag_164\n      jump\t// in\n    tag_233:\n        /* \"#utility.yul\":3030:3135   */\n      tag_234\n        /* \"#utility.yul\":3128:3134   */\n      dup2\n        /* \"#utility.yul\":3123:3126   */\n      dup6\n        /* \"#utility.yul\":3030:3135   */\n      tag_165\n      jump\t// in\n    tag_234:\n        /* \"#utility.yul\":3023:3135   */\n      swap4\n      pop\n        /* \"#utility.yul\":3159:3234   */\n      tag_235\n        /* \"#utility.yul\":3228:3233   */\n      dup4\n        /* \"#utility.yul\":3159:3234   */\n      tag_166\n      jump\t// in\n    tag_235:\n        /* \"#utility.yul\":3257:3264   */\n      dup1\n        /* \"#utility.yul\":3288:3289   */\n      0x00\n        /* \"#utility.yul\":3273:3614   */\n    tag_236:\n        /* \"#utility.yul\":3298:3304   */\n      dup4\n        /* \"#utility.yul\":3295:3296   */\n      dup2\n        /* \"#utility.yul\":3292:3305   */\n      lt\n        /* \"#utility.yul\":3273:3614   */\n      iszero\n      tag_238\n      jumpi\n        /* \"#utility.yul\":3374:3380   */\n      dup2\n        /* \"#utility.yul\":3368:3381   */\n      mload\n        /* \"#utility.yul\":3401:3502   */\n      tag_239\n        /* \"#utility.yul\":3498:3501   */\n      dup9\n        /* \"#utility.yul\":3483:3496   */\n      dup3\n        /* \"#utility.yul\":3401:3502   */\n      tag_170\n      jump\t// in\n    tag_239:\n        /* \"#utility.yul\":3394:3502   */\n      swap8\n      pop\n        /* \"#utility.yul\":3525:3604   */\n      tag_240\n        /* \"#utility.yul\":3597:3603   */\n      dup4\n        /* \"#utility.yul\":3525:3604   */\n      tag_171\n      jump\t// in\n    tag_240:\n        /* \"#utility.yul\":3515:3604   */\n      swap3\n      pop\n        /* \"#utility.yul\":3333:3614   */\n      pop\n        /* \"#utility.yul\":3320:3321   */\n      0x01\n        /* \"#utility.yul\":3317:3318   */\n      dup2\n        /* \"#utility.yul\":3313:3322   */\n      add\n        /* \"#utility.yul\":3308:3322   */\n      swap1\n      pop\n        /* \"#utility.yul\":3273:3614   */\n      jump(tag_236)\n    tag_238:\n        /* \"#utility.yul\":3277:3291   */\n      pop\n        /* \"#utility.yul\":3630:3633   */\n      dup6\n        /* \"#utility.yul\":3623:3633   */\n      swap4\n      pop\n        /* \"#utility.yul\":2917:3639   */\n      pop\n      pop\n      pop\n        /* \"#utility.yul\":2755:3639   */\n      swap3\n      swap2\n      pop\n      pop\n      jump\t// out\n        /* \"#utility.yul\":3645:4094   */\n    tag_34:\n        /* \"#utility.yul\":3826:3830   */\n      0x00\n        /* \"#utility.yul\":3864:3866   */\n      0x20\n        /* \"#utility.yul\":3853:3862   */\n      dup3\n        /* \"#utility.yul\":3849:3867   */\n      add\n        /* \"#utility.yul\":3841:3867   */\n      swap1\n      pop\n        /* \"#utility.yul\":3913:3922   */\n      dup2\n        /* \"#utility.yul\":3907:3911   */\n      dup2\n        /* \"#utility.yul\":3903:3923   */\n      sub\n        /* \"#utility.yul\":3899:3900   */\n      0x00\n        /* \"#utility.yul\":3888:3897   */\n      dup4\n        /* \"#utility.yul\":3884:3901   */\n      add\n        /* \"#utility.yul\":3877:3924   */\n      mstore\n        /* \"#utility.yul\":3941:4087   */\n      tag_242\n        /* \"#utility.yul\":4082:4086   */\n      dup2\n        /* \"#utility.yul\":4073:4079   */\n      dup5\n        /* \"#utility.yul\":3941:4087   */\n      tag_172\n      jump\t// in\n    tag_242:\n        /* \"#utility.yul\":3933:4087   */\n      swap1\n      pop\n        /* \"#utility.yul\":3645:4094   */\n      swap3\n      swap2\n      pop\n      pop\n      jump\t// out\n        /* \"#utility.yul\":4148:4647   */\n    tag_173:\n        /* \"#utility.yul\":4283:4287   */\n      0x40\n        /* \"#utility.yul\":4278:4281   */\n      dup3\n        /* \"#utility.yul\":4274:4288   */\n      add\n        /* \"#utility.yul\":4372:4376   */\n      0x00\n        /* \"#utility.yul\":4365:4370   */\n      dup3\n        /* \"#utility.yul\":4361:4377   */\n      add\n        /* \"#utility.yul\":4355:4378   */\n      mload\n        /* \"#utility.yul\":4391:4454   */\n      tag_244\n        /* \"#utility.yul\":4448:4452   */\n      0x00\n        /* \"#utility.yul\":4443:4446   */\n      dup6\n        /* \"#utility.yul\":4439:4453   */\n      add\n        /* \"#utility.yul\":4425:4437   */\n      dup3\n        /* \"#utility.yul\":4391:4454   */\n      tag_167\n      jump\t// in\n    tag_244:\n        /* \"#utility.yul\":4298:4464   */\n      pop\n        /* \"#utility.yul\":4548:4552   */\n      0x20\n        /* \"#utility.yul\":4541:4546   */\n      dup3\n        /* \"#utility.yul\":4537:4553   */\n      add\n        /* \"#utility.yul\":4531:4554   */\n      mload\n        /* \"#utility.yul\":4567:4630   */\n      tag_245\n        /* \"#utility.yul\":4624:4628   */\n      0x20\n        /* \"#utility.yul\":4619:4622   */\n      dup6\n        /* \"#utility.yul\":4615:4629   */\n      add\n        /* \"#utility.yul\":4601:4613   */\n      dup3\n        /* \"#utility.yul\":4567:4630   */\n      tag_168\n      jump\t// in\n    tag_245:\n        /* \"#utility.yul\":4474:4640   */\n      pop\n        /* \"#utility.yul\":4252:4647   */\n      pop\n        /* \"#utility.yul\":4148:4647   */\n      pop\n      pop\n      jump\t// out\n        /* \"#utility.yul\":4653:4951   */\n    tag_43:\n        /* \"#utility.yul\":4784:4788   */\n      0x00\n        /* \"#utility.yul\":4822:4824   */\n      0x40\n        /* \"#utility.yul\":4811:4820   */\n      dup3\n        /* \"#utility.yul\":4807:4825   */\n      add\n        /* \"#utility.yul\":4799:4825   */\n      swap1\n      pop\n        /* \"#utility.yul\":4835:4944   */\n      tag_247\n        /* \"#utility.yul\":4941:4942   */\n      0x00\n        /* \"#utility.yul\":4930:4939   */\n      dup4\n        /* \"#utility.yul\":4926:4943   */\n      add\n        /* \"#utility.yul\":4917:4923   */\n      dup5\n        /* \"#utility.yul\":4835:4944   */\n      tag_173\n      jump\t// in\n    tag_247:\n        /* \"#utility.yul\":4653:4951   */\n      swap3\n      swap2\n      pop\n      pop\n      jump\t// out\n        /* \"#utility.yul\":4957:5126   */\n    tag_174:\n        /* \"#utility.yul\":5041:5052   */\n      0x00\n        /* \"#utility.yul\":5075:5081   */\n      dup3\n        /* \"#utility.yul\":5070:5073   */\n      dup3\n        /* \"#utility.yul\":5063:5082   */\n      mstore\n        /* \"#utility.yul\":5115:5119   */\n      0x20\n        /* \"#utility.yul\":5110:5113   */\n      dup3\n        /* \"#utility.yul\":5106:5120   */\n      add\n        /* \"#utility.yul\":5091:5120   */\n      swap1\n      pop\n        /* \"#utility.yul\":4957:5126   */\n      swap3\n      swap2\n      pop\n      pop\n      jump\t// out\n        /* \"#utility.yul\":5132:5314   */\n    tag_175:\n        /* \"#utility.yul\":5272:5306   */\n      0x5468652041756374696f6e206973206e6f74206c6f6e67657220616374697665\n        /* \"#utility.yul\":5268:5269   */\n      0x00\n        /* \"#utility.yul\":5260:5266   */\n      dup3\n        /* \"#utility.yul\":5256:5270   */\n      add\n        /* \"#utility.yul\":5249:5307   */\n      mstore\n        /* \"#utility.yul\":5132:5314   */\n      pop\n      jump\t// out\n        /* \"#utility.yul\":5320:5686   */\n    tag_176:\n        /* \"#utility.yul\":5462:5465   */\n      0x00\n        /* \"#utility.yul\":5483:5550   */\n      tag_251\n        /* \"#utility.yul\":5547:5549   */\n      0x20\n        /* \"#utility.yul\":5542:5545   */\n      dup4\n        /* \"#utility.yul\":5483:5550   */\n      tag_174\n      jump\t// in\n    tag_251:\n        /* \"#utility.yul\":5476:5550   */\n      swap2\n      pop\n        /* \"#utility.yul\":5559:5652   */\n      tag_252\n        /* \"#utility.yul\":5648:5651   */\n      dup3\n        /* \"#utility.yul\":5559:5652   */\n      tag_175\n      jump\t// in\n    tag_252:\n        /* \"#utility.yul\":5677:5679   */\n      0x20\n        /* \"#utility.yul\":5672:5675   */\n      dup3\n        /* \"#utility.yul\":5668:5680   */\n      add\n        /* \"#utility.yul\":5661:5680   */\n      swap1\n      pop\n        /* \"#utility.yul\":5320:5686   */\n      swap2\n      swap1\n      pop\n      jump\t// out\n        /* \"#utility.yul\":5692:6111   */\n    tag_61:\n        /* \"#utility.yul\":5858:5862   */\n      0x00\n        /* \"#utility.yul\":5896:5898   */\n      0x20\n        /* \"#utility.yul\":5885:5894   */\n      dup3\n        /* \"#utility.yul\":5881:5899   */\n      add\n        /* \"#utility.yul\":5873:5899   */\n      swap1\n      pop\n        /* \"#utility.yul\":5945:5954   */\n      dup2\n        /* \"#utility.yul\":5939:5943   */\n      dup2\n        /* \"#utility.yul\":5935:5955   */\n      sub\n        /* \"#utility.yul\":5931:5932   */\n      0x00\n        /* \"#utility.yul\":5920:5929   */\n      dup4\n        /* \"#utility.yul\":5916:5933   */\n      add\n        /* \"#utility.yul\":5909:5956   */\n      mstore\n        /* \"#utility.yul\":5973:6104   */\n      tag_254\n        /* \"#utility.yul\":6099:6103   */\n      dup2\n        /* \"#utility.yul\":5973:6104   */\n      tag_176\n      jump\t// in\n    tag_254:\n        /* \"#utility.yul\":5965:6104   */\n      swap1\n      pop\n        /* \"#utility.yul\":5692:6111   */\n      swap2\n      swap1\n      pop\n      jump\t// out\n        /* \"#utility.yul\":6117:6288   */\n    tag_177:\n        /* \"#utility.yul\":6257:6280   */\n      0x5468652041756374696f6e2068617320656e6465640000000000000000000000\n        /* \"#utility.yul\":6253:6254   */\n      0x00\n        /* \"#utility.yul\":6245:6251   */\n      dup3\n        /* \"#utility.yul\":6241:6255   */\n      add\n        /* \"#utility.yul\":6234:6281   */\n      mstore\n        /* \"#utility.yul\":6117:6288   */\n      pop\n      jump\t// out\n        /* \"#utility.yul\":6294:6660   */\n    tag_178:\n        /* \"#utility.yul\":6436:6439   */\n      0x00\n        /* \"#utility.yul\":6457:6524   */\n      tag_257\n        /* \"#utility.yul\":6521:6523   */\n      0x15\n        /* \"#utility.yul\":6516:6519   */\n      dup4\n        /* \"#utility.yul\":6457:6524   */\n      tag_174\n      jump\t// in\n    tag_257:\n        /* \"#utility.yul\":6450:6524   */\n      swap2\n      pop\n        /* \"#utility.yul\":6533:6626   */\n      tag_258\n        /* \"#utility.yul\":6622:6625   */\n      dup3\n        /* \"#utility.yul\":6533:6626   */\n      tag_177\n      jump\t// in\n    tag_258:\n        /* \"#utility.yul\":6651:6653   */\n      0x20\n        /* \"#utility.yul\":6646:6649   */\n      dup3\n        /* \"#utility.yul\":6642:6654   */\n      add\n        /* \"#utility.yul\":6635:6654   */\n      swap1\n      pop\n        /* \"#utility.yul\":6294:6660   */\n      swap2\n      swap1\n      pop\n      jump\t// out\n        /* \"#utility.yul\":6666:7085   */\n    tag_65:\n        /* \"#utility.yul\":6832:6836   */\n      0x00\n        /* \"#utility.yul\":6870:6872   */\n      0x20\n        /* \"#utility.yul\":6859:6868   */\n      dup3\n        /* \"#utility.yul\":6855:6873   */\n      add\n        /* \"#utility.yul\":6847:6873   */\n      swap1\n      pop\n        /* \"#utility.yul\":6919:6928   */\n      dup2\n        /* \"#utility.yul\":6913:6917   */\n      dup2\n        /* \"#utility.yul\":6909:6929   */\n      sub\n        /* \"#utility.yul\":6905:6906   */\n      0x00\n        /* \"#utility.yul\":6894:6903   */\n      dup4\n        /* \"#utility.yul\":6890:6907   */\n      add\n        /* \"#utility.yul\":6883:6930   */\n      mstore\n        /* \"#utility.yul\":6947:7078   */\n      tag_260\n        /* \"#utility.yul\":7073:7077   */\n      dup2\n        /* \"#utility.yul\":6947:7078   */\n      tag_178\n      jump\t// in\n    tag_260:\n        /* \"#utility.yul\":6939:7078   */\n      swap1\n      pop\n        /* \"#utility.yul\":6666:7085   */\n      swap2\n      swap1\n      pop\n      jump\t// out\n        /* \"#utility.yul\":7091:7271   */\n    tag_179:\n        /* \"#utility.yul\":7231:7263   */\n      0x4e6f206269647320776572652072656365697665642066726f6d20796f750000\n        /* \"#utility.yul\":7227:7228   */\n      0x00\n        /* \"#utility.yul\":7219:7225   */\n      dup3\n        /* \"#utility.yul\":7215:7229   */\n      add\n        /* \"#utility.yul\":7208:7264   */\n      mstore\n        /* \"#utility.yul\":7091:7271   */\n      pop\n      jump\t// out\n        /* \"#utility.yul\":7277:7643   */\n    tag_180:\n        /* \"#utility.yul\":7419:7422   */\n      0x00\n        /* \"#utility.yul\":7440:7507   */\n      tag_263\n        /* \"#utility.yul\":7504:7506   */\n      0x1e\n        /* \"#utility.yul\":7499:7502   */\n      dup4\n        /* \"#utility.yul\":7440:7507   */\n      tag_174\n      jump\t// in\n    tag_263:\n        /* \"#utility.yul\":7433:7507   */\n      swap2\n      pop\n        /* \"#utility.yul\":7516:7609   */\n      tag_264\n        /* \"#utility.yul\":7605:7608   */\n      dup3\n        /* \"#utility.yul\":7516:7609   */\n      tag_179\n      jump\t// in\n    tag_264:\n        /* \"#utility.yul\":7634:7636   */\n      0x20\n        /* \"#utility.yul\":7629:7632   */\n      dup3\n        /* \"#utility.yul\":7625:7637   */\n      add\n        /* \"#utility.yul\":7618:7637   */\n      swap1\n      pop\n        /* \"#utility.yul\":7277:7643   */\n      swap2\n      swap1\n      pop\n      jump\t// out\n        /* \"#utility.yul\":7649:8068   */\n    tag_69:\n        /* \"#utility.yul\":7815:7819   */\n      0x00\n        /* \"#utility.yul\":7853:7855   */\n      0x20\n        /* \"#utility.yul\":7842:7851   */\n      dup3\n        /* \"#utility.yul\":7838:7856   */\n      add\n        /* \"#utility.yul\":7830:7856   */\n      swap1\n      pop\n        /* \"#utility.yul\":7902:7911   */\n      dup2\n        /* \"#utility.yul\":7896:7900   */\n      dup2\n        /* \"#utility.yul\":7892:7912   */\n      sub\n        /* \"#utility.yul\":7888:7889   */\n      0x00\n        /* \"#utility.yul\":7877:7886   */\n      dup4\n        /* \"#utility.yul\":7873:7890   */\n      add\n        /* \"#utility.yul\":7866:7913   */\n      mstore\n        /* \"#utility.yul\":7930:8061   */\n      tag_266\n        /* \"#utility.yul\":8056:8060   */\n      dup2\n        /* \"#utility.yul\":7930:8061   */\n      tag_180\n      jump\t// in\n    tag_266:\n        /* \"#utility.yul\":7922:8061   */\n      swap1\n      pop\n        /* \"#utility.yul\":7649:8068   */\n      swap2\n      swap1\n      pop\n      jump\t// out\n        /* \"#utility.yul\":8074:8297   */\n    tag_181:\n        /* \"#utility.yul\":8214:8248   */\n      0x5468657265206973206e6f207061727469616c20616d6f756e7420746f207265\n        /* \"#utility.yul\":8210:8211   */\n      0x00\n        /* \"#utility.yul\":8202:8208   */\n      dup3\n        /* \"#utility.yul\":8198:8212   */\n      add\n        /* \"#utility.yul\":8191:8249   */\n      mstore\n        /* \"#utility.yul\":8283:8289   */\n      0x66756e6400000000000000000000000000000000000000000000000000000000\n        /* \"#utility.yul\":8278:8280   */\n      0x20\n        /* \"#utility.yul\":8270:8276   */\n      dup3\n        /* \"#utility.yul\":8266:8281   */\n      add\n        /* \"#utility.yul\":8259:8290   */\n      mstore\n        /* \"#utility.yul\":8074:8297   */\n      pop\n      jump\t// out\n        /* \"#utility.yul\":8303:8669   */\n    tag_182:\n        /* \"#utility.yul\":8445:8448   */\n      0x00\n        /* \"#utility.yul\":8466:8533   */\n      tag_269\n        /* \"#utility.yul\":8530:8532   */\n      0x24\n        /* \"#utility.yul\":8525:8528   */\n      dup4\n        /* \"#utility.yul\":8466:8533   */\n      tag_174\n      jump\t// in\n    tag_269:\n        /* \"#utility.yul\":8459:8533   */\n      swap2\n      pop\n        /* \"#utility.yul\":8542:8635   */\n      tag_270\n        /* \"#utility.yul\":8631:8634   */\n      dup3\n        /* \"#utility.yul\":8542:8635   */\n      tag_181\n      jump\t// in\n    tag_270:\n        /* \"#utility.yul\":8660:8662   */\n      0x40\n        /* \"#utility.yul\":8655:8658   */\n      dup3\n        /* \"#utility.yul\":8651:8663   */\n      add\n        /* \"#utility.yul\":8644:8663   */\n      swap1\n      pop\n        /* \"#utility.yul\":8303:8669   */\n      swap2\n      swap1\n      pop\n      jump\t// out\n        /* \"#utility.yul\":8675:9094   */\n    tag_72:\n        /* \"#utility.yul\":8841:8845   */\n      0x00\n        /* \"#utility.yul\":8879:8881   */\n      0x20\n        /* \"#utility.yul\":8868:8877   */\n      dup3\n        /* \"#utility.yul\":8864:8882   */\n      add\n        /* \"#utility.yul\":8856:8882   */\n      swap1\n      pop\n        /* \"#utility.yul\":8928:8937   */\n      dup2\n        /* \"#utility.yul\":8922:8926   */\n      dup2\n        /* \"#utility.yul\":8918:8938   */\n      sub\n        /* \"#utility.yul\":8914:8915   */\n      0x00\n        /* \"#utility.yul\":8903:8912   */\n      dup4\n        /* \"#utility.yul\":8899:8916   */\n      add\n        /* \"#utility.yul\":8892:8939   */\n      mstore\n        /* \"#utility.yul\":8956:9087   */\n      tag_272\n        /* \"#utility.yul\":9082:9086   */\n      dup2\n        /* \"#utility.yul\":8956:9087   */\n      tag_182\n      jump\t// in\n    tag_272:\n        /* \"#utility.yul\":8948:9087   */\n      swap1\n      pop\n        /* \"#utility.yul\":8675:9094   */\n      swap2\n      swap1\n      pop\n      jump\t// out\n        /* \"#utility.yul\":9100:9280   */\n    tag_183:\n        /* \"#utility.yul\":9148:9225   */\n      0x4e487b7100000000000000000000000000000000000000000000000000000000\n        /* \"#utility.yul\":9145:9146   */\n      0x00\n        /* \"#utility.yul\":9138:9226   */\n      mstore\n        /* \"#utility.yul\":9245:9249   */\n      0x11\n        /* \"#utility.yul\":9242:9243   */\n      0x04\n        /* \"#utility.yul\":9235:9250   */\n      mstore\n        /* \"#utility.yul\":9269:9273   */\n      0x24\n        /* \"#utility.yul\":9266:9267   */\n      0x00\n        /* \"#utility.yul\":9259:9274   */\n      revert\n        /* \"#utility.yul\":9286:9480   */\n    tag_74:\n        /* \"#utility.yul\":9326:9330   */\n      0x00\n        /* \"#utility.yul\":9346:9366   */\n      tag_275\n        /* \"#utility.yul\":9364:9365   */\n      dup3\n        /* \"#utility.yul\":9346:9366   */\n      tag_162\n      jump\t// in\n    tag_275:\n        /* \"#utility.yul\":9341:9366   */\n      swap2\n      pop\n        /* \"#utility.yul\":9380:9400   */\n      tag_276\n        /* \"#utility.yul\":9398:9399   */\n      dup4\n        /* \"#utility.yul\":9380:9400   */\n      tag_162\n      jump\t// in\n    tag_276:\n        /* \"#utility.yul\":9375:9400   */\n      swap3\n      pop\n        /* \"#utility.yul\":9424:9425   */\n      dup3\n        /* \"#utility.yul\":9421:9422   */\n      dup3\n        /* \"#utility.yul\":9417:9426   */\n      sub\n        /* \"#utility.yul\":9409:9426   */\n      swap1\n      pop\n        /* \"#utility.yul\":9448:9449   */\n      dup2\n        /* \"#utility.yul\":9442:9446   */\n      dup2\n        /* \"#utility.yul\":9439:9450   */\n      gt\n        /* \"#utility.yul\":9436:9473   */\n      iszero\n      tag_277\n      jumpi\n        /* \"#utility.yul\":9453:9471   */\n      tag_278\n      tag_183\n      jump\t// in\n    tag_278:\n        /* \"#utility.yul\":9436:9473   */\n    tag_277:\n        /* \"#utility.yul\":9286:9480   */\n      swap3\n      swap2\n      pop\n      pop\n      jump\t// out\n        /* \"#utility.yul\":9486:9633   */\n    tag_184:\n        /* \"#utility.yul\":9587:9598   */\n      0x00\n        /* \"#utility.yul\":9624:9627   */\n      dup2\n        /* \"#utility.yul\":9609:9627   */\n      swap1\n      pop\n        /* \"#utility.yul\":9486:9633   */\n      swap3\n      swap2\n      pop\n      pop\n      jump\t// out\n        /* \"#utility.yul\":9639:9753   */\n    tag_185:\n      pop\n      jump\t// out\n        /* \"#utility.yul\":9759:10157   */\n    tag_186:\n        /* \"#utility.yul\":9918:9921   */\n      0x00\n        /* \"#utility.yul\":9939:10022   */\n      tag_282\n        /* \"#utility.yul\":10020:10021   */\n      0x00\n        /* \"#utility.yul\":10015:10018   */\n      dup4\n        /* \"#utility.yul\":9939:10022   */\n      tag_184\n      jump\t// in\n    tag_282:\n        /* \"#utility.yul\":9932:10022   */\n      swap2\n      pop\n        /* \"#utility.yul\":10031:10124   */\n      tag_283\n        /* \"#utility.yul\":10120:10123   */\n      dup3\n        /* \"#utility.yul\":10031:10124   */\n      tag_185\n      jump\t// in\n    tag_283:\n        /* \"#utility.yul\":10149:10150   */\n      0x00\n        /* \"#utility.yul\":10144:10147   */\n      dup3\n        /* \"#utility.yul\":10140:10151   */\n      add\n        /* \"#utility.yul\":10133:10151   */\n      swap1\n      pop\n        /* \"#utility.yul\":9759:10157   */\n      swap2\n      swap1\n      pop\n      jump\t// out\n        /* \"#utility.yul\":10163:10542   */\n    tag_77:\n        /* \"#utility.yul\":10347:10350   */\n      0x00\n        /* \"#utility.yul\":10369:10516   */\n      tag_285\n        /* \"#utility.yul\":10512:10515   */\n      dup3\n        /* \"#utility.yul\":10369:10516   */\n      tag_186\n      jump\t// in\n    tag_285:\n        /* \"#utility.yul\":10362:10516   */\n      swap2\n      pop\n        /* \"#utility.yul\":10533:10536   */\n      dup2\n        /* \"#utility.yul\":10526:10536   */\n      swap1\n      pop\n        /* \"#utility.yul\":10163:10542   */\n      swap2\n      swap1\n      pop\n      jump\t// out\n        /* \"#utility.yul\":10548:10714   */\n    tag_187:\n        /* \"#utility.yul\":10688:10706   */\n      0x4661696c656420746f20726566756e6400000000000000000000000000000000\n        /* \"#utility.yul\":10684:10685   */\n      0x00\n        /* \"#utility.yul\":10676:10682   */\n      dup3\n        /* \"#utility.yul\":10672:10686   */\n      add\n        /* \"#utility.yul\":10665:10707   */\n      mstore\n        /* \"#utility.yul\":10548:10714   */\n      pop\n      jump\t// out\n        /* \"#utility.yul\":10720:11086   */\n    tag_188:\n        /* \"#utility.yul\":10862:10865   */\n      0x00\n        /* \"#utility.yul\":10883:10950   */\n      tag_288\n        /* \"#utility.yul\":10947:10949   */\n      0x10\n        /* \"#utility.yul\":10942:10945   */\n      dup4\n        /* \"#utility.yul\":10883:10950   */\n      tag_174\n      jump\t// in\n    tag_288:\n        /* \"#utility.yul\":10876:10950   */\n      swap2\n      pop\n        /* \"#utility.yul\":10959:11052   */\n      tag_289\n        /* \"#utility.yul\":11048:11051   */\n      dup3\n        /* \"#utility.yul\":10959:11052   */\n      tag_187\n      jump\t// in\n    tag_289:\n        /* \"#utility.yul\":11077:11079   */\n      0x20\n        /* \"#utility.yul\":11072:11075   */\n      dup3\n        /* \"#utility.yul\":11068:11080   */\n      add\n        /* \"#utility.yul\":11061:11080   */\n      swap1\n      pop\n        /* \"#utility.yul\":10720:11086   */\n      swap2\n      swap1\n      pop\n      jump\t// out\n        /* \"#utility.yul\":11092:11511   */\n    tag_83:\n        /* \"#utility.yul\":11258:11262   */\n      0x00\n        /* \"#utility.yul\":11296:11298   */\n      0x20\n        /* \"#utility.yul\":11285:11294   */\n      dup3\n        /* \"#utility.yul\":11281:11299   */\n      add\n        /* \"#utility.yul\":11273:11299   */\n      swap1\n      pop\n        /* \"#utility.yul\":11345:11354   */\n      dup2\n        /* \"#utility.yul\":11339:11343   */\n      dup2\n        /* \"#utility.yul\":11335:11355   */\n      sub\n        /* \"#utility.yul\":11331:11332   */\n      0x00\n        /* \"#utility.yul\":11320:11329   */\n      dup4\n        /* \"#utility.yul\":11316:11333   */\n      add\n        /* \"#utility.yul\":11309:11356   */\n      mstore\n        /* \"#utility.yul\":11373:11504   */\n      tag_291\n        /* \"#utility.yul\":11499:11503   */\n      dup2\n        /* \"#utility.yul\":11373:11504   */\n      tag_188\n      jump\t// in\n    tag_291:\n        /* \"#utility.yul\":11365:11504   */\n      swap1\n      pop\n        /* \"#utility.yul\":11092:11511   */\n      swap2\n      swap1\n      pop\n      jump\t// out\n        /* \"#utility.yul\":11517:11692   */\n    tag_189:\n        /* \"#utility.yul\":11657:11684   */\n      0x5468652041756374696f6e20686173206e6f7420656e64656400000000000000\n        /* \"#utility.yul\":11653:11654   */\n      0x00\n        /* \"#utility.yul\":11645:11651   */\n      dup3\n        /* \"#utility.yul\":11641:11655   */\n      add\n        /* \"#utility.yul\":11634:11685   */\n      mstore\n        /* \"#utility.yul\":11517:11692   */\n      pop\n      jump\t// out\n        /* \"#utility.yul\":11698:12064   */\n    tag_190:\n        /* \"#utility.yul\":11840:11843   */\n      0x00\n        /* \"#utility.yul\":11861:11928   */\n      tag_294\n        /* \"#utility.yul\":11925:11927   */\n      0x19\n        /* \"#utility.yul\":11920:11923   */\n      dup4\n        /* \"#utility.yul\":11861:11928   */\n      tag_174\n      jump\t// in\n    tag_294:\n        /* \"#utility.yul\":11854:11928   */\n      swap2\n      pop\n        /* \"#utility.yul\":11937:12030   */\n      tag_295\n        /* \"#utility.yul\":12026:12029   */\n      dup3\n        /* \"#utility.yul\":11937:12030   */\n      tag_189\n      jump\t// in\n    tag_295:\n        /* \"#utility.yul\":12055:12057   */\n      0x20\n        /* \"#utility.yul\":12050:12053   */\n      dup3\n        /* \"#utility.yul\":12046:12058   */\n      add\n        /* \"#utility.yul\":12039:12058   */\n      swap1\n      pop\n        /* \"#utility.yul\":11698:12064   */\n      swap2\n      swap1\n      pop\n      jump\t// out\n        /* \"#utility.yul\":12070:12489   */\n    tag_90:\n        /* \"#utility.yul\":12236:12240   */\n      0x00\n        /* \"#utility.yul\":12274:12276   */\n      0x20\n        /* \"#utility.yul\":12263:12272   */\n      dup3\n        /* \"#utility.yul\":12259:12277   */\n      add\n        /* \"#utility.yul\":12251:12277   */\n      swap1\n      pop\n        /* \"#utility.yul\":12323:12332   */\n      dup2\n        /* \"#utility.yul\":12317:12321   */\n      dup2\n        /* \"#utility.yul\":12313:12333   */\n      sub\n        /* \"#utility.yul\":12309:12310   */\n      0x00\n        /* \"#utility.yul\":12298:12307   */\n      dup4\n        /* \"#utility.yul\":12294:12311   */\n      add\n        /* \"#utility.yul\":12287:12334   */\n      mstore\n        /* \"#utility.yul\":12351:12482   */\n      tag_297\n        /* \"#utility.yul\":12477:12481   */\n      dup2\n        /* \"#utility.yul\":12351:12482   */\n      tag_190\n      jump\t// in\n    tag_297:\n        /* \"#utility.yul\":12343:12482   */\n      swap1\n      pop\n        /* \"#utility.yul\":12070:12489   */\n      swap2\n      swap1\n      pop\n      jump\t// out\n        /* \"#utility.yul\":12495:12716   */\n    tag_191:\n        /* \"#utility.yul\":12635:12669   */\n      0x4f6e6c7920746865204f776e65722063616e20656e6420746865204175637469\n        /* \"#utility.yul\":12631:12632   */\n      0x00\n        /* \"#utility.yul\":12623:12629   */\n      dup3\n        /* \"#utility.yul\":12619:12633   */\n      add\n        /* \"#utility.yul\":12612:12670   */\n      mstore\n        /* \"#utility.yul\":12704:12708   */\n      0x6f6e000000000000000000000000000000000000000000000000000000000000\n        /* \"#utility.yul\":12699:12701   */\n      0x20\n        /* \"#utility.yul\":12691:12697   */\n      dup3\n        /* \"#utility.yul\":12687:12702   */\n      add\n        /* \"#utility.yul\":12680:12709   */\n      mstore\n        /* \"#utility.yul\":12495:12716   */\n      pop\n      jump\t// out\n        /* \"#utility.yul\":12722:13088   */\n    tag_192:\n        /* \"#utility.yul\":12864:12867   */\n      0x00\n        /* \"#utility.yul\":12885:12952   */\n      tag_300\n        /* \"#utility.yul\":12949:12951   */\n      0x22\n        /* \"#utility.yul\":12944:12947   */\n      dup4\n        /* \"#utility.yul\":12885:12952   */\n      tag_174\n      jump\t// in\n    tag_300:\n        /* \"#utility.yul\":12878:12952   */\n      swap2\n      pop\n        /* \"#utility.yul\":12961:13054   */\n      tag_301\n        /* \"#utility.yul\":13050:13053   */\n      dup3\n        /* \"#utility.yul\":12961:13054   */\n      tag_191\n      jump\t// in\n    tag_301:\n        /* \"#utility.yul\":13079:13081   */\n      0x40\n        /* \"#utility.yul\":13074:13077   */\n      dup3\n        /* \"#utility.yul\":13070:13082   */\n      add\n        /* \"#utility.yul\":13063:13082   */\n      swap1\n      pop\n        /* \"#utility.yul\":12722:13088   */\n      swap2\n      swap1\n      pop\n      jump\t// out\n        /* \"#utility.yul\":13094:13513   */\n    tag_94:\n        /* \"#utility.yul\":13260:13264   */\n      0x00\n        /* \"#utility.yul\":13298:13300   */\n      0x20\n        /* \"#utility.yul\":13287:13296   */\n      dup3\n        /* \"#utility.yul\":13283:13301   */\n      add\n        /* \"#utility.yul\":13275:13301   */\n      swap1\n      pop\n        /* \"#utility.yul\":13347:13356   */\n      dup2\n        /* \"#utility.yul\":13341:13345   */\n      dup2\n        /* \"#utility.yul\":13337:13357   */\n      sub\n        /* \"#utility.yul\":13333:13334   */\n      0x00\n        /* \"#utility.yul\":13322:13331   */\n      dup4\n        /* \"#utility.yul\":13318:13335   */\n      add\n        /* \"#utility.yul\":13311:13358   */\n      mstore\n        /* \"#utility.yul\":13375:13506   */\n      tag_303\n        /* \"#utility.yul\":13501:13505   */\n      dup2\n        /* \"#utility.yul\":13375:13506   */\n      tag_192\n      jump\t// in\n    tag_303:\n        /* \"#utility.yul\":13367:13506   */\n      swap1\n      pop\n        /* \"#utility.yul\":13094:13513   */\n      swap2\n      swap1\n      pop\n      jump\t// out\n        /* \"#utility.yul\":13519:13699   */\n    tag_101:\n        /* \"#utility.yul\":13567:13644   */\n      0x4e487b7100000000000000000000000000000000000000000000000000000000\n        /* \"#utility.yul\":13564:13565   */\n      0x00\n        /* \"#utility.yul\":13557:13645   */\n      mstore\n        /* \"#utility.yul\":13664:13668   */\n      0x32\n        /* \"#utility.yul\":13661:13662   */\n      0x04\n        /* \"#utility.yul\":13654:13669   */\n      mstore\n        /* \"#utility.yul\":13688:13692   */\n      0x24\n        /* \"#utility.yul\":13685:13686   */\n      0x00\n        /* \"#utility.yul\":13678:13693   */\n      revert\n        /* \"#utility.yul\":13705:14115   */\n    tag_106:\n        /* \"#utility.yul\":13745:13752   */\n      0x00\n        /* \"#utility.yul\":13768:13788   */\n      tag_306\n        /* \"#utility.yul\":13786:13787   */\n      dup3\n        /* \"#utility.yul\":13768:13788   */\n      tag_162\n      jump\t// in\n    tag_306:\n        /* \"#utility.yul\":13763:13788   */\n      swap2\n      pop\n        /* \"#utility.yul\":13802:13822   */\n      tag_307\n        /* \"#utility.yul\":13820:13821   */\n      dup4\n        /* \"#utility.yul\":13802:13822   */\n      tag_162\n      jump\t// in\n    tag_307:\n        /* \"#utility.yul\":13797:13822   */\n      swap3\n      pop\n        /* \"#utility.yul\":13857:13858   */\n      dup3\n        /* \"#utility.yul\":13854:13855   */\n      dup3\n        /* \"#utility.yul\":13850:13859   */\n      mul\n        /* \"#utility.yul\":13879:13909   */\n      tag_308\n        /* \"#utility.yul\":13897:13908   */\n      dup2\n        /* \"#utility.yul\":13879:13909   */\n      tag_162\n      jump\t// in\n    tag_308:\n        /* \"#utility.yul\":13868:13909   */\n      swap2\n      pop\n        /* \"#utility.yul\":14058:14059   */\n      dup3\n        /* \"#utility.yul\":14049:14056   */\n      dup3\n        /* \"#utility.yul\":14045:14060   */\n      div\n        /* \"#utility.yul\":14042:14043   */\n      dup5\n        /* \"#utility.yul\":14039:14061   */\n      eq\n        /* \"#utility.yul\":14019:14020   */\n      dup4\n        /* \"#utility.yul\":14012:14021   */\n      iszero\n        /* \"#utility.yul\":13992:14075   */\n      or\n        /* \"#utility.yul\":13969:14108   */\n      tag_309\n      jumpi\n        /* \"#utility.yul\":14088:14106   */\n      tag_310\n      tag_183\n      jump\t// in\n    tag_310:\n        /* \"#utility.yul\":13969:14108   */\n    tag_309:\n        /* \"#utility.yul\":13753:14115   */\n      pop\n        /* \"#utility.yul\":13705:14115   */\n      swap3\n      swap2\n      pop\n      pop\n      jump\t// out\n        /* \"#utility.yul\":14121:14301   */\n    tag_193:\n        /* \"#utility.yul\":14169:14246   */\n      0x4e487b7100000000000000000000000000000000000000000000000000000000\n        /* \"#utility.yul\":14166:14167   */\n      0x00\n        /* \"#utility.yul\":14159:14247   */\n      mstore\n        /* \"#utility.yul\":14266:14270   */\n      0x12\n        /* \"#utility.yul\":14263:14264   */\n      0x04\n        /* \"#utility.yul\":14256:14271   */\n      mstore\n        /* \"#utility.yul\":14290:14294   */\n      0x24\n        /* \"#utility.yul\":14287:14288   */\n      0x00\n        /* \"#utility.yul\":14280:14295   */\n      revert\n        /* \"#utility.yul\":14307:14492   */\n    tag_108:\n        /* \"#utility.yul\":14347:14348   */\n      0x00\n        /* \"#utility.yul\":14364:14384   */\n      tag_313\n        /* \"#utility.yul\":14382:14383   */\n      dup3\n        /* \"#utility.yul\":14364:14384   */\n      tag_162\n      jump\t// in\n    tag_313:\n        /* \"#utility.yul\":14359:14384   */\n      swap2\n      pop\n        /* \"#utility.yul\":14398:14418   */\n      tag_314\n        /* \"#utility.yul\":14416:14417   */\n      dup4\n        /* \"#utility.yul\":14398:14418   */\n      tag_162\n      jump\t// in\n    tag_314:\n        /* \"#utility.yul\":14393:14418   */\n      swap3\n      pop\n        /* \"#utility.yul\":14437:14438   */\n      dup3\n        /* \"#utility.yul\":14427:14462   */\n      tag_315\n      jumpi\n        /* \"#utility.yul\":14442:14460   */\n      tag_316\n      tag_193\n      jump\t// in\n    tag_316:\n        /* \"#utility.yul\":14427:14462   */\n    tag_315:\n        /* \"#utility.yul\":14484:14485   */\n      dup3\n        /* \"#utility.yul\":14481:14482   */\n      dup3\n        /* \"#utility.yul\":14477:14486   */\n      div\n        /* \"#utility.yul\":14472:14486   */\n      swap1\n      pop\n        /* \"#utility.yul\":14307:14492   */\n      swap3\n      swap2\n      pop\n      pop\n      jump\t// out\n        /* \"#utility.yul\":14498:14671   */\n    tag_194:\n        /* \"#utility.yul\":14638:14663   */\n      0x4661696c656420746f207472616e666572207072697a65000000000000000000\n        /* \"#utility.yul\":14634:14635   */\n      0x00\n        /* \"#utility.yul\":14626:14632   */\n      dup3\n        /* \"#utility.yul\":14622:14636   */\n      add\n        /* \"#utility.yul\":14615:14664   */\n      mstore\n        /* \"#utility.yul\":14498:14671   */\n      pop\n      jump\t// out\n        /* \"#utility.yul\":14677:15043   */\n    tag_195:\n        /* \"#utility.yul\":14819:14822   */\n      0x00\n        /* \"#utility.yul\":14840:14907   */\n      tag_319\n        /* \"#utility.yul\":14904:14906   */\n      0x17\n        /* \"#utility.yul\":14899:14902   */\n      dup4\n        /* \"#utility.yul\":14840:14907   */\n      tag_174\n      jump\t// in\n    tag_319:\n        /* \"#utility.yul\":14833:14907   */\n      swap2\n      pop\n        /* \"#utility.yul\":14916:15009   */\n      tag_320\n        /* \"#utility.yul\":15005:15008   */\n      dup3\n        /* \"#utility.yul\":14916:15009   */\n      tag_194\n      jump\t// in\n    tag_320:\n        /* \"#utility.yul\":15034:15036   */\n      0x20\n        /* \"#utility.yul\":15029:15032   */\n      dup3\n        /* \"#utility.yul\":15025:15037   */\n      add\n        /* \"#utility.yul\":15018:15037   */\n      swap1\n      pop\n        /* \"#utility.yul\":14677:15043   */\n      swap2\n      swap1\n      pop\n      jump\t// out\n        /* \"#utility.yul\":15049:15468   */\n    tag_123:\n        /* \"#utility.yul\":15215:15219   */\n      0x00\n        /* \"#utility.yul\":15253:15255   */\n      0x20\n        /* \"#utility.yul\":15242:15251   */\n      dup3\n        /* \"#utility.yul\":15238:15256   */\n      add\n        /* \"#utility.yul\":15230:15256   */\n      swap1\n      pop\n        /* \"#utility.yul\":15302:15311   */\n      dup2\n        /* \"#utility.yul\":15296:15300   */\n      dup2\n        /* \"#utility.yul\":15292:15312   */\n      sub\n        /* \"#utility.yul\":15288:15289   */\n      0x00\n        /* \"#utility.yul\":15277:15286   */\n      dup4\n        /* \"#utility.yul\":15273:15290   */\n      add\n        /* \"#utility.yul\":15266:15313   */\n      mstore\n        /* \"#utility.yul\":15330:15461   */\n      tag_322\n        /* \"#utility.yul\":15456:15460   */\n      dup2\n        /* \"#utility.yul\":15330:15461   */\n      tag_195\n      jump\t// in\n    tag_322:\n        /* \"#utility.yul\":15322:15461   */\n      swap1\n      pop\n        /* \"#utility.yul\":15049:15468   */\n      swap2\n      swap1\n      pop\n      jump\t// out\n        /* \"#utility.yul\":15474:15576   */\n    tag_196:\n        /* \"#utility.yul\":15516:15524   */\n      0x00\n        /* \"#utility.yul\":15563:15568   */\n      dup2\n        /* \"#utility.yul\":15560:15561   */\n      0x00\n        /* \"#utility.yul\":15556:15569   */\n      shr\n        /* \"#utility.yul\":15535:15569   */\n      swap1\n      pop\n        /* \"#utility.yul\":15474:15576   */\n      swap2\n      swap1\n      pop\n      jump\t// out\n        /* \"#utility.yul\":15582:15721   */\n    tag_197:\n        /* \"#utility.yul\":15632:15639   */\n      0x00\n        /* \"#utility.yul\":15672:15714   */\n      0xffffffffffffffffffffffffffffffffffffffff\n        /* \"#utility.yul\":15665:15670   */\n      dup3\n        /* \"#utility.yul\":15661:15715   */\n      and\n        /* \"#utility.yul\":15650:15715   */\n      swap1\n      pop\n        /* \"#utility.yul\":15582:15721   */\n      swap2\n      swap1\n      pop\n      jump\t// out\n        /* \"#utility.yul\":15727:15894   */\n    tag_198:\n        /* \"#utility.yul\":15797:15802   */\n      0x00\n        /* \"#utility.yul\":15822:15888   */\n      tag_326\n        /* \"#utility.yul\":15853:15887   */\n      tag_327\n        /* \"#utility.yul\":15876:15886   */\n      dup4\n        /* \"#utility.yul\":15853:15887   */\n      tag_196\n      jump\t// in\n    tag_327:\n        /* \"#utility.yul\":15822:15888   */\n      tag_197\n      jump\t// in\n    tag_326:\n        /* \"#utility.yul\":15813:15888   */\n      swap1\n      pop\n        /* \"#utility.yul\":15727:15894   */\n      swap2\n      swap1\n      pop\n      jump\t// out\n        /* \"#utility.yul\":15900:15990   */\n    tag_199:\n        /* \"#utility.yul\":15950:15957   */\n      0x00\n        /* \"#utility.yul\":15979:15984   */\n      dup2\n        /* \"#utility.yul\":15968:15984   */\n      swap1\n      pop\n        /* \"#utility.yul\":15900:15990   */\n      swap2\n      swap1\n      pop\n      jump\t// out\n        /* \"#utility.yul\":15996:16163   */\n    tag_200:\n        /* \"#utility.yul\":16066:16071   */\n      0x00\n        /* \"#utility.yul\":16091:16157   */\n      tag_330\n        /* \"#utility.yul\":16122:16156   */\n      tag_331\n        /* \"#utility.yul\":16145:16155   */\n      dup4\n        /* \"#utility.yul\":16122:16156   */\n      tag_196\n      jump\t// in\n    tag_331:\n        /* \"#utility.yul\":16091:16157   */\n      tag_199\n      jump\t// in\n    tag_330:\n        /* \"#utility.yul\":16082:16157   */\n      swap1\n      pop\n        /* \"#utility.yul\":15996:16163   */\n      swap2\n      swap1\n      pop\n      jump\t// out\n        /* \"#utility.yul\":16217:16902   */\n    tag_201:\n        /* \"#utility.yul\":16349:16353   */\n      0x40\n        /* \"#utility.yul\":16344:16347   */\n      dup3\n        /* \"#utility.yul\":16340:16354   */\n      add\n        /* \"#utility.yul\":16380:16381   */\n      0x00\n        /* \"#utility.yul\":16457:16461   */\n      0x00\n        /* \"#utility.yul\":16450:16455   */\n      dup4\n        /* \"#utility.yul\":16446:16462   */\n      add\n        /* \"#utility.yul\":16440:16463   */\n      sload\n        /* \"#utility.yul\":16427:16463   */\n      swap1\n      pop\n        /* \"#utility.yul\":16496:16552   */\n      tag_333\n        /* \"#utility.yul\":16542:16551   */\n      dup2\n        /* \"#utility.yul\":16496:16552   */\n      tag_198\n      jump\t// in\n    tag_333:\n        /* \"#utility.yul\":16565:16628   */\n      tag_334\n        /* \"#utility.yul\":16622:16626   */\n      0x00\n        /* \"#utility.yul\":16617:16620   */\n      dup7\n        /* \"#utility.yul\":16613:16627   */\n      add\n        /* \"#utility.yul\":16599:16611   */\n      dup3\n        /* \"#utility.yul\":16565:16628   */\n      tag_167\n      jump\t// in\n    tag_334:\n        /* \"#utility.yul\":16391:16638   */\n      pop\n        /* \"#utility.yul\":16714:16718   */\n      0x01\n        /* \"#utility.yul\":16707:16712   */\n      dup4\n        /* \"#utility.yul\":16703:16719   */\n      add\n        /* \"#utility.yul\":16697:16720   */\n      sload\n        /* \"#utility.yul\":16684:16720   */\n      swap1\n      pop\n        /* \"#utility.yul\":16753:16809   */\n      tag_335\n        /* \"#utility.yul\":16799:16808   */\n      dup2\n        /* \"#utility.yul\":16753:16809   */\n      tag_200\n      jump\t// in\n    tag_335:\n        /* \"#utility.yul\":16822:16885   */\n      tag_336\n        /* \"#utility.yul\":16879:16883   */\n      0x20\n        /* \"#utility.yul\":16874:16877   */\n      dup7\n        /* \"#utility.yul\":16870:16884   */\n      add\n        /* \"#utility.yul\":16856:16868   */\n      dup3\n        /* \"#utility.yul\":16822:16885   */\n      tag_168\n      jump\t// in\n    tag_336:\n        /* \"#utility.yul\":16648:16895   */\n      pop\n        /* \"#utility.yul\":16318:16902   */\n      pop\n      pop\n        /* \"#utility.yul\":16217:16902   */\n      pop\n      pop\n      jump\t// out\n        /* \"#utility.yul\":16908:17200   */\n    tag_125:\n        /* \"#utility.yul\":17036:17040   */\n      0x00\n        /* \"#utility.yul\":17074:17076   */\n      0x40\n        /* \"#utility.yul\":17063:17072   */\n      dup3\n        /* \"#utility.yul\":17059:17077   */\n      add\n        /* \"#utility.yul\":17051:17077   */\n      swap1\n      pop\n        /* \"#utility.yul\":17087:17193   */\n      tag_338\n        /* \"#utility.yul\":17190:17191   */\n      0x00\n        /* \"#utility.yul\":17179:17188   */\n      dup4\n        /* \"#utility.yul\":17175:17192   */\n      add\n        /* \"#utility.yul\":17166:17172   */\n      dup5\n        /* \"#utility.yul\":17087:17193   */\n      tag_201\n      jump\t// in\n    tag_338:\n        /* \"#utility.yul\":16908:17200   */\n      swap3\n      swap2\n      pop\n      pop\n      jump\t// out\n        /* \"#utility.yul\":17206:17428   */\n    tag_202:\n        /* \"#utility.yul\":17346:17380   */\n      0x54686520616d6f756e74206d75737420626520686967686572207468616e207a\n        /* \"#utility.yul\":17342:17343   */\n      0x00\n        /* \"#utility.yul\":17334:17340   */\n      dup3\n        /* \"#utility.yul\":17330:17344   */\n      add\n        /* \"#utility.yul\":17323:17381   */\n      mstore\n        /* \"#utility.yul\":17415:17420   */\n      0x65726f0000000000000000000000000000000000000000000000000000000000\n        /* \"#utility.yul\":17410:17412   */\n      0x20\n        /* \"#utility.yul\":17402:17408   */\n      dup3\n        /* \"#utility.yul\":17398:17413   */\n      add\n        /* \"#utility.yul\":17391:17421   */\n      mstore\n        /* \"#utility.yul\":17206:17428   */\n      pop\n      jump\t// out\n        /* \"#utility.yul\":17434:17800   */\n    tag_203:\n        /* \"#utility.yul\":17576:17579   */\n      0x00\n        /* \"#utility.yul\":17597:17664   */\n      tag_341\n        /* \"#utility.yul\":17661:17663   */\n      0x23\n        /* \"#utility.yul\":17656:17659   */\n      dup4\n        /* \"#utility.yul\":17597:17664   */\n      tag_174\n      jump\t// in\n    tag_341:\n        /* \"#utility.yul\":17590:17664   */\n      swap2\n      pop\n        /* \"#utility.yul\":17673:17766   */\n      tag_342\n        /* \"#utility.yul\":17762:17765   */\n      dup3\n        /* \"#utility.yul\":17673:17766   */\n      tag_202\n      jump\t// in\n    tag_342:\n        /* \"#utility.yul\":17791:17793   */\n      0x40\n        /* \"#utility.yul\":17786:17789   */\n      dup3\n        /* \"#utility.yul\":17782:17794   */\n      add\n        /* \"#utility.yul\":17775:17794   */\n      swap1\n      pop\n        /* \"#utility.yul\":17434:17800   */\n      swap2\n      swap1\n      pop\n      jump\t// out\n        /* \"#utility.yul\":17806:18225   */\n    tag_145:\n        /* \"#utility.yul\":17972:17976   */\n      0x00\n        /* \"#utility.yul\":18010:18012   */\n      0x20\n        /* \"#utility.yul\":17999:18008   */\n      dup3\n        /* \"#utility.yul\":17995:18013   */\n      add\n        /* \"#utility.yul\":17987:18013   */\n      swap1\n      pop\n        /* \"#utility.yul\":18059:18068   */\n      dup2\n        /* \"#utility.yul\":18053:18057   */\n      dup2\n        /* \"#utility.yul\":18049:18069   */\n      sub\n        /* \"#utility.yul\":18045:18046   */\n      0x00\n        /* \"#utility.yul\":18034:18043   */\n      dup4\n        /* \"#utility.yul\":18030:18047   */\n      add\n        /* \"#utility.yul\":18023:18070   */\n      mstore\n        /* \"#utility.yul\":18087:18218   */\n      tag_344\n        /* \"#utility.yul\":18213:18217   */\n      dup2\n        /* \"#utility.yul\":18087:18218   */\n      tag_203\n      jump\t// in\n    tag_344:\n        /* \"#utility.yul\":18079:18218   */\n      swap1\n      pop\n        /* \"#utility.yul\":17806:18225   */\n      swap2\n      swap1\n      pop\n      jump\t// out\n        /* \"#utility.yul\":18231:18422   */\n    tag_147:\n        /* \"#utility.yul\":18271:18274   */\n      0x00\n        /* \"#utility.yul\":18290:18310   */\n      tag_346\n        /* \"#utility.yul\":18308:18309   */\n      dup3\n        /* \"#utility.yul\":18290:18310   */\n      tag_162\n      jump\t// in\n    tag_346:\n        /* \"#utility.yul\":18285:18310   */\n      swap2\n      pop\n        /* \"#utility.yul\":18324:18344   */\n      tag_347\n        /* \"#utility.yul\":18342:18343   */\n      dup4\n        /* \"#utility.yul\":18324:18344   */\n      tag_162\n      jump\t// in\n    tag_347:\n        /* \"#utility.yul\":18319:18344   */\n      swap3\n      pop\n        /* \"#utility.yul\":18367:18368   */\n      dup3\n        /* \"#utility.yul\":18364:18365   */\n      dup3\n        /* \"#utility.yul\":18360:18369   */\n      add\n        /* \"#utility.yul\":18353:18369   */\n      swap1\n      pop\n        /* \"#utility.yul\":18388:18391   */\n      dup1\n        /* \"#utility.yul\":18385:18386   */\n      dup3\n        /* \"#utility.yul\":18382:18392   */\n      gt\n        /* \"#utility.yul\":18379:18415   */\n      iszero\n      tag_348\n      jumpi\n        /* \"#utility.yul\":18395:18413   */\n      tag_349\n      tag_183\n      jump\t// in\n    tag_349:\n        /* \"#utility.yul\":18379:18415   */\n    tag_348:\n        /* \"#utility.yul\":18231:18422   */\n      swap3\n      swap2\n      pop\n      pop\n      jump\t// out\n        /* \"#utility.yul\":18428:18652   */\n    tag_204:\n        /* \"#utility.yul\":18568:18602   */\n      0x54686520616d6f756e74206973206e6f7420686967686572207468616e207468\n        /* \"#utility.yul\":18564:18565   */\n      0x00\n        /* \"#utility.yul\":18556:18562   */\n      dup3\n        /* \"#utility.yul\":18552:18566   */\n      add\n        /* \"#utility.yul\":18545:18603   */\n      mstore\n        /* \"#utility.yul\":18637:18644   */\n      0x6520676170000000000000000000000000000000000000000000000000000000\n        /* \"#utility.yul\":18632:18634   */\n      0x20\n        /* \"#utility.yul\":18624:18630   */\n      dup3\n        /* \"#utility.yul\":18620:18635   */\n      add\n        /* \"#utility.yul\":18613:18645   */\n      mstore\n        /* \"#utility.yul\":18428:18652   */\n      pop\n      jump\t// out\n        /* \"#utility.yul\":18658:19024   */\n    tag_205:\n        /* \"#utility.yul\":18800:18803   */\n      0x00\n        /* \"#utility.yul\":18821:18888   */\n      tag_352\n        /* \"#utility.yul\":18885:18887   */\n      0x25\n        /* \"#utility.yul\":18880:18883   */\n      dup4\n        /* \"#utility.yul\":18821:18888   */\n      tag_174\n      jump\t// in\n    tag_352:\n        /* \"#utility.yul\":18814:18888   */\n      swap2\n      pop\n        /* \"#utility.yul\":18897:18990   */\n      tag_353\n        /* \"#utility.yul\":18986:18989   */\n      dup3\n        /* \"#utility.yul\":18897:18990   */\n      tag_204\n      jump\t// in\n    tag_353:\n        /* \"#utility.yul\":19015:19017   */\n      0x40\n        /* \"#utility.yul\":19010:19013   */\n      dup3\n        /* \"#utility.yul\":19006:19018   */\n      add\n        /* \"#utility.yul\":18999:19018   */\n      swap1\n      pop\n        /* \"#utility.yul\":18658:19024   */\n      swap2\n      swap1\n      pop\n      jump\t// out\n        /* \"#utility.yul\":19030:19449   */\n    tag_152:\n        /* \"#utility.yul\":19196:19200   */\n      0x00\n        /* \"#utility.yul\":19234:19236   */\n      0x20\n        /* \"#utility.yul\":19223:19232   */\n      dup3\n        /* \"#utility.yul\":19219:19237   */\n      add\n        /* \"#utility.yul\":19211:19237   */\n      swap1\n      pop\n        /* \"#utility.yul\":19283:19292   */\n      dup2\n        /* \"#utility.yul\":19277:19281   */\n      dup2\n        /* \"#utility.yul\":19273:19293   */\n      sub\n        /* \"#utility.yul\":19269:19270   */\n      0x00\n        /* \"#utility.yul\":19258:19267   */\n      dup4\n        /* \"#utility.yul\":19254:19271   */\n      add\n        /* \"#utility.yul\":19247:19294   */\n      mstore\n        /* \"#utility.yul\":19311:19442   */\n      tag_355\n        /* \"#utility.yul\":19437:19441   */\n      dup2\n        /* \"#utility.yul\":19311:19442   */\n      tag_205\n      jump\t// in\n    tag_355:\n        /* \"#utility.yul\":19303:19442   */\n      swap1\n      pop\n        /* \"#utility.yul\":19030:19449   */\n      swap2\n      swap1\n      pop\n      jump\t// out\n\n    auxdata: 0xa2646970667358221220f15eacd86efd4de227bf35ac527f7db04d98ab3542d3aff835c9aeba2be43a1164736f6c634300081e0033\n}\n",
				"bytecode": {
					"linkReferences": {},
					"object": "608060405260015f5f6101000a81548160ff021916908315150217905550348015610028575f5ffd5b50604051611bd3380380611bd3833981810160405281019061004a9190610243565b805f60016101000a81548173ffffffffffffffffffffffffffffffffffffffff021916908373ffffffffffffffffffffffffffffffffffffffff1602179055503360015f6101000a81548173ffffffffffffffffffffffffffffffffffffffff021916908373ffffffffffffffffffffffffffffffffffffffff1602179055505f86146100d757856100da565b60055b6002819055505f85146100ed57846100f0565b60025b6003819055505f831461010f57603c8361010a91906102f9565b610113565b6102585b6006819055505f821461013257603c8261012d91906102f9565b610136565b6102585b6007819055506001841015610180576040517f08c379a0000000000000000000000000000000000000000000000000000000008152600401610177906103ba565b60405180910390fd5b42600481905550603c8461019491906102f9565b6004546101a191906103d8565b60058190555050505050505061040b565b5f5ffd5b5f819050919050565b6101c8816101b6565b81146101d2575f5ffd5b50565b5f815190506101e3816101bf565b92915050565b5f73ffffffffffffffffffffffffffffffffffffffff82169050919050565b5f610212826101e9565b9050919050565b61022281610208565b811461022c575f5ffd5b50565b5f8151905061023d81610219565b92915050565b5f5f5f5f5f5f60c0878903121561025d5761025c6101b2565b5b5f61026a89828a016101d5565b965050602061027b89828a016101d5565b955050604061028c89828a016101d5565b945050606061029d89828a016101d5565b93505060806102ae89828a016101d5565b92505060a06102bf89828a0161022f565b9150509295509295509295565b7f4e487b71000000000000000000000000000000000000000000000000000000005f52601160045260245ffd5b5f610303826101b6565b915061030e836101b6565b925082820261031c816101b6565b91508282048414831517610333576103326102cc565b5b5092915050565b5f82825260208201905092915050565b7f4475726174696f6e206d757374206265206174206c656173742031206d696e755f8201527f7465000000000000000000000000000000000000000000000000000000000000602082015250565b5f6103a460228361033a565b91506103af8261034a565b604082019050919050565b5f6020820190508181035f8301526103d181610398565b9050919050565b5f6103e2826101b6565b91506103ed836101b6565b9250828201905080821115610405576104046102cc565b5b92915050565b6117bb806104185f395ff3fe60806040526004361061009b575f3560e01c80638da5cb5b116100635780638da5cb5b146101495780638e7ea5b214610173578063b0051dab1461019d578063e76320de146101a7578063f400a3d7146101d1578063ffa68839146101fb5761009b565b806308551a531461009f5780634dd40dd5146100c95780636a7798ee146100df578063837b2779146100f55780638d0f6da31461011f575b5f5ffd5b3480156100aa575f5ffd5b506100b3610225565b6040516100c09190610ec8565b60405180910390f35b3480156100d4575f5ffd5b506100dd61024a565b005b3480156100ea575f5ffd5b506100f36104f8565b005b348015610100575f5ffd5b50610109610962565b6040516101169190610ef9565b60405180910390f35b34801561012a575f5ffd5b50610133610968565b6040516101409190611005565b60405180910390f35b348015610154575f5ffd5b5061015d610a22565b60405161016a9190610ec8565b60405180910390f35b34801561017e575f5ffd5b50610187610a47565b6040516101949190611052565b60405180910390f35b6101a5610b03565b005b3480156101b2575f5ffd5b506101bb610e49565b6040516101c89190610ef9565b60405180910390f35b3480156101dc575f5ffd5b506101e5610e4f565b6040516101f29190610ef9565b60405180910390f35b348015610206575f5ffd5b5061020f610e55565b60405161021c9190610ef9565b60405180910390f35b5f60019054906101000a900473ffffffffffffffffffffffffffffffffffffffff1681565b600115155f5f9054906101000a900460ff1615151461029e576040517f08c379a0000000000000000000000000000000000000000000000000000000008152600401610295906110c5565b60405180910390fd5b60055442106102e2576040517f08c379a00000000000000000000000000000000000000000000000000000000081526004016102d99061112d565b60405180910390fd5b5f60085f3373ffffffffffffffffffffffffffffffffffffffff1673ffffffffffffffffffffffffffffffffffffffff1681526020019081526020015f205490505f60095f3373ffffffffffffffffffffffffffffffffffffffff1673ffffffffffffffffffffffffffffffffffffffff1681526020019081526020015f205490505f81036103a6576040517f08c379a000000000000000000000000000000000000000000000000000000000815260040161039d90611195565b60405180910390fd5b8082036103e8576040517f08c379a00000000000000000000000000000000000000000000000000000000081526004016103df90611223565b60405180910390fd5b5f82826103f5919061126e565b90508060095f3373ffffffffffffffffffffffffffffffffffffffff1673ffffffffffffffffffffffffffffffffffffffff1681526020019081526020015f205f828254610443919061126e565b925050819055505f3373ffffffffffffffffffffffffffffffffffffffff168260405161046f906112ce565b5f6040518083038185875af1925050503d805f81146104a9576040519150601f19603f3d011682016040523d82523d5f602084013e6104ae565b606091505b50509050806104f2576040517f08c379a00000000000000000000000000000000000000000000000000000000081526004016104e99061132c565b60405180910390fd5b50505050565b600115155f5f9054906101000a900460ff1615151461054c576040517f08c379a0000000000000000000000000000000000000000000000000000000008152600401610543906110c5565b60405180910390fd5b6005544211610590576040517f08c379a000000000000000000000000000000000000000000000000000000000815260040161058790611394565b60405180910390fd5b60015f9054906101000a900473ffffffffffffffffffffffffffffffffffffffff1673ffffffffffffffffffffffffffffffffffffffff163373ffffffffffffffffffffffffffffffffffffffff161461061f576040517f08c379a000000000000000000000000000000000000000000000000000000000815260040161061690611422565b60405180910390fd5b5f5f5f6101000a81548160ff0219169083151502179055505f5f90505f5f90505f5f5f90505b600a8054905081101561092457600a818154811061066657610665611440565b5b905f5260205f2090600202015f015f9054906101000a900473ffffffffffffffffffffffffffffffffffffffff16915060095f8373ffffffffffffffffffffffffffffffffffffffff1673ffffffffffffffffffffffffffffffffffffffff1681526020019081526020015f205493505f841115610917575f60095f8473ffffffffffffffffffffffffffffffffffffffff1673ffffffffffffffffffffffffffffffffffffffff1681526020019081526020015f2081905550600b5f015f9054906101000a900473ffffffffffffffffffffffffffffffffffffffff1673ffffffffffffffffffffffffffffffffffffffff168273ffffffffffffffffffffffffffffffffffffffff161461084b57606460035485610786919061146d565b61079091906114db565b8461079b919061126e565b92505f8273ffffffffffffffffffffffffffffffffffffffff16846040516107c2906112ce565b5f6040518083038185875af1925050503d805f81146107fc576040519150601f19603f3d011682016040523d82523d5f602084013e610801565b606091505b5050905080610845576040517f08c379a000000000000000000000000000000000000000000000000000000000815260040161083c9061132c565b60405180910390fd5b50610916565b5f5f60019054906101000a900473ffffffffffffffffffffffffffffffffffffffff1673ffffffffffffffffffffffffffffffffffffffff1685604051610891906112ce565b5f6040518083038185875af1925050503d805f81146108cb576040519150601f19603f3d011682016040523d82523d5f602084013e6108d0565b606091505b5050905080610914576040517f08c379a000000000000000000000000000000000000000000000000000000000815260040161090b90611555565b60405180910390fd5b505b5b8080600101915050610645565b507fc897af1a6c31cb1cd7da48799ad3df24bb1a795f8dddece56892eb57b93563ce600b604051610955919061161d565b60405180910390a1505050565b60025481565b6060600a805480602002602001604051908101604052809291908181526020015f905b82821015610a19578382905f5260205f2090600202016040518060400160405290815f82015f9054906101000a900473ffffffffffffffffffffffffffffffffffffffff1673ffffffffffffffffffffffffffffffffffffffff1673ffffffffffffffffffffffffffffffffffffffff1681526020016001820154815250508152602001906001019061098b565b50505050905090565b60015f9054906101000a900473ffffffffffffffffffffffffffffffffffffffff1681565b610a4f610e5b565b6005544211610a93576040517f08c379a0000000000000000000000000000000000000000000000000000000008152600401610a8a90611394565b60405180910390fd5b600b6040518060400160405290815f82015f9054906101000a900473ffffffffffffffffffffffffffffffffffffffff1673ffffffffffffffffffffffffffffffffffffffff1673ffffffffffffffffffffffffffffffffffffffff168152602001600182015481525050905090565b600115155f5f9054906101000a900460ff16151514610b57576040517f08c379a0000000000000000000000000000000000000000000000000000000008152600401610b4e906110c5565b60405180910390fd5b6005544210610b9b576040517f08c379a0000000000000000000000000000000000000000000000000000000008152600401610b929061112d565b60405180910390fd5b5f3411610bdd576040517f08c379a0000000000000000000000000000000000000000000000000000000008152600401610bd4906116a6565b60405180910390fd5b6002546064610bec91906116c4565b600b60010154610bfc919061146d565b606434610c09919061146d565b1015610c4a576040517f08c379a0000000000000000000000000000000000000000000000000000000008152600401610c4190611767565b60405180910390fd5b3460085f3373ffffffffffffffffffffffffffffffffffffffff1673ffffffffffffffffffffffffffffffffffffffff1681526020019081526020015f20819055503460095f3373ffffffffffffffffffffffffffffffffffffffff1673ffffffffffffffffffffffffffffffffffffffff1681526020019081526020015f205f828254610cd891906116c4565b92505081905550600a60405180604001604052803373ffffffffffffffffffffffffffffffffffffffff16815260200134815250908060018154018082558091505060019003905f5260205f2090600202015f909190919091505f820151815f015f6101000a81548173ffffffffffffffffffffffffffffffffffffffff021916908373ffffffffffffffffffffffffffffffffffffffff16021790555060208201518160010155505034600b6001018190555033600b5f015f6101000a81548173ffffffffffffffffffffffffffffffffffffffff021916908373ffffffffffffffffffffffffffffffffffffffff1602179055503373ffffffffffffffffffffffffffffffffffffffff167f058d619527549e88853c641ebcec23205e5df61592e3908275721b5ad490113f34604051610e149190610ef9565b60405180910390a2600754600554610e2c919061126e565b4210610e475760065442610e4091906116c4565b6005819055505b565b60035481565b60055481565b60045481565b60405180604001604052805f73ffffffffffffffffffffffffffffffffffffffff1681526020015f81525090565b5f73ffffffffffffffffffffffffffffffffffffffff82169050919050565b5f610eb282610e89565b9050919050565b610ec281610ea8565b82525050565b5f602082019050610edb5f830184610eb9565b92915050565b5f819050919050565b610ef381610ee1565b82525050565b5f602082019050610f0c5f830184610eea565b92915050565b5f81519050919050565b5f82825260208201905092915050565b5f819050602082019050919050565b610f4481610ea8565b82525050565b610f5381610ee1565b82525050565b604082015f820151610f6d5f850182610f3b565b506020820151610f806020850182610f4a565b50505050565b5f610f918383610f59565b60408301905092915050565b5f602082019050919050565b5f610fb382610f12565b610fbd8185610f1c565b9350610fc883610f2c565b805f5b83811015610ff8578151610fdf8882610f86565b9750610fea83610f9d565b925050600181019050610fcb565b5085935050505092915050565b5f6020820190508181035f83015261101d8184610fa9565b905092915050565b604082015f8201516110395f850182610f3b565b50602082015161104c6020850182610f4a565b50505050565b5f6040820190506110655f830184611025565b92915050565b5f82825260208201905092915050565b7f5468652041756374696f6e206973206e6f74206c6f6e676572206163746976655f82015250565b5f6110af60208361106b565b91506110ba8261107b565b602082019050919050565b5f6020820190508181035f8301526110dc816110a3565b9050919050565b7f5468652041756374696f6e2068617320656e64656400000000000000000000005f82015250565b5f61111760158361106b565b9150611122826110e3565b602082019050919050565b5f6020820190508181035f8301526111448161110b565b9050919050565b7f4e6f206269647320776572652072656365697665642066726f6d20796f7500005f82015250565b5f61117f601e8361106b565b915061118a8261114b565b602082019050919050565b5f6020820190508181035f8301526111ac81611173565b9050919050565b7f5468657265206973206e6f207061727469616c20616d6f756e7420746f2072655f8201527f66756e6400000000000000000000000000000000000000000000000000000000602082015250565b5f61120d60248361106b565b9150611218826111b3565b604082019050919050565b5f6020820190508181035f83015261123a81611201565b9050919050565b7f4e487b71000000000000000000000000000000000000000000000000000000005f52601160045260245ffd5b5f61127882610ee1565b915061128383610ee1565b925082820390508181111561129b5761129a611241565b5b92915050565b5f81905092915050565b50565b5f6112b95f836112a1565b91506112c4826112ab565b5f82019050919050565b5f6112d8826112ae565b9150819050919050565b7f4661696c656420746f20726566756e64000000000000000000000000000000005f82015250565b5f61131660108361106b565b9150611321826112e2565b602082019050919050565b5f6020820190508181035f8301526113438161130a565b9050919050565b7f5468652041756374696f6e20686173206e6f7420656e646564000000000000005f82015250565b5f61137e60198361106b565b91506113898261134a565b602082019050919050565b5f6020820190508181035f8301526113ab81611372565b9050919050565b7f4f6e6c7920746865204f776e65722063616e20656e64207468652041756374695f8201527f6f6e000000000000000000000000000000000000000000000000000000000000602082015250565b5f61140c60228361106b565b9150611417826113b2565b604082019050919050565b5f6020820190508181035f83015261143981611400565b9050919050565b7f4e487b71000000000000000000000000000000000000000000000000000000005f52603260045260245ffd5b5f61147782610ee1565b915061148283610ee1565b925082820261149081610ee1565b915082820484148315176114a7576114a6611241565b5b5092915050565b7f4e487b71000000000000000000000000000000000000000000000000000000005f52601260045260245ffd5b5f6114e582610ee1565b91506114f083610ee1565b925082611500576114ff6114ae565b5b828204905092915050565b7f4661696c656420746f207472616e666572207072697a650000000000000000005f82015250565b5f61153f60178361106b565b915061154a8261150b565b602082019050919050565b5f6020820190508181035f83015261156c81611533565b9050919050565b5f815f1c9050919050565b5f73ffffffffffffffffffffffffffffffffffffffff82169050919050565b5f6115af6115aa83611573565b61157e565b9050919050565b5f819050919050565b5f6115d16115cc83611573565b6115b6565b9050919050565b604082015f5f83015490506115ec8161159d565b6115f85f860182610f3b565b5060018301549050611609816115bf565b6116166020860182610f4a565b5050505050565b5f6040820190506116305f8301846115d8565b92915050565b7f54686520616d6f756e74206d75737420626520686967686572207468616e207a5f8201527f65726f0000000000000000000000000000000000000000000000000000000000602082015250565b5f61169060238361106b565b915061169b82611636565b604082019050919050565b5f6020820190508181035f8301526116bd81611684565b9050919050565b5f6116ce82610ee1565b91506116d983610ee1565b92508282019050808211156116f1576116f0611241565b5b92915050565b7f54686520616d6f756e74206973206e6f7420686967686572207468616e2074685f8201527f6520676170000000000000000000000000000000000000000000000000000000602082015250565b5f61175160258361106b565b915061175c826116f7565b604082019050919050565b5f6020820190508181035f83015261177e81611745565b905091905056fea2646970667358221220f15eacd86efd4de227bf35ac527f7db04d98ab3542d3aff835c9aeba2be43a1164736f6c634300081e0033",
					"opcodes": "PUSH1 0x80 PUSH1 0x40 MSTORE PUSH1 0x1 PUSH0 PUSH0 PUSH2 0x100 EXP DUP2 SLOAD DUP2 PUSH1 0xFF MUL NOT AND SWAP1 DUP4 ISZERO ISZERO MUL OR SWAP1 SSTORE POP CALLVALUE DUP1 ISZERO PUSH2 0x28 JUMPI PUSH0 PUSH0 REVERT JUMPDEST POP PUSH1 0x40 MLOAD PUSH2 0x1BD3 CODESIZE SUB DUP1 PUSH2 0x1BD3 DUP4 CODECOPY DUP2 DUP2 ADD PUSH1 0x40 MSTORE DUP2 ADD SWAP1 PUSH2 0x4A SWAP2 SWAP1 PUSH2 0x243 JUMP JUMPDEST DUP1 PUSH0 PUSH1 0x1 PUSH2 0x100 EXP DUP2 SLOAD DUP2 PUSH20 0xFFFFFFFFFFFFFFFFFFFFFFFFFFFFFFFFFFFFFFFF MUL NOT AND SWAP1 DUP4 PUSH20 0xFFFFFFFFFFFFFFFFFFFFFFFFFFFFFFFFFFFFFFFF AND MUL OR SWAP1 SSTORE POP CALLER PUSH1 0x1 PUSH0 PUSH2 0x100 EXP DUP2 SLOAD DUP2 PUSH20 0xFFFFFFFFFFFFFFFFFFFFFFFFFFFFFFFFFFFFFFFF MUL NOT AND SWAP1 DUP4 PUSH20 0xFFFFFFFFFFFFFFFFFFFFFFFFFFFFFFFFFFFFFFFF AND MUL OR SWAP1 SSTORE POP PUSH0 DUP7 EQ PUSH2 0xD7 JUMPI DUP6 PUSH2 0xDA JUMP JUMPDEST PUSH1 0x5 JUMPDEST PUSH1 0x2 DUP2 SWAP1 SSTORE POP PUSH0 DUP6 EQ PUSH2 0xED JUMPI DUP5 PUSH2 0xF0 JUMP JUMPDEST PUSH1 0x2 JUMPDEST PUSH1 0x3 DUP2 SWAP1 SSTORE POP PUSH0 DUP4 EQ PUSH2 0x10F JUMPI PUSH1 0x3C DUP4 PUSH2 0x10A SWAP2 SWAP1 PUSH2 0x2F9 JUMP JUMPDEST PUSH2 0x113 JUMP JUMPDEST PUSH2 0x258 JUMPDEST PUSH1 0x6 DUP2 SWAP1 SSTORE POP PUSH0 DUP3 EQ PUSH2 0x132 JUMPI PUSH1 0x3C DUP3 PUSH2 0x12D SWAP2 SWAP1 PUSH2 0x2F9 JUMP JUMPDEST PUSH2 0x136 JUMP JUMPDEST PUSH2 0x258 JUMPDEST PUSH1 0x7 DUP2 SWAP1 SSTORE POP PUSH1 0x1 DUP5 LT ISZERO PUSH2 0x180 JUMPI PUSH1 0x40 MLOAD PUSH32 0x8C379A000000000000000000000000000000000000000000000000000000000 DUP2 MSTORE PUSH1 0x4 ADD PUSH2 0x177 SWAP1 PUSH2 0x3BA JUMP JUMPDEST PUSH1 0x40 MLOAD DUP1 SWAP2 SUB SWAP1 REVERT JUMPDEST TIMESTAMP PUSH1 0x4 DUP2 SWAP1 SSTORE POP PUSH1 0x3C DUP5 PUSH2 0x194 SWAP2 SWAP1 PUSH2 0x2F9 JUMP JUMPDEST PUSH1 0x4 SLOAD PUSH2 0x1A1 SWAP2 SWAP1 PUSH2 0x3D8 JUMP JUMPDEST PUSH1 0x5 DUP2 SWAP1 SSTORE POP POP POP POP POP POP POP PUSH2 0x40B JUMP JUMPDEST PUSH0 PUSH0 REVERT JUMPDEST PUSH0 DUP2 SWAP1 POP SWAP2 SWAP1 POP JUMP JUMPDEST PUSH2 0x1C8 DUP2 PUSH2 0x1B6 JUMP JUMPDEST DUP2 EQ PUSH2 0x1D2 JUMPI PUSH0 PUSH0 REVERT JUMPDEST POP JUMP JUMPDEST PUSH0 DUP2 MLOAD SWAP1 POP PUSH2 0x1E3 DUP2 PUSH2 0x1BF JUMP JUMPDEST SWAP3 SWAP2 POP POP JUMP JUMPDEST PUSH0 PUSH20 0xFFFFFFFFFFFFFFFFFFFFFFFFFFFFFFFFFFFFFFFF DUP3 AND SWAP1 POP SWAP2 SWAP1 POP JUMP JUMPDEST PUSH0 PUSH2 0x212 DUP3 PUSH2 0x1E9 JUMP JUMPDEST SWAP1 POP SWAP2 SWAP1 POP JUMP JUMPDEST PUSH2 0x222 DUP2 PUSH2 0x208 JUMP JUMPDEST DUP2 EQ PUSH2 0x22C JUMPI PUSH0 PUSH0 REVERT JUMPDEST POP JUMP JUMPDEST PUSH0 DUP2 MLOAD SWAP1 POP PUSH2 0x23D DUP2 PUSH2 0x219 JUMP JUMPDEST SWAP3 SWAP2 POP POP JUMP JUMPDEST PUSH0 PUSH0 PUSH0 PUSH0 PUSH0 PUSH0 PUSH1 0xC0 DUP8 DUP10 SUB SLT ISZERO PUSH2 0x25D JUMPI PUSH2 0x25C PUSH2 0x1B2 JUMP JUMPDEST JUMPDEST PUSH0 PUSH2 0x26A DUP10 DUP3 DUP11 ADD PUSH2 0x1D5 JUMP JUMPDEST SWAP7 POP POP PUSH1 0x20 PUSH2 0x27B DUP10 DUP3 DUP11 ADD PUSH2 0x1D5 JUMP JUMPDEST SWAP6 POP POP PUSH1 0x40 PUSH2 0x28C DUP10 DUP3 DUP11 ADD PUSH2 0x1D5 JUMP JUMPDEST SWAP5 POP POP PUSH1 0x60 PUSH2 0x29D DUP10 DUP3 DUP11 ADD PUSH2 0x1D5 JUMP JUMPDEST SWAP4 POP POP PUSH1 0x80 PUSH2 0x2AE DUP10 DUP3 DUP11 ADD PUSH2 0x1D5 JUMP JUMPDEST SWAP3 POP POP PUSH1 0xA0 PUSH2 0x2BF DUP10 DUP3 DUP11 ADD PUSH2 0x22F JUMP JUMPDEST SWAP2 POP POP SWAP3 SWAP6 POP SWAP3 SWAP6 POP SWAP3 SWAP6 JUMP JUMPDEST PUSH32 0x4E487B7100000000000000000000000000000000000000000000000000000000 PUSH0 MSTORE PUSH1 0x11 PUSH1 0x4 MSTORE PUSH1 0x24 PUSH0 REVERT JUMPDEST PUSH0 PUSH2 0x303 DUP3 PUSH2 0x1B6 JUMP JUMPDEST SWAP2 POP PUSH2 0x30E DUP4 PUSH2 0x1B6 JUMP JUMPDEST SWAP3 POP DUP3 DUP3 MUL PUSH2 0x31C DUP2 PUSH2 0x1B6 JUMP JUMPDEST SWAP2 POP DUP3 DUP3 DIV DUP5 EQ DUP4 ISZERO OR PUSH2 0x333 JUMPI PUSH2 0x332 PUSH2 0x2CC JUMP JUMPDEST JUMPDEST POP SWAP3 SWAP2 POP POP JUMP JUMPDEST PUSH0 DUP3 DUP3 MSTORE PUSH1 0x20 DUP3 ADD SWAP1 POP SWAP3 SWAP2 POP POP JUMP JUMPDEST PUSH32 0x4475726174696F6E206D757374206265206174206C656173742031206D696E75 PUSH0 DUP3 ADD MSTORE PUSH32 0x7465000000000000000000000000000000000000000000000000000000000000 PUSH1 0x20 DUP3 ADD MSTORE POP JUMP JUMPDEST PUSH0 PUSH2 0x3A4 PUSH1 0x22 DUP4 PUSH2 0x33A JUMP JUMPDEST SWAP2 POP PUSH2 0x3AF DUP3 PUSH2 0x34A JUMP JUMPDEST PUSH1 0x40 DUP3 ADD SWAP1 POP SWAP2 SWAP1 POP JUMP JUMPDEST PUSH0 PUSH1 0x20 DUP3 ADD SWAP1 POP DUP2 DUP2 SUB PUSH0 DUP4 ADD MSTORE PUSH2 0x3D1 DUP2 PUSH2 0x398 JUMP JUMPDEST SWAP1 POP SWAP2 SWAP1 POP JUMP JUMPDEST PUSH0 PUSH2 0x3E2 DUP3 PUSH2 0x1B6 JUMP JUMPDEST SWAP2 POP PUSH2 0x3ED DUP4 PUSH2 0x1B6 JUMP JUMPDEST SWAP3 POP DUP3 DUP3 ADD SWAP1 POP DUP1 DUP3 GT ISZERO PUSH2 0x405 JUMPI PUSH2 0x404 PUSH2 0x2CC JUMP JUMPDEST JUMPDEST SWAP3 SWAP2 POP POP JUMP JUMPDEST PUSH2 0x17BB DUP1 PUSH2 0x418 PUSH0 CODECOPY PUSH0 RETURN INVALID PUSH1 0x80 PUSH1 0x40 MSTORE PUSH1 0x4 CALLDATASIZE LT PUSH2 0x9B JUMPI PUSH0 CALLDATALOAD PUSH1 0xE0 SHR DUP1 PUSH4 0x8DA5CB5B GT PUSH2 0x63 JUMPI DUP1 PUSH4 0x8DA5CB5B EQ PUSH2 0x149 JUMPI DUP1 PUSH4 0x8E7EA5B2 EQ PUSH2 0x173 JUMPI DUP1 PUSH4 0xB0051DAB EQ PUSH2 0x19D JUMPI DUP1 PUSH4 0xE76320DE EQ PUSH2 0x1A7 JUMPI DUP1 PUSH4 0xF400A3D7 EQ PUSH2 0x1D1 JUMPI DUP1 PUSH4 0xFFA68839 EQ PUSH2 0x1FB JUMPI PUSH2 0x9B JUMP JUMPDEST DUP1 PUSH4 0x8551A53 EQ PUSH2 0x9F JUMPI DUP1 PUSH4 0x4DD40DD5 EQ PUSH2 0xC9 JUMPI DUP1 PUSH4 0x6A7798EE EQ PUSH2 0xDF JUMPI DUP1 PUSH4 0x837B2779 EQ PUSH2 0xF5 JUMPI DUP1 PUSH4 0x8D0F6DA3 EQ PUSH2 0x11F JUMPI JUMPDEST PUSH0 PUSH0 REVERT JUMPDEST CALLVALUE DUP1 ISZERO PUSH2 0xAA JUMPI PUSH0 PUSH0 REVERT JUMPDEST POP PUSH2 0xB3 PUSH2 0x225 JUMP JUMPDEST PUSH1 0x40 MLOAD PUSH2 0xC0 SWAP2 SWAP1 PUSH2 0xEC8 JUMP JUMPDEST PUSH1 0x40 MLOAD DUP1 SWAP2 SUB SWAP1 RETURN JUMPDEST CALLVALUE DUP1 ISZERO PUSH2 0xD4 JUMPI PUSH0 PUSH0 REVERT JUMPDEST POP PUSH2 0xDD PUSH2 0x24A JUMP JUMPDEST STOP JUMPDEST CALLVALUE DUP1 ISZERO PUSH2 0xEA JUMPI PUSH0 PUSH0 REVERT JUMPDEST POP PUSH2 0xF3 PUSH2 0x4F8 JUMP JUMPDEST STOP JUMPDEST CALLVALUE DUP1 ISZERO PUSH2 0x100 JUMPI PUSH0 PUSH0 REVERT JUMPDEST POP PUSH2 0x109 PUSH2 0x962 JUMP JUMPDEST PUSH1 0x40 MLOAD PUSH2 0x116 SWAP2 SWAP1 PUSH2 0xEF9 JUMP JUMPDEST PUSH1 0x40 MLOAD DUP1 SWAP2 SUB SWAP1 RETURN JUMPDEST CALLVALUE DUP1 ISZERO PUSH2 0x12A JUMPI PUSH0 PUSH0 REVERT JUMPDEST POP PUSH2 0x133 PUSH2 0x968 JUMP JUMPDEST PUSH1 0x40 MLOAD PUSH2 0x140 SWAP2 SWAP1 PUSH2 0x1005 JUMP JUMPDEST PUSH1 0x40 MLOAD DUP1 SWAP2 SUB SWAP1 RETURN JUMPDEST CALLVALUE DUP1 ISZERO PUSH2 0x154 JUMPI PUSH0 PUSH0 REVERT JUMPDEST POP PUSH2 0x15D PUSH2 0xA22 JUMP JUMPDEST PUSH1 0x40 MLOAD PUSH2 0x16A SWAP2 SWAP1 PUSH2 0xEC8 JUMP JUMPDEST PUSH1 0x40 MLOAD DUP1 SWAP2 SUB SWAP1 RETURN JUMPDEST CALLVALUE DUP1 ISZERO PUSH2 0x17E JUMPI PUSH0 PUSH0 REVERT JUMPDEST POP PUSH2 0x187 PUSH2 0xA47 JUMP JUMPDEST PUSH1 0x40 MLOAD PUSH2 0x194 SWAP2 SWAP1 PUSH2 0x1052 JUMP JUMPDEST PUSH1 0x40 MLOAD DUP1 SWAP2 SUB SWAP1 RETURN JUMPDEST PUSH2 0x1A5 PUSH2 0xB03 JUMP JUMPDEST STOP JUMPDEST CALLVALUE DUP1 ISZERO PUSH2 0x1B2 JUMPI PUSH0 PUSH0 REVERT JUMPDEST POP PUSH2 0x1BB PUSH2 0xE49 JUMP JUMPDEST PUSH1 0x40 MLOAD PUSH2 0x1C8 SWAP2 SWAP1 PUSH2 0xEF9 JUMP JUMPDEST PUSH1 0x40 MLOAD DUP1 SWAP2 SUB SWAP1 RETURN JUMPDEST CALLVALUE DUP1 ISZERO PUSH2 0x1DC JUMPI PUSH0 PUSH0 REVERT JUMPDEST POP PUSH2 0x1E5 PUSH2 0xE4F JUMP JUMPDEST PUSH1 0x40 MLOAD PUSH2 0x1F2 SWAP2 SWAP1 PUSH2 0xEF9 JUMP JUMPDEST PUSH1 0x40 MLOAD DUP1 SWAP2 SUB SWAP1 RETURN JUMPDEST CALLVALUE DUP1 ISZERO PUSH2 0x206 JUMPI PUSH0 PUSH0 REVERT JUMPDEST POP PUSH2 0x20F PUSH2 0xE55 JUMP JUMPDEST PUSH1 0x40 MLOAD PUSH2 0x21C SWAP2 SWAP1 PUSH2 0xEF9 JUMP JUMPDEST PUSH1 0x40 MLOAD DUP1 SWAP2 SUB SWAP1 RETURN JUMPDEST PUSH0 PUSH1 0x1 SWAP1 SLOAD SWAP1 PUSH2 0x100 EXP SWAP1 DIV PUSH20 0xFFFFFFFFFFFFFFFFFFFFFFFFFFFFFFFFFFFFFFFF AND DUP2 JUMP JUMPDEST PUSH1 0x1 ISZERO ISZERO PUSH0 PUSH0 SWAP1 SLOAD SWAP1 PUSH2 0x100 EXP SWAP1 DIV PUSH1 0xFF AND ISZERO ISZERO EQ PUSH2 0x29E JUMPI PUSH1 0x40 MLOAD PUSH32 0x8C379A000000000000000000000000000000000000000000000000000000000 DUP2 MSTORE PUSH1 0x4 ADD PUSH2 0x295 SWAP1 PUSH2 0x10C5 JUMP JUMPDEST PUSH1 0x40 MLOAD DUP1 SWAP2 SUB SWAP1 REVERT JUMPDEST PUSH1 0x5 SLOAD TIMESTAMP LT PUSH2 0x2E2 JUMPI PUSH1 0x40 MLOAD PUSH32 0x8C379A000000000000000000000000000000000000000000000000000000000 DUP2 MSTORE PUSH1 0x4 ADD PUSH2 0x2D9 SWAP1 PUSH2 0x112D JUMP JUMPDEST PUSH1 0x40 MLOAD DUP1 SWAP2 SUB SWAP1 REVERT JUMPDEST PUSH0 PUSH1 0x8 PUSH0 CALLER PUSH20 0xFFFFFFFFFFFFFFFFFFFFFFFFFFFFFFFFFFFFFFFF AND PUSH20 0xFFFFFFFFFFFFFFFFFFFFFFFFFFFFFFFFFFFFFFFF AND DUP2 MSTORE PUSH1 0x20 ADD SWAP1 DUP2 MSTORE PUSH1 0x20 ADD PUSH0 KECCAK256 SLOAD SWAP1 POP PUSH0 PUSH1 0x9 PUSH0 CALLER PUSH20 0xFFFFFFFFFFFFFFFFFFFFFFFFFFFFFFFFFFFFFFFF AND PUSH20 0xFFFFFFFFFFFFFFFFFFFFFFFFFFFFFFFFFFFFFFFF AND DUP2 MSTORE PUSH1 0x20 ADD SWAP1 DUP2 MSTORE PUSH1 0x20 ADD PUSH0 KECCAK256 SLOAD SWAP1 POP PUSH0 DUP2 SUB PUSH2 0x3A6 JUMPI PUSH1 0x40 MLOAD PUSH32 0x8C379A000000000000000000000000000000000000000000000000000000000 DUP2 MSTORE PUSH1 0x4 ADD PUSH2 0x39D SWAP1 PUSH2 0x1195 JUMP JUMPDEST PUSH1 0x40 MLOAD DUP1 SWAP2 SUB SWAP1 REVERT JUMPDEST DUP1 DUP3 SUB PUSH2 0x3E8 JUMPI PUSH1 0x40 MLOAD PUSH32 0x8C379A000000000000000000000000000000000000000000000000000000000 DUP2 MSTORE PUSH1 0x4 ADD PUSH2 0x3DF SWAP1 PUSH2 0x1223 JUMP JUMPDEST PUSH1 0x40 MLOAD DUP1 SWAP2 SUB SWAP1 REVERT JUMPDEST PUSH0 DUP3 DUP3 PUSH2 0x3F5 SWAP2 SWAP1 PUSH2 0x126E JUMP JUMPDEST SWAP1 POP DUP1 PUSH1 0x9 PUSH0 CALLER PUSH20 0xFFFFFFFFFFFFFFFFFFFFFFFFFFFFFFFFFFFFFFFF AND PUSH20 0xFFFFFFFFFFFFFFFFFFFFFFFFFFFFFFFFFFFFFFFF AND DUP2 MSTORE PUSH1 0x20 ADD SWAP1 DUP2 MSTORE PUSH1 0x20 ADD PUSH0 KECCAK256 PUSH0 DUP3 DUP3 SLOAD PUSH2 0x443 SWAP2 SWAP1 PUSH2 0x126E JUMP JUMPDEST SWAP3 POP POP DUP2 SWAP1 SSTORE POP PUSH0 CALLER PUSH20 0xFFFFFFFFFFFFFFFFFFFFFFFFFFFFFFFFFFFFFFFF AND DUP3 PUSH1 0x40 MLOAD PUSH2 0x46F SWAP1 PUSH2 0x12CE JUMP JUMPDEST PUSH0 PUSH1 0x40 MLOAD DUP1 DUP4 SUB DUP2 DUP6 DUP8 GAS CALL SWAP3 POP POP POP RETURNDATASIZE DUP1 PUSH0 DUP2 EQ PUSH2 0x4A9 JUMPI PUSH1 0x40 MLOAD SWAP2 POP PUSH1 0x1F NOT PUSH1 0x3F RETURNDATASIZE ADD AND DUP3 ADD PUSH1 0x40 MSTORE RETURNDATASIZE DUP3 MSTORE RETURNDATASIZE PUSH0 PUSH1 0x20 DUP5 ADD RETURNDATACOPY PUSH2 0x4AE JUMP JUMPDEST PUSH1 0x60 SWAP2 POP JUMPDEST POP POP SWAP1 POP DUP1 PUSH2 0x4F2 JUMPI PUSH1 0x40 MLOAD PUSH32 0x8C379A000000000000000000000000000000000000000000000000000000000 DUP2 MSTORE PUSH1 0x4 ADD PUSH2 0x4E9 SWAP1 PUSH2 0x132C JUMP JUMPDEST PUSH1 0x40 MLOAD DUP1 SWAP2 SUB SWAP1 REVERT JUMPDEST POP POP POP POP JUMP JUMPDEST PUSH1 0x1 ISZERO ISZERO PUSH0 PUSH0 SWAP1 SLOAD SWAP1 PUSH2 0x100 EXP SWAP1 DIV PUSH1 0xFF AND ISZERO ISZERO EQ PUSH2 0x54C JUMPI PUSH1 0x40 MLOAD PUSH32 0x8C379A000000000000000000000000000000000000000000000000000000000 DUP2 MSTORE PUSH1 0x4 ADD PUSH2 0x543 SWAP1 PUSH2 0x10C5 JUMP JUMPDEST PUSH1 0x40 MLOAD DUP1 SWAP2 SUB SWAP1 REVERT JUMPDEST PUSH1 0x5 SLOAD TIMESTAMP GT PUSH2 0x590 JUMPI PUSH1 0x40 MLOAD PUSH32 0x8C379A000000000000000000000000000000000000000000000000000000000 DUP2 MSTORE PUSH1 0x4 ADD PUSH2 0x587 SWAP1 PUSH2 0x1394 JUMP JUMPDEST PUSH1 0x40 MLOAD DUP1 SWAP2 SUB SWAP1 REVERT JUMPDEST PUSH1 0x1 PUSH0 SWAP1 SLOAD SWAP1 PUSH2 0x100 EXP SWAP1 DIV PUSH20 0xFFFFFFFFFFFFFFFFFFFFFFFFFFFFFFFFFFFFFFFF AND PUSH20 0xFFFFFFFFFFFFFFFFFFFFFFFFFFFFFFFFFFFFFFFF AND CALLER PUSH20 0xFFFFFFFFFFFFFFFFFFFFFFFFFFFFFFFFFFFFFFFF AND EQ PUSH2 0x61F JUMPI PUSH1 0x40 MLOAD PUSH32 0x8C379A000000000000000000000000000000000000000000000000000000000 DUP2 MSTORE PUSH1 0x4 ADD PUSH2 0x616 SWAP1 PUSH2 0x1422 JUMP JUMPDEST PUSH1 0x40 MLOAD DUP1 SWAP2 SUB SWAP1 REVERT JUMPDEST PUSH0 PUSH0 PUSH0 PUSH2 0x100 EXP DUP2 SLOAD DUP2 PUSH1 0xFF MUL NOT AND SWAP1 DUP4 ISZERO ISZERO MUL OR SWAP1 SSTORE POP PUSH0 PUSH0 SWAP1 POP PUSH0 PUSH0 SWAP1 POP PUSH0 PUSH0 PUSH0 SWAP1 POP JUMPDEST PUSH1 0xA DUP1 SLOAD SWAP1 POP DUP2 LT ISZERO PUSH2 0x924 JUMPI PUSH1 0xA DUP2 DUP2 SLOAD DUP2 LT PUSH2 0x666 JUMPI PUSH2 0x665 PUSH2 0x1440 JUMP JUMPDEST JUMPDEST SWAP1 PUSH0 MSTORE PUSH1 0x20 PUSH0 KECCAK256 SWAP1 PUSH1 0x2 MUL ADD PUSH0 ADD PUSH0 SWAP1 SLOAD SWAP1 PUSH2 0x100 EXP SWAP1 DIV PUSH20 0xFFFFFFFFFFFFFFFFFFFFFFFFFFFFFFFFFFFFFFFF AND SWAP2 POP PUSH1 0x9 PUSH0 DUP4 PUSH20 0xFFFFFFFFFFFFFFFFFFFFFFFFFFFFFFFFFFFFFFFF AND PUSH20 0xFFFFFFFFFFFFFFFFFFFFFFFFFFFFFFFFFFFFFFFF AND DUP2 MSTORE PUSH1 0x20 ADD SWAP1 DUP2 MSTORE PUSH1 0x20 ADD PUSH0 KECCAK256 SLOAD SWAP4 POP PUSH0 DUP5 GT ISZERO PUSH2 0x917 JUMPI PUSH0 PUSH1 0x9 PUSH0 DUP5 PUSH20 0xFFFFFFFFFFFFFFFFFFFFFFFFFFFFFFFFFFFFFFFF AND PUSH20 0xFFFFFFFFFFFFFFFFFFFFFFFFFFFFFFFFFFFFFFFF AND DUP2 MSTORE PUSH1 0x20 ADD SWAP1 DUP2 MSTORE PUSH1 0x20 ADD PUSH0 KECCAK256 DUP2 SWAP1 SSTORE POP PUSH1 0xB PUSH0 ADD PUSH0 SWAP1 SLOAD SWAP1 PUSH2 0x100 EXP SWAP1 DIV PUSH20 0xFFFFFFFFFFFFFFFFFFFFFFFFFFFFFFFFFFFFFFFF AND PUSH20 0xFFFFFFFFFFFFFFFFFFFFFFFFFFFFFFFFFFFFFFFF AND DUP3 PUSH20 0xFFFFFFFFFFFFFFFFFFFFFFFFFFFFFFFFFFFFFFFF AND EQ PUSH2 0x84B JUMPI PUSH1 0x64 PUSH1 0x3 SLOAD DUP6 PUSH2 0x786 SWAP2 SWAP1 PUSH2 0x146D JUMP JUMPDEST PUSH2 0x790 SWAP2 SWAP1 PUSH2 0x14DB JUMP JUMPDEST DUP5 PUSH2 0x79B SWAP2 SWAP1 PUSH2 0x126E JUMP JUMPDEST SWAP3 POP PUSH0 DUP3 PUSH20 0xFFFFFFFFFFFFFFFFFFFFFFFFFFFFFFFFFFFFFFFF AND DUP5 PUSH1 0x40 MLOAD PUSH2 0x7C2 SWAP1 PUSH2 0x12CE JUMP JUMPDEST PUSH0 PUSH1 0x40 MLOAD DUP1 DUP4 SUB DUP2 DUP6 DUP8 GAS CALL SWAP3 POP POP POP RETURNDATASIZE DUP1 PUSH0 DUP2 EQ PUSH2 0x7FC JUMPI PUSH1 0x40 MLOAD SWAP2 POP PUSH1 0x1F NOT PUSH1 0x3F RETURNDATASIZE ADD AND DUP3 ADD PUSH1 0x40 MSTORE RETURNDATASIZE DUP3 MSTORE RETURNDATASIZE PUSH0 PUSH1 0x20 DUP5 ADD RETURNDATACOPY PUSH2 0x801 JUMP JUMPDEST PUSH1 0x60 SWAP2 POP JUMPDEST POP POP SWAP1 POP DUP1 PUSH2 0x845 JUMPI PUSH1 0x40 MLOAD PUSH32 0x8C379A000000000000000000000000000000000000000000000000000000000 DUP2 MSTORE PUSH1 0x4 ADD PUSH2 0x83C SWAP1 PUSH2 0x132C JUMP JUMPDEST PUSH1 0x40 MLOAD DUP1 SWAP2 SUB SWAP1 REVERT JUMPDEST POP PUSH2 0x916 JUMP JUMPDEST PUSH0 PUSH0 PUSH1 0x1 SWAP1 SLOAD SWAP1 PUSH2 0x100 EXP SWAP1 DIV PUSH20 0xFFFFFFFFFFFFFFFFFFFFFFFFFFFFFFFFFFFFFFFF AND PUSH20 0xFFFFFFFFFFFFFFFFFFFFFFFFFFFFFFFFFFFFFFFF AND DUP6 PUSH1 0x40 MLOAD PUSH2 0x891 SWAP1 PUSH2 0x12CE JUMP JUMPDEST PUSH0 PUSH1 0x40 MLOAD DUP1 DUP4 SUB DUP2 DUP6 DUP8 GAS CALL SWAP3 POP POP POP RETURNDATASIZE DUP1 PUSH0 DUP2 EQ PUSH2 0x8CB JUMPI PUSH1 0x40 MLOAD SWAP2 POP PUSH1 0x1F NOT PUSH1 0x3F RETURNDATASIZE ADD AND DUP3 ADD PUSH1 0x40 MSTORE RETURNDATASIZE DUP3 MSTORE RETURNDATASIZE PUSH0 PUSH1 0x20 DUP5 ADD RETURNDATACOPY PUSH2 0x8D0 JUMP JUMPDEST PUSH1 0x60 SWAP2 POP JUMPDEST POP POP SWAP1 POP DUP1 PUSH2 0x914 JUMPI PUSH1 0x40 MLOAD PUSH32 0x8C379A000000000000000000000000000000000000000000000000000000000 DUP2 MSTORE PUSH1 0x4 ADD PUSH2 0x90B SWAP1 PUSH2 0x1555 JUMP JUMPDEST PUSH1 0x40 MLOAD DUP1 SWAP2 SUB SWAP1 REVERT JUMPDEST POP JUMPDEST JUMPDEST DUP1 DUP1 PUSH1 0x1 ADD SWAP2 POP POP PUSH2 0x645 JUMP JUMPDEST POP PUSH32 0xC897AF1A6C31CB1CD7DA48799AD3DF24BB1A795F8DDDECE56892EB57B93563CE PUSH1 0xB PUSH1 0x40 MLOAD PUSH2 0x955 SWAP2 SWAP1 PUSH2 0x161D JUMP JUMPDEST PUSH1 0x40 MLOAD DUP1 SWAP2 SUB SWAP1 LOG1 POP POP POP JUMP JUMPDEST PUSH1 0x2 SLOAD DUP2 JUMP JUMPDEST PUSH1 0x60 PUSH1 0xA DUP1 SLOAD DUP1 PUSH1 0x20 MUL PUSH1 0x20 ADD PUSH1 0x40 MLOAD SWAP1 DUP2 ADD PUSH1 0x40 MSTORE DUP1 SWAP3 SWAP2 SWAP1 DUP2 DUP2 MSTORE PUSH1 0x20 ADD PUSH0 SWAP1 JUMPDEST DUP3 DUP3 LT ISZERO PUSH2 0xA19 JUMPI DUP4 DUP3 SWAP1 PUSH0 MSTORE PUSH1 0x20 PUSH0 KECCAK256 SWAP1 PUSH1 0x2 MUL ADD PUSH1 0x40 MLOAD DUP1 PUSH1 0x40 ADD PUSH1 0x40 MSTORE SWAP1 DUP2 PUSH0 DUP3 ADD PUSH0 SWAP1 SLOAD SWAP1 PUSH2 0x100 EXP SWAP1 DIV PUSH20 0xFFFFFFFFFFFFFFFFFFFFFFFFFFFFFFFFFFFFFFFF AND PUSH20 0xFFFFFFFFFFFFFFFFFFFFFFFFFFFFFFFFFFFFFFFF AND PUSH20 0xFFFFFFFFFFFFFFFFFFFFFFFFFFFFFFFFFFFFFFFF AND DUP2 MSTORE PUSH1 0x20 ADD PUSH1 0x1 DUP3 ADD SLOAD DUP2 MSTORE POP POP DUP2 MSTORE PUSH1 0x20 ADD SWAP1 PUSH1 0x1 ADD SWAP1 PUSH2 0x98B JUMP JUMPDEST POP POP POP POP SWAP1 POP SWAP1 JUMP JUMPDEST PUSH1 0x1 PUSH0 SWAP1 SLOAD SWAP1 PUSH2 0x100 EXP SWAP1 DIV PUSH20 0xFFFFFFFFFFFFFFFFFFFFFFFFFFFFFFFFFFFFFFFF AND DUP2 JUMP JUMPDEST PUSH2 0xA4F PUSH2 0xE5B JUMP JUMPDEST PUSH1 0x5 SLOAD TIMESTAMP GT PUSH2 0xA93 JUMPI PUSH1 0x40 MLOAD PUSH32 0x8C379A000000000000000000000000000000000000000000000000000000000 DUP2 MSTORE PUSH1 0x4 ADD PUSH2 0xA8A SWAP1 PUSH2 0x1394 JUMP JUMPDEST PUSH1 0x40 MLOAD DUP1 SWAP2 SUB SWAP1 REVERT JUMPDEST PUSH1 0xB PUSH1 0x40 MLOAD DUP1 PUSH1 0x40 ADD PUSH1 0x40 MSTORE SWAP1 DUP2 PUSH0 DUP3 ADD PUSH0 SWAP1 SLOAD SWAP1 PUSH2 0x100 EXP SWAP1 DIV PUSH20 0xFFFFFFFFFFFFFFFFFFFFFFFFFFFFFFFFFFFFFFFF AND PUSH20 0xFFFFFFFFFFFFFFFFFFFFFFFFFFFFFFFFFFFFFFFF AND PUSH20 0xFFFFFFFFFFFFFFFFFFFFFFFFFFFFFFFFFFFFFFFF AND DUP2 MSTORE PUSH1 0x20 ADD PUSH1 0x1 DUP3 ADD SLOAD DUP2 MSTORE POP POP SWAP1 POP SWAP1 JUMP JUMPDEST PUSH1 0x1 ISZERO ISZERO PUSH0 PUSH0 SWAP1 SLOAD SWAP1 PUSH2 0x100 EXP SWAP1 DIV PUSH1 0xFF AND ISZERO ISZERO EQ PUSH2 0xB57 JUMPI PUSH1 0x40 MLOAD PUSH32 0x8C379A000000000000000000000000000000000000000000000000000000000 DUP2 MSTORE PUSH1 0x4 ADD PUSH2 0xB4E SWAP1 PUSH2 0x10C5 JUMP JUMPDEST PUSH1 0x40 MLOAD DUP1 SWAP2 SUB SWAP1 REVERT JUMPDEST PUSH1 0x5 SLOAD TIMESTAMP LT PUSH2 0xB9B JUMPI PUSH1 0x40 MLOAD PUSH32 0x8C379A000000000000000000000000000000000000000000000000000000000 DUP2 MSTORE PUSH1 0x4 ADD PUSH2 0xB92 SWAP1 PUSH2 0x112D JUMP JUMPDEST PUSH1 0x40 MLOAD DUP1 SWAP2 SUB SWAP1 REVERT JUMPDEST PUSH0 CALLVALUE GT PUSH2 0xBDD JUMPI PUSH1 0x40 MLOAD PUSH32 0x8C379A000000000000000000000000000000000000000000000000000000000 DUP2 MSTORE PUSH1 0x4 ADD PUSH2 0xBD4 SWAP1 PUSH2 0x16A6 JUMP JUMPDEST PUSH1 0x40 MLOAD DUP1 SWAP2 SUB SWAP1 REVERT JUMPDEST PUSH1 0x2 SLOAD PUSH1 0x64 PUSH2 0xBEC SWAP2 SWAP1 PUSH2 0x16C4 JUMP JUMPDEST PUSH1 0xB PUSH1 0x1 ADD SLOAD PUSH2 0xBFC SWAP2 SWAP1 PUSH2 0x146D JUMP JUMPDEST PUSH1 0x64 CALLVALUE PUSH2 0xC09 SWAP2 SWAP1 PUSH2 0x146D JUMP JUMPDEST LT ISZERO PUSH2 0xC4A JUMPI PUSH1 0x40 MLOAD PUSH32 0x8C379A000000000000000000000000000000000000000000000000000000000 DUP2 MSTORE PUSH1 0x4 ADD PUSH2 0xC41 SWAP1 PUSH2 0x1767 JUMP JUMPDEST PUSH1 0x40 MLOAD DUP1 SWAP2 SUB SWAP1 REVERT JUMPDEST CALLVALUE PUSH1 0x8 PUSH0 CALLER PUSH20 0xFFFFFFFFFFFFFFFFFFFFFFFFFFFFFFFFFFFFFFFF AND PUSH20 0xFFFFFFFFFFFFFFFFFFFFFFFFFFFFFFFFFFFFFFFF AND DUP2 MSTORE PUSH1 0x20 ADD SWAP1 DUP2 MSTORE PUSH1 0x20 ADD PUSH0 KECCAK256 DUP2 SWAP1 SSTORE POP CALLVALUE PUSH1 0x9 PUSH0 CALLER PUSH20 0xFFFFFFFFFFFFFFFFFFFFFFFFFFFFFFFFFFFFFFFF AND PUSH20 0xFFFFFFFFFFFFFFFFFFFFFFFFFFFFFFFFFFFFFFFF AND DUP2 MSTORE PUSH1 0x20 ADD SWAP1 DUP2 MSTORE PUSH1 0x20 ADD PUSH0 KECCAK256 PUSH0 DUP3 DUP3 SLOAD PUSH2 0xCD8 SWAP2 SWAP1 PUSH2 0x16C4 JUMP JUMPDEST SWAP3 POP POP DUP2 SWAP1 SSTORE POP PUSH1 0xA PUSH1 0x40 MLOAD DUP1 PUSH1 0x40 ADD PUSH1 0x40 MSTORE DUP1 CALLER PUSH20 0xFFFFFFFFFFFFFFFFFFFFFFFFFFFFFFFFFFFFFFFF AND DUP2 MSTORE PUSH1 0x20 ADD CALLVALUE DUP2 MSTORE POP SWAP1 DUP1 PUSH1 0x1 DUP2 SLOAD ADD DUP1 DUP3 SSTORE DUP1 SWAP2 POP POP PUSH1 0x1 SWAP1 SUB SWAP1 PUSH0 MSTORE PUSH1 0x20 PUSH0 KECCAK256 SWAP1 PUSH1 0x2 MUL ADD PUSH0 SWAP1 SWAP2 SWAP1 SWAP2 SWAP1 SWAP2 POP PUSH0 DUP3 ADD MLOAD DUP2 PUSH0 ADD PUSH0 PUSH2 0x100 EXP DUP2 SLOAD DUP2 PUSH20 0xFFFFFFFFFFFFFFFFFFFFFFFFFFFFFFFFFFFFFFFF MUL NOT AND SWAP1 DUP4 PUSH20 0xFFFFFFFFFFFFFFFFFFFFFFFFFFFFFFFFFFFFFFFF AND MUL OR SWAP1 SSTORE POP PUSH1 0x20 DUP3 ADD MLOAD DUP2 PUSH1 0x1 ADD SSTORE POP POP CALLVALUE PUSH1 0xB PUSH1 0x1 ADD DUP2 SWAP1 SSTORE POP CALLER PUSH1 0xB PUSH0 ADD PUSH0 PUSH2 0x100 EXP DUP2 SLOAD DUP2 PUSH20 0xFFFFFFFFFFFFFFFFFFFFFFFFFFFFFFFFFFFFFFFF MUL NOT AND SWAP1 DUP4 PUSH20 0xFFFFFFFFFFFFFFFFFFFFFFFFFFFFFFFFFFFFFFFF AND MUL OR SWAP1 SSTORE POP CALLER PUSH20 0xFFFFFFFFFFFFFFFFFFFFFFFFFFFFFFFFFFFFFFFF AND PUSH32 0x58D619527549E88853C641EBCEC23205E5DF61592E3908275721B5AD490113F CALLVALUE PUSH1 0x40 MLOAD PUSH2 0xE14 SWAP2 SWAP1 PUSH2 0xEF9 JUMP JUMPDEST PUSH1 0x40 MLOAD DUP1 SWAP2 SUB SWAP1 LOG2 PUSH1 0x7 SLOAD PUSH1 0x5 SLOAD PUSH2 0xE2C SWAP2 SWAP1 PUSH2 0x126E JUMP JUMPDEST TIMESTAMP LT PUSH2 0xE47 JUMPI PUSH1 0x6 SLOAD TIMESTAMP PUSH2 0xE40 SWAP2 SWAP1 PUSH2 0x16C4 JUMP JUMPDEST PUSH1 0x5 DUP2 SWAP1 SSTORE POP JUMPDEST JUMP JUMPDEST PUSH1 0x3 SLOAD DUP2 JUMP JUMPDEST PUSH1 0x5 SLOAD DUP2 JUMP JUMPDEST PUSH1 0x4 SLOAD DUP2 JUMP JUMPDEST PUSH1 0x40 MLOAD DUP1 PUSH1 0x40 ADD PUSH1 0x40 MSTORE DUP1 PUSH0 PUSH20 0xFFFFFFFFFFFFFFFFFFFFFFFFFFFFFFFFFFFFFFFF AND DUP2 MSTORE PUSH1 0x20 ADD PUSH0 DUP2 MSTORE POP SWAP1 JUMP JUMPDEST PUSH0 PUSH20 0xFFFFFFFFFFFFFFFFFFFFFFFFFFFFFFFFFFFFFFFF DUP3 AND SWAP1 POP SWAP2 SWAP1 POP JUMP JUMPDEST PUSH0 PUSH2 0xEB2 DUP3 PUSH2 0xE89 JUMP JUMPDEST SWAP1 POP SWAP2 SWAP1 POP JUMP JUMPDEST PUSH2 0xEC2 DUP2 PUSH2 0xEA8 JUMP JUMPDEST DUP3 MSTORE POP POP JUMP JUMPDEST PUSH0 PUSH1 0x20 DUP3 ADD SWAP1 POP PUSH2 0xEDB PUSH0 DUP4 ADD DUP5 PUSH2 0xEB9 JUMP JUMPDEST SWAP3 SWAP2 POP POP JUMP JUMPDEST PUSH0 DUP2 SWAP1 POP SWAP2 SWAP1 POP JUMP JUMPDEST PUSH2 0xEF3 DUP2 PUSH2 0xEE1 JUMP JUMPDEST DUP3 MSTORE POP POP JUMP JUMPDEST PUSH0 PUSH1 0x20 DUP3 ADD SWAP1 POP PUSH2 0xF0C PUSH0 DUP4 ADD DUP5 PUSH2 0xEEA JUMP JUMPDEST SWAP3 SWAP2 POP POP JUMP JUMPDEST PUSH0 DUP2 MLOAD SWAP1 POP SWAP2 SWAP1 POP JUMP JUMPDEST PUSH0 DUP3 DUP3 MSTORE PUSH1 0x20 DUP3 ADD SWAP1 POP SWAP3 SWAP2 POP POP JUMP JUMPDEST PUSH0 DUP2 SWAP1 POP PUSH1 0x20 DUP3 ADD SWAP1 POP SWAP2 SWAP1 POP JUMP JUMPDEST PUSH2 0xF44 DUP2 PUSH2 0xEA8 JUMP JUMPDEST DUP3 MSTORE POP POP JUMP JUMPDEST PUSH2 0xF53 DUP2 PUSH2 0xEE1 JUMP JUMPDEST DUP3 MSTORE POP POP JUMP JUMPDEST PUSH1 0x40 DUP3 ADD PUSH0 DUP3 ADD MLOAD PUSH2 0xF6D PUSH0 DUP6 ADD DUP3 PUSH2 0xF3B JUMP JUMPDEST POP PUSH1 0x20 DUP3 ADD MLOAD PUSH2 0xF80 PUSH1 0x20 DUP6 ADD DUP3 PUSH2 0xF4A JUMP JUMPDEST POP POP POP POP JUMP JUMPDEST PUSH0 PUSH2 0xF91 DUP4 DUP4 PUSH2 0xF59 JUMP JUMPDEST PUSH1 0x40 DUP4 ADD SWAP1 POP SWAP3 SWAP2 POP POP JUMP JUMPDEST PUSH0 PUSH1 0x20 DUP3 ADD SWAP1 POP SWAP2 SWAP1 POP JUMP JUMPDEST PUSH0 PUSH2 0xFB3 DUP3 PUSH2 0xF12 JUMP JUMPDEST PUSH2 0xFBD DUP2 DUP6 PUSH2 0xF1C JUMP JUMPDEST SWAP4 POP PUSH2 0xFC8 DUP4 PUSH2 0xF2C JUMP JUMPDEST DUP1 PUSH0 JUMPDEST DUP4 DUP2 LT ISZERO PUSH2 0xFF8 JUMPI DUP2 MLOAD PUSH2 0xFDF DUP9 DUP3 PUSH2 0xF86 JUMP JUMPDEST SWAP8 POP PUSH2 0xFEA DUP4 PUSH2 0xF9D JUMP JUMPDEST SWAP3 POP POP PUSH1 0x1 DUP2 ADD SWAP1 POP PUSH2 0xFCB JUMP JUMPDEST POP DUP6 SWAP4 POP POP POP POP SWAP3 SWAP2 POP POP JUMP JUMPDEST PUSH0 PUSH1 0x20 DUP3 ADD SWAP1 POP DUP2 DUP2 SUB PUSH0 DUP4 ADD MSTORE PUSH2 0x101D DUP2 DUP5 PUSH2 0xFA9 JUMP JUMPDEST SWAP1 POP SWAP3 SWAP2 POP POP JUMP JUMPDEST PUSH1 0x40 DUP3 ADD PUSH0 DUP3 ADD MLOAD PUSH2 0x1039 PUSH0 DUP6 ADD DUP3 PUSH2 0xF3B JUMP JUMPDEST POP PUSH1 0x20 DUP3 ADD MLOAD PUSH2 0x104C PUSH1 0x20 DUP6 ADD DUP3 PUSH2 0xF4A JUMP JUMPDEST POP POP POP POP JUMP JUMPDEST PUSH0 PUSH1 0x40 DUP3 ADD SWAP1 POP PUSH2 0x1065 PUSH0 DUP4 ADD DUP5 PUSH2 0x1025 JUMP JUMPDEST SWAP3 SWAP2 POP POP JUMP JUMPDEST PUSH0 DUP3 DUP3 MSTORE PUSH1 0x20 DUP3 ADD SWAP1 POP SWAP3 SWAP2 POP POP JUMP JUMPDEST PUSH32 0x5468652041756374696F6E206973206E6F74206C6F6E67657220616374697665 PUSH0 DUP3 ADD MSTORE POP JUMP JUMPDEST PUSH0 PUSH2 0x10AF PUSH1 0x20 DUP4 PUSH2 0x106B JUMP JUMPDEST SWAP2 POP PUSH2 0x10BA DUP3 PUSH2 0x107B JUMP JUMPDEST PUSH1 0x20 DUP3 ADD SWAP1 POP SWAP2 SWAP1 POP JUMP JUMPDEST PUSH0 PUSH1 0x20 DUP3 ADD SWAP1 POP DUP2 DUP2 SUB PUSH0 DUP4 ADD MSTORE PUSH2 0x10DC DUP2 PUSH2 0x10A3 JUMP JUMPDEST SWAP1 POP SWAP2 SWAP1 POP JUMP JUMPDEST PUSH32 0x5468652041756374696F6E2068617320656E6465640000000000000000000000 PUSH0 DUP3 ADD MSTORE POP JUMP JUMPDEST PUSH0 PUSH2 0x1117 PUSH1 0x15 DUP4 PUSH2 0x106B JUMP JUMPDEST SWAP2 POP PUSH2 0x1122 DUP3 PUSH2 0x10E3 JUMP JUMPDEST PUSH1 0x20 DUP3 ADD SWAP1 POP SWAP2 SWAP1 POP JUMP JUMPDEST PUSH0 PUSH1 0x20 DUP3 ADD SWAP1 POP DUP2 DUP2 SUB PUSH0 DUP4 ADD MSTORE PUSH2 0x1144 DUP2 PUSH2 0x110B JUMP JUMPDEST SWAP1 POP SWAP2 SWAP1 POP JUMP JUMPDEST PUSH32 0x4E6F206269647320776572652072656365697665642066726F6D20796F750000 PUSH0 DUP3 ADD MSTORE POP JUMP JUMPDEST PUSH0 PUSH2 0x117F PUSH1 0x1E DUP4 PUSH2 0x106B JUMP JUMPDEST SWAP2 POP PUSH2 0x118A DUP3 PUSH2 0x114B JUMP JUMPDEST PUSH1 0x20 DUP3 ADD SWAP1 POP SWAP2 SWAP1 POP JUMP JUMPDEST PUSH0 PUSH1 0x20 DUP3 ADD SWAP1 POP DUP2 DUP2 SUB PUSH0 DUP4 ADD MSTORE PUSH2 0x11AC DUP2 PUSH2 0x1173 JUMP JUMPDEST SWAP1 POP SWAP2 SWAP1 POP JUMP JUMPDEST PUSH32 0x5468657265206973206E6F207061727469616C20616D6F756E7420746F207265 PUSH0 DUP3 ADD MSTORE PUSH32 0x66756E6400000000000000000000000000000000000000000000000000000000 PUSH1 0x20 DUP3 ADD MSTORE POP JUMP JUMPDEST PUSH0 PUSH2 0x120D PUSH1 0x24 DUP4 PUSH2 0x106B JUMP JUMPDEST SWAP2 POP PUSH2 0x1218 DUP3 PUSH2 0x11B3 JUMP JUMPDEST PUSH1 0x40 DUP3 ADD SWAP1 POP SWAP2 SWAP1 POP JUMP JUMPDEST PUSH0 PUSH1 0x20 DUP3 ADD SWAP1 POP DUP2 DUP2 SUB PUSH0 DUP4 ADD MSTORE PUSH2 0x123A DUP2 PUSH2 0x1201 JUMP JUMPDEST SWAP1 POP SWAP2 SWAP1 POP JUMP JUMPDEST PUSH32 0x4E487B7100000000000000000000000000000000000000000000000000000000 PUSH0 MSTORE PUSH1 0x11 PUSH1 0x4 MSTORE PUSH1 0x24 PUSH0 REVERT JUMPDEST PUSH0 PUSH2 0x1278 DUP3 PUSH2 0xEE1 JUMP JUMPDEST SWAP2 POP PUSH2 0x1283 DUP4 PUSH2 0xEE1 JUMP JUMPDEST SWAP3 POP DUP3 DUP3 SUB SWAP1 POP DUP2 DUP2 GT ISZERO PUSH2 0x129B JUMPI PUSH2 0x129A PUSH2 0x1241 JUMP JUMPDEST JUMPDEST SWAP3 SWAP2 POP POP JUMP JUMPDEST PUSH0 DUP2 SWAP1 POP SWAP3 SWAP2 POP POP JUMP JUMPDEST POP JUMP JUMPDEST PUSH0 PUSH2 0x12B9 PUSH0 DUP4 PUSH2 0x12A1 JUMP JUMPDEST SWAP2 POP PUSH2 0x12C4 DUP3 PUSH2 0x12AB JUMP JUMPDEST PUSH0 DUP3 ADD SWAP1 POP SWAP2 SWAP1 POP JUMP JUMPDEST PUSH0 PUSH2 0x12D8 DUP3 PUSH2 0x12AE JUMP JUMPDEST SWAP2 POP DUP2 SWAP1 POP SWAP2 SWAP1 POP JUMP JUMPDEST PUSH32 0x4661696C656420746F20726566756E6400000000000000000000000000000000 PUSH0 DUP3 ADD MSTORE POP JUMP JUMPDEST PUSH0 PUSH2 0x1316 PUSH1 0x10 DUP4 PUSH2 0x106B JUMP JUMPDEST SWAP2 POP PUSH2 0x1321 DUP3 PUSH2 0x12E2 JUMP JUMPDEST PUSH1 0x20 DUP3 ADD SWAP1 POP SWAP2 SWAP1 POP JUMP JUMPDEST PUSH0 PUSH1 0x20 DUP3 ADD SWAP1 POP DUP2 DUP2 SUB PUSH0 DUP4 ADD MSTORE PUSH2 0x1343 DUP2 PUSH2 0x130A JUMP JUMPDEST SWAP1 POP SWAP2 SWAP1 POP JUMP JUMPDEST PUSH32 0x5468652041756374696F6E20686173206E6F7420656E64656400000000000000 PUSH0 DUP3 ADD MSTORE POP JUMP JUMPDEST PUSH0 PUSH2 0x137E PUSH1 0x19 DUP4 PUSH2 0x106B JUMP JUMPDEST SWAP2 POP PUSH2 0x1389 DUP3 PUSH2 0x134A JUMP JUMPDEST PUSH1 0x20 DUP3 ADD SWAP1 POP SWAP2 SWAP1 POP JUMP JUMPDEST PUSH0 PUSH1 0x20 DUP3 ADD SWAP1 POP DUP2 DUP2 SUB PUSH0 DUP4 ADD MSTORE PUSH2 0x13AB DUP2 PUSH2 0x1372 JUMP JUMPDEST SWAP1 POP SWAP2 SWAP1 POP JUMP JUMPDEST PUSH32 0x4F6E6C7920746865204F776E65722063616E20656E6420746865204175637469 PUSH0 DUP3 ADD MSTORE PUSH32 0x6F6E000000000000000000000000000000000000000000000000000000000000 PUSH1 0x20 DUP3 ADD MSTORE POP JUMP JUMPDEST PUSH0 PUSH2 0x140C PUSH1 0x22 DUP4 PUSH2 0x106B JUMP JUMPDEST SWAP2 POP PUSH2 0x1417 DUP3 PUSH2 0x13B2 JUMP JUMPDEST PUSH1 0x40 DUP3 ADD SWAP1 POP SWAP2 SWAP1 POP JUMP JUMPDEST PUSH0 PUSH1 0x20 DUP3 ADD SWAP1 POP DUP2 DUP2 SUB PUSH0 DUP4 ADD MSTORE PUSH2 0x1439 DUP2 PUSH2 0x1400 JUMP JUMPDEST SWAP1 POP SWAP2 SWAP1 POP JUMP JUMPDEST PUSH32 0x4E487B7100000000000000000000000000000000000000000000000000000000 PUSH0 MSTORE PUSH1 0x32 PUSH1 0x4 MSTORE PUSH1 0x24 PUSH0 REVERT JUMPDEST PUSH0 PUSH2 0x1477 DUP3 PUSH2 0xEE1 JUMP JUMPDEST SWAP2 POP PUSH2 0x1482 DUP4 PUSH2 0xEE1 JUMP JUMPDEST SWAP3 POP DUP3 DUP3 MUL PUSH2 0x1490 DUP2 PUSH2 0xEE1 JUMP JUMPDEST SWAP2 POP DUP3 DUP3 DIV DUP5 EQ DUP4 ISZERO OR PUSH2 0x14A7 JUMPI PUSH2 0x14A6 PUSH2 0x1241 JUMP JUMPDEST JUMPDEST POP SWAP3 SWAP2 POP POP JUMP JUMPDEST PUSH32 0x4E487B7100000000000000000000000000000000000000000000000000000000 PUSH0 MSTORE PUSH1 0x12 PUSH1 0x4 MSTORE PUSH1 0x24 PUSH0 REVERT JUMPDEST PUSH0 PUSH2 0x14E5 DUP3 PUSH2 0xEE1 JUMP JUMPDEST SWAP2 POP PUSH2 0x14F0 DUP4 PUSH2 0xEE1 JUMP JUMPDEST SWAP3 POP DUP3 PUSH2 0x1500 JUMPI PUSH2 0x14FF PUSH2 0x14AE JUMP JUMPDEST JUMPDEST DUP3 DUP3 DIV SWAP1 POP SWAP3 SWAP2 POP POP JUMP JUMPDEST PUSH32 0x4661696C656420746F207472616E666572207072697A65000000000000000000 PUSH0 DUP3 ADD MSTORE POP JUMP JUMPDEST PUSH0 PUSH2 0x153F PUSH1 0x17 DUP4 PUSH2 0x106B JUMP JUMPDEST SWAP2 POP PUSH2 0x154A DUP3 PUSH2 0x150B JUMP JUMPDEST PUSH1 0x20 DUP3 ADD SWAP1 POP SWAP2 SWAP1 POP JUMP JUMPDEST PUSH0 PUSH1 0x20 DUP3 ADD SWAP1 POP DUP2 DUP2 SUB PUSH0 DUP4 ADD MSTORE PUSH2 0x156C DUP2 PUSH2 0x1533 JUMP JUMPDEST SWAP1 POP SWAP2 SWAP1 POP JUMP JUMPDEST PUSH0 DUP2 PUSH0 SHR SWAP1 POP SWAP2 SWAP1 POP JUMP JUMPDEST PUSH0 PUSH20 0xFFFFFFFFFFFFFFFFFFFFFFFFFFFFFFFFFFFFFFFF DUP3 AND SWAP1 POP SWAP2 SWAP1 POP JUMP JUMPDEST PUSH0 PUSH2 0x15AF PUSH2 0x15AA DUP4 PUSH2 0x1573 JUMP JUMPDEST PUSH2 0x157E JUMP JUMPDEST SWAP1 POP SWAP2 SWAP1 POP JUMP JUMPDEST PUSH0 DUP2 SWAP1 POP SWAP2 SWAP1 POP JUMP JUMPDEST PUSH0 PUSH2 0x15D1 PUSH2 0x15CC DUP4 PUSH2 0x1573 JUMP JUMPDEST PUSH2 0x15B6 JUMP JUMPDEST SWAP1 POP SWAP2 SWAP1 POP JUMP JUMPDEST PUSH1 0x40 DUP3 ADD PUSH0 PUSH0 DUP4 ADD SLOAD SWAP1 POP PUSH2 0x15EC DUP2 PUSH2 0x159D JUMP JUMPDEST PUSH2 0x15F8 PUSH0 DUP7 ADD DUP3 PUSH2 0xF3B JUMP JUMPDEST POP PUSH1 0x1 DUP4 ADD SLOAD SWAP1 POP PUSH2 0x1609 DUP2 PUSH2 0x15BF JUMP JUMPDEST PUSH2 0x1616 PUSH1 0x20 DUP7 ADD DUP3 PUSH2 0xF4A JUMP JUMPDEST POP POP POP POP POP JUMP JUMPDEST PUSH0 PUSH1 0x40 DUP3 ADD SWAP1 POP PUSH2 0x1630 PUSH0 DUP4 ADD DUP5 PUSH2 0x15D8 JUMP JUMPDEST SWAP3 SWAP2 POP POP JUMP JUMPDEST PUSH32 0x54686520616D6F756E74206D75737420626520686967686572207468616E207A PUSH0 DUP3 ADD MSTORE PUSH32 0x65726F0000000000000000000000000000000000000000000000000000000000 PUSH1 0x20 DUP3 ADD MSTORE POP JUMP JUMPDEST PUSH0 PUSH2 0x1690 PUSH1 0x23 DUP4 PUSH2 0x106B JUMP JUMPDEST SWAP2 POP PUSH2 0x169B DUP3 PUSH2 0x1636 JUMP JUMPDEST PUSH1 0x40 DUP3 ADD SWAP1 POP SWAP2 SWAP1 POP JUMP JUMPDEST PUSH0 PUSH1 0x20 DUP3 ADD SWAP1 POP DUP2 DUP2 SUB PUSH0 DUP4 ADD MSTORE PUSH2 0x16BD DUP2 PUSH2 0x1684 JUMP JUMPDEST SWAP1 POP SWAP2 SWAP1 POP JUMP JUMPDEST PUSH0 PUSH2 0x16CE DUP3 PUSH2 0xEE1 JUMP JUMPDEST SWAP2 POP PUSH2 0x16D9 DUP4 PUSH2 0xEE1 JUMP JUMPDEST SWAP3 POP DUP3 DUP3 ADD SWAP1 POP DUP1 DUP3 GT ISZERO PUSH2 0x16F1 JUMPI PUSH2 0x16F0 PUSH2 0x1241 JUMP JUMPDEST JUMPDEST SWAP3 SWAP2 POP POP JUMP JUMPDEST PUSH32 0x54686520616D6F756E74206973206E6F7420686967686572207468616E207468 PUSH0 DUP3 ADD MSTORE PUSH32 0x6520676170000000000000000000000000000000000000000000000000000000 PUSH1 0x20 DUP3 ADD MSTORE POP JUMP JUMPDEST PUSH0 PUSH2 0x1751 PUSH1 0x25 DUP4 PUSH2 0x106B JUMP JUMPDEST SWAP2 POP PUSH2 0x175C DUP3 PUSH2 0x16F7 JUMP JUMPDEST PUSH1 0x40 DUP3 ADD SWAP1 POP SWAP2 SWAP1 POP JUMP JUMPDEST PUSH0 PUSH1 0x20 DUP3 ADD SWAP1 POP DUP2 DUP2 SUB PUSH0 DUP4 ADD MSTORE PUSH2 0x177E DUP2 PUSH2 0x1745 JUMP JUMPDEST SWAP1 POP SWAP2 SWAP1 POP JUMP INVALID LOG2 PUSH5 0x6970667358 0x22 SLT KECCAK256 CALL MCOPY 0xAC 0xD8 PUSH15 0xFD4DE227BF35AC527F7DB04D98AB35 TIMESTAMP 0xD3 0xAF EXTCALL CALLDATALOAD 0xC9 0xAE 0xBA 0x2B RETF GASPRICE GT PUSH5 0x736F6C6343 STOP ADDMOD 0x1E STOP CALLER "
				},
				"gasEstimates": {
					"creation": {
						"codeDepositCost": "1215000",
						"executionCost": "infinite",
						"totalCost": "infinite"
					},
					"external": {
						"EndAuction()": "infinite",
						"MakeABid()": "infinite",
						"PartialRefund()": "infinite",
						"bidGap()": "2492",
						"finishDate()": "2513",
						"gasCommissionPercentage()": "2491",
						"getAllBids()": "infinite",
						"getWinner()": "7099",
						"initDate()": "2535",
						"owner()": "2508",
						"seller()": "2559"
					}
				},
				"methodIdentifiers": {
					"EndAuction()": "6a7798ee",
					"MakeABid()": "b0051dab",
					"PartialRefund()": "4dd40dd5",
					"bidGap()": "837b2779",
					"finishDate()": "f400a3d7",
					"gasCommissionPercentage()": "e76320de",
					"getAllBids()": "8d0f6da3",
					"getWinner()": "8e7ea5b2",
					"initDate()": "ffa68839",
					"owner()": "8da5cb5b",
					"seller()": "08551a53"
				}
			},
			"storageLayout": {
				"storage": [
					{
						"astId": 4,
						"contract": "contracts/Auction.sol:Auction",
						"label": "active",
						"offset": 0,
						"slot": "0",
						"type": "t_bool"
					},
					{
						"astId": 6,
						"contract": "contracts/Auction.sol:Auction",
						"label": "seller",
						"offset": 1,
						"slot": "0",
						"type": "t_address"
					},
					{
						"astId": 8,
						"contract": "contracts/Auction.sol:Auction",
						"label": "owner",
						"offset": 0,
						"slot": "1",
						"type": "t_address"
					},
					{
						"astId": 10,
						"contract": "contracts/Auction.sol:Auction",
						"label": "bidGap",
						"offset": 0,
						"slot": "2",
						"type": "t_uint256"
					},
					{
						"astId": 12,
						"contract": "contracts/Auction.sol:Auction",
						"label": "gasCommissionPercentage",
						"offset": 0,
						"slot": "3",
						"type": "t_uint256"
					},
					{
						"astId": 14,
						"contract": "contracts/Auction.sol:Auction",
						"label": "initDate",
						"offset": 0,
						"slot": "4",
						"type": "t_uint256"
					},
					{
						"astId": 16,
						"contract": "contracts/Auction.sol:Auction",
						"label": "finishDate",
						"offset": 0,
						"slot": "5",
						"type": "t_uint256"
					},
					{
						"astId": 18,
						"contract": "contracts/Auction.sol:Auction",
						"label": "bidExtensionTime",
						"offset": 0,
						"slot": "6",
						"type": "t_uint256"
					},
					{
						"astId": 20,
						"contract": "contracts/Auction.sol:Auction",
						"label": "bidExtensionZone",
						"offset": 0,
						"slot": "7",
						"type": "t_uint256"
					},
					{
						"astId": 24,
						"contract": "contracts/Auction.sol:Auction",
						"label": "bidAddressLastAmount",
						"offset": 0,
						"slot": "8",
						"type": "t_mapping(t_address,t_uint256)"
					},
					{
						"astId": 28,
						"contract": "contracts/Auction.sol:Auction",
						"label": "bidAddressTotalAmount",
						"offset": 0,
						"slot": "9",
						"type": "t_mapping(t_address,t_uint256)"
					},
					{
						"astId": 37,
						"contract": "contracts/Auction.sol:Auction",
						"label": "bids",
						"offset": 0,
						"slot": "10",
						"type": "t_array(t_struct(Bid)33_storage)dyn_storage"
					},
					{
						"astId": 40,
						"contract": "contracts/Auction.sol:Auction",
						"label": "winnerBid",
						"offset": 0,
						"slot": "11",
						"type": "t_struct(Bid)33_storage"
					}
				],
				"types": {
					"t_address": {
						"encoding": "inplace",
						"label": "address",
						"numberOfBytes": "20"
					},
					"t_array(t_struct(Bid)33_storage)dyn_storage": {
						"base": "t_struct(Bid)33_storage",
						"encoding": "dynamic_array",
						"label": "struct Auction.Bid[]",
						"numberOfBytes": "32"
					},
					"t_bool": {
						"encoding": "inplace",
						"label": "bool",
						"numberOfBytes": "1"
					},
					"t_mapping(t_address,t_uint256)": {
						"encoding": "mapping",
						"key": "t_address",
						"label": "mapping(address => uint256)",
						"numberOfBytes": "32",
						"value": "t_uint256"
					},
					"t_struct(Bid)33_storage": {
						"encoding": "inplace",
						"label": "struct Auction.Bid",
						"members": [
							{
								"astId": 30,
								"contract": "contracts/Auction.sol:Auction",
								"label": "bidder",
								"offset": 0,
								"slot": "0",
								"type": "t_address"
							},
							{
								"astId": 32,
								"contract": "contracts/Auction.sol:Auction",
								"label": "amount",
								"offset": 0,
								"slot": "1",
								"type": "t_uint256"
							}
						],
						"numberOfBytes": "64"
					},
					"t_uint256": {
						"encoding": "inplace",
						"label": "uint256",
						"numberOfBytes": "32"
					}
				}
			},
			"userdoc": {
				"kind": "user",
				"methods": {},
				"version": 1
			}
		}
	}
}