{
	"contracts/Auction.sol": {
		"Auction": {
			"abi": [
				{
					"inputs": [
						{
							"internalType": "uint256",
							"name": "_bidGap",
							"type": "uint256"
						},
						{
							"internalType": "uint256",
							"name": "_gasCommissionPercentage",
							"type": "uint256"
						},
						{
							"internalType": "uint256",
							"name": "_durationInMinutes",
							"type": "uint256"
						},
						{
							"internalType": "uint256",
							"name": "_bidExtensionTimeInMinutes",
							"type": "uint256"
						},
						{
							"internalType": "uint256",
							"name": "_bidExtensionZoneInMinutes",
							"type": "uint256"
						},
						{
							"internalType": "address",
							"name": "_seller",
							"type": "address"
						}
					],
					"stateMutability": "nonpayable",
					"type": "constructor"
				},
				{
					"anonymous": false,
					"inputs": [
						{
							"components": [
								{
									"internalType": "address",
									"name": "bidder",
									"type": "address"
								},
								{
									"internalType": "uint256",
									"name": "amount",
									"type": "uint256"
								}
							],
							"indexed": false,
							"internalType": "struct Auction.Bid",
							"name": "winnerBid",
							"type": "tuple"
						}
					],
					"name": "AuctionEnded",
					"type": "event"
				},
				{
					"anonymous": false,
					"inputs": [
						{
							"indexed": true,
							"internalType": "address",
							"name": "sender",
							"type": "address"
						},
						{
							"indexed": false,
							"internalType": "uint256",
							"name": "value",
							"type": "uint256"
						}
					],
					"name": "NewOffer",
					"type": "event"
				},
				{
					"inputs": [],
					"name": "EndAuction",
					"outputs": [],
					"stateMutability": "nonpayable",
					"type": "function"
				},
				{
					"inputs": [],
					"name": "MakeABid",
					"outputs": [],
					"stateMutability": "payable",
					"type": "function"
				},
				{
					"inputs": [],
					"name": "PartialRefund",
					"outputs": [],
					"stateMutability": "nonpayable",
					"type": "function"
				},
				{
					"inputs": [],
					"name": "bidGap",
					"outputs": [
						{
							"internalType": "uint256",
							"name": "",
							"type": "uint256"
						}
					],
					"stateMutability": "view",
					"type": "function"
				},
				{
					"inputs": [],
					"name": "finishDate",
					"outputs": [
						{
							"internalType": "uint256",
							"name": "",
							"type": "uint256"
						}
					],
					"stateMutability": "view",
					"type": "function"
				},
				{
					"inputs": [],
					"name": "gasCommissionPercentage",
					"outputs": [
						{
							"internalType": "uint256",
							"name": "",
							"type": "uint256"
						}
					],
					"stateMutability": "view",
					"type": "function"
				},
				{
					"inputs": [],
					"name": "getAllBids",
					"outputs": [
						{
							"components": [
								{
									"internalType": "address",
									"name": "bidder",
									"type": "address"
								},
								{
									"internalType": "uint256",
									"name": "amount",
									"type": "uint256"
								}
							],
							"internalType": "struct Auction.Bid[]",
							"name": "",
							"type": "tuple[]"
						}
					],
					"stateMutability": "view",
					"type": "function"
				},
				{
					"inputs": [],
					"name": "getWinner",
					"outputs": [
						{
							"components": [
								{
									"internalType": "address",
									"name": "bidder",
									"type": "address"
								},
								{
									"internalType": "uint256",
									"name": "amount",
									"type": "uint256"
								}
							],
							"internalType": "struct Auction.Bid",
							"name": "",
							"type": "tuple"
						}
					],
					"stateMutability": "view",
					"type": "function"
				},
				{
					"inputs": [],
					"name": "initDate",
					"outputs": [
						{
							"internalType": "uint256",
							"name": "",
							"type": "uint256"
						}
					],
					"stateMutability": "view",
					"type": "function"
				},
				{
					"inputs": [],
					"name": "owner",
					"outputs": [
						{
							"internalType": "address",
							"name": "",
							"type": "address"
						}
					],
					"stateMutability": "view",
					"type": "function"
				},
				{
					"inputs": [],
					"name": "seller",
					"outputs": [
						{
							"internalType": "address",
							"name": "",
							"type": "address"
						}
					],
					"stateMutability": "view",
					"type": "function"
				}
			],
			"devdoc": {
				"kind": "dev",
				"methods": {},
				"version": 1
			},
			"evm": {
				"assembly": "    /* \"contracts/Auction.sol\":63:7051  contract Auction{... */\n  mstore(0x40, 0x80)\n    /* \"contracts/Auction.sol\":180:184  true */\n  0x01\n    /* \"contracts/Auction.sol\":166:184  bool active = true */\n  0x00\n  exp(0x0100, 0x00)\n  dup2\n  sload\n  dup2\n  0xff\n  mul\n  not\n  and\n  swap1\n  dup4\n  iszero\n  iszero\n  mul\n  or\n  swap1\n  sstore\n  pop\n    /* \"contracts/Auction.sol\":986:2142  constructor (   uint256 _bidGap, ... */\n  callvalue\n  dup1\n  iszero\n  tag_1\n  jumpi\n  revert(0x00, 0x00)\ntag_1:\n  pop\n  mload(0x40)\n  sub(codesize, bytecodeSize)\n  dup1\n  bytecodeSize\n  dup4\n  codecopy\n  dup2\n  dup2\n  add\n  0x40\n  mstore\n  dup2\n  add\n  swap1\n  tag_2\n  swap2\n  swap1\n  tag_3\n  jump\t// in\ntag_2:\n    /* \"contracts/Auction.sol\":1321:1328  _seller */\n  dup1\n    /* \"contracts/Auction.sol\":1312:1318  seller */\n  0x00\n  0x01\n    /* \"contracts/Auction.sol\":1312:1328  seller = _seller */\n  0x0100\n  exp\n  dup2\n  sload\n  dup2\n  0xffffffffffffffffffffffffffffffffffffffff\n  mul\n  not\n  and\n  swap1\n  dup4\n  0xffffffffffffffffffffffffffffffffffffffff\n  and\n  mul\n  or\n  swap1\n  sstore\n  pop\n    /* \"contracts/Auction.sol\":1347:1357  msg.sender */\n  caller\n    /* \"contracts/Auction.sol\":1339:1344  owner */\n  0x01\n  0x00\n    /* \"contracts/Auction.sol\":1339:1357  owner = msg.sender */\n  0x0100\n  exp\n  dup2\n  sload\n  dup2\n  0xffffffffffffffffffffffffffffffffffffffff\n  mul\n  not\n  and\n  swap1\n  dup4\n  0xffffffffffffffffffffffffffffffffffffffff\n  and\n  mul\n  or\n  swap1\n  sstore\n  pop\n    /* \"contracts/Auction.sol\":1389:1390  0 */\n  0x00\n    /* \"contracts/Auction.sol\":1378:1385  _bidGap */\n  dup7\n    /* \"contracts/Auction.sol\":1378:1390  _bidGap == 0 */\n  eq\n    /* \"contracts/Auction.sol\":1377:1405  (_bidGap == 0) ? 5 : _bidGap */\n  tag_6\n  jumpi\n    /* \"contracts/Auction.sol\":1398:1405  _bidGap */\n  dup6\n    /* \"contracts/Auction.sol\":1377:1405  (_bidGap == 0) ? 5 : _bidGap */\n  jump(tag_7)\ntag_6:\n    /* \"contracts/Auction.sol\":1394:1395  5 */\n  0x05\n    /* \"contracts/Auction.sol\":1377:1405  (_bidGap == 0) ? 5 : _bidGap */\ntag_7:\n    /* \"contracts/Auction.sol\":1368:1374  bidGap */\n  0x02\n    /* \"contracts/Auction.sol\":1368:1405  bidGap = (_bidGap == 0) ? 5 : _bidGap */\n  dup2\n  swap1\n  sstore\n  pop\n    /* \"contracts/Auction.sol\":1552:1553  0 */\n  0x00\n    /* \"contracts/Auction.sol\":1524:1548  _gasCommissionPercentage */\n  dup6\n    /* \"contracts/Auction.sol\":1524:1553  _gasCommissionPercentage == 0 */\n  eq\n    /* \"contracts/Auction.sol\":1523:1585  (_gasCommissionPercentage == 0) ? 2 : _gasCommissionPercentage */\n  tag_8\n  jumpi\n    /* \"contracts/Auction.sol\":1561:1585  _gasCommissionPercentage */\n  dup5\n    /* \"contracts/Auction.sol\":1523:1585  (_gasCommissionPercentage == 0) ? 2 : _gasCommissionPercentage */\n  jump(tag_9)\ntag_8:\n    /* \"contracts/Auction.sol\":1557:1558  2 */\n  0x02\n    /* \"contracts/Auction.sol\":1523:1585  (_gasCommissionPercentage == 0) ? 2 : _gasCommissionPercentage */\ntag_9:\n    /* \"contracts/Auction.sol\":1497:1520  gasCommissionPercentage */\n  0x03\n    /* \"contracts/Auction.sol\":1497:1585  gasCommissionPercentage = (_gasCommissionPercentage == 0) ? 2 : _gasCommissionPercentage */\n  dup2\n  swap1\n  sstore\n  pop\n    /* \"contracts/Auction.sol\":1692:1693  0 */\n  0x00\n    /* \"contracts/Auction.sol\":1662:1688  _bidExtensionTimeInMinutes */\n  dup4\n    /* \"contracts/Auction.sol\":1662:1693  _bidExtensionTimeInMinutes == 0 */\n  eq\n    /* \"contracts/Auction.sol\":1661:1734  (_bidExtensionTimeInMinutes == 0) ? 600 : (_bidExtensionTimeInMinutes*60) */\n  tag_10\n  jumpi\n    /* \"contracts/Auction.sol\":1731:1733  60 */\n  0x3c\n    /* \"contracts/Auction.sol\":1704:1730  _bidExtensionTimeInMinutes */\n  dup4\n    /* \"contracts/Auction.sol\":1704:1733  _bidExtensionTimeInMinutes*60 */\n  tag_11\n  swap2\n  swap1\n  tag_12\n  jump\t// in\ntag_11:\n    /* \"contracts/Auction.sol\":1661:1734  (_bidExtensionTimeInMinutes == 0) ? 600 : (_bidExtensionTimeInMinutes*60) */\n  jump(tag_13)\ntag_10:\n    /* \"contracts/Auction.sol\":1697:1700  600 */\n  0x0258\n    /* \"contracts/Auction.sol\":1661:1734  (_bidExtensionTimeInMinutes == 0) ? 600 : (_bidExtensionTimeInMinutes*60) */\ntag_13:\n    /* \"contracts/Auction.sol\":1642:1658  bidExtensionTime */\n  0x06\n    /* \"contracts/Auction.sol\":1642:1734  bidExtensionTime = (_bidExtensionTimeInMinutes == 0) ? 600 : (_bidExtensionTimeInMinutes*60) */\n  dup2\n  swap1\n  sstore\n  pop\n    /* \"contracts/Auction.sol\":1846:1847  0 */\n  0x00\n    /* \"contracts/Auction.sol\":1816:1842  _bidExtensionZoneInMinutes */\n  dup3\n    /* \"contracts/Auction.sol\":1816:1847  _bidExtensionZoneInMinutes == 0 */\n  eq\n    /* \"contracts/Auction.sol\":1815:1888  (_bidExtensionZoneInMinutes == 0) ? 600 : (_bidExtensionZoneInMinutes*60) */\n  tag_14\n  jumpi\n    /* \"contracts/Auction.sol\":1885:1887  60 */\n  0x3c\n    /* \"contracts/Auction.sol\":1858:1884  _bidExtensionZoneInMinutes */\n  dup3\n    /* \"contracts/Auction.sol\":1858:1887  _bidExtensionZoneInMinutes*60 */\n  tag_15\n  swap2\n  swap1\n  tag_12\n  jump\t// in\ntag_15:\n    /* \"contracts/Auction.sol\":1815:1888  (_bidExtensionZoneInMinutes == 0) ? 600 : (_bidExtensionZoneInMinutes*60) */\n  jump(tag_16)\ntag_14:\n    /* \"contracts/Auction.sol\":1851:1854  600 */\n  0x0258\n    /* \"contracts/Auction.sol\":1815:1888  (_bidExtensionZoneInMinutes == 0) ? 600 : (_bidExtensionZoneInMinutes*60) */\ntag_16:\n    /* \"contracts/Auction.sol\":1796:1812  bidExtensionZone */\n  0x07\n    /* \"contracts/Auction.sol\":1796:1888  bidExtensionZone = (_bidExtensionZoneInMinutes == 0) ? 600 : (_bidExtensionZoneInMinutes*60) */\n  dup2\n  swap1\n  sstore\n  pop\n    /* \"contracts/Auction.sol\":1990:1991  1 */\n  0x01\n    /* \"contracts/Auction.sol\":1968:1986  _durationInMinutes */\n  dup5\n    /* \"contracts/Auction.sol\":1968:1991  _durationInMinutes >= 1 */\n  lt\n  iszero\n    /* \"contracts/Auction.sol\":1960:2029  require(_durationInMinutes >= 1,\"Duration must be at least 1 minute\") */\n  tag_17\n  jumpi\n  mload(0x40)\n  0x08c379a000000000000000000000000000000000000000000000000000000000\n  dup2\n  mstore\n  0x04\n  add\n  tag_18\n  swap1\n  tag_19\n  jump\t// in\ntag_18:\n  mload(0x40)\n  dup1\n  swap2\n  sub\n  swap1\n  revert\ntag_17:\n    /* \"contracts/Auction.sol\":2053:2068  block.timestamp */\n  timestamp\n    /* \"contracts/Auction.sol\":2042:2050  initDate */\n  0x04\n    /* \"contracts/Auction.sol\":2042:2068  initDate = block.timestamp */\n  dup2\n  swap1\n  sstore\n  pop\n    /* \"contracts/Auction.sol\":2122:2124  60 */\n  0x3c\n    /* \"contracts/Auction.sol\":2103:2121  _durationInMinutes */\n  dup5\n    /* \"contracts/Auction.sol\":2103:2124  _durationInMinutes*60 */\n  tag_20\n  swap2\n  swap1\n  tag_12\n  jump\t// in\ntag_20:\n    /* \"contracts/Auction.sol\":2092:2100  initDate */\n  sload(0x04)\n    /* \"contracts/Auction.sol\":2092:2124  initDate + _durationInMinutes*60 */\n  tag_21\n  swap2\n  swap1\n  tag_22\n  jump\t// in\ntag_21:\n    /* \"contracts/Auction.sol\":2079:2089  finishDate */\n  0x05\n    /* \"contracts/Auction.sol\":2079:2124  finishDate = initDate + _durationInMinutes*60 */\n  dup2\n  swap1\n  sstore\n  pop\n    /* \"contracts/Auction.sol\":986:2142  constructor (   uint256 _bidGap, ... */\n  pop\n  pop\n  pop\n  pop\n  pop\n  pop\n    /* \"contracts/Auction.sol\":63:7051  contract Auction{... */\n  jump(tag_23)\n    /* \"#utility.yul\":88:205   */\ntag_25:\n    /* \"#utility.yul\":197:198   */\n  0x00\n    /* \"#utility.yul\":194:195   */\n  0x00\n    /* \"#utility.yul\":187:199   */\n  revert\n    /* \"#utility.yul\":334:411   */\ntag_27:\n    /* \"#utility.yul\":371:378   */\n  0x00\n    /* \"#utility.yul\":400:405   */\n  dup2\n    /* \"#utility.yul\":389:405   */\n  swap1\n  pop\n    /* \"#utility.yul\":334:411   */\n  swap2\n  swap1\n  pop\n  jump\t// out\n    /* \"#utility.yul\":417:539   */\ntag_28:\n    /* \"#utility.yul\":490:514   */\n  tag_44\n    /* \"#utility.yul\":508:513   */\n  dup2\n    /* \"#utility.yul\":490:514   */\n  tag_27\n  jump\t// in\ntag_44:\n    /* \"#utility.yul\":483:488   */\n  dup2\n    /* \"#utility.yul\":480:515   */\n  eq\n    /* \"#utility.yul\":470:533   */\n  tag_45\n  jumpi\n    /* \"#utility.yul\":529:530   */\n  0x00\n    /* \"#utility.yul\":526:527   */\n  0x00\n    /* \"#utility.yul\":519:531   */\n  revert\n    /* \"#utility.yul\":470:533   */\ntag_45:\n    /* \"#utility.yul\":417:539   */\n  pop\n  jump\t// out\n    /* \"#utility.yul\":545:688   */\ntag_29:\n    /* \"#utility.yul\":602:607   */\n  0x00\n    /* \"#utility.yul\":633:639   */\n  dup2\n    /* \"#utility.yul\":627:640   */\n  mload\n    /* \"#utility.yul\":618:640   */\n  swap1\n  pop\n    /* \"#utility.yul\":649:682   */\n  tag_47\n    /* \"#utility.yul\":676:681   */\n  dup2\n    /* \"#utility.yul\":649:682   */\n  tag_28\n  jump\t// in\ntag_47:\n    /* \"#utility.yul\":545:688   */\n  swap3\n  swap2\n  pop\n  pop\n  jump\t// out\n    /* \"#utility.yul\":694:820   */\ntag_30:\n    /* \"#utility.yul\":731:738   */\n  0x00\n    /* \"#utility.yul\":771:813   */\n  0xffffffffffffffffffffffffffffffffffffffff\n    /* \"#utility.yul\":764:769   */\n  dup3\n    /* \"#utility.yul\":760:814   */\n  and\n    /* \"#utility.yul\":749:814   */\n  swap1\n  pop\n    /* \"#utility.yul\":694:820   */\n  swap2\n  swap1\n  pop\n  jump\t// out\n    /* \"#utility.yul\":826:922   */\ntag_31:\n    /* \"#utility.yul\":863:870   */\n  0x00\n    /* \"#utility.yul\":892:916   */\n  tag_50\n    /* \"#utility.yul\":910:915   */\n  dup3\n    /* \"#utility.yul\":892:916   */\n  tag_30\n  jump\t// in\ntag_50:\n    /* \"#utility.yul\":881:916   */\n  swap1\n  pop\n    /* \"#utility.yul\":826:922   */\n  swap2\n  swap1\n  pop\n  jump\t// out\n    /* \"#utility.yul\":928:1050   */\ntag_32:\n    /* \"#utility.yul\":1001:1025   */\n  tag_52\n    /* \"#utility.yul\":1019:1024   */\n  dup2\n    /* \"#utility.yul\":1001:1025   */\n  tag_31\n  jump\t// in\ntag_52:\n    /* \"#utility.yul\":994:999   */\n  dup2\n    /* \"#utility.yul\":991:1026   */\n  eq\n    /* \"#utility.yul\":981:1044   */\n  tag_53\n  jumpi\n    /* \"#utility.yul\":1040:1041   */\n  0x00\n    /* \"#utility.yul\":1037:1038   */\n  0x00\n    /* \"#utility.yul\":1030:1042   */\n  revert\n    /* \"#utility.yul\":981:1044   */\ntag_53:\n    /* \"#utility.yul\":928:1050   */\n  pop\n  jump\t// out\n    /* \"#utility.yul\":1056:1199   */\ntag_33:\n    /* \"#utility.yul\":1113:1118   */\n  0x00\n    /* \"#utility.yul\":1144:1150   */\n  dup2\n    /* \"#utility.yul\":1138:1151   */\n  mload\n    /* \"#utility.yul\":1129:1151   */\n  swap1\n  pop\n    /* \"#utility.yul\":1160:1193   */\n  tag_55\n    /* \"#utility.yul\":1187:1192   */\n  dup2\n    /* \"#utility.yul\":1160:1193   */\n  tag_32\n  jump\t// in\ntag_55:\n    /* \"#utility.yul\":1056:1199   */\n  swap3\n  swap2\n  pop\n  pop\n  jump\t// out\n    /* \"#utility.yul\":1205:2339   */\ntag_3:\n    /* \"#utility.yul\":1320:1326   */\n  0x00\n    /* \"#utility.yul\":1328:1334   */\n  0x00\n    /* \"#utility.yul\":1336:1342   */\n  0x00\n    /* \"#utility.yul\":1344:1350   */\n  0x00\n    /* \"#utility.yul\":1352:1358   */\n  0x00\n    /* \"#utility.yul\":1360:1366   */\n  0x00\n    /* \"#utility.yul\":1409:1412   */\n  0xc0\n    /* \"#utility.yul\":1397:1406   */\n  dup8\n    /* \"#utility.yul\":1388:1395   */\n  dup10\n    /* \"#utility.yul\":1384:1407   */\n  sub\n    /* \"#utility.yul\":1380:1413   */\n  slt\n    /* \"#utility.yul\":1377:1497   */\n  iszero\n  tag_57\n  jumpi\n    /* \"#utility.yul\":1416:1495   */\n  tag_58\n  tag_25\n  jump\t// in\ntag_58:\n    /* \"#utility.yul\":1377:1497   */\ntag_57:\n    /* \"#utility.yul\":1536:1537   */\n  0x00\n    /* \"#utility.yul\":1561:1625   */\n  tag_59\n    /* \"#utility.yul\":1617:1624   */\n  dup10\n    /* \"#utility.yul\":1608:1614   */\n  dup3\n    /* \"#utility.yul\":1597:1606   */\n  dup11\n    /* \"#utility.yul\":1593:1615   */\n  add\n    /* \"#utility.yul\":1561:1625   */\n  tag_29\n  jump\t// in\ntag_59:\n    /* \"#utility.yul\":1551:1625   */\n  swap7\n  pop\n    /* \"#utility.yul\":1507:1635   */\n  pop\n    /* \"#utility.yul\":1674:1676   */\n  0x20\n    /* \"#utility.yul\":1700:1764   */\n  tag_60\n    /* \"#utility.yul\":1756:1763   */\n  dup10\n    /* \"#utility.yul\":1747:1753   */\n  dup3\n    /* \"#utility.yul\":1736:1745   */\n  dup11\n    /* \"#utility.yul\":1732:1754   */\n  add\n    /* \"#utility.yul\":1700:1764   */\n  tag_29\n  jump\t// in\ntag_60:\n    /* \"#utility.yul\":1690:1764   */\n  swap6\n  pop\n    /* \"#utility.yul\":1645:1774   */\n  pop\n    /* \"#utility.yul\":1813:1815   */\n  0x40\n    /* \"#utility.yul\":1839:1903   */\n  tag_61\n    /* \"#utility.yul\":1895:1902   */\n  dup10\n    /* \"#utility.yul\":1886:1892   */\n  dup3\n    /* \"#utility.yul\":1875:1884   */\n  dup11\n    /* \"#utility.yul\":1871:1893   */\n  add\n    /* \"#utility.yul\":1839:1903   */\n  tag_29\n  jump\t// in\ntag_61:\n    /* \"#utility.yul\":1829:1903   */\n  swap5\n  pop\n    /* \"#utility.yul\":1784:1913   */\n  pop\n    /* \"#utility.yul\":1952:1954   */\n  0x60\n    /* \"#utility.yul\":1978:2042   */\n  tag_62\n    /* \"#utility.yul\":2034:2041   */\n  dup10\n    /* \"#utility.yul\":2025:2031   */\n  dup3\n    /* \"#utility.yul\":2014:2023   */\n  dup11\n    /* \"#utility.yul\":2010:2032   */\n  add\n    /* \"#utility.yul\":1978:2042   */\n  tag_29\n  jump\t// in\ntag_62:\n    /* \"#utility.yul\":1968:2042   */\n  swap4\n  pop\n    /* \"#utility.yul\":1923:2052   */\n  pop\n    /* \"#utility.yul\":2091:2094   */\n  0x80\n    /* \"#utility.yul\":2118:2182   */\n  tag_63\n    /* \"#utility.yul\":2174:2181   */\n  dup10\n    /* \"#utility.yul\":2165:2171   */\n  dup3\n    /* \"#utility.yul\":2154:2163   */\n  dup11\n    /* \"#utility.yul\":2150:2172   */\n  add\n    /* \"#utility.yul\":2118:2182   */\n  tag_29\n  jump\t// in\ntag_63:\n    /* \"#utility.yul\":2108:2182   */\n  swap3\n  pop\n    /* \"#utility.yul\":2062:2192   */\n  pop\n    /* \"#utility.yul\":2231:2234   */\n  0xa0\n    /* \"#utility.yul\":2258:2322   */\n  tag_64\n    /* \"#utility.yul\":2314:2321   */\n  dup10\n    /* \"#utility.yul\":2305:2311   */\n  dup3\n    /* \"#utility.yul\":2294:2303   */\n  dup11\n    /* \"#utility.yul\":2290:2312   */\n  add\n    /* \"#utility.yul\":2258:2322   */\n  tag_33\n  jump\t// in\ntag_64:\n    /* \"#utility.yul\":2248:2322   */\n  swap2\n  pop\n    /* \"#utility.yul\":2202:2332   */\n  pop\n    /* \"#utility.yul\":1205:2339   */\n  swap3\n  swap6\n  pop\n  swap3\n  swap6\n  pop\n  swap3\n  swap6\n  jump\t// out\n    /* \"#utility.yul\":2345:2525   */\ntag_34:\n    /* \"#utility.yul\":2393:2470   */\n  0x4e487b7100000000000000000000000000000000000000000000000000000000\n    /* \"#utility.yul\":2390:2391   */\n  0x00\n    /* \"#utility.yul\":2383:2471   */\n  mstore\n    /* \"#utility.yul\":2490:2494   */\n  0x11\n    /* \"#utility.yul\":2487:2488   */\n  0x04\n    /* \"#utility.yul\":2480:2495   */\n  mstore\n    /* \"#utility.yul\":2514:2518   */\n  0x24\n    /* \"#utility.yul\":2511:2512   */\n  0x00\n    /* \"#utility.yul\":2504:2519   */\n  revert\n    /* \"#utility.yul\":2531:2941   */\ntag_12:\n    /* \"#utility.yul\":2571:2578   */\n  0x00\n    /* \"#utility.yul\":2594:2614   */\n  tag_67\n    /* \"#utility.yul\":2612:2613   */\n  dup3\n    /* \"#utility.yul\":2594:2614   */\n  tag_27\n  jump\t// in\ntag_67:\n    /* \"#utility.yul\":2589:2614   */\n  swap2\n  pop\n    /* \"#utility.yul\":2628:2648   */\n  tag_68\n    /* \"#utility.yul\":2646:2647   */\n  dup4\n    /* \"#utility.yul\":2628:2648   */\n  tag_27\n  jump\t// in\ntag_68:\n    /* \"#utility.yul\":2623:2648   */\n  swap3\n  pop\n    /* \"#utility.yul\":2683:2684   */\n  dup3\n    /* \"#utility.yul\":2680:2681   */\n  dup3\n    /* \"#utility.yul\":2676:2685   */\n  mul\n    /* \"#utility.yul\":2705:2735   */\n  tag_69\n    /* \"#utility.yul\":2723:2734   */\n  dup2\n    /* \"#utility.yul\":2705:2735   */\n  tag_27\n  jump\t// in\ntag_69:\n    /* \"#utility.yul\":2694:2735   */\n  swap2\n  pop\n    /* \"#utility.yul\":2884:2885   */\n  dup3\n    /* \"#utility.yul\":2875:2882   */\n  dup3\n    /* \"#utility.yul\":2871:2886   */\n  div\n    /* \"#utility.yul\":2868:2869   */\n  dup5\n    /* \"#utility.yul\":2865:2887   */\n  eq\n    /* \"#utility.yul\":2845:2846   */\n  dup4\n    /* \"#utility.yul\":2838:2847   */\n  iszero\n    /* \"#utility.yul\":2818:2901   */\n  or\n    /* \"#utility.yul\":2795:2934   */\n  tag_70\n  jumpi\n    /* \"#utility.yul\":2914:2932   */\n  tag_71\n  tag_34\n  jump\t// in\ntag_71:\n    /* \"#utility.yul\":2795:2934   */\ntag_70:\n    /* \"#utility.yul\":2579:2941   */\n  pop\n    /* \"#utility.yul\":2531:2941   */\n  swap3\n  swap2\n  pop\n  pop\n  jump\t// out\n    /* \"#utility.yul\":2947:3116   */\ntag_35:\n    /* \"#utility.yul\":3031:3042   */\n  0x00\n    /* \"#utility.yul\":3065:3071   */\n  dup3\n    /* \"#utility.yul\":3060:3063   */\n  dup3\n    /* \"#utility.yul\":3053:3072   */\n  mstore\n    /* \"#utility.yul\":3105:3109   */\n  0x20\n    /* \"#utility.yul\":3100:3103   */\n  dup3\n    /* \"#utility.yul\":3096:3110   */\n  add\n    /* \"#utility.yul\":3081:3110   */\n  swap1\n  pop\n    /* \"#utility.yul\":2947:3116   */\n  swap3\n  swap2\n  pop\n  pop\n  jump\t// out\n    /* \"#utility.yul\":3122:3343   */\ntag_36:\n    /* \"#utility.yul\":3262:3296   */\n  0x4475726174696f6e206d757374206265206174206c656173742031206d696e75\n    /* \"#utility.yul\":3258:3259   */\n  0x00\n    /* \"#utility.yul\":3250:3256   */\n  dup3\n    /* \"#utility.yul\":3246:3260   */\n  add\n    /* \"#utility.yul\":3239:3297   */\n  mstore\n    /* \"#utility.yul\":3331:3335   */\n  0x7465000000000000000000000000000000000000000000000000000000000000\n    /* \"#utility.yul\":3326:3328   */\n  0x20\n    /* \"#utility.yul\":3318:3324   */\n  dup3\n    /* \"#utility.yul\":3314:3329   */\n  add\n    /* \"#utility.yul\":3307:3336   */\n  mstore\n    /* \"#utility.yul\":3122:3343   */\n  pop\n  jump\t// out\n    /* \"#utility.yul\":3349:3715   */\ntag_37:\n    /* \"#utility.yul\":3491:3494   */\n  0x00\n    /* \"#utility.yul\":3512:3579   */\n  tag_75\n    /* \"#utility.yul\":3576:3578   */\n  0x22\n    /* \"#utility.yul\":3571:3574   */\n  dup4\n    /* \"#utility.yul\":3512:3579   */\n  tag_35\n  jump\t// in\ntag_75:\n    /* \"#utility.yul\":3505:3579   */\n  swap2\n  pop\n    /* \"#utility.yul\":3588:3681   */\n  tag_76\n    /* \"#utility.yul\":3677:3680   */\n  dup3\n    /* \"#utility.yul\":3588:3681   */\n  tag_36\n  jump\t// in\ntag_76:\n    /* \"#utility.yul\":3706:3708   */\n  0x40\n    /* \"#utility.yul\":3701:3704   */\n  dup3\n    /* \"#utility.yul\":3697:3709   */\n  add\n    /* \"#utility.yul\":3690:3709   */\n  swap1\n  pop\n    /* \"#utility.yul\":3349:3715   */\n  swap2\n  swap1\n  pop\n  jump\t// out\n    /* \"#utility.yul\":3721:4140   */\ntag_19:\n    /* \"#utility.yul\":3887:3891   */\n  0x00\n    /* \"#utility.yul\":3925:3927   */\n  0x20\n    /* \"#utility.yul\":3914:3923   */\n  dup3\n    /* \"#utility.yul\":3910:3928   */\n  add\n    /* \"#utility.yul\":3902:3928   */\n  swap1\n  pop\n    /* \"#utility.yul\":3974:3983   */\n  dup2\n    /* \"#utility.yul\":3968:3972   */\n  dup2\n    /* \"#utility.yul\":3964:3984   */\n  sub\n    /* \"#utility.yul\":3960:3961   */\n  0x00\n    /* \"#utility.yul\":3949:3958   */\n  dup4\n    /* \"#utility.yul\":3945:3962   */\n  add\n    /* \"#utility.yul\":3938:3985   */\n  mstore\n    /* \"#utility.yul\":4002:4133   */\n  tag_78\n    /* \"#utility.yul\":4128:4132   */\n  dup2\n    /* \"#utility.yul\":4002:4133   */\n  tag_37\n  jump\t// in\ntag_78:\n    /* \"#utility.yul\":3994:4133   */\n  swap1\n  pop\n    /* \"#utility.yul\":3721:4140   */\n  swap2\n  swap1\n  pop\n  jump\t// out\n    /* \"#utility.yul\":4146:4337   */\ntag_22:\n    /* \"#utility.yul\":4186:4189   */\n  0x00\n    /* \"#utility.yul\":4205:4225   */\n  tag_80\n    /* \"#utility.yul\":4223:4224   */\n  dup3\n    /* \"#utility.yul\":4205:4225   */\n  tag_27\n  jump\t// in\ntag_80:\n    /* \"#utility.yul\":4200:4225   */\n  swap2\n  pop\n    /* \"#utility.yul\":4239:4259   */\n  tag_81\n    /* \"#utility.yul\":4257:4258   */\n  dup4\n    /* \"#utility.yul\":4239:4259   */\n  tag_27\n  jump\t// in\ntag_81:\n    /* \"#utility.yul\":4234:4259   */\n  swap3\n  pop\n    /* \"#utility.yul\":4282:4283   */\n  dup3\n    /* \"#utility.yul\":4279:4280   */\n  dup3\n    /* \"#utility.yul\":4275:4284   */\n  add\n    /* \"#utility.yul\":4268:4284   */\n  swap1\n  pop\n    /* \"#utility.yul\":4303:4306   */\n  dup1\n    /* \"#utility.yul\":4300:4301   */\n  dup3\n    /* \"#utility.yul\":4297:4307   */\n  gt\n    /* \"#utility.yul\":4294:4330   */\n  iszero\n  tag_82\n  jumpi\n    /* \"#utility.yul\":4310:4328   */\n  tag_83\n  tag_34\n  jump\t// in\ntag_83:\n    /* \"#utility.yul\":4294:4330   */\ntag_82:\n    /* \"#utility.yul\":4146:4337   */\n  swap3\n  swap2\n  pop\n  pop\n  jump\t// out\n    /* \"contracts/Auction.sol\":63:7051  contract Auction{... */\ntag_23:\n  dataSize(sub_0)\n  dup1\n  dataOffset(sub_0)\n  0x00\n  codecopy\n  0x00\n  return\nstop\n\nsub_0: assembly {\n        /* \"contracts/Auction.sol\":63:7051  contract Auction{... */\n      mstore(0x40, 0x80)\n      jumpi(tag_1, lt(calldatasize, 0x04))\n      shr(0xe0, calldataload(0x00))\n      dup1\n      0x8da5cb5b\n      gt\n      tag_13\n      jumpi\n      dup1\n      0x8da5cb5b\n      eq\n      tag_7\n      jumpi\n      dup1\n      0x8e7ea5b2\n      eq\n      tag_8\n      jumpi\n      dup1\n      0xb0051dab\n      eq\n      tag_9\n      jumpi\n      dup1\n      0xe76320de\n      eq\n      tag_10\n      jumpi\n      dup1\n      0xf400a3d7\n      eq\n      tag_11\n      jumpi\n      dup1\n      0xffa68839\n      eq\n      tag_12\n      jumpi\n      jump(tag_1)\n    tag_13:\n      dup1\n      0x08551a53\n      eq\n      tag_2\n      jumpi\n      dup1\n      0x4dd40dd5\n      eq\n      tag_3\n      jumpi\n      dup1\n      0x6a7798ee\n      eq\n      tag_4\n      jumpi\n      dup1\n      0x837b2779\n      eq\n      tag_5\n      jumpi\n      dup1\n      0x8d0f6da3\n      eq\n      tag_6\n      jumpi\n    tag_1:\n      revert(0x00, 0x00)\n        /* \"contracts/Auction.sol\":223:244  address public seller */\n    tag_2:\n      callvalue\n      dup1\n      iszero\n      tag_14\n      jumpi\n      revert(0x00, 0x00)\n    tag_14:\n      pop\n      tag_15\n      tag_16\n      jump\t// in\n    tag_15:\n      mload(0x40)\n      tag_17\n      swap2\n      swap1\n      tag_18\n      jump\t// in\n    tag_17:\n      mload(0x40)\n      dup1\n      swap2\n      sub\n      swap1\n      return\n        /* \"contracts/Auction.sol\":6156:7046  function PartialRefund() external isActive() {... */\n    tag_3:\n      callvalue\n      dup1\n      iszero\n      tag_19\n      jumpi\n      revert(0x00, 0x00)\n    tag_19:\n      pop\n      tag_20\n      tag_21\n      jump\t// in\n    tag_20:\n      stop\n        /* \"contracts/Auction.sol\":4502:5688  function EndAuction () isActive() isEnded() onlyOwner() external {... */\n    tag_4:\n      callvalue\n      dup1\n      iszero\n      tag_22\n      jumpi\n      revert(0x00, 0x00)\n    tag_22:\n      pop\n      tag_23\n      tag_24\n      jump\t// in\n    tag_23:\n      stop\n        /* \"contracts/Auction.sol\":338:359  uint256 public bidGap */\n    tag_5:\n      callvalue\n      dup1\n      iszero\n      tag_25\n      jumpi\n      revert(0x00, 0x00)\n    tag_25:\n      pop\n      tag_26\n      tag_27\n      jump\t// in\n    tag_26:\n      mload(0x40)\n      tag_28\n      swap2\n      swap1\n      tag_29\n      jump\t// in\n    tag_28:\n      mload(0x40)\n      dup1\n      swap2\n      sub\n      swap1\n      return\n        /* \"contracts/Auction.sol\":2415:2502  function getAllBids() public view returns (Bid[] memory) {... */\n    tag_6:\n      callvalue\n      dup1\n      iszero\n      tag_30\n      jumpi\n      revert(0x00, 0x00)\n    tag_30:\n      pop\n      tag_31\n      tag_32\n      jump\t// in\n    tag_31:\n      mload(0x40)\n      tag_33\n      swap2\n      swap1\n      tag_34\n      jump\t// in\n    tag_33:\n      mload(0x40)\n      dup1\n      swap2\n      sub\n      swap1\n      return\n        /* \"contracts/Auction.sol\":280:300  address public owner */\n    tag_7:\n      callvalue\n      dup1\n      iszero\n      tag_35\n      jumpi\n      revert(0x00, 0x00)\n    tag_35:\n      pop\n      tag_36\n      tag_37\n      jump\t// in\n    tag_36:\n      mload(0x40)\n      tag_38\n      swap2\n      swap1\n      tag_18\n      jump\t// in\n    tag_38:\n      mload(0x40)\n      dup1\n      swap2\n      sub\n      swap1\n      return\n        /* \"contracts/Auction.sol\":2263:2362  function getWinner() public view isEnded() returns (Bid memory) {... */\n    tag_8:\n      callvalue\n      dup1\n      iszero\n      tag_39\n      jumpi\n      revert(0x00, 0x00)\n    tag_39:\n      pop\n      tag_40\n      tag_41\n      jump\t// in\n    tag_40:\n      mload(0x40)\n      tag_42\n      swap2\n      swap1\n      tag_43\n      jump\t// in\n    tag_42:\n      mload(0x40)\n      dup1\n      swap2\n      sub\n      swap1\n      return\n        /* \"contracts/Auction.sol\":2577:3677  function MakeABid () payable isActive() isHigherThanGap(msg.value)  external {... */\n    tag_9:\n      tag_44\n      tag_45\n      jump\t// in\n    tag_44:\n      stop\n        /* \"contracts/Auction.sol\":394:432  uint256 public gasCommissionPercentage */\n    tag_10:\n      callvalue\n      dup1\n      iszero\n      tag_46\n      jumpi\n      revert(0x00, 0x00)\n    tag_46:\n      pop\n      tag_47\n      tag_48\n      jump\t// in\n    tag_47:\n      mload(0x40)\n      tag_49\n      swap2\n      swap1\n      tag_29\n      jump\t// in\n    tag_49:\n      mload(0x40)\n      dup1\n      swap2\n      sub\n      swap1\n      return\n        /* \"contracts/Auction.sol\":471:496  uint256 public finishDate */\n    tag_11:\n      callvalue\n      dup1\n      iszero\n      tag_50\n      jumpi\n      revert(0x00, 0x00)\n    tag_50:\n      pop\n      tag_51\n      tag_52\n      jump\t// in\n    tag_51:\n      mload(0x40)\n      tag_53\n      swap2\n      swap1\n      tag_29\n      jump\t// in\n    tag_53:\n      mload(0x40)\n      dup1\n      swap2\n      sub\n      swap1\n      return\n        /* \"contracts/Auction.sol\":441:464  uint256 public initDate */\n    tag_12:\n      callvalue\n      dup1\n      iszero\n      tag_54\n      jumpi\n      revert(0x00, 0x00)\n    tag_54:\n      pop\n      tag_55\n      tag_56\n      jump\t// in\n    tag_55:\n      mload(0x40)\n      tag_57\n      swap2\n      swap1\n      tag_29\n      jump\t// in\n    tag_57:\n      mload(0x40)\n      dup1\n      swap2\n      sub\n      swap1\n      return\n        /* \"contracts/Auction.sol\":223:244  address public seller */\n    tag_16:\n      0x00\n      0x01\n      swap1\n      sload\n      swap1\n      0x0100\n      exp\n      swap1\n      div\n      0xffffffffffffffffffffffffffffffffffffffff\n      and\n      dup2\n      jump\t// out\n        /* \"contracts/Auction.sol\":6156:7046  function PartialRefund() external isActive() {... */\n    tag_21:\n        /* \"contracts/Auction.sol\":6018:6022  true */\n      0x01\n        /* \"contracts/Auction.sol\":6010:6022  active==true */\n      iszero\n      iszero\n        /* \"contracts/Auction.sol\":6010:6016  active */\n      0x00\n      0x00\n      swap1\n      sload\n      swap1\n      0x0100\n      exp\n      swap1\n      div\n      0xff\n      and\n        /* \"contracts/Auction.sol\":6010:6022  active==true */\n      iszero\n      iszero\n      eq\n        /* \"contracts/Auction.sol\":6002:6058  require(active==true,\"The Auction is not longer active\") */\n      tag_59\n      jumpi\n      mload(0x40)\n      0x08c379a000000000000000000000000000000000000000000000000000000000\n      dup2\n      mstore\n      0x04\n      add\n      tag_60\n      swap1\n      tag_61\n      jump\t// in\n    tag_60:\n      mload(0x40)\n      dup1\n      swap2\n      sub\n      swap1\n      revert\n    tag_59:\n        /* \"contracts/Auction.sol\":6212:6230  uint256 lastAmount */\n      0x00\n        /* \"contracts/Auction.sol\":6233:6253  bidAddressLastAmount */\n      0x08\n        /* \"contracts/Auction.sol\":6233:6265  bidAddressLastAmount[msg.sender] */\n      0x00\n        /* \"contracts/Auction.sol\":6254:6264  msg.sender */\n      caller\n        /* \"contracts/Auction.sol\":6233:6265  bidAddressLastAmount[msg.sender] */\n      0xffffffffffffffffffffffffffffffffffffffff\n      and\n      0xffffffffffffffffffffffffffffffffffffffff\n      and\n      dup2\n      mstore\n      0x20\n      add\n      swap1\n      dup2\n      mstore\n      0x20\n      add\n      0x00\n      keccak256\n      sload\n        /* \"contracts/Auction.sol\":6212:6265  uint256 lastAmount = bidAddressLastAmount[msg.sender] */\n      swap1\n      pop\n        /* \"contracts/Auction.sol\":6276:6295  uint256 totalAmount */\n      0x00\n        /* \"contracts/Auction.sol\":6298:6319  bidAddressTotalAmount */\n      0x09\n        /* \"contracts/Auction.sol\":6298:6331  bidAddressTotalAmount[msg.sender] */\n      0x00\n        /* \"contracts/Auction.sol\":6320:6330  msg.sender */\n      caller\n        /* \"contracts/Auction.sol\":6298:6331  bidAddressTotalAmount[msg.sender] */\n      0xffffffffffffffffffffffffffffffffffffffff\n      and\n      0xffffffffffffffffffffffffffffffffffffffff\n      and\n      dup2\n      mstore\n      0x20\n      add\n      swap1\n      dup2\n      mstore\n      0x20\n      add\n      0x00\n      keccak256\n      sload\n        /* \"contracts/Auction.sol\":6276:6331  uint256 totalAmount = bidAddressTotalAmount[msg.sender] */\n      swap1\n      pop\n        /* \"contracts/Auction.sol\":6363:6364  0 */\n      0x00\n        /* \"contracts/Auction.sol\":6348:6359  totalAmount */\n      dup2\n        /* \"contracts/Auction.sol\":6348:6364  totalAmount == 0 */\n      sub\n        /* \"contracts/Auction.sol\":6344:6443  if (totalAmount == 0)... */\n      tag_63\n      jumpi\n        /* \"contracts/Auction.sol\":6390:6430  revert(\"No bids were received from you\") */\n      mload(0x40)\n      0x08c379a000000000000000000000000000000000000000000000000000000000\n      dup2\n      mstore\n      0x04\n      add\n      tag_64\n      swap1\n      tag_65\n      jump\t// in\n    tag_64:\n      mload(0x40)\n      dup1\n      swap2\n      sub\n      swap1\n      revert\n        /* \"contracts/Auction.sol\":6344:6443  if (totalAmount == 0)... */\n    tag_63:\n        /* \"contracts/Auction.sol\":6473:6484  totalAmount */\n      dup1\n        /* \"contracts/Auction.sol\":6459:6469  lastAmount */\n      dup3\n        /* \"contracts/Auction.sol\":6459:6484  lastAmount == totalAmount */\n      sub\n        /* \"contracts/Auction.sol\":6455:6569  if (lastAmount == totalAmount)... */\n      tag_66\n      jumpi\n        /* \"contracts/Auction.sol\":6510:6556  revert(\"There is no partial amount to refund\") */\n      mload(0x40)\n      0x08c379a000000000000000000000000000000000000000000000000000000000\n      dup2\n      mstore\n      0x04\n      add\n      tag_67\n      swap1\n      tag_68\n      jump\t// in\n    tag_67:\n      mload(0x40)\n      dup1\n      swap2\n      sub\n      swap1\n      revert\n        /* \"contracts/Auction.sol\":6455:6569  if (lastAmount == totalAmount)... */\n    tag_66:\n        /* \"contracts/Auction.sol\":6583:6604  uint256 partialAmount */\n      0x00\n        /* \"contracts/Auction.sol\":6621:6631  lastAmount */\n      dup3\n        /* \"contracts/Auction.sol\":6607:6618  totalAmount */\n      dup3\n        /* \"contracts/Auction.sol\":6607:6631  totalAmount - lastAmount */\n      tag_69\n      swap2\n      swap1\n      tag_70\n      jump\t// in\n    tag_69:\n        /* \"contracts/Auction.sol\":6583:6631  uint256 partialAmount = totalAmount - lastAmount */\n      swap1\n      pop\n        /* \"contracts/Auction.sol\":6741:6754  partialAmount */\n      dup1\n        /* \"contracts/Auction.sol\":6704:6725  bidAddressTotalAmount */\n      0x09\n        /* \"contracts/Auction.sol\":6704:6737  bidAddressTotalAmount[msg.sender] */\n      0x00\n        /* \"contracts/Auction.sol\":6726:6736  msg.sender */\n      caller\n        /* \"contracts/Auction.sol\":6704:6737  bidAddressTotalAmount[msg.sender] */\n      0xffffffffffffffffffffffffffffffffffffffff\n      and\n      0xffffffffffffffffffffffffffffffffffffffff\n      and\n      dup2\n      mstore\n      0x20\n      add\n      swap1\n      dup2\n      mstore\n      0x20\n      add\n      0x00\n      keccak256\n      0x00\n        /* \"contracts/Auction.sol\":6704:6754  bidAddressTotalAmount[msg.sender] -= partialAmount */\n      dup3\n      dup3\n      sload\n      tag_71\n      swap2\n      swap1\n      tag_70\n      jump\t// in\n    tag_71:\n      swap3\n      pop\n      pop\n      dup2\n      swap1\n      sstore\n      pop\n        /* \"contracts/Auction.sol\":6876:6885  bool sent */\n      0x00\n        /* \"contracts/Auction.sol\":6898:6908  msg.sender */\n      caller\n        /* \"contracts/Auction.sol\":6890:6914  payable(msg.sender).call */\n      0xffffffffffffffffffffffffffffffffffffffff\n      and\n        /* \"contracts/Auction.sol\":6922:6935  partialAmount */\n      dup3\n        /* \"contracts/Auction.sol\":6890:6940  payable(msg.sender).call{value: partialAmount}(\"\") */\n      mload(0x40)\n      tag_72\n      swap1\n      tag_73\n      jump\t// in\n    tag_72:\n      0x00\n      mload(0x40)\n      dup1\n      dup4\n      sub\n      dup2\n      dup6\n      dup8\n      gas\n      call\n      swap3\n      pop\n      pop\n      pop\n      returndatasize\n      dup1\n      0x00\n      dup2\n      eq\n      tag_76\n      jumpi\n      mload(0x40)\n      swap2\n      pop\n      and(add(returndatasize, 0x3f), not(0x1f))\n      dup3\n      add\n      0x40\n      mstore\n      returndatasize\n      dup3\n      mstore\n      returndatasize\n      0x00\n      0x20\n      dup5\n      add\n      returndatacopy\n      jump(tag_75)\n    tag_76:\n      0x60\n      swap2\n      pop\n    tag_75:\n      pop\n        /* \"contracts/Auction.sol\":6875:6940  (bool sent,) = payable(msg.sender).call{value: partialAmount}(\"\") */\n      pop\n      swap1\n      pop\n        /* \"contracts/Auction.sol\":6972:6976  sent */\n      dup1\n        /* \"contracts/Auction.sol\":6964:6997  require(sent, \"Failed to refund\") */\n      tag_77\n      jumpi\n      mload(0x40)\n      0x08c379a000000000000000000000000000000000000000000000000000000000\n      dup2\n      mstore\n      0x04\n      add\n      tag_78\n      swap1\n      tag_79\n      jump\t// in\n    tag_78:\n      mload(0x40)\n      dup1\n      swap2\n      sub\n      swap1\n      revert\n    tag_77:\n        /* \"contracts/Auction.sol\":6201:7046  {... */\n      pop\n      pop\n      pop\n      pop\n        /* \"contracts/Auction.sol\":6156:7046  function PartialRefund() external isActive() {... */\n      jump\t// out\n        /* \"contracts/Auction.sol\":4502:5688  function EndAuction () isActive() isEnded() onlyOwner() external {... */\n    tag_24:\n        /* \"contracts/Auction.sol\":6018:6022  true */\n      0x01\n        /* \"contracts/Auction.sol\":6010:6022  active==true */\n      iszero\n      iszero\n        /* \"contracts/Auction.sol\":6010:6016  active */\n      0x00\n      0x00\n      swap1\n      sload\n      swap1\n      0x0100\n      exp\n      swap1\n      div\n      0xff\n      and\n        /* \"contracts/Auction.sol\":6010:6022  active==true */\n      iszero\n      iszero\n      eq\n        /* \"contracts/Auction.sol\":6002:6058  require(active==true,\"The Auction is not longer active\") */\n      tag_81\n      jumpi\n      mload(0x40)\n      0x08c379a000000000000000000000000000000000000000000000000000000000\n      dup2\n      mstore\n      0x04\n      add\n      tag_82\n      swap1\n      tag_61\n      jump\t// in\n    tag_82:\n      mload(0x40)\n      dup1\n      swap2\n      sub\n      swap1\n      revert\n    tag_81:\n        /* \"contracts/Auction.sol\":4303:4313  finishDate */\n      sload(0x05)\n        /* \"contracts/Auction.sol\":4287:4302  block.timestamp */\n      timestamp\n        /* \"contracts/Auction.sol\":4287:4313  block.timestamp>finishDate */\n      gt\n        /* \"contracts/Auction.sol\":4279:4342  require(block.timestamp>finishDate,\"The Auction has not ended\") */\n      tag_84\n      jumpi\n      mload(0x40)\n      0x08c379a000000000000000000000000000000000000000000000000000000000\n      dup2\n      mstore\n      0x04\n      add\n      tag_85\n      swap1\n      tag_86\n      jump\t// in\n    tag_85:\n      mload(0x40)\n      dup1\n      swap2\n      sub\n      swap1\n      revert\n    tag_84:\n        /* \"contracts/Auction.sol\":5856:5861  owner */\n      0x01\n      0x00\n      swap1\n      sload\n      swap1\n      0x0100\n      exp\n      swap1\n      div\n      0xffffffffffffffffffffffffffffffffffffffff\n      and\n        /* \"contracts/Auction.sol\":5842:5861  msg.sender == owner */\n      0xffffffffffffffffffffffffffffffffffffffff\n      and\n        /* \"contracts/Auction.sol\":5842:5852  msg.sender */\n      caller\n        /* \"contracts/Auction.sol\":5842:5861  msg.sender == owner */\n      0xffffffffffffffffffffffffffffffffffffffff\n      and\n      eq\n        /* \"contracts/Auction.sol\":5834:5900  require(msg.sender == owner, \"Only the Owner can end the Auction\") */\n      tag_88\n      jumpi\n      mload(0x40)\n      0x08c379a000000000000000000000000000000000000000000000000000000000\n      dup2\n      mstore\n      0x04\n      add\n      tag_89\n      swap1\n      tag_90\n      jump\t// in\n    tag_89:\n      mload(0x40)\n      dup1\n      swap2\n      sub\n      swap1\n      revert\n    tag_88:\n        /* \"contracts/Auction.sol\":4589:4594  false */\n      0x00\n        /* \"contracts/Auction.sol\":4580:4586  active */\n      0x00\n      0x00\n        /* \"contracts/Auction.sol\":4580:4594  active = false */\n      0x0100\n      exp\n      dup2\n      sload\n      dup2\n      0xff\n      mul\n      not\n      and\n      swap1\n      dup4\n      iszero\n      iszero\n      mul\n      or\n      swap1\n      sstore\n      pop\n        /* \"contracts/Auction.sol\":4605:4624  uint256 totalAmount */\n      0x00\n        /* \"contracts/Auction.sol\":4627:4628  0 */\n      0x00\n        /* \"contracts/Auction.sol\":4605:4628  uint256 totalAmount = 0 */\n      swap1\n      pop\n        /* \"contracts/Auction.sol\":4639:4659  uint256 refundAmount */\n      0x00\n        /* \"contracts/Auction.sol\":4662:4663  0 */\n      0x00\n        /* \"contracts/Auction.sol\":4639:4663  uint256 refundAmount = 0 */\n      swap1\n      pop\n        /* \"contracts/Auction.sol\":4674:4688  address bidder */\n      0x00\n        /* \"contracts/Auction.sol\":4706:4712  uint i */\n      0x00\n        /* \"contracts/Auction.sol\":4713:4714  0 */\n      0x00\n        /* \"contracts/Auction.sol\":4706:4714  uint i=0 */\n      swap1\n      pop\n        /* \"contracts/Auction.sol\":4701:5640  for (uint i=0; i < bids.length; i++)... */\n    tag_92:\n        /* \"contracts/Auction.sol\":4720:4724  bids */\n      0x0a\n        /* \"contracts/Auction.sol\":4720:4731  bids.length */\n      dup1\n      sload\n      swap1\n      pop\n        /* \"contracts/Auction.sol\":4716:4717  i */\n      dup2\n        /* \"contracts/Auction.sol\":4716:4731  i < bids.length */\n      lt\n        /* \"contracts/Auction.sol\":4701:5640  for (uint i=0; i < bids.length; i++)... */\n      iszero\n      tag_93\n      jumpi\n        /* \"contracts/Auction.sol\":4771:4775  bids */\n      0x0a\n        /* \"contracts/Auction.sol\":4776:4777  i */\n      dup2\n        /* \"contracts/Auction.sol\":4771:4778  bids[i] */\n      dup2\n      sload\n      dup2\n      lt\n      tag_95\n      jumpi\n      tag_96\n      tag_97\n      jump\t// in\n    tag_96:\n    tag_95:\n      swap1\n      0x00\n      mstore\n      keccak256(0x00, 0x20)\n      swap1\n      0x02\n      mul\n      add\n        /* \"contracts/Auction.sol\":4771:4785  bids[i].bidder */\n      0x00\n      add\n      0x00\n      swap1\n      sload\n      swap1\n      0x0100\n      exp\n      swap1\n      div\n      0xffffffffffffffffffffffffffffffffffffffff\n      and\n        /* \"contracts/Auction.sol\":4762:4785  bidder = bids[i].bidder */\n      swap2\n      pop\n        /* \"contracts/Auction.sol\":4814:4835  bidAddressTotalAmount */\n      0x09\n        /* \"contracts/Auction.sol\":4814:4843  bidAddressTotalAmount[bidder] */\n      0x00\n        /* \"contracts/Auction.sol\":4836:4842  bidder */\n      dup4\n        /* \"contracts/Auction.sol\":4814:4843  bidAddressTotalAmount[bidder] */\n      0xffffffffffffffffffffffffffffffffffffffff\n      and\n      0xffffffffffffffffffffffffffffffffffffffff\n      and\n      dup2\n      mstore\n      0x20\n      add\n      swap1\n      dup2\n      mstore\n      0x20\n      add\n      0x00\n      keccak256\n      sload\n        /* \"contracts/Auction.sol\":4800:4843  totalAmount = bidAddressTotalAmount[bidder] */\n      swap4\n      pop\n        /* \"contracts/Auction.sol\":4890:4891  0 */\n      0x00\n        /* \"contracts/Auction.sol\":4858:4879  bidAddressTotalAmount */\n      0x09\n        /* \"contracts/Auction.sol\":4858:4887  bidAddressTotalAmount[bidder] */\n      0x00\n        /* \"contracts/Auction.sol\":4880:4886  bidder */\n      dup5\n        /* \"contracts/Auction.sol\":4858:4887  bidAddressTotalAmount[bidder] */\n      0xffffffffffffffffffffffffffffffffffffffff\n      and\n      0xffffffffffffffffffffffffffffffffffffffff\n      and\n      dup2\n      mstore\n      0x20\n      add\n      swap1\n      dup2\n      mstore\n      0x20\n      add\n      0x00\n      keccak256\n        /* \"contracts/Auction.sol\":4858:4891  bidAddressTotalAmount[bidder] = 0 */\n      dup2\n      swap1\n      sstore\n      pop\n        /* \"contracts/Auction.sol\":4971:4980  winnerBid */\n      0x0b\n        /* \"contracts/Auction.sol\":4971:4987  winnerBid.bidder */\n      0x00\n      add\n      0x00\n      swap1\n      sload\n      swap1\n      0x0100\n      exp\n      swap1\n      div\n      0xffffffffffffffffffffffffffffffffffffffff\n      and\n        /* \"contracts/Auction.sol\":4961:4987  bidder != winnerBid.bidder */\n      0xffffffffffffffffffffffffffffffffffffffff\n      and\n        /* \"contracts/Auction.sol\":4961:4967  bidder */\n      dup3\n        /* \"contracts/Auction.sol\":4961:4987  bidder != winnerBid.bidder */\n      0xffffffffffffffffffffffffffffffffffffffff\n      and\n      eq\n        /* \"contracts/Auction.sol\":4957:5627  if (bidder != winnerBid.bidder) //si no es el ganador, le devuelvo... */\n      tag_99\n      jumpi\n        /* \"contracts/Auction.sol\":5124:5127  100 */\n      0x64\n        /* \"contracts/Auction.sol\":5099:5122  gasCommissionPercentage */\n      sload(0x03)\n        /* \"contracts/Auction.sol\":5087:5098  totalAmount */\n      dup6\n        /* \"contracts/Auction.sol\":5087:5122  totalAmount*gasCommissionPercentage */\n      tag_100\n      swap2\n      swap1\n      tag_101\n      jump\t// in\n    tag_100:\n        /* \"contracts/Auction.sol\":5086:5127  (totalAmount*gasCommissionPercentage)/100 */\n      tag_102\n      swap2\n      swap1\n      tag_103\n      jump\t// in\n    tag_102:\n        /* \"contracts/Auction.sol\":5071:5082  totalAmount */\n      dup5\n        /* \"contracts/Auction.sol\":5071:5128  totalAmount - ((totalAmount*gasCommissionPercentage)/100) */\n      tag_104\n      swap2\n      swap1\n      tag_70\n      jump\t// in\n    tag_104:\n        /* \"contracts/Auction.sol\":5056:5128  refundAmount = totalAmount - ((totalAmount*gasCommissionPercentage)/100) */\n      swap3\n      pop\n        /* \"contracts/Auction.sol\":5148:5157  bool sent */\n      0x00\n        /* \"contracts/Auction.sol\":5170:5176  bidder */\n      dup3\n        /* \"contracts/Auction.sol\":5162:5182  payable(bidder).call */\n      0xffffffffffffffffffffffffffffffffffffffff\n      and\n        /* \"contracts/Auction.sol\":5190:5202  refundAmount */\n      dup5\n        /* \"contracts/Auction.sol\":5162:5207  payable(bidder).call{value: refundAmount}(\"\") */\n      mload(0x40)\n      tag_105\n      swap1\n      tag_73\n      jump\t// in\n    tag_105:\n      0x00\n      mload(0x40)\n      dup1\n      dup4\n      sub\n      dup2\n      dup6\n      dup8\n      gas\n      call\n      swap3\n      pop\n      pop\n      pop\n      returndatasize\n      dup1\n      0x00\n      dup2\n      eq\n      tag_108\n      jumpi\n      mload(0x40)\n      swap2\n      pop\n      and(add(returndatasize, 0x3f), not(0x1f))\n      dup3\n      add\n      0x40\n      mstore\n      returndatasize\n      dup3\n      mstore\n      returndatasize\n      0x00\n      0x20\n      dup5\n      add\n      returndatacopy\n      jump(tag_107)\n    tag_108:\n      0x60\n      swap2\n      pop\n    tag_107:\n      pop\n        /* \"contracts/Auction.sol\":5147:5207  (bool sent,) = payable(bidder).call{value: refundAmount}(\"\") */\n      pop\n      swap1\n      pop\n        /* \"contracts/Auction.sol\":5247:5251  sent */\n      dup1\n        /* \"contracts/Auction.sol\":5239:5272  require(sent, \"Failed to refund\") */\n      tag_109\n      jumpi\n      mload(0x40)\n      0x08c379a000000000000000000000000000000000000000000000000000000000\n      dup2\n      mstore\n      0x04\n      add\n      tag_110\n      swap1\n      tag_79\n      jump\t// in\n    tag_110:\n      mload(0x40)\n      dup1\n      swap2\n      sub\n      swap1\n      revert\n    tag_109:\n        /* \"contracts/Auction.sol\":5037:5331  {... */\n      pop\n        /* \"contracts/Auction.sol\":4957:5627  if (bidder != winnerBid.bidder) //si no es el ganador, le devuelvo... */\n      jump(tag_111)\n    tag_99:\n        /* \"contracts/Auction.sol\":5438:5447  bool sent */\n      0x00\n        /* \"contracts/Auction.sol\":5460:5466  seller */\n      0x00\n      0x01\n      swap1\n      sload\n      swap1\n      0x0100\n      exp\n      swap1\n      div\n      0xffffffffffffffffffffffffffffffffffffffff\n      and\n        /* \"contracts/Auction.sol\":5452:5472  payable(seller).call */\n      0xffffffffffffffffffffffffffffffffffffffff\n      and\n        /* \"contracts/Auction.sol\":5480:5491  totalAmount */\n      dup6\n        /* \"contracts/Auction.sol\":5452:5496  payable(seller).call{value: totalAmount}(\"\") */\n      mload(0x40)\n      tag_112\n      swap1\n      tag_73\n      jump\t// in\n    tag_112:\n      0x00\n      mload(0x40)\n      dup1\n      dup4\n      sub\n      dup2\n      dup6\n      dup8\n      gas\n      call\n      swap3\n      pop\n      pop\n      pop\n      returndatasize\n      dup1\n      0x00\n      dup2\n      eq\n      tag_115\n      jumpi\n      mload(0x40)\n      swap2\n      pop\n      and(add(returndatasize, 0x3f), not(0x1f))\n      dup3\n      add\n      0x40\n      mstore\n      returndatasize\n      dup3\n      mstore\n      returndatasize\n      0x00\n      0x20\n      dup5\n      add\n      returndatacopy\n      jump(tag_114)\n    tag_115:\n      0x60\n      swap2\n      pop\n    tag_114:\n      pop\n        /* \"contracts/Auction.sol\":5437:5496  (bool sent,) = payable(seller).call{value: totalAmount}(\"\") */\n      pop\n      swap1\n      pop\n        /* \"contracts/Auction.sol\":5536:5540  sent */\n      dup1\n        /* \"contracts/Auction.sol\":5528:5568  require(sent, \"Failed to tranfer prize\") */\n      tag_116\n      jumpi\n      mload(0x40)\n      0x08c379a000000000000000000000000000000000000000000000000000000000\n      dup2\n      mstore\n      0x04\n      add\n      tag_117\n      swap1\n      tag_118\n      jump\t// in\n    tag_117:\n      mload(0x40)\n      dup1\n      swap2\n      sub\n      swap1\n      revert\n    tag_116:\n        /* \"contracts/Auction.sol\":5418:5627  {... */\n      pop\n        /* \"contracts/Auction.sol\":4957:5627  if (bidder != winnerBid.bidder) //si no es el ganador, le devuelvo... */\n    tag_111:\n        /* \"contracts/Auction.sol\":4733:4736  i++ */\n      dup1\n      dup1\n      0x01\n      add\n      swap2\n      pop\n      pop\n        /* \"contracts/Auction.sol\":4701:5640  for (uint i=0; i < bids.length; i++)... */\n      jump(tag_92)\n    tag_93:\n      pop\n        /* \"contracts/Auction.sol\":5657:5680  AuctionEnded(winnerBid) */\n      0xc897af1a6c31cb1cd7da48799ad3df24bb1a795f8dddece56892eb57b93563ce\n        /* \"contracts/Auction.sol\":5670:5679  winnerBid */\n      0x0b\n        /* \"contracts/Auction.sol\":5657:5680  AuctionEnded(winnerBid) */\n      mload(0x40)\n      tag_119\n      swap2\n      swap1\n      tag_120\n      jump\t// in\n    tag_119:\n      mload(0x40)\n      dup1\n      swap2\n      sub\n      swap1\n      log1\n        /* \"contracts/Auction.sol\":4567:5688  {... */\n      pop\n      pop\n      pop\n        /* \"contracts/Auction.sol\":4502:5688  function EndAuction () isActive() isEnded() onlyOwner() external {... */\n      jump\t// out\n        /* \"contracts/Auction.sol\":338:359  uint256 public bidGap */\n    tag_27:\n      sload(0x02)\n      dup2\n      jump\t// out\n        /* \"contracts/Auction.sol\":2415:2502  function getAllBids() public view returns (Bid[] memory) {... */\n    tag_32:\n        /* \"contracts/Auction.sol\":2458:2470  Bid[] memory */\n      0x60\n        /* \"contracts/Auction.sol\":2490:2494  bids */\n      0x0a\n        /* \"contracts/Auction.sol\":2483:2494  return bids */\n      dup1\n      sload\n      dup1\n      0x20\n      mul\n      0x20\n      add\n      mload(0x40)\n      swap1\n      dup2\n      add\n      0x40\n      mstore\n      dup1\n      swap3\n      swap2\n      swap1\n      dup2\n      dup2\n      mstore\n      0x20\n      add\n      0x00\n      swap1\n    tag_122:\n      dup3\n      dup3\n      lt\n      iszero\n      tag_123\n      jumpi\n      dup4\n      dup3\n      swap1\n      0x00\n      mstore\n      keccak256(0x00, 0x20)\n      swap1\n      0x02\n      mul\n      add\n      mload(0x40)\n      dup1\n      0x40\n      add\n      0x40\n      mstore\n      swap1\n      dup2\n      0x00\n      dup3\n      add\n      0x00\n      swap1\n      sload\n      swap1\n      0x0100\n      exp\n      swap1\n      div\n      0xffffffffffffffffffffffffffffffffffffffff\n      and\n      0xffffffffffffffffffffffffffffffffffffffff\n      and\n      0xffffffffffffffffffffffffffffffffffffffff\n      and\n      dup2\n      mstore\n      0x20\n      add\n      0x01\n      dup3\n      add\n      sload\n      dup2\n      mstore\n      pop\n      pop\n      dup2\n      mstore\n      0x20\n      add\n      swap1\n      0x01\n      add\n      swap1\n      jump(tag_122)\n    tag_123:\n      pop\n      pop\n      pop\n      pop\n      swap1\n      pop\n        /* \"contracts/Auction.sol\":2415:2502  function getAllBids() public view returns (Bid[] memory) {... */\n      swap1\n      jump\t// out\n        /* \"contracts/Auction.sol\":280:300  address public owner */\n    tag_37:\n      0x01\n      0x00\n      swap1\n      sload\n      swap1\n      0x0100\n      exp\n      swap1\n      div\n      0xffffffffffffffffffffffffffffffffffffffff\n      and\n      dup2\n      jump\t// out\n        /* \"contracts/Auction.sol\":2263:2362  function getWinner() public view isEnded() returns (Bid memory) {... */\n    tag_41:\n        /* \"contracts/Auction.sol\":2315:2325  Bid memory */\n      tag_125\n      tag_126\n      jump\t// in\n    tag_125:\n        /* \"contracts/Auction.sol\":4303:4313  finishDate */\n      sload(0x05)\n        /* \"contracts/Auction.sol\":4287:4302  block.timestamp */\n      timestamp\n        /* \"contracts/Auction.sol\":4287:4313  block.timestamp>finishDate */\n      gt\n        /* \"contracts/Auction.sol\":4279:4342  require(block.timestamp>finishDate,\"The Auction has not ended\") */\n      tag_128\n      jumpi\n      mload(0x40)\n      0x08c379a000000000000000000000000000000000000000000000000000000000\n      dup2\n      mstore\n      0x04\n      add\n      tag_129\n      swap1\n      tag_86\n      jump\t// in\n    tag_129:\n      mload(0x40)\n      dup1\n      swap2\n      sub\n      swap1\n      revert\n    tag_128:\n        /* \"contracts/Auction.sol\":2345:2354  winnerBid */\n      0x0b\n        /* \"contracts/Auction.sol\":2338:2354  return winnerBid */\n      mload(0x40)\n      dup1\n      0x40\n      add\n      0x40\n      mstore\n      swap1\n      dup2\n      0x00\n      dup3\n      add\n      0x00\n      swap1\n      sload\n      swap1\n      0x0100\n      exp\n      swap1\n      div\n      0xffffffffffffffffffffffffffffffffffffffff\n      and\n      0xffffffffffffffffffffffffffffffffffffffff\n      and\n      0xffffffffffffffffffffffffffffffffffffffff\n      and\n      dup2\n      mstore\n      0x20\n      add\n      0x01\n      dup3\n      add\n      sload\n      dup2\n      mstore\n      pop\n      pop\n      swap1\n      pop\n        /* \"contracts/Auction.sol\":2263:2362  function getWinner() public view isEnded() returns (Bid memory) {... */\n      swap1\n      jump\t// out\n        /* \"contracts/Auction.sol\":2577:3677  function MakeABid () payable isActive() isHigherThanGap(msg.value)  external {... */\n    tag_45:\n        /* \"contracts/Auction.sol\":6018:6022  true */\n      0x01\n        /* \"contracts/Auction.sol\":6010:6022  active==true */\n      iszero\n      iszero\n        /* \"contracts/Auction.sol\":6010:6016  active */\n      0x00\n      0x00\n      swap1\n      sload\n      swap1\n      0x0100\n      exp\n      swap1\n      div\n      0xff\n      and\n        /* \"contracts/Auction.sol\":6010:6022  active==true */\n      iszero\n      iszero\n      eq\n        /* \"contracts/Auction.sol\":6002:6058  require(active==true,\"The Auction is not longer active\") */\n      tag_132\n      jumpi\n      mload(0x40)\n      0x08c379a000000000000000000000000000000000000000000000000000000000\n      dup2\n      mstore\n      0x04\n      add\n      tag_133\n      swap1\n      tag_61\n      jump\t// in\n    tag_133:\n      mload(0x40)\n      dup1\n      swap2\n      sub\n      swap1\n      revert\n    tag_132:\n        /* \"contracts/Auction.sol\":2633:2642  msg.value */\n      callvalue\n        /* \"contracts/Auction.sol\":4056:4062  bidGap */\n      sload(0x02)\n        /* \"contracts/Auction.sol\":4050:4053  100 */\n      0x64\n        /* \"contracts/Auction.sol\":4050:4062  100 + bidGap */\n      tag_135\n      swap2\n      swap1\n      tag_136\n      jump\t// in\n    tag_135:\n        /* \"contracts/Auction.sol\":4032:4041  winnerBid */\n      0x0b\n        /* \"contracts/Auction.sol\":4032:4048  winnerBid.amount */\n      0x01\n      add\n      sload\n        /* \"contracts/Auction.sol\":4032:4063  winnerBid.amount*(100 + bidGap) */\n      tag_137\n      swap2\n      swap1\n      tag_101\n      jump\t// in\n    tag_137:\n        /* \"contracts/Auction.sol\":4025:4028  100 */\n      0x64\n        /* \"contracts/Auction.sol\":4017:4024  _amount */\n      dup3\n        /* \"contracts/Auction.sol\":4017:4028  _amount*100 */\n      tag_138\n      swap2\n      swap1\n      tag_101\n      jump\t// in\n    tag_138:\n        /* \"contracts/Auction.sol\":4017:4063  _amount*100 >= winnerBid.amount*(100 + bidGap) */\n      lt\n      iszero\n        /* \"contracts/Auction.sol\":4008:4105  require (_amount*100 >= winnerBid.amount*(100 + bidGap), \"The amount is not higher than the gap\") */\n      tag_139\n      jumpi\n      mload(0x40)\n      0x08c379a000000000000000000000000000000000000000000000000000000000\n      dup2\n      mstore\n      0x04\n      add\n      tag_140\n      swap1\n      tag_141\n      jump\t// in\n    tag_140:\n      mload(0x40)\n      dup1\n      swap2\n      sub\n      swap1\n      revert\n    tag_139:\n        /* \"contracts/Auction.sol\":2772:2782  finishDate */\n      sload(0x05)\n        /* \"contracts/Auction.sol\":2756:2771  block.timestamp */\n      timestamp\n        /* \"contracts/Auction.sol\":2756:2782  block.timestamp<finishDate */\n      lt\n        /* \"contracts/Auction.sol\":2748:2807  require(block.timestamp<finishDate,\"The Auction has ended\") */\n      tag_143\n      jumpi\n      mload(0x40)\n      0x08c379a000000000000000000000000000000000000000000000000000000000\n      dup2\n      mstore\n      0x04\n      add\n      tag_144\n      swap1\n      tag_145\n      jump\t// in\n    tag_144:\n      mload(0x40)\n      dup1\n      swap2\n      sub\n      swap1\n      revert\n    tag_143:\n        /* \"contracts/Auction.sol\":2836:2845  winnerBid */\n      0x0b\n        /* \"contracts/Auction.sol\":2836:2852  winnerBid.amount */\n      0x01\n      add\n      sload\n        /* \"contracts/Auction.sol\":2824:2833  msg.value */\n      callvalue\n        /* \"contracts/Auction.sol\":2824:2852  msg.value > winnerBid.amount */\n      gt\n        /* \"contracts/Auction.sol\":2820:3670  if (msg.value > winnerBid.amount){... */\n      iszero\n      tag_146\n      jumpi\n        /* \"contracts/Auction.sol\":2974:2983  msg.value */\n      callvalue\n        /* \"contracts/Auction.sol\":2939:2959  bidAddressLastAmount */\n      0x08\n        /* \"contracts/Auction.sol\":2939:2971  bidAddressLastAmount[msg.sender] */\n      0x00\n        /* \"contracts/Auction.sol\":2960:2970  msg.sender */\n      caller\n        /* \"contracts/Auction.sol\":2939:2971  bidAddressLastAmount[msg.sender] */\n      0xffffffffffffffffffffffffffffffffffffffff\n      and\n      0xffffffffffffffffffffffffffffffffffffffff\n      and\n      dup2\n      mstore\n      0x20\n      add\n      swap1\n      dup2\n      mstore\n      0x20\n      add\n      0x00\n      keccak256\n        /* \"contracts/Auction.sol\":2939:2983  bidAddressLastAmount[msg.sender] = msg.value */\n      dup2\n      swap1\n      sstore\n      pop\n        /* \"contracts/Auction.sol\":3035:3044  msg.value */\n      callvalue\n        /* \"contracts/Auction.sol\":2998:3019  bidAddressTotalAmount */\n      0x09\n        /* \"contracts/Auction.sol\":2998:3031  bidAddressTotalAmount[msg.sender] */\n      0x00\n        /* \"contracts/Auction.sol\":3020:3030  msg.sender */\n      caller\n        /* \"contracts/Auction.sol\":2998:3031  bidAddressTotalAmount[msg.sender] */\n      0xffffffffffffffffffffffffffffffffffffffff\n      and\n      0xffffffffffffffffffffffffffffffffffffffff\n      and\n      dup2\n      mstore\n      0x20\n      add\n      swap1\n      dup2\n      mstore\n      0x20\n      add\n      0x00\n      keccak256\n      0x00\n        /* \"contracts/Auction.sol\":2998:3044  bidAddressTotalAmount[msg.sender] += msg.value */\n      dup3\n      dup3\n      sload\n      tag_147\n      swap2\n      swap1\n      tag_136\n      jump\t// in\n    tag_147:\n      swap3\n      pop\n      pop\n      dup2\n      swap1\n      sstore\n      pop\n        /* \"contracts/Auction.sol\":3110:3114  bids */\n      0x0a\n        /* \"contracts/Auction.sol\":3120:3145  Bid(msg.sender,msg.value) */\n      mload(0x40)\n      dup1\n      0x40\n      add\n      0x40\n      mstore\n      dup1\n        /* \"contracts/Auction.sol\":3124:3134  msg.sender */\n      caller\n        /* \"contracts/Auction.sol\":3120:3145  Bid(msg.sender,msg.value) */\n      0xffffffffffffffffffffffffffffffffffffffff\n      and\n      dup2\n      mstore\n      0x20\n      add\n        /* \"contracts/Auction.sol\":3135:3144  msg.value */\n      callvalue\n        /* \"contracts/Auction.sol\":3120:3145  Bid(msg.sender,msg.value) */\n      dup2\n      mstore\n      pop\n        /* \"contracts/Auction.sol\":3110:3146  bids.push(Bid(msg.sender,msg.value)) */\n      swap1\n      dup1\n      0x01\n      dup2\n      sload\n      add\n      dup1\n      dup3\n      sstore\n      dup1\n      swap2\n      pop\n      pop\n      0x01\n      swap1\n      sub\n      swap1\n      0x00\n      mstore\n      keccak256(0x00, 0x20)\n      swap1\n      0x02\n      mul\n      add\n      0x00\n      swap1\n      swap2\n      swap1\n      swap2\n      swap1\n      swap2\n      pop\n      0x00\n      dup3\n      add\n      mload\n      dup2\n      0x00\n      add\n      exp(0x0100, 0x00)\n      dup2\n      sload\n      dup2\n      0xffffffffffffffffffffffffffffffffffffffff\n      mul\n      not\n      and\n      swap1\n      dup4\n      0xffffffffffffffffffffffffffffffffffffffff\n      and\n      mul\n      or\n      swap1\n      sstore\n      pop\n      0x20\n      dup3\n      add\n      mload\n      dup2\n      0x01\n      add\n      sstore\n      pop\n      pop\n        /* \"contracts/Auction.sol\":3254:3263  msg.value */\n      callvalue\n        /* \"contracts/Auction.sol\":3235:3244  winnerBid */\n      0x0b\n        /* \"contracts/Auction.sol\":3235:3251  winnerBid.amount */\n      0x01\n      add\n        /* \"contracts/Auction.sol\":3235:3263  winnerBid.amount = msg.value */\n      dup2\n      swap1\n      sstore\n      pop\n        /* \"contracts/Auction.sol\":3297:3307  msg.sender */\n      caller\n        /* \"contracts/Auction.sol\":3278:3287  winnerBid */\n      0x0b\n        /* \"contracts/Auction.sol\":3278:3294  winnerBid.bidder */\n      0x00\n      add\n      0x00\n        /* \"contracts/Auction.sol\":3278:3307  winnerBid.bidder = msg.sender */\n      0x0100\n      exp\n      dup2\n      sload\n      dup2\n      0xffffffffffffffffffffffffffffffffffffffff\n      mul\n      not\n      and\n      swap1\n      dup4\n      0xffffffffffffffffffffffffffffffffffffffff\n      and\n      mul\n      or\n      swap1\n      sstore\n      pop\n        /* \"contracts/Auction.sol\":3387:3397  msg.sender */\n      caller\n        /* \"contracts/Auction.sol\":3378:3409  NewOffer(msg.sender, msg.value) */\n      0xffffffffffffffffffffffffffffffffffffffff\n      and\n      0x058d619527549e88853c641ebcec23205e5df61592e3908275721b5ad490113f\n        /* \"contracts/Auction.sol\":3399:3408  msg.value */\n      callvalue\n        /* \"contracts/Auction.sol\":3378:3409  NewOffer(msg.sender, msg.value) */\n      mload(0x40)\n      tag_149\n      swap2\n      swap1\n      tag_29\n      jump\t// in\n    tag_149:\n      mload(0x40)\n      dup1\n      swap2\n      sub\n      swap1\n      log2\n        /* \"contracts/Auction.sol\":3545:3561  bidExtensionZone */\n      sload(0x07)\n        /* \"contracts/Auction.sol\":3534:3544  finishDate */\n      sload(0x05)\n        /* \"contracts/Auction.sol\":3534:3561  finishDate-bidExtensionZone */\n      tag_150\n      swap2\n      swap1\n      tag_70\n      jump\t// in\n    tag_150:\n        /* \"contracts/Auction.sol\":3514:3529  block.timestamp */\n      timestamp\n        /* \"contracts/Auction.sol\":3514:3562  block.timestamp >= (finishDate-bidExtensionZone) */\n      lt\n        /* \"contracts/Auction.sol\":3510:3659  if (block.timestamp >= (finishDate-bidExtensionZone))... */\n      tag_151\n      jumpi\n        /* \"contracts/Auction.sol\":3627:3643  bidExtensionTime */\n      sload(0x06)\n        /* \"contracts/Auction.sol\":3609:3624  block.timestamp */\n      timestamp\n        /* \"contracts/Auction.sol\":3609:3643  block.timestamp + bidExtensionTime */\n      tag_152\n      swap2\n      swap1\n      tag_136\n      jump\t// in\n    tag_152:\n        /* \"contracts/Auction.sol\":3596:3606  finishDate */\n      0x05\n        /* \"contracts/Auction.sol\":3596:3643  finishDate = block.timestamp + bidExtensionTime */\n      dup2\n      swap1\n      sstore\n      pop\n        /* \"contracts/Auction.sol\":3510:3659  if (block.timestamp >= (finishDate-bidExtensionZone))... */\n    tag_151:\n        /* \"contracts/Auction.sol\":2820:3670  if (msg.value > winnerBid.amount){... */\n    tag_146:\n        /* \"contracts/Auction.sol\":6069:6070  _ */\n      pop\n        /* \"contracts/Auction.sol\":2577:3677  function MakeABid () payable isActive() isHigherThanGap(msg.value)  external {... */\n      jump\t// out\n        /* \"contracts/Auction.sol\":394:432  uint256 public gasCommissionPercentage */\n    tag_48:\n      sload(0x03)\n      dup2\n      jump\t// out\n        /* \"contracts/Auction.sol\":471:496  uint256 public finishDate */\n    tag_52:\n      sload(0x05)\n      dup2\n      jump\t// out\n        /* \"contracts/Auction.sol\":441:464  uint256 public initDate */\n    tag_56:\n      sload(0x04)\n      dup2\n      jump\t// out\n    tag_126:\n      mload(0x40)\n      dup1\n      0x40\n      add\n      0x40\n      mstore\n      dup1\n      and(0xffffffffffffffffffffffffffffffffffffffff, 0x00)\n      dup2\n      mstore\n      0x20\n      add\n      0x00\n      dup2\n      mstore\n      pop\n      swap1\n      jump\t// out\n        /* \"#utility.yul\":7:133   */\n    tag_153:\n        /* \"#utility.yul\":44:51   */\n      0x00\n        /* \"#utility.yul\":84:126   */\n      0xffffffffffffffffffffffffffffffffffffffff\n        /* \"#utility.yul\":77:82   */\n      dup3\n        /* \"#utility.yul\":73:127   */\n      and\n        /* \"#utility.yul\":62:127   */\n      swap1\n      pop\n        /* \"#utility.yul\":7:133   */\n      swap2\n      swap1\n      pop\n      jump\t// out\n        /* \"#utility.yul\":139:235   */\n    tag_154:\n        /* \"#utility.yul\":176:183   */\n      0x00\n        /* \"#utility.yul\":205:229   */\n      tag_201\n        /* \"#utility.yul\":223:228   */\n      dup3\n        /* \"#utility.yul\":205:229   */\n      tag_153\n      jump\t// in\n    tag_201:\n        /* \"#utility.yul\":194:229   */\n      swap1\n      pop\n        /* \"#utility.yul\":139:235   */\n      swap2\n      swap1\n      pop\n      jump\t// out\n        /* \"#utility.yul\":241:359   */\n    tag_155:\n        /* \"#utility.yul\":328:352   */\n      tag_203\n        /* \"#utility.yul\":346:351   */\n      dup2\n        /* \"#utility.yul\":328:352   */\n      tag_154\n      jump\t// in\n    tag_203:\n        /* \"#utility.yul\":323:326   */\n      dup3\n        /* \"#utility.yul\":316:353   */\n      mstore\n        /* \"#utility.yul\":241:359   */\n      pop\n      pop\n      jump\t// out\n        /* \"#utility.yul\":365:587   */\n    tag_18:\n        /* \"#utility.yul\":458:462   */\n      0x00\n        /* \"#utility.yul\":496:498   */\n      0x20\n        /* \"#utility.yul\":485:494   */\n      dup3\n        /* \"#utility.yul\":481:499   */\n      add\n        /* \"#utility.yul\":473:499   */\n      swap1\n      pop\n        /* \"#utility.yul\":509:580   */\n      tag_205\n        /* \"#utility.yul\":577:578   */\n      0x00\n        /* \"#utility.yul\":566:575   */\n      dup4\n        /* \"#utility.yul\":562:579   */\n      add\n        /* \"#utility.yul\":553:559   */\n      dup5\n        /* \"#utility.yul\":509:580   */\n      tag_155\n      jump\t// in\n    tag_205:\n        /* \"#utility.yul\":365:587   */\n      swap3\n      swap2\n      pop\n      pop\n      jump\t// out\n        /* \"#utility.yul\":593:670   */\n    tag_156:\n        /* \"#utility.yul\":630:637   */\n      0x00\n        /* \"#utility.yul\":659:664   */\n      dup2\n        /* \"#utility.yul\":648:664   */\n      swap1\n      pop\n        /* \"#utility.yul\":593:670   */\n      swap2\n      swap1\n      pop\n      jump\t// out\n        /* \"#utility.yul\":676:794   */\n    tag_157:\n        /* \"#utility.yul\":763:787   */\n      tag_208\n        /* \"#utility.yul\":781:786   */\n      dup2\n        /* \"#utility.yul\":763:787   */\n      tag_156\n      jump\t// in\n    tag_208:\n        /* \"#utility.yul\":758:761   */\n      dup3\n        /* \"#utility.yul\":751:788   */\n      mstore\n        /* \"#utility.yul\":676:794   */\n      pop\n      pop\n      jump\t// out\n        /* \"#utility.yul\":800:1022   */\n    tag_29:\n        /* \"#utility.yul\":893:897   */\n      0x00\n        /* \"#utility.yul\":931:933   */\n      0x20\n        /* \"#utility.yul\":920:929   */\n      dup3\n        /* \"#utility.yul\":916:934   */\n      add\n        /* \"#utility.yul\":908:934   */\n      swap1\n      pop\n        /* \"#utility.yul\":944:1015   */\n      tag_210\n        /* \"#utility.yul\":1012:1013   */\n      0x00\n        /* \"#utility.yul\":1001:1010   */\n      dup4\n        /* \"#utility.yul\":997:1014   */\n      add\n        /* \"#utility.yul\":988:994   */\n      dup5\n        /* \"#utility.yul\":944:1015   */\n      tag_157\n      jump\t// in\n    tag_210:\n        /* \"#utility.yul\":800:1022   */\n      swap3\n      swap2\n      pop\n      pop\n      jump\t// out\n        /* \"#utility.yul\":1028:1161   */\n    tag_158:\n        /* \"#utility.yul\":1114:1120   */\n      0x00\n        /* \"#utility.yul\":1148:1153   */\n      dup2\n        /* \"#utility.yul\":1142:1154   */\n      mload\n        /* \"#utility.yul\":1132:1154   */\n      swap1\n      pop\n        /* \"#utility.yul\":1028:1161   */\n      swap2\n      swap1\n      pop\n      jump\t// out\n        /* \"#utility.yul\":1167:1370   */\n    tag_159:\n        /* \"#utility.yul\":1285:1296   */\n      0x00\n        /* \"#utility.yul\":1319:1325   */\n      dup3\n        /* \"#utility.yul\":1314:1317   */\n      dup3\n        /* \"#utility.yul\":1307:1326   */\n      mstore\n        /* \"#utility.yul\":1359:1363   */\n      0x20\n        /* \"#utility.yul\":1354:1357   */\n      dup3\n        /* \"#utility.yul\":1350:1364   */\n      add\n        /* \"#utility.yul\":1335:1364   */\n      swap1\n      pop\n        /* \"#utility.yul\":1167:1370   */\n      swap3\n      swap2\n      pop\n      pop\n      jump\t// out\n        /* \"#utility.yul\":1376:1527   */\n    tag_160:\n        /* \"#utility.yul\":1462:1466   */\n      0x00\n        /* \"#utility.yul\":1485:1488   */\n      dup2\n        /* \"#utility.yul\":1477:1488   */\n      swap1\n      pop\n        /* \"#utility.yul\":1515:1519   */\n      0x20\n        /* \"#utility.yul\":1510:1513   */\n      dup3\n        /* \"#utility.yul\":1506:1520   */\n      add\n        /* \"#utility.yul\":1498:1520   */\n      swap1\n      pop\n        /* \"#utility.yul\":1376:1527   */\n      swap2\n      swap1\n      pop\n      jump\t// out\n        /* \"#utility.yul\":1533:1641   */\n    tag_161:\n        /* \"#utility.yul\":1610:1634   */\n      tag_215\n        /* \"#utility.yul\":1628:1633   */\n      dup2\n        /* \"#utility.yul\":1610:1634   */\n      tag_154\n      jump\t// in\n    tag_215:\n        /* \"#utility.yul\":1605:1608   */\n      dup3\n        /* \"#utility.yul\":1598:1635   */\n      mstore\n        /* \"#utility.yul\":1533:1641   */\n      pop\n      pop\n      jump\t// out\n        /* \"#utility.yul\":1647:1755   */\n    tag_162:\n        /* \"#utility.yul\":1724:1748   */\n      tag_217\n        /* \"#utility.yul\":1742:1747   */\n      dup2\n        /* \"#utility.yul\":1724:1748   */\n      tag_156\n      jump\t// in\n    tag_217:\n        /* \"#utility.yul\":1719:1722   */\n      dup3\n        /* \"#utility.yul\":1712:1749   */\n      mstore\n        /* \"#utility.yul\":1647:1755   */\n      pop\n      pop\n      jump\t// out\n        /* \"#utility.yul\":1809:2298   */\n    tag_163:\n        /* \"#utility.yul\":1934:1938   */\n      0x40\n        /* \"#utility.yul\":1929:1932   */\n      dup3\n        /* \"#utility.yul\":1925:1939   */\n      add\n        /* \"#utility.yul\":2023:2027   */\n      0x00\n        /* \"#utility.yul\":2016:2021   */\n      dup3\n        /* \"#utility.yul\":2012:2028   */\n      add\n        /* \"#utility.yul\":2006:2029   */\n      mload\n        /* \"#utility.yul\":2042:2105   */\n      tag_219\n        /* \"#utility.yul\":2099:2103   */\n      0x00\n        /* \"#utility.yul\":2094:2097   */\n      dup6\n        /* \"#utility.yul\":2090:2104   */\n      add\n        /* \"#utility.yul\":2076:2088   */\n      dup3\n        /* \"#utility.yul\":2042:2105   */\n      tag_161\n      jump\t// in\n    tag_219:\n        /* \"#utility.yul\":1949:2115   */\n      pop\n        /* \"#utility.yul\":2199:2203   */\n      0x20\n        /* \"#utility.yul\":2192:2197   */\n      dup3\n        /* \"#utility.yul\":2188:2204   */\n      add\n        /* \"#utility.yul\":2182:2205   */\n      mload\n        /* \"#utility.yul\":2218:2281   */\n      tag_220\n        /* \"#utility.yul\":2275:2279   */\n      0x20\n        /* \"#utility.yul\":2270:2273   */\n      dup6\n        /* \"#utility.yul\":2266:2280   */\n      add\n        /* \"#utility.yul\":2252:2264   */\n      dup3\n        /* \"#utility.yul\":2218:2281   */\n      tag_162\n      jump\t// in\n    tag_220:\n        /* \"#utility.yul\":2125:2291   */\n      pop\n        /* \"#utility.yul\":1903:2298   */\n      pop\n        /* \"#utility.yul\":1809:2298   */\n      pop\n      pop\n      jump\t// out\n        /* \"#utility.yul\":2304:2559   */\n    tag_164:\n        /* \"#utility.yul\":2411:2421   */\n      0x00\n        /* \"#utility.yul\":2432:2516   */\n      tag_222\n        /* \"#utility.yul\":2512:2515   */\n      dup4\n        /* \"#utility.yul\":2504:2510   */\n      dup4\n        /* \"#utility.yul\":2432:2516   */\n      tag_163\n      jump\t// in\n    tag_222:\n        /* \"#utility.yul\":2548:2552   */\n      0x40\n        /* \"#utility.yul\":2543:2546   */\n      dup4\n        /* \"#utility.yul\":2539:2553   */\n      add\n        /* \"#utility.yul\":2525:2553   */\n      swap1\n      pop\n        /* \"#utility.yul\":2304:2559   */\n      swap3\n      swap2\n      pop\n      pop\n      jump\t// out\n        /* \"#utility.yul\":2565:2697   */\n    tag_165:\n        /* \"#utility.yul\":2654:2658   */\n      0x00\n        /* \"#utility.yul\":2686:2690   */\n      0x20\n        /* \"#utility.yul\":2681:2684   */\n      dup3\n        /* \"#utility.yul\":2677:2691   */\n      add\n        /* \"#utility.yul\":2669:2691   */\n      swap1\n      pop\n        /* \"#utility.yul\":2565:2697   */\n      swap2\n      swap1\n      pop\n      jump\t// out\n        /* \"#utility.yul\":2755:3639   */\n    tag_166:\n        /* \"#utility.yul\":2912:2915   */\n      0x00\n        /* \"#utility.yul\":2941:3014   */\n      tag_225\n        /* \"#utility.yul\":3008:3013   */\n      dup3\n        /* \"#utility.yul\":2941:3014   */\n      tag_158\n      jump\t// in\n    tag_225:\n        /* \"#utility.yul\":3030:3135   */\n      tag_226\n        /* \"#utility.yul\":3128:3134   */\n      dup2\n        /* \"#utility.yul\":3123:3126   */\n      dup6\n        /* \"#utility.yul\":3030:3135   */\n      tag_159\n      jump\t// in\n    tag_226:\n        /* \"#utility.yul\":3023:3135   */\n      swap4\n      pop\n        /* \"#utility.yul\":3159:3234   */\n      tag_227\n        /* \"#utility.yul\":3228:3233   */\n      dup4\n        /* \"#utility.yul\":3159:3234   */\n      tag_160\n      jump\t// in\n    tag_227:\n        /* \"#utility.yul\":3257:3264   */\n      dup1\n        /* \"#utility.yul\":3288:3289   */\n      0x00\n        /* \"#utility.yul\":3273:3614   */\n    tag_228:\n        /* \"#utility.yul\":3298:3304   */\n      dup4\n        /* \"#utility.yul\":3295:3296   */\n      dup2\n        /* \"#utility.yul\":3292:3305   */\n      lt\n        /* \"#utility.yul\":3273:3614   */\n      iszero\n      tag_230\n      jumpi\n        /* \"#utility.yul\":3374:3380   */\n      dup2\n        /* \"#utility.yul\":3368:3381   */\n      mload\n        /* \"#utility.yul\":3401:3502   */\n      tag_231\n        /* \"#utility.yul\":3498:3501   */\n      dup9\n        /* \"#utility.yul\":3483:3496   */\n      dup3\n        /* \"#utility.yul\":3401:3502   */\n      tag_164\n      jump\t// in\n    tag_231:\n        /* \"#utility.yul\":3394:3502   */\n      swap8\n      pop\n        /* \"#utility.yul\":3525:3604   */\n      tag_232\n        /* \"#utility.yul\":3597:3603   */\n      dup4\n        /* \"#utility.yul\":3525:3604   */\n      tag_165\n      jump\t// in\n    tag_232:\n        /* \"#utility.yul\":3515:3604   */\n      swap3\n      pop\n        /* \"#utility.yul\":3333:3614   */\n      pop\n        /* \"#utility.yul\":3320:3321   */\n      0x01\n        /* \"#utility.yul\":3317:3318   */\n      dup2\n        /* \"#utility.yul\":3313:3322   */\n      add\n        /* \"#utility.yul\":3308:3322   */\n      swap1\n      pop\n        /* \"#utility.yul\":3273:3614   */\n      jump(tag_228)\n    tag_230:\n        /* \"#utility.yul\":3277:3291   */\n      pop\n        /* \"#utility.yul\":3630:3633   */\n      dup6\n        /* \"#utility.yul\":3623:3633   */\n      swap4\n      pop\n        /* \"#utility.yul\":2917:3639   */\n      pop\n      pop\n      pop\n        /* \"#utility.yul\":2755:3639   */\n      swap3\n      swap2\n      pop\n      pop\n      jump\t// out\n        /* \"#utility.yul\":3645:4094   */\n    tag_34:\n        /* \"#utility.yul\":3826:3830   */\n      0x00\n        /* \"#utility.yul\":3864:3866   */\n      0x20\n        /* \"#utility.yul\":3853:3862   */\n      dup3\n        /* \"#utility.yul\":3849:3867   */\n      add\n        /* \"#utility.yul\":3841:3867   */\n      swap1\n      pop\n        /* \"#utility.yul\":3913:3922   */\n      dup2\n        /* \"#utility.yul\":3907:3911   */\n      dup2\n        /* \"#utility.yul\":3903:3923   */\n      sub\n        /* \"#utility.yul\":3899:3900   */\n      0x00\n        /* \"#utility.yul\":3888:3897   */\n      dup4\n        /* \"#utility.yul\":3884:3901   */\n      add\n        /* \"#utility.yul\":3877:3924   */\n      mstore\n        /* \"#utility.yul\":3941:4087   */\n      tag_234\n        /* \"#utility.yul\":4082:4086   */\n      dup2\n        /* \"#utility.yul\":4073:4079   */\n      dup5\n        /* \"#utility.yul\":3941:4087   */\n      tag_166\n      jump\t// in\n    tag_234:\n        /* \"#utility.yul\":3933:4087   */\n      swap1\n      pop\n        /* \"#utility.yul\":3645:4094   */\n      swap3\n      swap2\n      pop\n      pop\n      jump\t// out\n        /* \"#utility.yul\":4148:4647   */\n    tag_167:\n        /* \"#utility.yul\":4283:4287   */\n      0x40\n        /* \"#utility.yul\":4278:4281   */\n      dup3\n        /* \"#utility.yul\":4274:4288   */\n      add\n        /* \"#utility.yul\":4372:4376   */\n      0x00\n        /* \"#utility.yul\":4365:4370   */\n      dup3\n        /* \"#utility.yul\":4361:4377   */\n      add\n        /* \"#utility.yul\":4355:4378   */\n      mload\n        /* \"#utility.yul\":4391:4454   */\n      tag_236\n        /* \"#utility.yul\":4448:4452   */\n      0x00\n        /* \"#utility.yul\":4443:4446   */\n      dup6\n        /* \"#utility.yul\":4439:4453   */\n      add\n        /* \"#utility.yul\":4425:4437   */\n      dup3\n        /* \"#utility.yul\":4391:4454   */\n      tag_161\n      jump\t// in\n    tag_236:\n        /* \"#utility.yul\":4298:4464   */\n      pop\n        /* \"#utility.yul\":4548:4552   */\n      0x20\n        /* \"#utility.yul\":4541:4546   */\n      dup3\n        /* \"#utility.yul\":4537:4553   */\n      add\n        /* \"#utility.yul\":4531:4554   */\n      mload\n        /* \"#utility.yul\":4567:4630   */\n      tag_237\n        /* \"#utility.yul\":4624:4628   */\n      0x20\n        /* \"#utility.yul\":4619:4622   */\n      dup6\n        /* \"#utility.yul\":4615:4629   */\n      add\n        /* \"#utility.yul\":4601:4613   */\n      dup3\n        /* \"#utility.yul\":4567:4630   */\n      tag_162\n      jump\t// in\n    tag_237:\n        /* \"#utility.yul\":4474:4640   */\n      pop\n        /* \"#utility.yul\":4252:4647   */\n      pop\n        /* \"#utility.yul\":4148:4647   */\n      pop\n      pop\n      jump\t// out\n        /* \"#utility.yul\":4653:4951   */\n    tag_43:\n        /* \"#utility.yul\":4784:4788   */\n      0x00\n        /* \"#utility.yul\":4822:4824   */\n      0x40\n        /* \"#utility.yul\":4811:4820   */\n      dup3\n        /* \"#utility.yul\":4807:4825   */\n      add\n        /* \"#utility.yul\":4799:4825   */\n      swap1\n      pop\n        /* \"#utility.yul\":4835:4944   */\n      tag_239\n        /* \"#utility.yul\":4941:4942   */\n      0x00\n        /* \"#utility.yul\":4930:4939   */\n      dup4\n        /* \"#utility.yul\":4926:4943   */\n      add\n        /* \"#utility.yul\":4917:4923   */\n      dup5\n        /* \"#utility.yul\":4835:4944   */\n      tag_167\n      jump\t// in\n    tag_239:\n        /* \"#utility.yul\":4653:4951   */\n      swap3\n      swap2\n      pop\n      pop\n      jump\t// out\n        /* \"#utility.yul\":4957:5126   */\n    tag_168:\n        /* \"#utility.yul\":5041:5052   */\n      0x00\n        /* \"#utility.yul\":5075:5081   */\n      dup3\n        /* \"#utility.yul\":5070:5073   */\n      dup3\n        /* \"#utility.yul\":5063:5082   */\n      mstore\n        /* \"#utility.yul\":5115:5119   */\n      0x20\n        /* \"#utility.yul\":5110:5113   */\n      dup3\n        /* \"#utility.yul\":5106:5120   */\n      add\n        /* \"#utility.yul\":5091:5120   */\n      swap1\n      pop\n        /* \"#utility.yul\":4957:5126   */\n      swap3\n      swap2\n      pop\n      pop\n      jump\t// out\n        /* \"#utility.yul\":5132:5314   */\n    tag_169:\n        /* \"#utility.yul\":5272:5306   */\n      0x5468652041756374696f6e206973206e6f74206c6f6e67657220616374697665\n        /* \"#utility.yul\":5268:5269   */\n      0x00\n        /* \"#utility.yul\":5260:5266   */\n      dup3\n        /* \"#utility.yul\":5256:5270   */\n      add\n        /* \"#utility.yul\":5249:5307   */\n      mstore\n        /* \"#utility.yul\":5132:5314   */\n      pop\n      jump\t// out\n        /* \"#utility.yul\":5320:5686   */\n    tag_170:\n        /* \"#utility.yul\":5462:5465   */\n      0x00\n        /* \"#utility.yul\":5483:5550   */\n      tag_243\n        /* \"#utility.yul\":5547:5549   */\n      0x20\n        /* \"#utility.yul\":5542:5545   */\n      dup4\n        /* \"#utility.yul\":5483:5550   */\n      tag_168\n      jump\t// in\n    tag_243:\n        /* \"#utility.yul\":5476:5550   */\n      swap2\n      pop\n        /* \"#utility.yul\":5559:5652   */\n      tag_244\n        /* \"#utility.yul\":5648:5651   */\n      dup3\n        /* \"#utility.yul\":5559:5652   */\n      tag_169\n      jump\t// in\n    tag_244:\n        /* \"#utility.yul\":5677:5679   */\n      0x20\n        /* \"#utility.yul\":5672:5675   */\n      dup3\n        /* \"#utility.yul\":5668:5680   */\n      add\n        /* \"#utility.yul\":5661:5680   */\n      swap1\n      pop\n        /* \"#utility.yul\":5320:5686   */\n      swap2\n      swap1\n      pop\n      jump\t// out\n        /* \"#utility.yul\":5692:6111   */\n    tag_61:\n        /* \"#utility.yul\":5858:5862   */\n      0x00\n        /* \"#utility.yul\":5896:5898   */\n      0x20\n        /* \"#utility.yul\":5885:5894   */\n      dup3\n        /* \"#utility.yul\":5881:5899   */\n      add\n        /* \"#utility.yul\":5873:5899   */\n      swap1\n      pop\n        /* \"#utility.yul\":5945:5954   */\n      dup2\n        /* \"#utility.yul\":5939:5943   */\n      dup2\n        /* \"#utility.yul\":5935:5955   */\n      sub\n        /* \"#utility.yul\":5931:5932   */\n      0x00\n        /* \"#utility.yul\":5920:5929   */\n      dup4\n        /* \"#utility.yul\":5916:5933   */\n      add\n        /* \"#utility.yul\":5909:5956   */\n      mstore\n        /* \"#utility.yul\":5973:6104   */\n      tag_246\n        /* \"#utility.yul\":6099:6103   */\n      dup2\n        /* \"#utility.yul\":5973:6104   */\n      tag_170\n      jump\t// in\n    tag_246:\n        /* \"#utility.yul\":5965:6104   */\n      swap1\n      pop\n        /* \"#utility.yul\":5692:6111   */\n      swap2\n      swap1\n      pop\n      jump\t// out\n        /* \"#utility.yul\":6117:6297   */\n    tag_171:\n        /* \"#utility.yul\":6257:6289   */\n      0x4e6f206269647320776572652072656365697665642066726f6d20796f750000\n        /* \"#utility.yul\":6253:6254   */\n      0x00\n        /* \"#utility.yul\":6245:6251   */\n      dup3\n        /* \"#utility.yul\":6241:6255   */\n      add\n        /* \"#utility.yul\":6234:6290   */\n      mstore\n        /* \"#utility.yul\":6117:6297   */\n      pop\n      jump\t// out\n        /* \"#utility.yul\":6303:6669   */\n    tag_172:\n        /* \"#utility.yul\":6445:6448   */\n      0x00\n        /* \"#utility.yul\":6466:6533   */\n      tag_249\n        /* \"#utility.yul\":6530:6532   */\n      0x1e\n        /* \"#utility.yul\":6525:6528   */\n      dup4\n        /* \"#utility.yul\":6466:6533   */\n      tag_168\n      jump\t// in\n    tag_249:\n        /* \"#utility.yul\":6459:6533   */\n      swap2\n      pop\n        /* \"#utility.yul\":6542:6635   */\n      tag_250\n        /* \"#utility.yul\":6631:6634   */\n      dup3\n        /* \"#utility.yul\":6542:6635   */\n      tag_171\n      jump\t// in\n    tag_250:\n        /* \"#utility.yul\":6660:6662   */\n      0x20\n        /* \"#utility.yul\":6655:6658   */\n      dup3\n        /* \"#utility.yul\":6651:6663   */\n      add\n        /* \"#utility.yul\":6644:6663   */\n      swap1\n      pop\n        /* \"#utility.yul\":6303:6669   */\n      swap2\n      swap1\n      pop\n      jump\t// out\n        /* \"#utility.yul\":6675:7094   */\n    tag_65:\n        /* \"#utility.yul\":6841:6845   */\n      0x00\n        /* \"#utility.yul\":6879:6881   */\n      0x20\n        /* \"#utility.yul\":6868:6877   */\n      dup3\n        /* \"#utility.yul\":6864:6882   */\n      add\n        /* \"#utility.yul\":6856:6882   */\n      swap1\n      pop\n        /* \"#utility.yul\":6928:6937   */\n      dup2\n        /* \"#utility.yul\":6922:6926   */\n      dup2\n        /* \"#utility.yul\":6918:6938   */\n      sub\n        /* \"#utility.yul\":6914:6915   */\n      0x00\n        /* \"#utility.yul\":6903:6912   */\n      dup4\n        /* \"#utility.yul\":6899:6916   */\n      add\n        /* \"#utility.yul\":6892:6939   */\n      mstore\n        /* \"#utility.yul\":6956:7087   */\n      tag_252\n        /* \"#utility.yul\":7082:7086   */\n      dup2\n        /* \"#utility.yul\":6956:7087   */\n      tag_172\n      jump\t// in\n    tag_252:\n        /* \"#utility.yul\":6948:7087   */\n      swap1\n      pop\n        /* \"#utility.yul\":6675:7094   */\n      swap2\n      swap1\n      pop\n      jump\t// out\n        /* \"#utility.yul\":7100:7323   */\n    tag_173:\n        /* \"#utility.yul\":7240:7274   */\n      0x5468657265206973206e6f207061727469616c20616d6f756e7420746f207265\n        /* \"#utility.yul\":7236:7237   */\n      0x00\n        /* \"#utility.yul\":7228:7234   */\n      dup3\n        /* \"#utility.yul\":7224:7238   */\n      add\n        /* \"#utility.yul\":7217:7275   */\n      mstore\n        /* \"#utility.yul\":7309:7315   */\n      0x66756e6400000000000000000000000000000000000000000000000000000000\n        /* \"#utility.yul\":7304:7306   */\n      0x20\n        /* \"#utility.yul\":7296:7302   */\n      dup3\n        /* \"#utility.yul\":7292:7307   */\n      add\n        /* \"#utility.yul\":7285:7316   */\n      mstore\n        /* \"#utility.yul\":7100:7323   */\n      pop\n      jump\t// out\n        /* \"#utility.yul\":7329:7695   */\n    tag_174:\n        /* \"#utility.yul\":7471:7474   */\n      0x00\n        /* \"#utility.yul\":7492:7559   */\n      tag_255\n        /* \"#utility.yul\":7556:7558   */\n      0x24\n        /* \"#utility.yul\":7551:7554   */\n      dup4\n        /* \"#utility.yul\":7492:7559   */\n      tag_168\n      jump\t// in\n    tag_255:\n        /* \"#utility.yul\":7485:7559   */\n      swap2\n      pop\n        /* \"#utility.yul\":7568:7661   */\n      tag_256\n        /* \"#utility.yul\":7657:7660   */\n      dup3\n        /* \"#utility.yul\":7568:7661   */\n      tag_173\n      jump\t// in\n    tag_256:\n        /* \"#utility.yul\":7686:7688   */\n      0x40\n        /* \"#utility.yul\":7681:7684   */\n      dup3\n        /* \"#utility.yul\":7677:7689   */\n      add\n        /* \"#utility.yul\":7670:7689   */\n      swap1\n      pop\n        /* \"#utility.yul\":7329:7695   */\n      swap2\n      swap1\n      pop\n      jump\t// out\n        /* \"#utility.yul\":7701:8120   */\n    tag_68:\n        /* \"#utility.yul\":7867:7871   */\n      0x00\n        /* \"#utility.yul\":7905:7907   */\n      0x20\n        /* \"#utility.yul\":7894:7903   */\n      dup3\n        /* \"#utility.yul\":7890:7908   */\n      add\n        /* \"#utility.yul\":7882:7908   */\n      swap1\n      pop\n        /* \"#utility.yul\":7954:7963   */\n      dup2\n        /* \"#utility.yul\":7948:7952   */\n      dup2\n        /* \"#utility.yul\":7944:7964   */\n      sub\n        /* \"#utility.yul\":7940:7941   */\n      0x00\n        /* \"#utility.yul\":7929:7938   */\n      dup4\n        /* \"#utility.yul\":7925:7942   */\n      add\n        /* \"#utility.yul\":7918:7965   */\n      mstore\n        /* \"#utility.yul\":7982:8113   */\n      tag_258\n        /* \"#utility.yul\":8108:8112   */\n      dup2\n        /* \"#utility.yul\":7982:8113   */\n      tag_174\n      jump\t// in\n    tag_258:\n        /* \"#utility.yul\":7974:8113   */\n      swap1\n      pop\n        /* \"#utility.yul\":7701:8120   */\n      swap2\n      swap1\n      pop\n      jump\t// out\n        /* \"#utility.yul\":8126:8306   */\n    tag_175:\n        /* \"#utility.yul\":8174:8251   */\n      0x4e487b7100000000000000000000000000000000000000000000000000000000\n        /* \"#utility.yul\":8171:8172   */\n      0x00\n        /* \"#utility.yul\":8164:8252   */\n      mstore\n        /* \"#utility.yul\":8271:8275   */\n      0x11\n        /* \"#utility.yul\":8268:8269   */\n      0x04\n        /* \"#utility.yul\":8261:8276   */\n      mstore\n        /* \"#utility.yul\":8295:8299   */\n      0x24\n        /* \"#utility.yul\":8292:8293   */\n      0x00\n        /* \"#utility.yul\":8285:8300   */\n      revert\n        /* \"#utility.yul\":8312:8506   */\n    tag_70:\n        /* \"#utility.yul\":8352:8356   */\n      0x00\n        /* \"#utility.yul\":8372:8392   */\n      tag_261\n        /* \"#utility.yul\":8390:8391   */\n      dup3\n        /* \"#utility.yul\":8372:8392   */\n      tag_156\n      jump\t// in\n    tag_261:\n        /* \"#utility.yul\":8367:8392   */\n      swap2\n      pop\n        /* \"#utility.yul\":8406:8426   */\n      tag_262\n        /* \"#utility.yul\":8424:8425   */\n      dup4\n        /* \"#utility.yul\":8406:8426   */\n      tag_156\n      jump\t// in\n    tag_262:\n        /* \"#utility.yul\":8401:8426   */\n      swap3\n      pop\n        /* \"#utility.yul\":8450:8451   */\n      dup3\n        /* \"#utility.yul\":8447:8448   */\n      dup3\n        /* \"#utility.yul\":8443:8452   */\n      sub\n        /* \"#utility.yul\":8435:8452   */\n      swap1\n      pop\n        /* \"#utility.yul\":8474:8475   */\n      dup2\n        /* \"#utility.yul\":8468:8472   */\n      dup2\n        /* \"#utility.yul\":8465:8476   */\n      gt\n        /* \"#utility.yul\":8462:8499   */\n      iszero\n      tag_263\n      jumpi\n        /* \"#utility.yul\":8479:8497   */\n      tag_264\n      tag_175\n      jump\t// in\n    tag_264:\n        /* \"#utility.yul\":8462:8499   */\n    tag_263:\n        /* \"#utility.yul\":8312:8506   */\n      swap3\n      swap2\n      pop\n      pop\n      jump\t// out\n        /* \"#utility.yul\":8512:8659   */\n    tag_176:\n        /* \"#utility.yul\":8613:8624   */\n      0x00\n        /* \"#utility.yul\":8650:8653   */\n      dup2\n        /* \"#utility.yul\":8635:8653   */\n      swap1\n      pop\n        /* \"#utility.yul\":8512:8659   */\n      swap3\n      swap2\n      pop\n      pop\n      jump\t// out\n        /* \"#utility.yul\":8665:8779   */\n    tag_177:\n      pop\n      jump\t// out\n        /* \"#utility.yul\":8785:9183   */\n    tag_178:\n        /* \"#utility.yul\":8944:8947   */\n      0x00\n        /* \"#utility.yul\":8965:9048   */\n      tag_268\n        /* \"#utility.yul\":9046:9047   */\n      0x00\n        /* \"#utility.yul\":9041:9044   */\n      dup4\n        /* \"#utility.yul\":8965:9048   */\n      tag_176\n      jump\t// in\n    tag_268:\n        /* \"#utility.yul\":8958:9048   */\n      swap2\n      pop\n        /* \"#utility.yul\":9057:9150   */\n      tag_269\n        /* \"#utility.yul\":9146:9149   */\n      dup3\n        /* \"#utility.yul\":9057:9150   */\n      tag_177\n      jump\t// in\n    tag_269:\n        /* \"#utility.yul\":9175:9176   */\n      0x00\n        /* \"#utility.yul\":9170:9173   */\n      dup3\n        /* \"#utility.yul\":9166:9177   */\n      add\n        /* \"#utility.yul\":9159:9177   */\n      swap1\n      pop\n        /* \"#utility.yul\":8785:9183   */\n      swap2\n      swap1\n      pop\n      jump\t// out\n        /* \"#utility.yul\":9189:9568   */\n    tag_73:\n        /* \"#utility.yul\":9373:9376   */\n      0x00\n        /* \"#utility.yul\":9395:9542   */\n      tag_271\n        /* \"#utility.yul\":9538:9541   */\n      dup3\n        /* \"#utility.yul\":9395:9542   */\n      tag_178\n      jump\t// in\n    tag_271:\n        /* \"#utility.yul\":9388:9542   */\n      swap2\n      pop\n        /* \"#utility.yul\":9559:9562   */\n      dup2\n        /* \"#utility.yul\":9552:9562   */\n      swap1\n      pop\n        /* \"#utility.yul\":9189:9568   */\n      swap2\n      swap1\n      pop\n      jump\t// out\n        /* \"#utility.yul\":9574:9740   */\n    tag_179:\n        /* \"#utility.yul\":9714:9732   */\n      0x4661696c656420746f20726566756e6400000000000000000000000000000000\n        /* \"#utility.yul\":9710:9711   */\n      0x00\n        /* \"#utility.yul\":9702:9708   */\n      dup3\n        /* \"#utility.yul\":9698:9712   */\n      add\n        /* \"#utility.yul\":9691:9733   */\n      mstore\n        /* \"#utility.yul\":9574:9740   */\n      pop\n      jump\t// out\n        /* \"#utility.yul\":9746:10112   */\n    tag_180:\n        /* \"#utility.yul\":9888:9891   */\n      0x00\n        /* \"#utility.yul\":9909:9976   */\n      tag_274\n        /* \"#utility.yul\":9973:9975   */\n      0x10\n        /* \"#utility.yul\":9968:9971   */\n      dup4\n        /* \"#utility.yul\":9909:9976   */\n      tag_168\n      jump\t// in\n    tag_274:\n        /* \"#utility.yul\":9902:9976   */\n      swap2\n      pop\n        /* \"#utility.yul\":9985:10078   */\n      tag_275\n        /* \"#utility.yul\":10074:10077   */\n      dup3\n        /* \"#utility.yul\":9985:10078   */\n      tag_179\n      jump\t// in\n    tag_275:\n        /* \"#utility.yul\":10103:10105   */\n      0x20\n        /* \"#utility.yul\":10098:10101   */\n      dup3\n        /* \"#utility.yul\":10094:10106   */\n      add\n        /* \"#utility.yul\":10087:10106   */\n      swap1\n      pop\n        /* \"#utility.yul\":9746:10112   */\n      swap2\n      swap1\n      pop\n      jump\t// out\n        /* \"#utility.yul\":10118:10537   */\n    tag_79:\n        /* \"#utility.yul\":10284:10288   */\n      0x00\n        /* \"#utility.yul\":10322:10324   */\n      0x20\n        /* \"#utility.yul\":10311:10320   */\n      dup3\n        /* \"#utility.yul\":10307:10325   */\n      add\n        /* \"#utility.yul\":10299:10325   */\n      swap1\n      pop\n        /* \"#utility.yul\":10371:10380   */\n      dup2\n        /* \"#utility.yul\":10365:10369   */\n      dup2\n        /* \"#utility.yul\":10361:10381   */\n      sub\n        /* \"#utility.yul\":10357:10358   */\n      0x00\n        /* \"#utility.yul\":10346:10355   */\n      dup4\n        /* \"#utility.yul\":10342:10359   */\n      add\n        /* \"#utility.yul\":10335:10382   */\n      mstore\n        /* \"#utility.yul\":10399:10530   */\n      tag_277\n        /* \"#utility.yul\":10525:10529   */\n      dup2\n        /* \"#utility.yul\":10399:10530   */\n      tag_180\n      jump\t// in\n    tag_277:\n        /* \"#utility.yul\":10391:10530   */\n      swap1\n      pop\n        /* \"#utility.yul\":10118:10537   */\n      swap2\n      swap1\n      pop\n      jump\t// out\n        /* \"#utility.yul\":10543:10718   */\n    tag_181:\n        /* \"#utility.yul\":10683:10710   */\n      0x5468652041756374696f6e20686173206e6f7420656e64656400000000000000\n        /* \"#utility.yul\":10679:10680   */\n      0x00\n        /* \"#utility.yul\":10671:10677   */\n      dup3\n        /* \"#utility.yul\":10667:10681   */\n      add\n        /* \"#utility.yul\":10660:10711   */\n      mstore\n        /* \"#utility.yul\":10543:10718   */\n      pop\n      jump\t// out\n        /* \"#utility.yul\":10724:11090   */\n    tag_182:\n        /* \"#utility.yul\":10866:10869   */\n      0x00\n        /* \"#utility.yul\":10887:10954   */\n      tag_280\n        /* \"#utility.yul\":10951:10953   */\n      0x19\n        /* \"#utility.yul\":10946:10949   */\n      dup4\n        /* \"#utility.yul\":10887:10954   */\n      tag_168\n      jump\t// in\n    tag_280:\n        /* \"#utility.yul\":10880:10954   */\n      swap2\n      pop\n        /* \"#utility.yul\":10963:11056   */\n      tag_281\n        /* \"#utility.yul\":11052:11055   */\n      dup3\n        /* \"#utility.yul\":10963:11056   */\n      tag_181\n      jump\t// in\n    tag_281:\n        /* \"#utility.yul\":11081:11083   */\n      0x20\n        /* \"#utility.yul\":11076:11079   */\n      dup3\n        /* \"#utility.yul\":11072:11084   */\n      add\n        /* \"#utility.yul\":11065:11084   */\n      swap1\n      pop\n        /* \"#utility.yul\":10724:11090   */\n      swap2\n      swap1\n      pop\n      jump\t// out\n        /* \"#utility.yul\":11096:11515   */\n    tag_86:\n        /* \"#utility.yul\":11262:11266   */\n      0x00\n        /* \"#utility.yul\":11300:11302   */\n      0x20\n        /* \"#utility.yul\":11289:11298   */\n      dup3\n        /* \"#utility.yul\":11285:11303   */\n      add\n        /* \"#utility.yul\":11277:11303   */\n      swap1\n      pop\n        /* \"#utility.yul\":11349:11358   */\n      dup2\n        /* \"#utility.yul\":11343:11347   */\n      dup2\n        /* \"#utility.yul\":11339:11359   */\n      sub\n        /* \"#utility.yul\":11335:11336   */\n      0x00\n        /* \"#utility.yul\":11324:11333   */\n      dup4\n        /* \"#utility.yul\":11320:11337   */\n      add\n        /* \"#utility.yul\":11313:11360   */\n      mstore\n        /* \"#utility.yul\":11377:11508   */\n      tag_283\n        /* \"#utility.yul\":11503:11507   */\n      dup2\n        /* \"#utility.yul\":11377:11508   */\n      tag_182\n      jump\t// in\n    tag_283:\n        /* \"#utility.yul\":11369:11508   */\n      swap1\n      pop\n        /* \"#utility.yul\":11096:11515   */\n      swap2\n      swap1\n      pop\n      jump\t// out\n        /* \"#utility.yul\":11521:11742   */\n    tag_183:\n        /* \"#utility.yul\":11661:11695   */\n      0x4f6e6c7920746865204f776e65722063616e20656e6420746865204175637469\n        /* \"#utility.yul\":11657:11658   */\n      0x00\n        /* \"#utility.yul\":11649:11655   */\n      dup3\n        /* \"#utility.yul\":11645:11659   */\n      add\n        /* \"#utility.yul\":11638:11696   */\n      mstore\n        /* \"#utility.yul\":11730:11734   */\n      0x6f6e000000000000000000000000000000000000000000000000000000000000\n        /* \"#utility.yul\":11725:11727   */\n      0x20\n        /* \"#utility.yul\":11717:11723   */\n      dup3\n        /* \"#utility.yul\":11713:11728   */\n      add\n        /* \"#utility.yul\":11706:11735   */\n      mstore\n        /* \"#utility.yul\":11521:11742   */\n      pop\n      jump\t// out\n        /* \"#utility.yul\":11748:12114   */\n    tag_184:\n        /* \"#utility.yul\":11890:11893   */\n      0x00\n        /* \"#utility.yul\":11911:11978   */\n      tag_286\n        /* \"#utility.yul\":11975:11977   */\n      0x22\n        /* \"#utility.yul\":11970:11973   */\n      dup4\n        /* \"#utility.yul\":11911:11978   */\n      tag_168\n      jump\t// in\n    tag_286:\n        /* \"#utility.yul\":11904:11978   */\n      swap2\n      pop\n        /* \"#utility.yul\":11987:12080   */\n      tag_287\n        /* \"#utility.yul\":12076:12079   */\n      dup3\n        /* \"#utility.yul\":11987:12080   */\n      tag_183\n      jump\t// in\n    tag_287:\n        /* \"#utility.yul\":12105:12107   */\n      0x40\n        /* \"#utility.yul\":12100:12103   */\n      dup3\n        /* \"#utility.yul\":12096:12108   */\n      add\n        /* \"#utility.yul\":12089:12108   */\n      swap1\n      pop\n        /* \"#utility.yul\":11748:12114   */\n      swap2\n      swap1\n      pop\n      jump\t// out\n        /* \"#utility.yul\":12120:12539   */\n    tag_90:\n        /* \"#utility.yul\":12286:12290   */\n      0x00\n        /* \"#utility.yul\":12324:12326   */\n      0x20\n        /* \"#utility.yul\":12313:12322   */\n      dup3\n        /* \"#utility.yul\":12309:12327   */\n      add\n        /* \"#utility.yul\":12301:12327   */\n      swap1\n      pop\n        /* \"#utility.yul\":12373:12382   */\n      dup2\n        /* \"#utility.yul\":12367:12371   */\n      dup2\n        /* \"#utility.yul\":12363:12383   */\n      sub\n        /* \"#utility.yul\":12359:12360   */\n      0x00\n        /* \"#utility.yul\":12348:12357   */\n      dup4\n        /* \"#utility.yul\":12344:12361   */\n      add\n        /* \"#utility.yul\":12337:12384   */\n      mstore\n        /* \"#utility.yul\":12401:12532   */\n      tag_289\n        /* \"#utility.yul\":12527:12531   */\n      dup2\n        /* \"#utility.yul\":12401:12532   */\n      tag_184\n      jump\t// in\n    tag_289:\n        /* \"#utility.yul\":12393:12532   */\n      swap1\n      pop\n        /* \"#utility.yul\":12120:12539   */\n      swap2\n      swap1\n      pop\n      jump\t// out\n        /* \"#utility.yul\":12545:12725   */\n    tag_97:\n        /* \"#utility.yul\":12593:12670   */\n      0x4e487b7100000000000000000000000000000000000000000000000000000000\n        /* \"#utility.yul\":12590:12591   */\n      0x00\n        /* \"#utility.yul\":12583:12671   */\n      mstore\n        /* \"#utility.yul\":12690:12694   */\n      0x32\n        /* \"#utility.yul\":12687:12688   */\n      0x04\n        /* \"#utility.yul\":12680:12695   */\n      mstore\n        /* \"#utility.yul\":12714:12718   */\n      0x24\n        /* \"#utility.yul\":12711:12712   */\n      0x00\n        /* \"#utility.yul\":12704:12719   */\n      revert\n        /* \"#utility.yul\":12731:13141   */\n    tag_101:\n        /* \"#utility.yul\":12771:12778   */\n      0x00\n        /* \"#utility.yul\":12794:12814   */\n      tag_292\n        /* \"#utility.yul\":12812:12813   */\n      dup3\n        /* \"#utility.yul\":12794:12814   */\n      tag_156\n      jump\t// in\n    tag_292:\n        /* \"#utility.yul\":12789:12814   */\n      swap2\n      pop\n        /* \"#utility.yul\":12828:12848   */\n      tag_293\n        /* \"#utility.yul\":12846:12847   */\n      dup4\n        /* \"#utility.yul\":12828:12848   */\n      tag_156\n      jump\t// in\n    tag_293:\n        /* \"#utility.yul\":12823:12848   */\n      swap3\n      pop\n        /* \"#utility.yul\":12883:12884   */\n      dup3\n        /* \"#utility.yul\":12880:12881   */\n      dup3\n        /* \"#utility.yul\":12876:12885   */\n      mul\n        /* \"#utility.yul\":12905:12935   */\n      tag_294\n        /* \"#utility.yul\":12923:12934   */\n      dup2\n        /* \"#utility.yul\":12905:12935   */\n      tag_156\n      jump\t// in\n    tag_294:\n        /* \"#utility.yul\":12894:12935   */\n      swap2\n      pop\n        /* \"#utility.yul\":13084:13085   */\n      dup3\n        /* \"#utility.yul\":13075:13082   */\n      dup3\n        /* \"#utility.yul\":13071:13086   */\n      div\n        /* \"#utility.yul\":13068:13069   */\n      dup5\n        /* \"#utility.yul\":13065:13087   */\n      eq\n        /* \"#utility.yul\":13045:13046   */\n      dup4\n        /* \"#utility.yul\":13038:13047   */\n      iszero\n        /* \"#utility.yul\":13018:13101   */\n      or\n        /* \"#utility.yul\":12995:13134   */\n      tag_295\n      jumpi\n        /* \"#utility.yul\":13114:13132   */\n      tag_296\n      tag_175\n      jump\t// in\n    tag_296:\n        /* \"#utility.yul\":12995:13134   */\n    tag_295:\n        /* \"#utility.yul\":12779:13141   */\n      pop\n        /* \"#utility.yul\":12731:13141   */\n      swap3\n      swap2\n      pop\n      pop\n      jump\t// out\n        /* \"#utility.yul\":13147:13327   */\n    tag_185:\n        /* \"#utility.yul\":13195:13272   */\n      0x4e487b7100000000000000000000000000000000000000000000000000000000\n        /* \"#utility.yul\":13192:13193   */\n      0x00\n        /* \"#utility.yul\":13185:13273   */\n      mstore\n        /* \"#utility.yul\":13292:13296   */\n      0x12\n        /* \"#utility.yul\":13289:13290   */\n      0x04\n        /* \"#utility.yul\":13282:13297   */\n      mstore\n        /* \"#utility.yul\":13316:13320   */\n      0x24\n        /* \"#utility.yul\":13313:13314   */\n      0x00\n        /* \"#utility.yul\":13306:13321   */\n      revert\n        /* \"#utility.yul\":13333:13518   */\n    tag_103:\n        /* \"#utility.yul\":13373:13374   */\n      0x00\n        /* \"#utility.yul\":13390:13410   */\n      tag_299\n        /* \"#utility.yul\":13408:13409   */\n      dup3\n        /* \"#utility.yul\":13390:13410   */\n      tag_156\n      jump\t// in\n    tag_299:\n        /* \"#utility.yul\":13385:13410   */\n      swap2\n      pop\n        /* \"#utility.yul\":13424:13444   */\n      tag_300\n        /* \"#utility.yul\":13442:13443   */\n      dup4\n        /* \"#utility.yul\":13424:13444   */\n      tag_156\n      jump\t// in\n    tag_300:\n        /* \"#utility.yul\":13419:13444   */\n      swap3\n      pop\n        /* \"#utility.yul\":13463:13464   */\n      dup3\n        /* \"#utility.yul\":13453:13488   */\n      tag_301\n      jumpi\n        /* \"#utility.yul\":13468:13486   */\n      tag_302\n      tag_185\n      jump\t// in\n    tag_302:\n        /* \"#utility.yul\":13453:13488   */\n    tag_301:\n        /* \"#utility.yul\":13510:13511   */\n      dup3\n        /* \"#utility.yul\":13507:13508   */\n      dup3\n        /* \"#utility.yul\":13503:13512   */\n      div\n        /* \"#utility.yul\":13498:13512   */\n      swap1\n      pop\n        /* \"#utility.yul\":13333:13518   */\n      swap3\n      swap2\n      pop\n      pop\n      jump\t// out\n        /* \"#utility.yul\":13524:13697   */\n    tag_186:\n        /* \"#utility.yul\":13664:13689   */\n      0x4661696c656420746f207472616e666572207072697a65000000000000000000\n        /* \"#utility.yul\":13660:13661   */\n      0x00\n        /* \"#utility.yul\":13652:13658   */\n      dup3\n        /* \"#utility.yul\":13648:13662   */\n      add\n        /* \"#utility.yul\":13641:13690   */\n      mstore\n        /* \"#utility.yul\":13524:13697   */\n      pop\n      jump\t// out\n        /* \"#utility.yul\":13703:14069   */\n    tag_187:\n        /* \"#utility.yul\":13845:13848   */\n      0x00\n        /* \"#utility.yul\":13866:13933   */\n      tag_305\n        /* \"#utility.yul\":13930:13932   */\n      0x17\n        /* \"#utility.yul\":13925:13928   */\n      dup4\n        /* \"#utility.yul\":13866:13933   */\n      tag_168\n      jump\t// in\n    tag_305:\n        /* \"#utility.yul\":13859:13933   */\n      swap2\n      pop\n        /* \"#utility.yul\":13942:14035   */\n      tag_306\n        /* \"#utility.yul\":14031:14034   */\n      dup3\n        /* \"#utility.yul\":13942:14035   */\n      tag_186\n      jump\t// in\n    tag_306:\n        /* \"#utility.yul\":14060:14062   */\n      0x20\n        /* \"#utility.yul\":14055:14058   */\n      dup3\n        /* \"#utility.yul\":14051:14063   */\n      add\n        /* \"#utility.yul\":14044:14063   */\n      swap1\n      pop\n        /* \"#utility.yul\":13703:14069   */\n      swap2\n      swap1\n      pop\n      jump\t// out\n        /* \"#utility.yul\":14075:14494   */\n    tag_118:\n        /* \"#utility.yul\":14241:14245   */\n      0x00\n        /* \"#utility.yul\":14279:14281   */\n      0x20\n        /* \"#utility.yul\":14268:14277   */\n      dup3\n        /* \"#utility.yul\":14264:14282   */\n      add\n        /* \"#utility.yul\":14256:14282   */\n      swap1\n      pop\n        /* \"#utility.yul\":14328:14337   */\n      dup2\n        /* \"#utility.yul\":14322:14326   */\n      dup2\n        /* \"#utility.yul\":14318:14338   */\n      sub\n        /* \"#utility.yul\":14314:14315   */\n      0x00\n        /* \"#utility.yul\":14303:14312   */\n      dup4\n        /* \"#utility.yul\":14299:14316   */\n      add\n        /* \"#utility.yul\":14292:14339   */\n      mstore\n        /* \"#utility.yul\":14356:14487   */\n      tag_308\n        /* \"#utility.yul\":14482:14486   */\n      dup2\n        /* \"#utility.yul\":14356:14487   */\n      tag_187\n      jump\t// in\n    tag_308:\n        /* \"#utility.yul\":14348:14487   */\n      swap1\n      pop\n        /* \"#utility.yul\":14075:14494   */\n      swap2\n      swap1\n      pop\n      jump\t// out\n        /* \"#utility.yul\":14500:14602   */\n    tag_188:\n        /* \"#utility.yul\":14542:14550   */\n      0x00\n        /* \"#utility.yul\":14589:14594   */\n      dup2\n        /* \"#utility.yul\":14586:14587   */\n      0x00\n        /* \"#utility.yul\":14582:14595   */\n      shr\n        /* \"#utility.yul\":14561:14595   */\n      swap1\n      pop\n        /* \"#utility.yul\":14500:14602   */\n      swap2\n      swap1\n      pop\n      jump\t// out\n        /* \"#utility.yul\":14608:14747   */\n    tag_189:\n        /* \"#utility.yul\":14658:14665   */\n      0x00\n        /* \"#utility.yul\":14698:14740   */\n      0xffffffffffffffffffffffffffffffffffffffff\n        /* \"#utility.yul\":14691:14696   */\n      dup3\n        /* \"#utility.yul\":14687:14741   */\n      and\n        /* \"#utility.yul\":14676:14741   */\n      swap1\n      pop\n        /* \"#utility.yul\":14608:14747   */\n      swap2\n      swap1\n      pop\n      jump\t// out\n        /* \"#utility.yul\":14753:14920   */\n    tag_190:\n        /* \"#utility.yul\":14823:14828   */\n      0x00\n        /* \"#utility.yul\":14848:14914   */\n      tag_312\n        /* \"#utility.yul\":14879:14913   */\n      tag_313\n        /* \"#utility.yul\":14902:14912   */\n      dup4\n        /* \"#utility.yul\":14879:14913   */\n      tag_188\n      jump\t// in\n    tag_313:\n        /* \"#utility.yul\":14848:14914   */\n      tag_189\n      jump\t// in\n    tag_312:\n        /* \"#utility.yul\":14839:14914   */\n      swap1\n      pop\n        /* \"#utility.yul\":14753:14920   */\n      swap2\n      swap1\n      pop\n      jump\t// out\n        /* \"#utility.yul\":14926:15016   */\n    tag_191:\n        /* \"#utility.yul\":14976:14983   */\n      0x00\n        /* \"#utility.yul\":15005:15010   */\n      dup2\n        /* \"#utility.yul\":14994:15010   */\n      swap1\n      pop\n        /* \"#utility.yul\":14926:15016   */\n      swap2\n      swap1\n      pop\n      jump\t// out\n        /* \"#utility.yul\":15022:15189   */\n    tag_192:\n        /* \"#utility.yul\":15092:15097   */\n      0x00\n        /* \"#utility.yul\":15117:15183   */\n      tag_316\n        /* \"#utility.yul\":15148:15182   */\n      tag_317\n        /* \"#utility.yul\":15171:15181   */\n      dup4\n        /* \"#utility.yul\":15148:15182   */\n      tag_188\n      jump\t// in\n    tag_317:\n        /* \"#utility.yul\":15117:15183   */\n      tag_191\n      jump\t// in\n    tag_316:\n        /* \"#utility.yul\":15108:15183   */\n      swap1\n      pop\n        /* \"#utility.yul\":15022:15189   */\n      swap2\n      swap1\n      pop\n      jump\t// out\n        /* \"#utility.yul\":15243:15928   */\n    tag_193:\n        /* \"#utility.yul\":15375:15379   */\n      0x40\n        /* \"#utility.yul\":15370:15373   */\n      dup3\n        /* \"#utility.yul\":15366:15380   */\n      add\n        /* \"#utility.yul\":15406:15407   */\n      0x00\n        /* \"#utility.yul\":15483:15487   */\n      0x00\n        /* \"#utility.yul\":15476:15481   */\n      dup4\n        /* \"#utility.yul\":15472:15488   */\n      add\n        /* \"#utility.yul\":15466:15489   */\n      sload\n        /* \"#utility.yul\":15453:15489   */\n      swap1\n      pop\n        /* \"#utility.yul\":15522:15578   */\n      tag_319\n        /* \"#utility.yul\":15568:15577   */\n      dup2\n        /* \"#utility.yul\":15522:15578   */\n      tag_190\n      jump\t// in\n    tag_319:\n        /* \"#utility.yul\":15591:15654   */\n      tag_320\n        /* \"#utility.yul\":15648:15652   */\n      0x00\n        /* \"#utility.yul\":15643:15646   */\n      dup7\n        /* \"#utility.yul\":15639:15653   */\n      add\n        /* \"#utility.yul\":15625:15637   */\n      dup3\n        /* \"#utility.yul\":15591:15654   */\n      tag_161\n      jump\t// in\n    tag_320:\n        /* \"#utility.yul\":15417:15664   */\n      pop\n        /* \"#utility.yul\":15740:15744   */\n      0x01\n        /* \"#utility.yul\":15733:15738   */\n      dup4\n        /* \"#utility.yul\":15729:15745   */\n      add\n        /* \"#utility.yul\":15723:15746   */\n      sload\n        /* \"#utility.yul\":15710:15746   */\n      swap1\n      pop\n        /* \"#utility.yul\":15779:15835   */\n      tag_321\n        /* \"#utility.yul\":15825:15834   */\n      dup2\n        /* \"#utility.yul\":15779:15835   */\n      tag_192\n      jump\t// in\n    tag_321:\n        /* \"#utility.yul\":15848:15911   */\n      tag_322\n        /* \"#utility.yul\":15905:15909   */\n      0x20\n        /* \"#utility.yul\":15900:15903   */\n      dup7\n        /* \"#utility.yul\":15896:15910   */\n      add\n        /* \"#utility.yul\":15882:15894   */\n      dup3\n        /* \"#utility.yul\":15848:15911   */\n      tag_162\n      jump\t// in\n    tag_322:\n        /* \"#utility.yul\":15674:15921   */\n      pop\n        /* \"#utility.yul\":15344:15928   */\n      pop\n      pop\n        /* \"#utility.yul\":15243:15928   */\n      pop\n      pop\n      jump\t// out\n        /* \"#utility.yul\":15934:16226   */\n    tag_120:\n        /* \"#utility.yul\":16062:16066   */\n      0x00\n        /* \"#utility.yul\":16100:16102   */\n      0x40\n        /* \"#utility.yul\":16089:16098   */\n      dup3\n        /* \"#utility.yul\":16085:16103   */\n      add\n        /* \"#utility.yul\":16077:16103   */\n      swap1\n      pop\n        /* \"#utility.yul\":16113:16219   */\n      tag_324\n        /* \"#utility.yul\":16216:16217   */\n      0x00\n        /* \"#utility.yul\":16205:16214   */\n      dup4\n        /* \"#utility.yul\":16201:16218   */\n      add\n        /* \"#utility.yul\":16192:16198   */\n      dup5\n        /* \"#utility.yul\":16113:16219   */\n      tag_193\n      jump\t// in\n    tag_324:\n        /* \"#utility.yul\":15934:16226   */\n      swap3\n      swap2\n      pop\n      pop\n      jump\t// out\n        /* \"#utility.yul\":16232:16423   */\n    tag_136:\n        /* \"#utility.yul\":16272:16275   */\n      0x00\n        /* \"#utility.yul\":16291:16311   */\n      tag_326\n        /* \"#utility.yul\":16309:16310   */\n      dup3\n        /* \"#utility.yul\":16291:16311   */\n      tag_156\n      jump\t// in\n    tag_326:\n        /* \"#utility.yul\":16286:16311   */\n      swap2\n      pop\n        /* \"#utility.yul\":16325:16345   */\n      tag_327\n        /* \"#utility.yul\":16343:16344   */\n      dup4\n        /* \"#utility.yul\":16325:16345   */\n      tag_156\n      jump\t// in\n    tag_327:\n        /* \"#utility.yul\":16320:16345   */\n      swap3\n      pop\n        /* \"#utility.yul\":16368:16369   */\n      dup3\n        /* \"#utility.yul\":16365:16366   */\n      dup3\n        /* \"#utility.yul\":16361:16370   */\n      add\n        /* \"#utility.yul\":16354:16370   */\n      swap1\n      pop\n        /* \"#utility.yul\":16389:16392   */\n      dup1\n        /* \"#utility.yul\":16386:16387   */\n      dup3\n        /* \"#utility.yul\":16383:16393   */\n      gt\n        /* \"#utility.yul\":16380:16416   */\n      iszero\n      tag_328\n      jumpi\n        /* \"#utility.yul\":16396:16414   */\n      tag_329\n      tag_175\n      jump\t// in\n    tag_329:\n        /* \"#utility.yul\":16380:16416   */\n    tag_328:\n        /* \"#utility.yul\":16232:16423   */\n      swap3\n      swap2\n      pop\n      pop\n      jump\t// out\n        /* \"#utility.yul\":16429:16653   */\n    tag_194:\n        /* \"#utility.yul\":16569:16603   */\n      0x54686520616d6f756e74206973206e6f7420686967686572207468616e207468\n        /* \"#utility.yul\":16565:16566   */\n      0x00\n        /* \"#utility.yul\":16557:16563   */\n      dup3\n        /* \"#utility.yul\":16553:16567   */\n      add\n        /* \"#utility.yul\":16546:16604   */\n      mstore\n        /* \"#utility.yul\":16638:16645   */\n      0x6520676170000000000000000000000000000000000000000000000000000000\n        /* \"#utility.yul\":16633:16635   */\n      0x20\n        /* \"#utility.yul\":16625:16631   */\n      dup3\n        /* \"#utility.yul\":16621:16636   */\n      add\n        /* \"#utility.yul\":16614:16646   */\n      mstore\n        /* \"#utility.yul\":16429:16653   */\n      pop\n      jump\t// out\n        /* \"#utility.yul\":16659:17025   */\n    tag_195:\n        /* \"#utility.yul\":16801:16804   */\n      0x00\n        /* \"#utility.yul\":16822:16889   */\n      tag_332\n        /* \"#utility.yul\":16886:16888   */\n      0x25\n        /* \"#utility.yul\":16881:16884   */\n      dup4\n        /* \"#utility.yul\":16822:16889   */\n      tag_168\n      jump\t// in\n    tag_332:\n        /* \"#utility.yul\":16815:16889   */\n      swap2\n      pop\n        /* \"#utility.yul\":16898:16991   */\n      tag_333\n        /* \"#utility.yul\":16987:16990   */\n      dup3\n        /* \"#utility.yul\":16898:16991   */\n      tag_194\n      jump\t// in\n    tag_333:\n        /* \"#utility.yul\":17016:17018   */\n      0x40\n        /* \"#utility.yul\":17011:17014   */\n      dup3\n        /* \"#utility.yul\":17007:17019   */\n      add\n        /* \"#utility.yul\":17000:17019   */\n      swap1\n      pop\n        /* \"#utility.yul\":16659:17025   */\n      swap2\n      swap1\n      pop\n      jump\t// out\n        /* \"#utility.yul\":17031:17450   */\n    tag_141:\n        /* \"#utility.yul\":17197:17201   */\n      0x00\n        /* \"#utility.yul\":17235:17237   */\n      0x20\n        /* \"#utility.yul\":17224:17233   */\n      dup3\n        /* \"#utility.yul\":17220:17238   */\n      add\n        /* \"#utility.yul\":17212:17238   */\n      swap1\n      pop\n        /* \"#utility.yul\":17284:17293   */\n      dup2\n        /* \"#utility.yul\":17278:17282   */\n      dup2\n        /* \"#utility.yul\":17274:17294   */\n      sub\n        /* \"#utility.yul\":17270:17271   */\n      0x00\n        /* \"#utility.yul\":17259:17268   */\n      dup4\n        /* \"#utility.yul\":17255:17272   */\n      add\n        /* \"#utility.yul\":17248:17295   */\n      mstore\n        /* \"#utility.yul\":17312:17443   */\n      tag_335\n        /* \"#utility.yul\":17438:17442   */\n      dup2\n        /* \"#utility.yul\":17312:17443   */\n      tag_195\n      jump\t// in\n    tag_335:\n        /* \"#utility.yul\":17304:17443   */\n      swap1\n      pop\n        /* \"#utility.yul\":17031:17450   */\n      swap2\n      swap1\n      pop\n      jump\t// out\n        /* \"#utility.yul\":17456:17627   */\n    tag_196:\n        /* \"#utility.yul\":17596:17619   */\n      0x5468652041756374696f6e2068617320656e6465640000000000000000000000\n        /* \"#utility.yul\":17592:17593   */\n      0x00\n        /* \"#utility.yul\":17584:17590   */\n      dup3\n        /* \"#utility.yul\":17580:17594   */\n      add\n        /* \"#utility.yul\":17573:17620   */\n      mstore\n        /* \"#utility.yul\":17456:17627   */\n      pop\n      jump\t// out\n        /* \"#utility.yul\":17633:17999   */\n    tag_197:\n        /* \"#utility.yul\":17775:17778   */\n      0x00\n        /* \"#utility.yul\":17796:17863   */\n      tag_338\n        /* \"#utility.yul\":17860:17862   */\n      0x15\n        /* \"#utility.yul\":17855:17858   */\n      dup4\n        /* \"#utility.yul\":17796:17863   */\n      tag_168\n      jump\t// in\n    tag_338:\n        /* \"#utility.yul\":17789:17863   */\n      swap2\n      pop\n        /* \"#utility.yul\":17872:17965   */\n      tag_339\n        /* \"#utility.yul\":17961:17964   */\n      dup3\n        /* \"#utility.yul\":17872:17965   */\n      tag_196\n      jump\t// in\n    tag_339:\n        /* \"#utility.yul\":17990:17992   */\n      0x20\n        /* \"#utility.yul\":17985:17988   */\n      dup3\n        /* \"#utility.yul\":17981:17993   */\n      add\n        /* \"#utility.yul\":17974:17993   */\n      swap1\n      pop\n        /* \"#utility.yul\":17633:17999   */\n      swap2\n      swap1\n      pop\n      jump\t// out\n        /* \"#utility.yul\":18005:18424   */\n    tag_145:\n        /* \"#utility.yul\":18171:18175   */\n      0x00\n        /* \"#utility.yul\":18209:18211   */\n      0x20\n        /* \"#utility.yul\":18198:18207   */\n      dup3\n        /* \"#utility.yul\":18194:18212   */\n      add\n        /* \"#utility.yul\":18186:18212   */\n      swap1\n      pop\n        /* \"#utility.yul\":18258:18267   */\n      dup2\n        /* \"#utility.yul\":18252:18256   */\n      dup2\n        /* \"#utility.yul\":18248:18268   */\n      sub\n        /* \"#utility.yul\":18244:18245   */\n      0x00\n        /* \"#utility.yul\":18233:18242   */\n      dup4\n        /* \"#utility.yul\":18229:18246   */\n      add\n        /* \"#utility.yul\":18222:18269   */\n      mstore\n        /* \"#utility.yul\":18286:18417   */\n      tag_341\n        /* \"#utility.yul\":18412:18416   */\n      dup2\n        /* \"#utility.yul\":18286:18417   */\n      tag_197\n      jump\t// in\n    tag_341:\n        /* \"#utility.yul\":18278:18417   */\n      swap1\n      pop\n        /* \"#utility.yul\":18005:18424   */\n      swap2\n      swap1\n      pop\n      jump\t// out\n\n    auxdata: 0xa264697066735822122057dba72857520fb227fcfd520a16bf75a9d19131b3576e087cfc94ba606f7eb364736f6c634300081e0033\n}\n",
				"bytecode": {
					"linkReferences": {},
					"object": "608060405260015f5f6101000a81548160ff021916908315150217905550348015610028575f5ffd5b50604051611ac6380380611ac6833981810160405281019061004a9190610243565b805f60016101000a81548173ffffffffffffffffffffffffffffffffffffffff021916908373ffffffffffffffffffffffffffffffffffffffff1602179055503360015f6101000a81548173ffffffffffffffffffffffffffffffffffffffff021916908373ffffffffffffffffffffffffffffffffffffffff1602179055505f86146100d757856100da565b60055b6002819055505f85146100ed57846100f0565b60025b6003819055505f831461010f57603c8361010a91906102f9565b610113565b6102585b6006819055505f821461013257603c8261012d91906102f9565b610136565b6102585b6007819055506001841015610180576040517f08c379a0000000000000000000000000000000000000000000000000000000008152600401610177906103ba565b60405180910390fd5b42600481905550603c8461019491906102f9565b6004546101a191906103d8565b60058190555050505050505061040b565b5f5ffd5b5f819050919050565b6101c8816101b6565b81146101d2575f5ffd5b50565b5f815190506101e3816101bf565b92915050565b5f73ffffffffffffffffffffffffffffffffffffffff82169050919050565b5f610212826101e9565b9050919050565b61022281610208565b811461022c575f5ffd5b50565b5f8151905061023d81610219565b92915050565b5f5f5f5f5f5f60c0878903121561025d5761025c6101b2565b5b5f61026a89828a016101d5565b965050602061027b89828a016101d5565b955050604061028c89828a016101d5565b945050606061029d89828a016101d5565b93505060806102ae89828a016101d5565b92505060a06102bf89828a0161022f565b9150509295509295509295565b7f4e487b71000000000000000000000000000000000000000000000000000000005f52601160045260245ffd5b5f610303826101b6565b915061030e836101b6565b925082820261031c816101b6565b91508282048414831517610333576103326102cc565b5b5092915050565b5f82825260208201905092915050565b7f4475726174696f6e206d757374206265206174206c656173742031206d696e755f8201527f7465000000000000000000000000000000000000000000000000000000000000602082015250565b5f6103a460228361033a565b91506103af8261034a565b604082019050919050565b5f6020820190508181035f8301526103d181610398565b9050919050565b5f6103e2826101b6565b91506103ed836101b6565b9250828201905080821115610405576104046102cc565b5b92915050565b6116ae806104185f395ff3fe60806040526004361061009b575f3560e01c80638da5cb5b116100635780638da5cb5b146101495780638e7ea5b214610173578063b0051dab1461019d578063e76320de146101a7578063f400a3d7146101d1578063ffa68839146101fb5761009b565b806308551a531461009f5780634dd40dd5146100c95780636a7798ee146100df578063837b2779146100f55780638d0f6da31461011f575b5f5ffd5b3480156100aa575f5ffd5b506100b3610225565b6040516100c09190610e49565b60405180910390f35b3480156100d4575f5ffd5b506100dd61024a565b005b3480156100ea575f5ffd5b506100f36104b4565b005b348015610100575f5ffd5b50610109610915565b6040516101169190610e7a565b60405180910390f35b34801561012a575f5ffd5b5061013361091b565b6040516101409190610f86565b60405180910390f35b348015610154575f5ffd5b5061015d6109d5565b60405161016a9190610e49565b60405180910390f35b34801561017e575f5ffd5b506101876109fa565b6040516101949190610fd3565b60405180910390f35b6101a5610ab6565b005b3480156101b2575f5ffd5b506101bb610dca565b6040516101c89190610e7a565b60405180910390f35b3480156101dc575f5ffd5b506101e5610dd0565b6040516101f29190610e7a565b60405180910390f35b348015610206575f5ffd5b5061020f610dd6565b60405161021c9190610e7a565b60405180910390f35b5f60019054906101000a900473ffffffffffffffffffffffffffffffffffffffff1681565b600115155f5f9054906101000a900460ff1615151461029e576040517f08c379a000000000000000000000000000000000000000000000000000000000815260040161029590611046565b60405180910390fd5b5f60085f3373ffffffffffffffffffffffffffffffffffffffff1673ffffffffffffffffffffffffffffffffffffffff1681526020019081526020015f205490505f60095f3373ffffffffffffffffffffffffffffffffffffffff1673ffffffffffffffffffffffffffffffffffffffff1681526020019081526020015f205490505f8103610362576040517f08c379a0000000000000000000000000000000000000000000000000000000008152600401610359906110ae565b60405180910390fd5b8082036103a4576040517f08c379a000000000000000000000000000000000000000000000000000000000815260040161039b9061113c565b60405180910390fd5b5f82826103b19190611187565b90508060095f3373ffffffffffffffffffffffffffffffffffffffff1673ffffffffffffffffffffffffffffffffffffffff1681526020019081526020015f205f8282546103ff9190611187565b925050819055505f3373ffffffffffffffffffffffffffffffffffffffff168260405161042b906111e7565b5f6040518083038185875af1925050503d805f8114610465576040519150601f19603f3d011682016040523d82523d5f602084013e61046a565b606091505b50509050806104ae576040517f08c379a00000000000000000000000000000000000000000000000000000000081526004016104a590611245565b60405180910390fd5b50505050565b600115155f5f9054906101000a900460ff16151514610508576040517f08c379a00000000000000000000000000000000000000000000000000000000081526004016104ff90611046565b60405180910390fd5b600554421161054c576040517f08c379a0000000000000000000000000000000000000000000000000000000008152600401610543906112ad565b60405180910390fd5b60015f9054906101000a900473ffffffffffffffffffffffffffffffffffffffff1673ffffffffffffffffffffffffffffffffffffffff163373ffffffffffffffffffffffffffffffffffffffff16146105db576040517f08c379a00000000000000000000000000000000000000000000000000000000081526004016105d29061133b565b60405180910390fd5b5f5f5f6101000a81548160ff0219169083151502179055505f5f90505f5f90505f5f5f90505b600a805490508110156108d757600a818154811061062257610621611359565b5b905f5260205f2090600202015f015f9054906101000a900473ffffffffffffffffffffffffffffffffffffffff16915060095f8373ffffffffffffffffffffffffffffffffffffffff1673ffffffffffffffffffffffffffffffffffffffff1681526020019081526020015f205493505f60095f8473ffffffffffffffffffffffffffffffffffffffff1673ffffffffffffffffffffffffffffffffffffffff1681526020019081526020015f2081905550600b5f015f9054906101000a900473ffffffffffffffffffffffffffffffffffffffff1673ffffffffffffffffffffffffffffffffffffffff168273ffffffffffffffffffffffffffffffffffffffff16146107ff5760646003548561073a9190611386565b61074491906113f4565b8461074f9190611187565b92505f8273ffffffffffffffffffffffffffffffffffffffff1684604051610776906111e7565b5f6040518083038185875af1925050503d805f81146107b0576040519150601f19603f3d011682016040523d82523d5f602084013e6107b5565b606091505b50509050806107f9576040517f08c379a00000000000000000000000000000000000000000000000000000000081526004016107f090611245565b60405180910390fd5b506108ca565b5f5f60019054906101000a900473ffffffffffffffffffffffffffffffffffffffff1673ffffffffffffffffffffffffffffffffffffffff1685604051610845906111e7565b5f6040518083038185875af1925050503d805f811461087f576040519150601f19603f3d011682016040523d82523d5f602084013e610884565b606091505b50509050806108c8576040517f08c379a00000000000000000000000000000000000000000000000000000000081526004016108bf9061146e565b60405180910390fd5b505b8080600101915050610601565b507fc897af1a6c31cb1cd7da48799ad3df24bb1a795f8dddece56892eb57b93563ce600b6040516109089190611536565b60405180910390a1505050565b60025481565b6060600a805480602002602001604051908101604052809291908181526020015f905b828210156109cc578382905f5260205f2090600202016040518060400160405290815f82015f9054906101000a900473ffffffffffffffffffffffffffffffffffffffff1673ffffffffffffffffffffffffffffffffffffffff1673ffffffffffffffffffffffffffffffffffffffff1681526020016001820154815250508152602001906001019061093e565b50505050905090565b60015f9054906101000a900473ffffffffffffffffffffffffffffffffffffffff1681565b610a02610ddc565b6005544211610a46576040517f08c379a0000000000000000000000000000000000000000000000000000000008152600401610a3d906112ad565b60405180910390fd5b600b6040518060400160405290815f82015f9054906101000a900473ffffffffffffffffffffffffffffffffffffffff1673ffffffffffffffffffffffffffffffffffffffff1673ffffffffffffffffffffffffffffffffffffffff168152602001600182015481525050905090565b600115155f5f9054906101000a900460ff16151514610b0a576040517f08c379a0000000000000000000000000000000000000000000000000000000008152600401610b0190611046565b60405180910390fd5b346002546064610b1a919061154f565b600b60010154610b2a9190611386565b606482610b379190611386565b1015610b78576040517f08c379a0000000000000000000000000000000000000000000000000000000008152600401610b6f906115f2565b60405180910390fd5b6005544210610bbc576040517f08c379a0000000000000000000000000000000000000000000000000000000008152600401610bb39061165a565b60405180910390fd5b600b60010154341115610dc7573460085f3373ffffffffffffffffffffffffffffffffffffffff1673ffffffffffffffffffffffffffffffffffffffff1681526020019081526020015f20819055503460095f3373ffffffffffffffffffffffffffffffffffffffff1673ffffffffffffffffffffffffffffffffffffffff1681526020019081526020015f205f828254610c57919061154f565b92505081905550600a60405180604001604052803373ffffffffffffffffffffffffffffffffffffffff16815260200134815250908060018154018082558091505060019003905f5260205f2090600202015f909190919091505f820151815f015f6101000a81548173ffffffffffffffffffffffffffffffffffffffff021916908373ffffffffffffffffffffffffffffffffffffffff16021790555060208201518160010155505034600b6001018190555033600b5f015f6101000a81548173ffffffffffffffffffffffffffffffffffffffff021916908373ffffffffffffffffffffffffffffffffffffffff1602179055503373ffffffffffffffffffffffffffffffffffffffff167f058d619527549e88853c641ebcec23205e5df61592e3908275721b5ad490113f34604051610d939190610e7a565b60405180910390a2600754600554610dab9190611187565b4210610dc65760065442610dbf919061154f565b6005819055505b5b50565b60035481565b60055481565b60045481565b60405180604001604052805f73ffffffffffffffffffffffffffffffffffffffff1681526020015f81525090565b5f73ffffffffffffffffffffffffffffffffffffffff82169050919050565b5f610e3382610e0a565b9050919050565b610e4381610e29565b82525050565b5f602082019050610e5c5f830184610e3a565b92915050565b5f819050919050565b610e7481610e62565b82525050565b5f602082019050610e8d5f830184610e6b565b92915050565b5f81519050919050565b5f82825260208201905092915050565b5f819050602082019050919050565b610ec581610e29565b82525050565b610ed481610e62565b82525050565b604082015f820151610eee5f850182610ebc565b506020820151610f016020850182610ecb565b50505050565b5f610f128383610eda565b60408301905092915050565b5f602082019050919050565b5f610f3482610e93565b610f3e8185610e9d565b9350610f4983610ead565b805f5b83811015610f79578151610f608882610f07565b9750610f6b83610f1e565b925050600181019050610f4c565b5085935050505092915050565b5f6020820190508181035f830152610f9e8184610f2a565b905092915050565b604082015f820151610fba5f850182610ebc565b506020820151610fcd6020850182610ecb565b50505050565b5f604082019050610fe65f830184610fa6565b92915050565b5f82825260208201905092915050565b7f5468652041756374696f6e206973206e6f74206c6f6e676572206163746976655f82015250565b5f611030602083610fec565b915061103b82610ffc565b602082019050919050565b5f6020820190508181035f83015261105d81611024565b9050919050565b7f4e6f206269647320776572652072656365697665642066726f6d20796f7500005f82015250565b5f611098601e83610fec565b91506110a382611064565b602082019050919050565b5f6020820190508181035f8301526110c58161108c565b9050919050565b7f5468657265206973206e6f207061727469616c20616d6f756e7420746f2072655f8201527f66756e6400000000000000000000000000000000000000000000000000000000602082015250565b5f611126602483610fec565b9150611131826110cc565b604082019050919050565b5f6020820190508181035f8301526111538161111a565b9050919050565b7f4e487b71000000000000000000000000000000000000000000000000000000005f52601160045260245ffd5b5f61119182610e62565b915061119c83610e62565b92508282039050818111156111b4576111b361115a565b5b92915050565b5f81905092915050565b50565b5f6111d25f836111ba565b91506111dd826111c4565b5f82019050919050565b5f6111f1826111c7565b9150819050919050565b7f4661696c656420746f20726566756e64000000000000000000000000000000005f82015250565b5f61122f601083610fec565b915061123a826111fb565b602082019050919050565b5f6020820190508181035f83015261125c81611223565b9050919050565b7f5468652041756374696f6e20686173206e6f7420656e646564000000000000005f82015250565b5f611297601983610fec565b91506112a282611263565b602082019050919050565b5f6020820190508181035f8301526112c48161128b565b9050919050565b7f4f6e6c7920746865204f776e65722063616e20656e64207468652041756374695f8201527f6f6e000000000000000000000000000000000000000000000000000000000000602082015250565b5f611325602283610fec565b9150611330826112cb565b604082019050919050565b5f6020820190508181035f83015261135281611319565b9050919050565b7f4e487b71000000000000000000000000000000000000000000000000000000005f52603260045260245ffd5b5f61139082610e62565b915061139b83610e62565b92508282026113a981610e62565b915082820484148315176113c0576113bf61115a565b5b5092915050565b7f4e487b71000000000000000000000000000000000000000000000000000000005f52601260045260245ffd5b5f6113fe82610e62565b915061140983610e62565b925082611419576114186113c7565b5b828204905092915050565b7f4661696c656420746f207472616e666572207072697a650000000000000000005f82015250565b5f611458601783610fec565b915061146382611424565b602082019050919050565b5f6020820190508181035f8301526114858161144c565b9050919050565b5f815f1c9050919050565b5f73ffffffffffffffffffffffffffffffffffffffff82169050919050565b5f6114c86114c38361148c565b611497565b9050919050565b5f819050919050565b5f6114ea6114e58361148c565b6114cf565b9050919050565b604082015f5f8301549050611505816114b6565b6115115f860182610ebc565b5060018301549050611522816114d8565b61152f6020860182610ecb565b5050505050565b5f6040820190506115495f8301846114f1565b92915050565b5f61155982610e62565b915061156483610e62565b925082820190508082111561157c5761157b61115a565b5b92915050565b7f54686520616d6f756e74206973206e6f7420686967686572207468616e2074685f8201527f6520676170000000000000000000000000000000000000000000000000000000602082015250565b5f6115dc602583610fec565b91506115e782611582565b604082019050919050565b5f6020820190508181035f830152611609816115d0565b9050919050565b7f5468652041756374696f6e2068617320656e64656400000000000000000000005f82015250565b5f611644601583610fec565b915061164f82611610565b602082019050919050565b5f6020820190508181035f83015261167181611638565b905091905056fea264697066735822122057dba72857520fb227fcfd520a16bf75a9d19131b3576e087cfc94ba606f7eb364736f6c634300081e0033",
					"opcodes": "PUSH1 0x80 PUSH1 0x40 MSTORE PUSH1 0x1 PUSH0 PUSH0 PUSH2 0x100 EXP DUP2 SLOAD DUP2 PUSH1 0xFF MUL NOT AND SWAP1 DUP4 ISZERO ISZERO MUL OR SWAP1 SSTORE POP CALLVALUE DUP1 ISZERO PUSH2 0x28 JUMPI PUSH0 PUSH0 REVERT JUMPDEST POP PUSH1 0x40 MLOAD PUSH2 0x1AC6 CODESIZE SUB DUP1 PUSH2 0x1AC6 DUP4 CODECOPY DUP2 DUP2 ADD PUSH1 0x40 MSTORE DUP2 ADD SWAP1 PUSH2 0x4A SWAP2 SWAP1 PUSH2 0x243 JUMP JUMPDEST DUP1 PUSH0 PUSH1 0x1 PUSH2 0x100 EXP DUP2 SLOAD DUP2 PUSH20 0xFFFFFFFFFFFFFFFFFFFFFFFFFFFFFFFFFFFFFFFF MUL NOT AND SWAP1 DUP4 PUSH20 0xFFFFFFFFFFFFFFFFFFFFFFFFFFFFFFFFFFFFFFFF AND MUL OR SWAP1 SSTORE POP CALLER PUSH1 0x1 PUSH0 PUSH2 0x100 EXP DUP2 SLOAD DUP2 PUSH20 0xFFFFFFFFFFFFFFFFFFFFFFFFFFFFFFFFFFFFFFFF MUL NOT AND SWAP1 DUP4 PUSH20 0xFFFFFFFFFFFFFFFFFFFFFFFFFFFFFFFFFFFFFFFF AND MUL OR SWAP1 SSTORE POP PUSH0 DUP7 EQ PUSH2 0xD7 JUMPI DUP6 PUSH2 0xDA JUMP JUMPDEST PUSH1 0x5 JUMPDEST PUSH1 0x2 DUP2 SWAP1 SSTORE POP PUSH0 DUP6 EQ PUSH2 0xED JUMPI DUP5 PUSH2 0xF0 JUMP JUMPDEST PUSH1 0x2 JUMPDEST PUSH1 0x3 DUP2 SWAP1 SSTORE POP PUSH0 DUP4 EQ PUSH2 0x10F JUMPI PUSH1 0x3C DUP4 PUSH2 0x10A SWAP2 SWAP1 PUSH2 0x2F9 JUMP JUMPDEST PUSH2 0x113 JUMP JUMPDEST PUSH2 0x258 JUMPDEST PUSH1 0x6 DUP2 SWAP1 SSTORE POP PUSH0 DUP3 EQ PUSH2 0x132 JUMPI PUSH1 0x3C DUP3 PUSH2 0x12D SWAP2 SWAP1 PUSH2 0x2F9 JUMP JUMPDEST PUSH2 0x136 JUMP JUMPDEST PUSH2 0x258 JUMPDEST PUSH1 0x7 DUP2 SWAP1 SSTORE POP PUSH1 0x1 DUP5 LT ISZERO PUSH2 0x180 JUMPI PUSH1 0x40 MLOAD PUSH32 0x8C379A000000000000000000000000000000000000000000000000000000000 DUP2 MSTORE PUSH1 0x4 ADD PUSH2 0x177 SWAP1 PUSH2 0x3BA JUMP JUMPDEST PUSH1 0x40 MLOAD DUP1 SWAP2 SUB SWAP1 REVERT JUMPDEST TIMESTAMP PUSH1 0x4 DUP2 SWAP1 SSTORE POP PUSH1 0x3C DUP5 PUSH2 0x194 SWAP2 SWAP1 PUSH2 0x2F9 JUMP JUMPDEST PUSH1 0x4 SLOAD PUSH2 0x1A1 SWAP2 SWAP1 PUSH2 0x3D8 JUMP JUMPDEST PUSH1 0x5 DUP2 SWAP1 SSTORE POP POP POP POP POP POP POP PUSH2 0x40B JUMP JUMPDEST PUSH0 PUSH0 REVERT JUMPDEST PUSH0 DUP2 SWAP1 POP SWAP2 SWAP1 POP JUMP JUMPDEST PUSH2 0x1C8 DUP2 PUSH2 0x1B6 JUMP JUMPDEST DUP2 EQ PUSH2 0x1D2 JUMPI PUSH0 PUSH0 REVERT JUMPDEST POP JUMP JUMPDEST PUSH0 DUP2 MLOAD SWAP1 POP PUSH2 0x1E3 DUP2 PUSH2 0x1BF JUMP JUMPDEST SWAP3 SWAP2 POP POP JUMP JUMPDEST PUSH0 PUSH20 0xFFFFFFFFFFFFFFFFFFFFFFFFFFFFFFFFFFFFFFFF DUP3 AND SWAP1 POP SWAP2 SWAP1 POP JUMP JUMPDEST PUSH0 PUSH2 0x212 DUP3 PUSH2 0x1E9 JUMP JUMPDEST SWAP1 POP SWAP2 SWAP1 POP JUMP JUMPDEST PUSH2 0x222 DUP2 PUSH2 0x208 JUMP JUMPDEST DUP2 EQ PUSH2 0x22C JUMPI PUSH0 PUSH0 REVERT JUMPDEST POP JUMP JUMPDEST PUSH0 DUP2 MLOAD SWAP1 POP PUSH2 0x23D DUP2 PUSH2 0x219 JUMP JUMPDEST SWAP3 SWAP2 POP POP JUMP JUMPDEST PUSH0 PUSH0 PUSH0 PUSH0 PUSH0 PUSH0 PUSH1 0xC0 DUP8 DUP10 SUB SLT ISZERO PUSH2 0x25D JUMPI PUSH2 0x25C PUSH2 0x1B2 JUMP JUMPDEST JUMPDEST PUSH0 PUSH2 0x26A DUP10 DUP3 DUP11 ADD PUSH2 0x1D5 JUMP JUMPDEST SWAP7 POP POP PUSH1 0x20 PUSH2 0x27B DUP10 DUP3 DUP11 ADD PUSH2 0x1D5 JUMP JUMPDEST SWAP6 POP POP PUSH1 0x40 PUSH2 0x28C DUP10 DUP3 DUP11 ADD PUSH2 0x1D5 JUMP JUMPDEST SWAP5 POP POP PUSH1 0x60 PUSH2 0x29D DUP10 DUP3 DUP11 ADD PUSH2 0x1D5 JUMP JUMPDEST SWAP4 POP POP PUSH1 0x80 PUSH2 0x2AE DUP10 DUP3 DUP11 ADD PUSH2 0x1D5 JUMP JUMPDEST SWAP3 POP POP PUSH1 0xA0 PUSH2 0x2BF DUP10 DUP3 DUP11 ADD PUSH2 0x22F JUMP JUMPDEST SWAP2 POP POP SWAP3 SWAP6 POP SWAP3 SWAP6 POP SWAP3 SWAP6 JUMP JUMPDEST PUSH32 0x4E487B7100000000000000000000000000000000000000000000000000000000 PUSH0 MSTORE PUSH1 0x11 PUSH1 0x4 MSTORE PUSH1 0x24 PUSH0 REVERT JUMPDEST PUSH0 PUSH2 0x303 DUP3 PUSH2 0x1B6 JUMP JUMPDEST SWAP2 POP PUSH2 0x30E DUP4 PUSH2 0x1B6 JUMP JUMPDEST SWAP3 POP DUP3 DUP3 MUL PUSH2 0x31C DUP2 PUSH2 0x1B6 JUMP JUMPDEST SWAP2 POP DUP3 DUP3 DIV DUP5 EQ DUP4 ISZERO OR PUSH2 0x333 JUMPI PUSH2 0x332 PUSH2 0x2CC JUMP JUMPDEST JUMPDEST POP SWAP3 SWAP2 POP POP JUMP JUMPDEST PUSH0 DUP3 DUP3 MSTORE PUSH1 0x20 DUP3 ADD SWAP1 POP SWAP3 SWAP2 POP POP JUMP JUMPDEST PUSH32 0x4475726174696F6E206D757374206265206174206C656173742031206D696E75 PUSH0 DUP3 ADD MSTORE PUSH32 0x7465000000000000000000000000000000000000000000000000000000000000 PUSH1 0x20 DUP3 ADD MSTORE POP JUMP JUMPDEST PUSH0 PUSH2 0x3A4 PUSH1 0x22 DUP4 PUSH2 0x33A JUMP JUMPDEST SWAP2 POP PUSH2 0x3AF DUP3 PUSH2 0x34A JUMP JUMPDEST PUSH1 0x40 DUP3 ADD SWAP1 POP SWAP2 SWAP1 POP JUMP JUMPDEST PUSH0 PUSH1 0x20 DUP3 ADD SWAP1 POP DUP2 DUP2 SUB PUSH0 DUP4 ADD MSTORE PUSH2 0x3D1 DUP2 PUSH2 0x398 JUMP JUMPDEST SWAP1 POP SWAP2 SWAP1 POP JUMP JUMPDEST PUSH0 PUSH2 0x3E2 DUP3 PUSH2 0x1B6 JUMP JUMPDEST SWAP2 POP PUSH2 0x3ED DUP4 PUSH2 0x1B6 JUMP JUMPDEST SWAP3 POP DUP3 DUP3 ADD SWAP1 POP DUP1 DUP3 GT ISZERO PUSH2 0x405 JUMPI PUSH2 0x404 PUSH2 0x2CC JUMP JUMPDEST JUMPDEST SWAP3 SWAP2 POP POP JUMP JUMPDEST PUSH2 0x16AE DUP1 PUSH2 0x418 PUSH0 CODECOPY PUSH0 RETURN INVALID PUSH1 0x80 PUSH1 0x40 MSTORE PUSH1 0x4 CALLDATASIZE LT PUSH2 0x9B JUMPI PUSH0 CALLDATALOAD PUSH1 0xE0 SHR DUP1 PUSH4 0x8DA5CB5B GT PUSH2 0x63 JUMPI DUP1 PUSH4 0x8DA5CB5B EQ PUSH2 0x149 JUMPI DUP1 PUSH4 0x8E7EA5B2 EQ PUSH2 0x173 JUMPI DUP1 PUSH4 0xB0051DAB EQ PUSH2 0x19D JUMPI DUP1 PUSH4 0xE76320DE EQ PUSH2 0x1A7 JUMPI DUP1 PUSH4 0xF400A3D7 EQ PUSH2 0x1D1 JUMPI DUP1 PUSH4 0xFFA68839 EQ PUSH2 0x1FB JUMPI PUSH2 0x9B JUMP JUMPDEST DUP1 PUSH4 0x8551A53 EQ PUSH2 0x9F JUMPI DUP1 PUSH4 0x4DD40DD5 EQ PUSH2 0xC9 JUMPI DUP1 PUSH4 0x6A7798EE EQ PUSH2 0xDF JUMPI DUP1 PUSH4 0x837B2779 EQ PUSH2 0xF5 JUMPI DUP1 PUSH4 0x8D0F6DA3 EQ PUSH2 0x11F JUMPI JUMPDEST PUSH0 PUSH0 REVERT JUMPDEST CALLVALUE DUP1 ISZERO PUSH2 0xAA JUMPI PUSH0 PUSH0 REVERT JUMPDEST POP PUSH2 0xB3 PUSH2 0x225 JUMP JUMPDEST PUSH1 0x40 MLOAD PUSH2 0xC0 SWAP2 SWAP1 PUSH2 0xE49 JUMP JUMPDEST PUSH1 0x40 MLOAD DUP1 SWAP2 SUB SWAP1 RETURN JUMPDEST CALLVALUE DUP1 ISZERO PUSH2 0xD4 JUMPI PUSH0 PUSH0 REVERT JUMPDEST POP PUSH2 0xDD PUSH2 0x24A JUMP JUMPDEST STOP JUMPDEST CALLVALUE DUP1 ISZERO PUSH2 0xEA JUMPI PUSH0 PUSH0 REVERT JUMPDEST POP PUSH2 0xF3 PUSH2 0x4B4 JUMP JUMPDEST STOP JUMPDEST CALLVALUE DUP1 ISZERO PUSH2 0x100 JUMPI PUSH0 PUSH0 REVERT JUMPDEST POP PUSH2 0x109 PUSH2 0x915 JUMP JUMPDEST PUSH1 0x40 MLOAD PUSH2 0x116 SWAP2 SWAP1 PUSH2 0xE7A JUMP JUMPDEST PUSH1 0x40 MLOAD DUP1 SWAP2 SUB SWAP1 RETURN JUMPDEST CALLVALUE DUP1 ISZERO PUSH2 0x12A JUMPI PUSH0 PUSH0 REVERT JUMPDEST POP PUSH2 0x133 PUSH2 0x91B JUMP JUMPDEST PUSH1 0x40 MLOAD PUSH2 0x140 SWAP2 SWAP1 PUSH2 0xF86 JUMP JUMPDEST PUSH1 0x40 MLOAD DUP1 SWAP2 SUB SWAP1 RETURN JUMPDEST CALLVALUE DUP1 ISZERO PUSH2 0x154 JUMPI PUSH0 PUSH0 REVERT JUMPDEST POP PUSH2 0x15D PUSH2 0x9D5 JUMP JUMPDEST PUSH1 0x40 MLOAD PUSH2 0x16A SWAP2 SWAP1 PUSH2 0xE49 JUMP JUMPDEST PUSH1 0x40 MLOAD DUP1 SWAP2 SUB SWAP1 RETURN JUMPDEST CALLVALUE DUP1 ISZERO PUSH2 0x17E JUMPI PUSH0 PUSH0 REVERT JUMPDEST POP PUSH2 0x187 PUSH2 0x9FA JUMP JUMPDEST PUSH1 0x40 MLOAD PUSH2 0x194 SWAP2 SWAP1 PUSH2 0xFD3 JUMP JUMPDEST PUSH1 0x40 MLOAD DUP1 SWAP2 SUB SWAP1 RETURN JUMPDEST PUSH2 0x1A5 PUSH2 0xAB6 JUMP JUMPDEST STOP JUMPDEST CALLVALUE DUP1 ISZERO PUSH2 0x1B2 JUMPI PUSH0 PUSH0 REVERT JUMPDEST POP PUSH2 0x1BB PUSH2 0xDCA JUMP JUMPDEST PUSH1 0x40 MLOAD PUSH2 0x1C8 SWAP2 SWAP1 PUSH2 0xE7A JUMP JUMPDEST PUSH1 0x40 MLOAD DUP1 SWAP2 SUB SWAP1 RETURN JUMPDEST CALLVALUE DUP1 ISZERO PUSH2 0x1DC JUMPI PUSH0 PUSH0 REVERT JUMPDEST POP PUSH2 0x1E5 PUSH2 0xDD0 JUMP JUMPDEST PUSH1 0x40 MLOAD PUSH2 0x1F2 SWAP2 SWAP1 PUSH2 0xE7A JUMP JUMPDEST PUSH1 0x40 MLOAD DUP1 SWAP2 SUB SWAP1 RETURN JUMPDEST CALLVALUE DUP1 ISZERO PUSH2 0x206 JUMPI PUSH0 PUSH0 REVERT JUMPDEST POP PUSH2 0x20F PUSH2 0xDD6 JUMP JUMPDEST PUSH1 0x40 MLOAD PUSH2 0x21C SWAP2 SWAP1 PUSH2 0xE7A JUMP JUMPDEST PUSH1 0x40 MLOAD DUP1 SWAP2 SUB SWAP1 RETURN JUMPDEST PUSH0 PUSH1 0x1 SWAP1 SLOAD SWAP1 PUSH2 0x100 EXP SWAP1 DIV PUSH20 0xFFFFFFFFFFFFFFFFFFFFFFFFFFFFFFFFFFFFFFFF AND DUP2 JUMP JUMPDEST PUSH1 0x1 ISZERO ISZERO PUSH0 PUSH0 SWAP1 SLOAD SWAP1 PUSH2 0x100 EXP SWAP1 DIV PUSH1 0xFF AND ISZERO ISZERO EQ PUSH2 0x29E JUMPI PUSH1 0x40 MLOAD PUSH32 0x8C379A000000000000000000000000000000000000000000000000000000000 DUP2 MSTORE PUSH1 0x4 ADD PUSH2 0x295 SWAP1 PUSH2 0x1046 JUMP JUMPDEST PUSH1 0x40 MLOAD DUP1 SWAP2 SUB SWAP1 REVERT JUMPDEST PUSH0 PUSH1 0x8 PUSH0 CALLER PUSH20 0xFFFFFFFFFFFFFFFFFFFFFFFFFFFFFFFFFFFFFFFF AND PUSH20 0xFFFFFFFFFFFFFFFFFFFFFFFFFFFFFFFFFFFFFFFF AND DUP2 MSTORE PUSH1 0x20 ADD SWAP1 DUP2 MSTORE PUSH1 0x20 ADD PUSH0 KECCAK256 SLOAD SWAP1 POP PUSH0 PUSH1 0x9 PUSH0 CALLER PUSH20 0xFFFFFFFFFFFFFFFFFFFFFFFFFFFFFFFFFFFFFFFF AND PUSH20 0xFFFFFFFFFFFFFFFFFFFFFFFFFFFFFFFFFFFFFFFF AND DUP2 MSTORE PUSH1 0x20 ADD SWAP1 DUP2 MSTORE PUSH1 0x20 ADD PUSH0 KECCAK256 SLOAD SWAP1 POP PUSH0 DUP2 SUB PUSH2 0x362 JUMPI PUSH1 0x40 MLOAD PUSH32 0x8C379A000000000000000000000000000000000000000000000000000000000 DUP2 MSTORE PUSH1 0x4 ADD PUSH2 0x359 SWAP1 PUSH2 0x10AE JUMP JUMPDEST PUSH1 0x40 MLOAD DUP1 SWAP2 SUB SWAP1 REVERT JUMPDEST DUP1 DUP3 SUB PUSH2 0x3A4 JUMPI PUSH1 0x40 MLOAD PUSH32 0x8C379A000000000000000000000000000000000000000000000000000000000 DUP2 MSTORE PUSH1 0x4 ADD PUSH2 0x39B SWAP1 PUSH2 0x113C JUMP JUMPDEST PUSH1 0x40 MLOAD DUP1 SWAP2 SUB SWAP1 REVERT JUMPDEST PUSH0 DUP3 DUP3 PUSH2 0x3B1 SWAP2 SWAP1 PUSH2 0x1187 JUMP JUMPDEST SWAP1 POP DUP1 PUSH1 0x9 PUSH0 CALLER PUSH20 0xFFFFFFFFFFFFFFFFFFFFFFFFFFFFFFFFFFFFFFFF AND PUSH20 0xFFFFFFFFFFFFFFFFFFFFFFFFFFFFFFFFFFFFFFFF AND DUP2 MSTORE PUSH1 0x20 ADD SWAP1 DUP2 MSTORE PUSH1 0x20 ADD PUSH0 KECCAK256 PUSH0 DUP3 DUP3 SLOAD PUSH2 0x3FF SWAP2 SWAP1 PUSH2 0x1187 JUMP JUMPDEST SWAP3 POP POP DUP2 SWAP1 SSTORE POP PUSH0 CALLER PUSH20 0xFFFFFFFFFFFFFFFFFFFFFFFFFFFFFFFFFFFFFFFF AND DUP3 PUSH1 0x40 MLOAD PUSH2 0x42B SWAP1 PUSH2 0x11E7 JUMP JUMPDEST PUSH0 PUSH1 0x40 MLOAD DUP1 DUP4 SUB DUP2 DUP6 DUP8 GAS CALL SWAP3 POP POP POP RETURNDATASIZE DUP1 PUSH0 DUP2 EQ PUSH2 0x465 JUMPI PUSH1 0x40 MLOAD SWAP2 POP PUSH1 0x1F NOT PUSH1 0x3F RETURNDATASIZE ADD AND DUP3 ADD PUSH1 0x40 MSTORE RETURNDATASIZE DUP3 MSTORE RETURNDATASIZE PUSH0 PUSH1 0x20 DUP5 ADD RETURNDATACOPY PUSH2 0x46A JUMP JUMPDEST PUSH1 0x60 SWAP2 POP JUMPDEST POP POP SWAP1 POP DUP1 PUSH2 0x4AE JUMPI PUSH1 0x40 MLOAD PUSH32 0x8C379A000000000000000000000000000000000000000000000000000000000 DUP2 MSTORE PUSH1 0x4 ADD PUSH2 0x4A5 SWAP1 PUSH2 0x1245 JUMP JUMPDEST PUSH1 0x40 MLOAD DUP1 SWAP2 SUB SWAP1 REVERT JUMPDEST POP POP POP POP JUMP JUMPDEST PUSH1 0x1 ISZERO ISZERO PUSH0 PUSH0 SWAP1 SLOAD SWAP1 PUSH2 0x100 EXP SWAP1 DIV PUSH1 0xFF AND ISZERO ISZERO EQ PUSH2 0x508 JUMPI PUSH1 0x40 MLOAD PUSH32 0x8C379A000000000000000000000000000000000000000000000000000000000 DUP2 MSTORE PUSH1 0x4 ADD PUSH2 0x4FF SWAP1 PUSH2 0x1046 JUMP JUMPDEST PUSH1 0x40 MLOAD DUP1 SWAP2 SUB SWAP1 REVERT JUMPDEST PUSH1 0x5 SLOAD TIMESTAMP GT PUSH2 0x54C JUMPI PUSH1 0x40 MLOAD PUSH32 0x8C379A000000000000000000000000000000000000000000000000000000000 DUP2 MSTORE PUSH1 0x4 ADD PUSH2 0x543 SWAP1 PUSH2 0x12AD JUMP JUMPDEST PUSH1 0x40 MLOAD DUP1 SWAP2 SUB SWAP1 REVERT JUMPDEST PUSH1 0x1 PUSH0 SWAP1 SLOAD SWAP1 PUSH2 0x100 EXP SWAP1 DIV PUSH20 0xFFFFFFFFFFFFFFFFFFFFFFFFFFFFFFFFFFFFFFFF AND PUSH20 0xFFFFFFFFFFFFFFFFFFFFFFFFFFFFFFFFFFFFFFFF AND CALLER PUSH20 0xFFFFFFFFFFFFFFFFFFFFFFFFFFFFFFFFFFFFFFFF AND EQ PUSH2 0x5DB JUMPI PUSH1 0x40 MLOAD PUSH32 0x8C379A000000000000000000000000000000000000000000000000000000000 DUP2 MSTORE PUSH1 0x4 ADD PUSH2 0x5D2 SWAP1 PUSH2 0x133B JUMP JUMPDEST PUSH1 0x40 MLOAD DUP1 SWAP2 SUB SWAP1 REVERT JUMPDEST PUSH0 PUSH0 PUSH0 PUSH2 0x100 EXP DUP2 SLOAD DUP2 PUSH1 0xFF MUL NOT AND SWAP1 DUP4 ISZERO ISZERO MUL OR SWAP1 SSTORE POP PUSH0 PUSH0 SWAP1 POP PUSH0 PUSH0 SWAP1 POP PUSH0 PUSH0 PUSH0 SWAP1 POP JUMPDEST PUSH1 0xA DUP1 SLOAD SWAP1 POP DUP2 LT ISZERO PUSH2 0x8D7 JUMPI PUSH1 0xA DUP2 DUP2 SLOAD DUP2 LT PUSH2 0x622 JUMPI PUSH2 0x621 PUSH2 0x1359 JUMP JUMPDEST JUMPDEST SWAP1 PUSH0 MSTORE PUSH1 0x20 PUSH0 KECCAK256 SWAP1 PUSH1 0x2 MUL ADD PUSH0 ADD PUSH0 SWAP1 SLOAD SWAP1 PUSH2 0x100 EXP SWAP1 DIV PUSH20 0xFFFFFFFFFFFFFFFFFFFFFFFFFFFFFFFFFFFFFFFF AND SWAP2 POP PUSH1 0x9 PUSH0 DUP4 PUSH20 0xFFFFFFFFFFFFFFFFFFFFFFFFFFFFFFFFFFFFFFFF AND PUSH20 0xFFFFFFFFFFFFFFFFFFFFFFFFFFFFFFFFFFFFFFFF AND DUP2 MSTORE PUSH1 0x20 ADD SWAP1 DUP2 MSTORE PUSH1 0x20 ADD PUSH0 KECCAK256 SLOAD SWAP4 POP PUSH0 PUSH1 0x9 PUSH0 DUP5 PUSH20 0xFFFFFFFFFFFFFFFFFFFFFFFFFFFFFFFFFFFFFFFF AND PUSH20 0xFFFFFFFFFFFFFFFFFFFFFFFFFFFFFFFFFFFFFFFF AND DUP2 MSTORE PUSH1 0x20 ADD SWAP1 DUP2 MSTORE PUSH1 0x20 ADD PUSH0 KECCAK256 DUP2 SWAP1 SSTORE POP PUSH1 0xB PUSH0 ADD PUSH0 SWAP1 SLOAD SWAP1 PUSH2 0x100 EXP SWAP1 DIV PUSH20 0xFFFFFFFFFFFFFFFFFFFFFFFFFFFFFFFFFFFFFFFF AND PUSH20 0xFFFFFFFFFFFFFFFFFFFFFFFFFFFFFFFFFFFFFFFF AND DUP3 PUSH20 0xFFFFFFFFFFFFFFFFFFFFFFFFFFFFFFFFFFFFFFFF AND EQ PUSH2 0x7FF JUMPI PUSH1 0x64 PUSH1 0x3 SLOAD DUP6 PUSH2 0x73A SWAP2 SWAP1 PUSH2 0x1386 JUMP JUMPDEST PUSH2 0x744 SWAP2 SWAP1 PUSH2 0x13F4 JUMP JUMPDEST DUP5 PUSH2 0x74F SWAP2 SWAP1 PUSH2 0x1187 JUMP JUMPDEST SWAP3 POP PUSH0 DUP3 PUSH20 0xFFFFFFFFFFFFFFFFFFFFFFFFFFFFFFFFFFFFFFFF AND DUP5 PUSH1 0x40 MLOAD PUSH2 0x776 SWAP1 PUSH2 0x11E7 JUMP JUMPDEST PUSH0 PUSH1 0x40 MLOAD DUP1 DUP4 SUB DUP2 DUP6 DUP8 GAS CALL SWAP3 POP POP POP RETURNDATASIZE DUP1 PUSH0 DUP2 EQ PUSH2 0x7B0 JUMPI PUSH1 0x40 MLOAD SWAP2 POP PUSH1 0x1F NOT PUSH1 0x3F RETURNDATASIZE ADD AND DUP3 ADD PUSH1 0x40 MSTORE RETURNDATASIZE DUP3 MSTORE RETURNDATASIZE PUSH0 PUSH1 0x20 DUP5 ADD RETURNDATACOPY PUSH2 0x7B5 JUMP JUMPDEST PUSH1 0x60 SWAP2 POP JUMPDEST POP POP SWAP1 POP DUP1 PUSH2 0x7F9 JUMPI PUSH1 0x40 MLOAD PUSH32 0x8C379A000000000000000000000000000000000000000000000000000000000 DUP2 MSTORE PUSH1 0x4 ADD PUSH2 0x7F0 SWAP1 PUSH2 0x1245 JUMP JUMPDEST PUSH1 0x40 MLOAD DUP1 SWAP2 SUB SWAP1 REVERT JUMPDEST POP PUSH2 0x8CA JUMP JUMPDEST PUSH0 PUSH0 PUSH1 0x1 SWAP1 SLOAD SWAP1 PUSH2 0x100 EXP SWAP1 DIV PUSH20 0xFFFFFFFFFFFFFFFFFFFFFFFFFFFFFFFFFFFFFFFF AND PUSH20 0xFFFFFFFFFFFFFFFFFFFFFFFFFFFFFFFFFFFFFFFF AND DUP6 PUSH1 0x40 MLOAD PUSH2 0x845 SWAP1 PUSH2 0x11E7 JUMP JUMPDEST PUSH0 PUSH1 0x40 MLOAD DUP1 DUP4 SUB DUP2 DUP6 DUP8 GAS CALL SWAP3 POP POP POP RETURNDATASIZE DUP1 PUSH0 DUP2 EQ PUSH2 0x87F JUMPI PUSH1 0x40 MLOAD SWAP2 POP PUSH1 0x1F NOT PUSH1 0x3F RETURNDATASIZE ADD AND DUP3 ADD PUSH1 0x40 MSTORE RETURNDATASIZE DUP3 MSTORE RETURNDATASIZE PUSH0 PUSH1 0x20 DUP5 ADD RETURNDATACOPY PUSH2 0x884 JUMP JUMPDEST PUSH1 0x60 SWAP2 POP JUMPDEST POP POP SWAP1 POP DUP1 PUSH2 0x8C8 JUMPI PUSH1 0x40 MLOAD PUSH32 0x8C379A000000000000000000000000000000000000000000000000000000000 DUP2 MSTORE PUSH1 0x4 ADD PUSH2 0x8BF SWAP1 PUSH2 0x146E JUMP JUMPDEST PUSH1 0x40 MLOAD DUP1 SWAP2 SUB SWAP1 REVERT JUMPDEST POP JUMPDEST DUP1 DUP1 PUSH1 0x1 ADD SWAP2 POP POP PUSH2 0x601 JUMP JUMPDEST POP PUSH32 0xC897AF1A6C31CB1CD7DA48799AD3DF24BB1A795F8DDDECE56892EB57B93563CE PUSH1 0xB PUSH1 0x40 MLOAD PUSH2 0x908 SWAP2 SWAP1 PUSH2 0x1536 JUMP JUMPDEST PUSH1 0x40 MLOAD DUP1 SWAP2 SUB SWAP1 LOG1 POP POP POP JUMP JUMPDEST PUSH1 0x2 SLOAD DUP2 JUMP JUMPDEST PUSH1 0x60 PUSH1 0xA DUP1 SLOAD DUP1 PUSH1 0x20 MUL PUSH1 0x20 ADD PUSH1 0x40 MLOAD SWAP1 DUP2 ADD PUSH1 0x40 MSTORE DUP1 SWAP3 SWAP2 SWAP1 DUP2 DUP2 MSTORE PUSH1 0x20 ADD PUSH0 SWAP1 JUMPDEST DUP3 DUP3 LT ISZERO PUSH2 0x9CC JUMPI DUP4 DUP3 SWAP1 PUSH0 MSTORE PUSH1 0x20 PUSH0 KECCAK256 SWAP1 PUSH1 0x2 MUL ADD PUSH1 0x40 MLOAD DUP1 PUSH1 0x40 ADD PUSH1 0x40 MSTORE SWAP1 DUP2 PUSH0 DUP3 ADD PUSH0 SWAP1 SLOAD SWAP1 PUSH2 0x100 EXP SWAP1 DIV PUSH20 0xFFFFFFFFFFFFFFFFFFFFFFFFFFFFFFFFFFFFFFFF AND PUSH20 0xFFFFFFFFFFFFFFFFFFFFFFFFFFFFFFFFFFFFFFFF AND PUSH20 0xFFFFFFFFFFFFFFFFFFFFFFFFFFFFFFFFFFFFFFFF AND DUP2 MSTORE PUSH1 0x20 ADD PUSH1 0x1 DUP3 ADD SLOAD DUP2 MSTORE POP POP DUP2 MSTORE PUSH1 0x20 ADD SWAP1 PUSH1 0x1 ADD SWAP1 PUSH2 0x93E JUMP JUMPDEST POP POP POP POP SWAP1 POP SWAP1 JUMP JUMPDEST PUSH1 0x1 PUSH0 SWAP1 SLOAD SWAP1 PUSH2 0x100 EXP SWAP1 DIV PUSH20 0xFFFFFFFFFFFFFFFFFFFFFFFFFFFFFFFFFFFFFFFF AND DUP2 JUMP JUMPDEST PUSH2 0xA02 PUSH2 0xDDC JUMP JUMPDEST PUSH1 0x5 SLOAD TIMESTAMP GT PUSH2 0xA46 JUMPI PUSH1 0x40 MLOAD PUSH32 0x8C379A000000000000000000000000000000000000000000000000000000000 DUP2 MSTORE PUSH1 0x4 ADD PUSH2 0xA3D SWAP1 PUSH2 0x12AD JUMP JUMPDEST PUSH1 0x40 MLOAD DUP1 SWAP2 SUB SWAP1 REVERT JUMPDEST PUSH1 0xB PUSH1 0x40 MLOAD DUP1 PUSH1 0x40 ADD PUSH1 0x40 MSTORE SWAP1 DUP2 PUSH0 DUP3 ADD PUSH0 SWAP1 SLOAD SWAP1 PUSH2 0x100 EXP SWAP1 DIV PUSH20 0xFFFFFFFFFFFFFFFFFFFFFFFFFFFFFFFFFFFFFFFF AND PUSH20 0xFFFFFFFFFFFFFFFFFFFFFFFFFFFFFFFFFFFFFFFF AND PUSH20 0xFFFFFFFFFFFFFFFFFFFFFFFFFFFFFFFFFFFFFFFF AND DUP2 MSTORE PUSH1 0x20 ADD PUSH1 0x1 DUP3 ADD SLOAD DUP2 MSTORE POP POP SWAP1 POP SWAP1 JUMP JUMPDEST PUSH1 0x1 ISZERO ISZERO PUSH0 PUSH0 SWAP1 SLOAD SWAP1 PUSH2 0x100 EXP SWAP1 DIV PUSH1 0xFF AND ISZERO ISZERO EQ PUSH2 0xB0A JUMPI PUSH1 0x40 MLOAD PUSH32 0x8C379A000000000000000000000000000000000000000000000000000000000 DUP2 MSTORE PUSH1 0x4 ADD PUSH2 0xB01 SWAP1 PUSH2 0x1046 JUMP JUMPDEST PUSH1 0x40 MLOAD DUP1 SWAP2 SUB SWAP1 REVERT JUMPDEST CALLVALUE PUSH1 0x2 SLOAD PUSH1 0x64 PUSH2 0xB1A SWAP2 SWAP1 PUSH2 0x154F JUMP JUMPDEST PUSH1 0xB PUSH1 0x1 ADD SLOAD PUSH2 0xB2A SWAP2 SWAP1 PUSH2 0x1386 JUMP JUMPDEST PUSH1 0x64 DUP3 PUSH2 0xB37 SWAP2 SWAP1 PUSH2 0x1386 JUMP JUMPDEST LT ISZERO PUSH2 0xB78 JUMPI PUSH1 0x40 MLOAD PUSH32 0x8C379A000000000000000000000000000000000000000000000000000000000 DUP2 MSTORE PUSH1 0x4 ADD PUSH2 0xB6F SWAP1 PUSH2 0x15F2 JUMP JUMPDEST PUSH1 0x40 MLOAD DUP1 SWAP2 SUB SWAP1 REVERT JUMPDEST PUSH1 0x5 SLOAD TIMESTAMP LT PUSH2 0xBBC JUMPI PUSH1 0x40 MLOAD PUSH32 0x8C379A000000000000000000000000000000000000000000000000000000000 DUP2 MSTORE PUSH1 0x4 ADD PUSH2 0xBB3 SWAP1 PUSH2 0x165A JUMP JUMPDEST PUSH1 0x40 MLOAD DUP1 SWAP2 SUB SWAP1 REVERT JUMPDEST PUSH1 0xB PUSH1 0x1 ADD SLOAD CALLVALUE GT ISZERO PUSH2 0xDC7 JUMPI CALLVALUE PUSH1 0x8 PUSH0 CALLER PUSH20 0xFFFFFFFFFFFFFFFFFFFFFFFFFFFFFFFFFFFFFFFF AND PUSH20 0xFFFFFFFFFFFFFFFFFFFFFFFFFFFFFFFFFFFFFFFF AND DUP2 MSTORE PUSH1 0x20 ADD SWAP1 DUP2 MSTORE PUSH1 0x20 ADD PUSH0 KECCAK256 DUP2 SWAP1 SSTORE POP CALLVALUE PUSH1 0x9 PUSH0 CALLER PUSH20 0xFFFFFFFFFFFFFFFFFFFFFFFFFFFFFFFFFFFFFFFF AND PUSH20 0xFFFFFFFFFFFFFFFFFFFFFFFFFFFFFFFFFFFFFFFF AND DUP2 MSTORE PUSH1 0x20 ADD SWAP1 DUP2 MSTORE PUSH1 0x20 ADD PUSH0 KECCAK256 PUSH0 DUP3 DUP3 SLOAD PUSH2 0xC57 SWAP2 SWAP1 PUSH2 0x154F JUMP JUMPDEST SWAP3 POP POP DUP2 SWAP1 SSTORE POP PUSH1 0xA PUSH1 0x40 MLOAD DUP1 PUSH1 0x40 ADD PUSH1 0x40 MSTORE DUP1 CALLER PUSH20 0xFFFFFFFFFFFFFFFFFFFFFFFFFFFFFFFFFFFFFFFF AND DUP2 MSTORE PUSH1 0x20 ADD CALLVALUE DUP2 MSTORE POP SWAP1 DUP1 PUSH1 0x1 DUP2 SLOAD ADD DUP1 DUP3 SSTORE DUP1 SWAP2 POP POP PUSH1 0x1 SWAP1 SUB SWAP1 PUSH0 MSTORE PUSH1 0x20 PUSH0 KECCAK256 SWAP1 PUSH1 0x2 MUL ADD PUSH0 SWAP1 SWAP2 SWAP1 SWAP2 SWAP1 SWAP2 POP PUSH0 DUP3 ADD MLOAD DUP2 PUSH0 ADD PUSH0 PUSH2 0x100 EXP DUP2 SLOAD DUP2 PUSH20 0xFFFFFFFFFFFFFFFFFFFFFFFFFFFFFFFFFFFFFFFF MUL NOT AND SWAP1 DUP4 PUSH20 0xFFFFFFFFFFFFFFFFFFFFFFFFFFFFFFFFFFFFFFFF AND MUL OR SWAP1 SSTORE POP PUSH1 0x20 DUP3 ADD MLOAD DUP2 PUSH1 0x1 ADD SSTORE POP POP CALLVALUE PUSH1 0xB PUSH1 0x1 ADD DUP2 SWAP1 SSTORE POP CALLER PUSH1 0xB PUSH0 ADD PUSH0 PUSH2 0x100 EXP DUP2 SLOAD DUP2 PUSH20 0xFFFFFFFFFFFFFFFFFFFFFFFFFFFFFFFFFFFFFFFF MUL NOT AND SWAP1 DUP4 PUSH20 0xFFFFFFFFFFFFFFFFFFFFFFFFFFFFFFFFFFFFFFFF AND MUL OR SWAP1 SSTORE POP CALLER PUSH20 0xFFFFFFFFFFFFFFFFFFFFFFFFFFFFFFFFFFFFFFFF AND PUSH32 0x58D619527549E88853C641EBCEC23205E5DF61592E3908275721B5AD490113F CALLVALUE PUSH1 0x40 MLOAD PUSH2 0xD93 SWAP2 SWAP1 PUSH2 0xE7A JUMP JUMPDEST PUSH1 0x40 MLOAD DUP1 SWAP2 SUB SWAP1 LOG2 PUSH1 0x7 SLOAD PUSH1 0x5 SLOAD PUSH2 0xDAB SWAP2 SWAP1 PUSH2 0x1187 JUMP JUMPDEST TIMESTAMP LT PUSH2 0xDC6 JUMPI PUSH1 0x6 SLOAD TIMESTAMP PUSH2 0xDBF SWAP2 SWAP1 PUSH2 0x154F JUMP JUMPDEST PUSH1 0x5 DUP2 SWAP1 SSTORE POP JUMPDEST JUMPDEST POP JUMP JUMPDEST PUSH1 0x3 SLOAD DUP2 JUMP JUMPDEST PUSH1 0x5 SLOAD DUP2 JUMP JUMPDEST PUSH1 0x4 SLOAD DUP2 JUMP JUMPDEST PUSH1 0x40 MLOAD DUP1 PUSH1 0x40 ADD PUSH1 0x40 MSTORE DUP1 PUSH0 PUSH20 0xFFFFFFFFFFFFFFFFFFFFFFFFFFFFFFFFFFFFFFFF AND DUP2 MSTORE PUSH1 0x20 ADD PUSH0 DUP2 MSTORE POP SWAP1 JUMP JUMPDEST PUSH0 PUSH20 0xFFFFFFFFFFFFFFFFFFFFFFFFFFFFFFFFFFFFFFFF DUP3 AND SWAP1 POP SWAP2 SWAP1 POP JUMP JUMPDEST PUSH0 PUSH2 0xE33 DUP3 PUSH2 0xE0A JUMP JUMPDEST SWAP1 POP SWAP2 SWAP1 POP JUMP JUMPDEST PUSH2 0xE43 DUP2 PUSH2 0xE29 JUMP JUMPDEST DUP3 MSTORE POP POP JUMP JUMPDEST PUSH0 PUSH1 0x20 DUP3 ADD SWAP1 POP PUSH2 0xE5C PUSH0 DUP4 ADD DUP5 PUSH2 0xE3A JUMP JUMPDEST SWAP3 SWAP2 POP POP JUMP JUMPDEST PUSH0 DUP2 SWAP1 POP SWAP2 SWAP1 POP JUMP JUMPDEST PUSH2 0xE74 DUP2 PUSH2 0xE62 JUMP JUMPDEST DUP3 MSTORE POP POP JUMP JUMPDEST PUSH0 PUSH1 0x20 DUP3 ADD SWAP1 POP PUSH2 0xE8D PUSH0 DUP4 ADD DUP5 PUSH2 0xE6B JUMP JUMPDEST SWAP3 SWAP2 POP POP JUMP JUMPDEST PUSH0 DUP2 MLOAD SWAP1 POP SWAP2 SWAP1 POP JUMP JUMPDEST PUSH0 DUP3 DUP3 MSTORE PUSH1 0x20 DUP3 ADD SWAP1 POP SWAP3 SWAP2 POP POP JUMP JUMPDEST PUSH0 DUP2 SWAP1 POP PUSH1 0x20 DUP3 ADD SWAP1 POP SWAP2 SWAP1 POP JUMP JUMPDEST PUSH2 0xEC5 DUP2 PUSH2 0xE29 JUMP JUMPDEST DUP3 MSTORE POP POP JUMP JUMPDEST PUSH2 0xED4 DUP2 PUSH2 0xE62 JUMP JUMPDEST DUP3 MSTORE POP POP JUMP JUMPDEST PUSH1 0x40 DUP3 ADD PUSH0 DUP3 ADD MLOAD PUSH2 0xEEE PUSH0 DUP6 ADD DUP3 PUSH2 0xEBC JUMP JUMPDEST POP PUSH1 0x20 DUP3 ADD MLOAD PUSH2 0xF01 PUSH1 0x20 DUP6 ADD DUP3 PUSH2 0xECB JUMP JUMPDEST POP POP POP POP JUMP JUMPDEST PUSH0 PUSH2 0xF12 DUP4 DUP4 PUSH2 0xEDA JUMP JUMPDEST PUSH1 0x40 DUP4 ADD SWAP1 POP SWAP3 SWAP2 POP POP JUMP JUMPDEST PUSH0 PUSH1 0x20 DUP3 ADD SWAP1 POP SWAP2 SWAP1 POP JUMP JUMPDEST PUSH0 PUSH2 0xF34 DUP3 PUSH2 0xE93 JUMP JUMPDEST PUSH2 0xF3E DUP2 DUP6 PUSH2 0xE9D JUMP JUMPDEST SWAP4 POP PUSH2 0xF49 DUP4 PUSH2 0xEAD JUMP JUMPDEST DUP1 PUSH0 JUMPDEST DUP4 DUP2 LT ISZERO PUSH2 0xF79 JUMPI DUP2 MLOAD PUSH2 0xF60 DUP9 DUP3 PUSH2 0xF07 JUMP JUMPDEST SWAP8 POP PUSH2 0xF6B DUP4 PUSH2 0xF1E JUMP JUMPDEST SWAP3 POP POP PUSH1 0x1 DUP2 ADD SWAP1 POP PUSH2 0xF4C JUMP JUMPDEST POP DUP6 SWAP4 POP POP POP POP SWAP3 SWAP2 POP POP JUMP JUMPDEST PUSH0 PUSH1 0x20 DUP3 ADD SWAP1 POP DUP2 DUP2 SUB PUSH0 DUP4 ADD MSTORE PUSH2 0xF9E DUP2 DUP5 PUSH2 0xF2A JUMP JUMPDEST SWAP1 POP SWAP3 SWAP2 POP POP JUMP JUMPDEST PUSH1 0x40 DUP3 ADD PUSH0 DUP3 ADD MLOAD PUSH2 0xFBA PUSH0 DUP6 ADD DUP3 PUSH2 0xEBC JUMP JUMPDEST POP PUSH1 0x20 DUP3 ADD MLOAD PUSH2 0xFCD PUSH1 0x20 DUP6 ADD DUP3 PUSH2 0xECB JUMP JUMPDEST POP POP POP POP JUMP JUMPDEST PUSH0 PUSH1 0x40 DUP3 ADD SWAP1 POP PUSH2 0xFE6 PUSH0 DUP4 ADD DUP5 PUSH2 0xFA6 JUMP JUMPDEST SWAP3 SWAP2 POP POP JUMP JUMPDEST PUSH0 DUP3 DUP3 MSTORE PUSH1 0x20 DUP3 ADD SWAP1 POP SWAP3 SWAP2 POP POP JUMP JUMPDEST PUSH32 0x5468652041756374696F6E206973206E6F74206C6F6E67657220616374697665 PUSH0 DUP3 ADD MSTORE POP JUMP JUMPDEST PUSH0 PUSH2 0x1030 PUSH1 0x20 DUP4 PUSH2 0xFEC JUMP JUMPDEST SWAP2 POP PUSH2 0x103B DUP3 PUSH2 0xFFC JUMP JUMPDEST PUSH1 0x20 DUP3 ADD SWAP1 POP SWAP2 SWAP1 POP JUMP JUMPDEST PUSH0 PUSH1 0x20 DUP3 ADD SWAP1 POP DUP2 DUP2 SUB PUSH0 DUP4 ADD MSTORE PUSH2 0x105D DUP2 PUSH2 0x1024 JUMP JUMPDEST SWAP1 POP SWAP2 SWAP1 POP JUMP JUMPDEST PUSH32 0x4E6F206269647320776572652072656365697665642066726F6D20796F750000 PUSH0 DUP3 ADD MSTORE POP JUMP JUMPDEST PUSH0 PUSH2 0x1098 PUSH1 0x1E DUP4 PUSH2 0xFEC JUMP JUMPDEST SWAP2 POP PUSH2 0x10A3 DUP3 PUSH2 0x1064 JUMP JUMPDEST PUSH1 0x20 DUP3 ADD SWAP1 POP SWAP2 SWAP1 POP JUMP JUMPDEST PUSH0 PUSH1 0x20 DUP3 ADD SWAP1 POP DUP2 DUP2 SUB PUSH0 DUP4 ADD MSTORE PUSH2 0x10C5 DUP2 PUSH2 0x108C JUMP JUMPDEST SWAP1 POP SWAP2 SWAP1 POP JUMP JUMPDEST PUSH32 0x5468657265206973206E6F207061727469616C20616D6F756E7420746F207265 PUSH0 DUP3 ADD MSTORE PUSH32 0x66756E6400000000000000000000000000000000000000000000000000000000 PUSH1 0x20 DUP3 ADD MSTORE POP JUMP JUMPDEST PUSH0 PUSH2 0x1126 PUSH1 0x24 DUP4 PUSH2 0xFEC JUMP JUMPDEST SWAP2 POP PUSH2 0x1131 DUP3 PUSH2 0x10CC JUMP JUMPDEST PUSH1 0x40 DUP3 ADD SWAP1 POP SWAP2 SWAP1 POP JUMP JUMPDEST PUSH0 PUSH1 0x20 DUP3 ADD SWAP1 POP DUP2 DUP2 SUB PUSH0 DUP4 ADD MSTORE PUSH2 0x1153 DUP2 PUSH2 0x111A JUMP JUMPDEST SWAP1 POP SWAP2 SWAP1 POP JUMP JUMPDEST PUSH32 0x4E487B7100000000000000000000000000000000000000000000000000000000 PUSH0 MSTORE PUSH1 0x11 PUSH1 0x4 MSTORE PUSH1 0x24 PUSH0 REVERT JUMPDEST PUSH0 PUSH2 0x1191 DUP3 PUSH2 0xE62 JUMP JUMPDEST SWAP2 POP PUSH2 0x119C DUP4 PUSH2 0xE62 JUMP JUMPDEST SWAP3 POP DUP3 DUP3 SUB SWAP1 POP DUP2 DUP2 GT ISZERO PUSH2 0x11B4 JUMPI PUSH2 0x11B3 PUSH2 0x115A JUMP JUMPDEST JUMPDEST SWAP3 SWAP2 POP POP JUMP JUMPDEST PUSH0 DUP2 SWAP1 POP SWAP3 SWAP2 POP POP JUMP JUMPDEST POP JUMP JUMPDEST PUSH0 PUSH2 0x11D2 PUSH0 DUP4 PUSH2 0x11BA JUMP JUMPDEST SWAP2 POP PUSH2 0x11DD DUP3 PUSH2 0x11C4 JUMP JUMPDEST PUSH0 DUP3 ADD SWAP1 POP SWAP2 SWAP1 POP JUMP JUMPDEST PUSH0 PUSH2 0x11F1 DUP3 PUSH2 0x11C7 JUMP JUMPDEST SWAP2 POP DUP2 SWAP1 POP SWAP2 SWAP1 POP JUMP JUMPDEST PUSH32 0x4661696C656420746F20726566756E6400000000000000000000000000000000 PUSH0 DUP3 ADD MSTORE POP JUMP JUMPDEST PUSH0 PUSH2 0x122F PUSH1 0x10 DUP4 PUSH2 0xFEC JUMP JUMPDEST SWAP2 POP PUSH2 0x123A DUP3 PUSH2 0x11FB JUMP JUMPDEST PUSH1 0x20 DUP3 ADD SWAP1 POP SWAP2 SWAP1 POP JUMP JUMPDEST PUSH0 PUSH1 0x20 DUP3 ADD SWAP1 POP DUP2 DUP2 SUB PUSH0 DUP4 ADD MSTORE PUSH2 0x125C DUP2 PUSH2 0x1223 JUMP JUMPDEST SWAP1 POP SWAP2 SWAP1 POP JUMP JUMPDEST PUSH32 0x5468652041756374696F6E20686173206E6F7420656E64656400000000000000 PUSH0 DUP3 ADD MSTORE POP JUMP JUMPDEST PUSH0 PUSH2 0x1297 PUSH1 0x19 DUP4 PUSH2 0xFEC JUMP JUMPDEST SWAP2 POP PUSH2 0x12A2 DUP3 PUSH2 0x1263 JUMP JUMPDEST PUSH1 0x20 DUP3 ADD SWAP1 POP SWAP2 SWAP1 POP JUMP JUMPDEST PUSH0 PUSH1 0x20 DUP3 ADD SWAP1 POP DUP2 DUP2 SUB PUSH0 DUP4 ADD MSTORE PUSH2 0x12C4 DUP2 PUSH2 0x128B JUMP JUMPDEST SWAP1 POP SWAP2 SWAP1 POP JUMP JUMPDEST PUSH32 0x4F6E6C7920746865204F776E65722063616E20656E6420746865204175637469 PUSH0 DUP3 ADD MSTORE PUSH32 0x6F6E000000000000000000000000000000000000000000000000000000000000 PUSH1 0x20 DUP3 ADD MSTORE POP JUMP JUMPDEST PUSH0 PUSH2 0x1325 PUSH1 0x22 DUP4 PUSH2 0xFEC JUMP JUMPDEST SWAP2 POP PUSH2 0x1330 DUP3 PUSH2 0x12CB JUMP JUMPDEST PUSH1 0x40 DUP3 ADD SWAP1 POP SWAP2 SWAP1 POP JUMP JUMPDEST PUSH0 PUSH1 0x20 DUP3 ADD SWAP1 POP DUP2 DUP2 SUB PUSH0 DUP4 ADD MSTORE PUSH2 0x1352 DUP2 PUSH2 0x1319 JUMP JUMPDEST SWAP1 POP SWAP2 SWAP1 POP JUMP JUMPDEST PUSH32 0x4E487B7100000000000000000000000000000000000000000000000000000000 PUSH0 MSTORE PUSH1 0x32 PUSH1 0x4 MSTORE PUSH1 0x24 PUSH0 REVERT JUMPDEST PUSH0 PUSH2 0x1390 DUP3 PUSH2 0xE62 JUMP JUMPDEST SWAP2 POP PUSH2 0x139B DUP4 PUSH2 0xE62 JUMP JUMPDEST SWAP3 POP DUP3 DUP3 MUL PUSH2 0x13A9 DUP2 PUSH2 0xE62 JUMP JUMPDEST SWAP2 POP DUP3 DUP3 DIV DUP5 EQ DUP4 ISZERO OR PUSH2 0x13C0 JUMPI PUSH2 0x13BF PUSH2 0x115A JUMP JUMPDEST JUMPDEST POP SWAP3 SWAP2 POP POP JUMP JUMPDEST PUSH32 0x4E487B7100000000000000000000000000000000000000000000000000000000 PUSH0 MSTORE PUSH1 0x12 PUSH1 0x4 MSTORE PUSH1 0x24 PUSH0 REVERT JUMPDEST PUSH0 PUSH2 0x13FE DUP3 PUSH2 0xE62 JUMP JUMPDEST SWAP2 POP PUSH2 0x1409 DUP4 PUSH2 0xE62 JUMP JUMPDEST SWAP3 POP DUP3 PUSH2 0x1419 JUMPI PUSH2 0x1418 PUSH2 0x13C7 JUMP JUMPDEST JUMPDEST DUP3 DUP3 DIV SWAP1 POP SWAP3 SWAP2 POP POP JUMP JUMPDEST PUSH32 0x4661696C656420746F207472616E666572207072697A65000000000000000000 PUSH0 DUP3 ADD MSTORE POP JUMP JUMPDEST PUSH0 PUSH2 0x1458 PUSH1 0x17 DUP4 PUSH2 0xFEC JUMP JUMPDEST SWAP2 POP PUSH2 0x1463 DUP3 PUSH2 0x1424 JUMP JUMPDEST PUSH1 0x20 DUP3 ADD SWAP1 POP SWAP2 SWAP1 POP JUMP JUMPDEST PUSH0 PUSH1 0x20 DUP3 ADD SWAP1 POP DUP2 DUP2 SUB PUSH0 DUP4 ADD MSTORE PUSH2 0x1485 DUP2 PUSH2 0x144C JUMP JUMPDEST SWAP1 POP SWAP2 SWAP1 POP JUMP JUMPDEST PUSH0 DUP2 PUSH0 SHR SWAP1 POP SWAP2 SWAP1 POP JUMP JUMPDEST PUSH0 PUSH20 0xFFFFFFFFFFFFFFFFFFFFFFFFFFFFFFFFFFFFFFFF DUP3 AND SWAP1 POP SWAP2 SWAP1 POP JUMP JUMPDEST PUSH0 PUSH2 0x14C8 PUSH2 0x14C3 DUP4 PUSH2 0x148C JUMP JUMPDEST PUSH2 0x1497 JUMP JUMPDEST SWAP1 POP SWAP2 SWAP1 POP JUMP JUMPDEST PUSH0 DUP2 SWAP1 POP SWAP2 SWAP1 POP JUMP JUMPDEST PUSH0 PUSH2 0x14EA PUSH2 0x14E5 DUP4 PUSH2 0x148C JUMP JUMPDEST PUSH2 0x14CF JUMP JUMPDEST SWAP1 POP SWAP2 SWAP1 POP JUMP JUMPDEST PUSH1 0x40 DUP3 ADD PUSH0 PUSH0 DUP4 ADD SLOAD SWAP1 POP PUSH2 0x1505 DUP2 PUSH2 0x14B6 JUMP JUMPDEST PUSH2 0x1511 PUSH0 DUP7 ADD DUP3 PUSH2 0xEBC JUMP JUMPDEST POP PUSH1 0x1 DUP4 ADD SLOAD SWAP1 POP PUSH2 0x1522 DUP2 PUSH2 0x14D8 JUMP JUMPDEST PUSH2 0x152F PUSH1 0x20 DUP7 ADD DUP3 PUSH2 0xECB JUMP JUMPDEST POP POP POP POP POP JUMP JUMPDEST PUSH0 PUSH1 0x40 DUP3 ADD SWAP1 POP PUSH2 0x1549 PUSH0 DUP4 ADD DUP5 PUSH2 0x14F1 JUMP JUMPDEST SWAP3 SWAP2 POP POP JUMP JUMPDEST PUSH0 PUSH2 0x1559 DUP3 PUSH2 0xE62 JUMP JUMPDEST SWAP2 POP PUSH2 0x1564 DUP4 PUSH2 0xE62 JUMP JUMPDEST SWAP3 POP DUP3 DUP3 ADD SWAP1 POP DUP1 DUP3 GT ISZERO PUSH2 0x157C JUMPI PUSH2 0x157B PUSH2 0x115A JUMP JUMPDEST JUMPDEST SWAP3 SWAP2 POP POP JUMP JUMPDEST PUSH32 0x54686520616D6F756E74206973206E6F7420686967686572207468616E207468 PUSH0 DUP3 ADD MSTORE PUSH32 0x6520676170000000000000000000000000000000000000000000000000000000 PUSH1 0x20 DUP3 ADD MSTORE POP JUMP JUMPDEST PUSH0 PUSH2 0x15DC PUSH1 0x25 DUP4 PUSH2 0xFEC JUMP JUMPDEST SWAP2 POP PUSH2 0x15E7 DUP3 PUSH2 0x1582 JUMP JUMPDEST PUSH1 0x40 DUP3 ADD SWAP1 POP SWAP2 SWAP1 POP JUMP JUMPDEST PUSH0 PUSH1 0x20 DUP3 ADD SWAP1 POP DUP2 DUP2 SUB PUSH0 DUP4 ADD MSTORE PUSH2 0x1609 DUP2 PUSH2 0x15D0 JUMP JUMPDEST SWAP1 POP SWAP2 SWAP1 POP JUMP JUMPDEST PUSH32 0x5468652041756374696F6E2068617320656E6465640000000000000000000000 PUSH0 DUP3 ADD MSTORE POP JUMP JUMPDEST PUSH0 PUSH2 0x1644 PUSH1 0x15 DUP4 PUSH2 0xFEC JUMP JUMPDEST SWAP2 POP PUSH2 0x164F DUP3 PUSH2 0x1610 JUMP JUMPDEST PUSH1 0x20 DUP3 ADD SWAP1 POP SWAP2 SWAP1 POP JUMP JUMPDEST PUSH0 PUSH1 0x20 DUP3 ADD SWAP1 POP DUP2 DUP2 SUB PUSH0 DUP4 ADD MSTORE PUSH2 0x1671 DUP2 PUSH2 0x1638 JUMP JUMPDEST SWAP1 POP SWAP2 SWAP1 POP JUMP INVALID LOG2 PUSH5 0x6970667358 0x22 SLT KECCAK256 JUMPI 0xDB 0xA7 0x28 JUMPI MSTORE 0xF 0xB2 0x27 0xFC REVERT MSTORE EXP AND 0xBF PUSH22 0xA9D19131B3576E087CFC94BA606F7EB364736F6C6343 STOP ADDMOD 0x1E STOP CALLER "
				},
				"gasEstimates": {
					"creation": {
						"codeDepositCost": "1161200",
						"executionCost": "infinite",
						"totalCost": "infinite"
					},
					"external": {
						"EndAuction()": "infinite",
						"MakeABid()": "infinite",
						"PartialRefund()": "infinite",
						"bidGap()": "2492",
						"finishDate()": "2513",
						"gasCommissionPercentage()": "2491",
						"getAllBids()": "infinite",
						"getWinner()": "7099",
						"initDate()": "2535",
						"owner()": "2508",
						"seller()": "2559"
					}
				},
				"methodIdentifiers": {
					"EndAuction()": "6a7798ee",
					"MakeABid()": "b0051dab",
					"PartialRefund()": "4dd40dd5",
					"bidGap()": "837b2779",
					"finishDate()": "f400a3d7",
					"gasCommissionPercentage()": "e76320de",
					"getAllBids()": "8d0f6da3",
					"getWinner()": "8e7ea5b2",
					"initDate()": "ffa68839",
					"owner()": "8da5cb5b",
					"seller()": "08551a53"
				}
			},
			"storageLayout": {
				"storage": [
					{
						"astId": 4,
						"contract": "contracts/Auction.sol:Auction",
						"label": "active",
						"offset": 0,
						"slot": "0",
						"type": "t_bool"
					},
					{
						"astId": 6,
						"contract": "contracts/Auction.sol:Auction",
						"label": "seller",
						"offset": 1,
						"slot": "0",
						"type": "t_address"
					},
					{
						"astId": 8,
						"contract": "contracts/Auction.sol:Auction",
						"label": "owner",
						"offset": 0,
						"slot": "1",
						"type": "t_address"
					},
					{
						"astId": 10,
						"contract": "contracts/Auction.sol:Auction",
						"label": "bidGap",
						"offset": 0,
						"slot": "2",
						"type": "t_uint256"
					},
					{
						"astId": 12,
						"contract": "contracts/Auction.sol:Auction",
						"label": "gasCommissionPercentage",
						"offset": 0,
						"slot": "3",
						"type": "t_uint256"
					},
					{
						"astId": 14,
						"contract": "contracts/Auction.sol:Auction",
						"label": "initDate",
						"offset": 0,
						"slot": "4",
						"type": "t_uint256"
					},
					{
						"astId": 16,
						"contract": "contracts/Auction.sol:Auction",
						"label": "finishDate",
						"offset": 0,
						"slot": "5",
						"type": "t_uint256"
					},
					{
						"astId": 18,
						"contract": "contracts/Auction.sol:Auction",
						"label": "bidExtensionTime",
						"offset": 0,
						"slot": "6",
						"type": "t_uint256"
					},
					{
						"astId": 20,
						"contract": "contracts/Auction.sol:Auction",
						"label": "bidExtensionZone",
						"offset": 0,
						"slot": "7",
						"type": "t_uint256"
					},
					{
						"astId": 24,
						"contract": "contracts/Auction.sol:Auction",
						"label": "bidAddressLastAmount",
						"offset": 0,
						"slot": "8",
						"type": "t_mapping(t_address,t_uint256)"
					},
					{
						"astId": 28,
						"contract": "contracts/Auction.sol:Auction",
						"label": "bidAddressTotalAmount",
						"offset": 0,
						"slot": "9",
						"type": "t_mapping(t_address,t_uint256)"
					},
					{
						"astId": 37,
						"contract": "contracts/Auction.sol:Auction",
						"label": "bids",
						"offset": 0,
						"slot": "10",
						"type": "t_array(t_struct(Bid)33_storage)dyn_storage"
					},
					{
						"astId": 40,
						"contract": "contracts/Auction.sol:Auction",
						"label": "winnerBid",
						"offset": 0,
						"slot": "11",
						"type": "t_struct(Bid)33_storage"
					}
				],
				"types": {
					"t_address": {
						"encoding": "inplace",
						"label": "address",
						"numberOfBytes": "20"
					},
					"t_array(t_struct(Bid)33_storage)dyn_storage": {
						"base": "t_struct(Bid)33_storage",
						"encoding": "dynamic_array",
						"label": "struct Auction.Bid[]",
						"numberOfBytes": "32"
					},
					"t_bool": {
						"encoding": "inplace",
						"label": "bool",
						"numberOfBytes": "1"
					},
					"t_mapping(t_address,t_uint256)": {
						"encoding": "mapping",
						"key": "t_address",
						"label": "mapping(address => uint256)",
						"numberOfBytes": "32",
						"value": "t_uint256"
					},
					"t_struct(Bid)33_storage": {
						"encoding": "inplace",
						"label": "struct Auction.Bid",
						"members": [
							{
								"astId": 30,
								"contract": "contracts/Auction.sol:Auction",
								"label": "bidder",
								"offset": 0,
								"slot": "0",
								"type": "t_address"
							},
							{
								"astId": 32,
								"contract": "contracts/Auction.sol:Auction",
								"label": "amount",
								"offset": 0,
								"slot": "1",
								"type": "t_uint256"
							}
						],
						"numberOfBytes": "64"
					},
					"t_uint256": {
						"encoding": "inplace",
						"label": "uint256",
						"numberOfBytes": "32"
					}
				}
			},
			"userdoc": {
				"kind": "user",
				"methods": {},
				"version": 1
			}
		}
	}
}